:0200000407FCF7
:100000000080FD072101FC073501FC074F01FC07BB
:100010006901FC076901FC076901FC076901FC072C
:100020000000000000000000000000006901FC0763
:1000300000000000000000006901FC07C556FD0734
:100040006901FC076901FC07E956FD07D956FD0760
:100050006901FC076901FC076901FC076901FC07EC
:100060006901FC076901FC076901FC076901FC07DC
:100070006901FC076901FC076901FC076901FC07CC
:100080006901FC076901FC076901FC076901FC07BC
:100090002555FD076901FC076901FC076901FC079B
:0200000407FCF7
:1000C8000348854600F006F8004800475158FD07E8
:1000D8000080FD07064C0125064E05E0E36807CCC5
:1000E8002B430C3C98471034B442F7D3FFF7ECFF8E
:1000F800B401FC07D401FC0702E008C8121F08C1BC
:10010800002AFAD170477047002001E001C1121F90
:10011800002AFBD170470000034880F3098800F0EB
:1001280025F8FFF7CDFFC0460080FD070420714683
:10013800084203D0EFF309800A490847EFF3088023
:1001480008490847704704207146084203D0EFF376
:10015800098005490847EFF30880034908477047B5
:10016800FEE700004156FD073D56FD070D480621F4
:1001780001800120C1030C4A1160BFF34F8FBFF308
:100188006F8F02211160BFF34F8FBFF36F8F106025
:10019800BFF34F8FBFF36F8F052000070021018049
:1001A80062B670470034005080E100E0D401FC07DB
:1001B800C854FD078C1400000001FC076016FC07FA
:1001C8005469FD07900000001001FC0700280BD0BF
:1001D80000BF00BF00BF00BF00BF00BF00BF00BF1F
:1001E80000BF00BF401EF1D1704770B5044600291A
:1001F80003D000202022012310E0002801D0002095
:10020800C043C046C0460DE02546D5408D4205D3C3
:100218000D469540641B1D46954040191546521ED3
:10022800002DF1DC214670BDFEB5C34C20342048BA
:100238000688012001900005029000271D4D002E20
:1002480034D0042F32D2F0072BD0A889000605D469
:1002580028896989401A4142414100E000210198FA
:10026800B840134A50802889029A134B1A60BFF38A
:100278004F8FBFF36F8F002907D0A989019A914347
:10028800A981A98908229143A9812268002A05D059
:10029800411C606889B200949047009C0298A84964
:1002A80008601035083476087F1CC8E7FEBDC046D4
:1002B800823600500036005080E100E0F8B515465F
:1002C8000E46044600F0CEFC002800D0F8BD1948C0
:1002D8008768022000F008FE00F08CFC032000066E
:1002E800304300F05DFC002000F0FEFDA819B84284
:1002F80000D9BD1B104E28463146FFF776FF07464A
:100308000090002F08D02046314600F053FDA41974
:1003180000F00AFE7F1EF4E7084800994843401998
:1003280005D081B2204600F045FD00F0FDFD00F04B
:1003380053FCF8BDD869FD07FFFF00000100FFFF6F
:10034800FEE700000B48018904220A430281018963
:1003580002220A430281018840220A430280064998
:1003680001220A604189054A11408918091D418105
:100378007047C0460800005080E200E0FC7F0000A3
:10038800B8B50122D0030E4909684901C90D0D49C4
:100398000CD00B886C462380238802251D43954387
:1003A8002580009A02432280009A0A800A886B46B8
:1003B8001A80009A02431A8000980880B8BDC04687
:1003C8000000FC07120000505B48C069002802D0FA
:1003D80001480121417070475469FD0780B5024802
:1003E80000F0B0FD80BDC0460011005080B5024845
:1003F80000F0A8FD80BDC04600100050F8B50B798C
:100408005A01402414401D0180222E4616401F091F
:100418003F02BE193419DB0020261E40A319102400
:100428002C401B190C786400082525405B1906250B
:1004380025405B19CC79E407A40C4D796E08F607C2
:10044800F60C3419ED072D0D64191C4384818B7942
:100458000F2B47D0364BC3180424E3419C1E022CB3
:100468001DD3012B3ED8EFF310830093012383F3B0
:1004780010888E792F4D2F88FFB23F09BE4203D1D5
:100488002C88F02727432F802F880F24A743374332
:100498002F80009C002C1ED083F3108822E0EFF3FD
:1004A80010830093012383F31088224D2C880F2793
:1004B8003C408E79B44202D12C883C432C802C8855
:1004C800F027BC43360126432E80009C002C06D022
:1004D80083F3108806E0002383F3108802E00023EA
:1004E80083F310888B6803801B0C4380CB68838060
:1004F8001B0CC3800B8A5B1E43814B88002B00D1E9
:100508000B8A5B1E03814008382303400A48C01841
:100518004B690362896941620848016811437F2277
:10052800914301600120000505490860F8BDC046F7
:1005380000CAFFAF803600509869FD0714E400E058
:1005480000E100E080B50346402208461946FFF75F
:10055800B5FE80BDBCB0F249488801220092104324
:100568004880FF2001900880EE4808210180801E05
:100578000C910180EC480088C046C046EB480188D1
:1005880007220992914301800521079109070A91E1
:10059800498D89050CD50188E54A0A400799490320
:1005A80051180180018840220A4338218A43028079
:1005B8000A9E7488708C009D284370840D20FFF774
:1005C80005FE7089284302210291884370810A98A8
:1005D800408940060A98FAD54480032420020490F2
:1005E800E830FFF7F3FD0A9840890594A0430A997B
:1005F80048810A9840890006FBD50A98408C0099E2
:1006080088430A460A994884CA4D00272F600A98E9
:10061800408A402420430A994882E14311910A986C
:10062800408A08400A9948826F61C348A86210044A
:100638001090E8620A980088802630430A9908805A
:100648003F200F90FFF7C2FD009828602F600A989E
:10065800408A089420430A9948820A98408A119946
:1006680008400A99488203976F61B348A8621098B6
:10067800E8620A98008830430A9908800F98FFF7C3
:10068800A5FD28680999884328600A9800880D966E
:10069800B0430A9908800A98008A029988430A99FF
:1006A80008820A98808A00070A98FAD50246408A82
:1006B80020210E9108435082A220D082508CA02184
:1006C800014308988143518412A8001D0690EF2029
:1006D800C0430F9099480088800600D4A7E0EFF344
:1006E8001080012484F310880A9A91880D9B19437D
:1006F8009180002802D084F3108802E0002080F363
:1007080010888F4E30888F4DA8890D990843A8818D
:1007180006208D4A108011202880039AAA80A88973
:100728008843A8810598A881B483288A0E9B98439A
:100738002882298A0298814329823284B284102629
:100748007E4D1196AE808149E981AB80F849888356
:10075800F84B0B614A61F84A8A612C8200F002FD6D
:1007680029A800F069FC002824D029A800780128CD
:1007780023D129A800F060FC0F990F46ED37002817
:100788001DD029A806780D4600F056FCEC35002847
:1007980000D180E129A800780002861900D17CE107
:1007A800ED48864200D295E1152000F0DBFC0F9F52
:1007B800EB3704E00F9FEF3701E00F9FEE37E34878
:1007C8008481EFF3108084F310880421E14A1160DA
:1007D800BFF34F8FBFF36F8FE04A11600A9A918879
:1007E8000D9B99439180002802D084F3108802E081
:1007F800002080F31088012F19DB0498D249002FBC
:1008080005D002780A707F1E401C491CF7E7C820F3
:10081800CA490880CA480C990180CD4A119890802D
:100828000020D0810E9991801082FFF7A9FDC82180
:10083800C2480B9101800C98C54A5080C149881D57
:10084800908101259580481DD08008989080081DCA
:1008580050820E989080002706980760476087604E
:10086800878107981082BE48129012AC204600F08B
:100878002DFA00F00AFA1195A804BA4DA86020468E
:1008880000F024FA00F001FA2878002804D100F0DA
:10089800E9F9002800D1BDE011980005AD490860CC
:1008A800BFF34F8FBFF36F8F0998C10319AC0C22A8
:1008B8002046FFF703FD2078702800D0E5E0607837
:1008C800522800D0E1E01A9817901B9918913A9194
:1008D800399039AD3E46022F18D0286829AC2146F8
:1008E800FFF730FEA078AA280DD1207870280AD109
:1008F8006078512807D129A8C0783BA9C855119814
:10090800B840C0B206432D1D7F1CE4E7032E1FD05C
:10091800002E00D1B9E0731E581E8341324629E0EB
:100928000031005002330050420000508200005055
:10093800FF0F00000000F407204F101A003000508D
:100948007C10005000100050C0100050020300003E
:100958003BA948780978FF2903D10028059A009B0C
:1009680008D0002901D1FF2802D08142119B00D371
:100978000023059A002A00D187E01093D8B280009E
:1009880017A90F5819A93846FFF7DCFD3946403139
:100998001A9C6D4D28462246FFF790FC0F98EF30C1
:1009A8001B992A46724D002C09D013784340DBB2BC
:1009B8009B00EB58000A5840521C641EF3E7C043E2
:1009C800814255D000F04EF900281CD100F04AF9B8
:1009D800002818D1002000F087FA062000F098FAC5
:1009E80000F060F900280ED100F045F980070AD51B
:1009F800BC1C022000F078FA11984007204300F050
:100A080087FA00F04FF9032E109B3ED1119843400E
:100A18000026B2E70024204600F066FA00F0EAF863
:100A28009F20514EB0472046B0470006050A204691
:100A3800B047000280B245192046B047C0B22C1812
:100A480000F0CAF8002C00D126E70F9908460C30B0
:100A580000D121E7454A5118F42289588C420146B1
:100A6800F5D142490818E4303E491CC81CC113E7B7
:100A780032480B99018032480C99018000F0C8F87F
:100A8800009800F077F8FFF77BFC00F0C1F8002031
:100A980000F070F81EE62F4691E629A800F0CCFA7F
:100AA800002800D18BE629A8067800F0C5FA0028AE
:100AB8002F4600D183E629A8057800F0BDFA002862
:100AC80033D02802801929A909780904461800D0CA
:100AD80066E669E6062000F045FB039D2F46BE4208
:100AE8000DD016480199018029A800F0A5FA002820
:100AF80015D029980499C85545407F1CEFE7E8B2FE
:100B080000F030FB29A800F097FA00280AD029A89D
:100B18000078062801D00F9EE83637464FE60F9F2B
:100B2800EA374CE60F9FE93749E60F9FE73746E675
:100B38005869FD073D62FD070564FD070031005057
:100B480002330050020300000000FC077C10005034
:100B58000030005080E100E00191000080E200E0F8
:100B680020000003D869FD079D5EFD077064FD073E
:100B78005465FD072549002803D0881E08220280F5
:100B880001E008200880012042020A8108804A808A
:100B980040200880CA81202008808A817047C0468A
:100BA800D9490A8902231343012293430B810B88F5
:100BB800DB0501D5030C8B8013024880088880046C
:100BC800FCD5CA800888184202D08888020400E050
:100BD8000022488810437047D6490A79012090407E
:100BE8000978032900D104214901014A8852704734
:100BF80002300050CF490A79012090400978032932
:100C080000D104214901014A88527047043000503C
:100C1800B0B5EFF31085012484F31088BA48018831
:100C2800A143018061480188064A0A400280FFF713
:100C3800D3FF002D02D084F31088B0BD002080F3CC
:100C48001088B0BDFFF7000080B50548028812077C
:100C5800FCD4B848C268002A01D00846904780BD35
:100C68000812005080B500F006F801210140484202
:100C78000D21884380BD80B5012000F035F905209D
:100C8800000200F045F980B280BD80B5FFF7B2FFE1
:100C9800FFF7A2FF002000F027F9AB2000F038F999
:100CA80080BD0000B0B50025074C611CA94205D0E5
:100CB8006D1CFFF7E0FFC007F7D1691E0020A142B5
:100CC80000D9C043B0BDC0467F841E00F0B589B0CE
:100CD80004468078974E3070E0783071FFF77CFFDB
:100CE800EFF31080012585F31088E9022F4A138855
:100CF8000B431380002802D085F3108802E00020FF
:100D080080F310882078410878220A400E2101409B
:100D1800C007400E4018104361784A07920D10181A
:100D28008909C907490C4018774B1880188903218D
:100D380088431881E06830610195DD806068B060A3
:100D4800A068F0601A4D207CC007284601D02846CC
:100D58002030706102AE002171800422327031822D
:100D6800F1807171627C17017A1D327108910791C7
:100D78000591991C009104913146FFF73FFBF81C3F
:100D88003071207CC00701D0303500E01035019C5F
:100D9800D74800998561059128463146FFF72EFB13
:100DA800594908882043088009B0F0BD0400005064
:100DB80000360050F0B587B00191534B1C88198953
:100DC8000325A94319811988490600D588E001221D
:100DD800E10504904BD411020091C54D6C69AE69D0
:100DE800600838210840039020353E4F2F50700886
:100DF80008400590002102912950009880301988F8
:100E08000140481E81414F0000970620C343A18935
:100E18001940C919A1810498A080010CE1800198AA
:100E2800411E21816181B0894027B843B081B089D2
:100E38001840009BC018B08106A83080000C708054
:100E480031817181B08908218843B081B08910430C
:100E5800B08103982818029B4360A0890843A081A9
:100E6800059828184360A0891043A08138E0E1095B
:100E7800059154030027039002900199BEB28E4257
:100E880025D200265E801E882642FCD0059E2E4074
:100E9800012E07D0002E0FD15E8802980670401CE4
:100EA800029011E05E8828461546049A1680921C26
:100EB80004922A46054607E05E889988090489193C
:100EC800039802C003900199DA807F1CD6E718893D
:100ED8000007FCD401E05888DA8018882042FAD14B
:100EE80007B0F0BD455FFD0710B507490A88012323
:100EF8009A430A800A88054C1440C00120430880A0
:100F080008881843088010BD001200507FFE0000BA
:100F180010B50446FFF76EFE2046FFF741FE044673
:100F2800FFF75AFE204610BD714840698189C907FC
:100F3800FCD170479869FD077548012141707047D9
:100F480070470000F0B585B004468948201A411E54
:100F58008841400182490D1828460E3001902846E4
:100F680018300390284614300090281D0290AE1DBA
:100F780028461030049027467C3720890F210140ED
:100F8800481E0B28F9D8C0467844007940008744A9
:100F98005006052005242C0505050534EDE70298C3
:100FA80000883188814236D28842E6D02289C0231F
:100FB8001340C02B03D13A88920703D4DDE7A28AF5
:100FC8009206DAD54A1C32802B68595C218011467A
:100FD800EAE7204600F09EF8CFE704980268002A66
:100FE800CBD0A08A9E21014004E004980268002A20
:100FF800C3D0012120469047BFE7204600F08AF879
:10100800A08801218843A080039801680029B4D0F2
:10101800019800880BE0A18802229143A180A18851
:1010280080229143A180009909680029A5D08847AA
:10103800A3E705B0F0BDC046FEB50090344A0020D5
:10104800107002905070284C216801239943216048
:10105800FF26300665680540244FED196560A568D0
:1010680001900540A560256802272F432760256861
:101078000427BD43256025681D4325601C481D4D78
:10108800C561374D0098A860EB601B490F60BFF33E
:101098004F8FBFF36F8F1949088818430880088855
:1010A80038430880300416490E688643287F800735
:1010B800000A30180860134807601078002802D129
:1010C80050780028F9D0A06801990840A0602068ED
:1010D8009843206050780028029802D0117800299F
:1010E80000D01846FEBDC04610E000E05FEA0000F0
:1010F8009869FD073562FD0780E100E004100050A3
:1011080000E400E000E100E00148012101707047BF
:101118005469FD07F8B51649411A4A1E914149011B
:101128000F4A5518AB89E9892C46083400950E35C5
:10113800994209D2868AF60710D006884F1C2F805C
:10114800226856543946F3E7828801239A438280FD
:1011580000988269002A01D088B29047F8BDC0463D
:101168005869FD0702498A8A9206FCD508807047AB
:1011780000100050010000001130EF0000000200D4
:10118800020000001230EF0000000400030000001D
:1011980000421F0000000200040000001120C200ED
:1011A80000000200050000001128C2000000020033
:1011B800060000001228C200000004000F00000012
:1011C8001160850000000200100000001140850039
:1011D80000000200130000001264C80000000400B0
:1011E8001400000001431F00000004001500000067
:1011F80001111F00000004001600000002441F0037
:10120800000008001700000008441F000000080044
:101218001800000001841F000000080019000000E9
:101228000C441F00000008001B0000000C451F00B4
:10123800000010001C00000001651F0000000100F4
:101248001D00000001101F00000002001E00000029
:1012580008451F00000010000000000096300777C6
:101268002C610EEEBA51099919C46D078FF46A7092
:1012780035A563E9A395649E3288DB0EA4B8DC79B2
:101288001EE9D5E088D9D2972B4CB609BD7CB17E32
:10129800072DB8E7911DBF906410B71DF220B06A02
:1012A8004871B9F3DE41BE847DD4DA1AEBE4DD6D12
:1012B80051B5D4F4C785D38356986C13C0A86B6412
:1012C8007AF962FDECC9658A4F5C0114D96C066332
:1012D800633D0FFAF50D088DC8206E3B5E10694C12
:1012E800E44160D5727167A2D1E4033C47D4044B52
:1012F800FD850DD26BB50AA5FAA8B5356C98B24232
:10130800D6C9BBDB40F9BCACE36CD832755CDF45B1
:10131800CF0DD6DC593DD1ABAC30D9263A00DE51E1
:101328008051D7C81661D0BFB5F4B42123C4B356D1
:101338009995BACF0FA5BDB89EB802280888055F51
:10134800B2D90CC624E90BB1877C6F2F114C6858B1
:10135800AB1D61C13D2D66B69041DC760671DB019F
:10136800BC20D2982A10D5EF8985B1711FB5B60671
:10137800A5E4BF9F33D4B8E8A2C9077834F9000FB1
:101388008EA8099618980EE1BB0D6A7F2D3D6D0851
:10139800976C6491015C63E6F4516B6B62616C1C41
:1013A800D83065854E0062F2ED95066C7BA5011B71
:1013B800C1F4088257C40FF5C6D9B06550E9B71211
:1013C800EAB8BE8B7C88B9FCDF1DDD62492DDA15D1
:1013D800F37CD38C654CD4FB5861B24DCE51B53AF1
:1013E8007400BCA3E230BBD441A5DF4AD795D83DF1
:1013F8006DC4D1A4FBF4D6D36AE96943FCD96E3431
:10140800468867ADD0B860DA732D0444E51D033310
:101418005F4C0AAAC97C0DDD3C710550AA41022720
:1014280010100BBE86200CC925B56857B3856F20F0
:1014380009D466B99FE461CE0EF9DE5E98C9D92950
:101448002298D0B0B4A8D7C7173DB359810DB42E90
:101458003B5CBDB7AD6CBAC02083B8EDB6B3BF9ADC
:101468000CE2B6039AD2B1743947D5EAAF77D29D68
:101478001526DB048316DC73120B63E3843B649448
:101488003E6A6D0DA85A6A7A0BCF0EE49DFF099348
:1014980027AE000AB19E077D44930FF0D2A30887B8
:1014A80068F2011EFEC206695D5762F7CB67658068
:1014B80071366C19E7066B6E761BD4FEE02BD38968
:1014C8005A7ADA10CC4ADD676FDFB9F9F9EFBE8EC8
:1014D80043BEB717D58EB060E8A3D6D67E93D1A108
:1014E800C4C2D83852F2DF4FF167BBD16757BCA6E8
:1014F800DD06B53F4B36B248DA2B0DD84C1B0AAF88
:10150800F64A0336607A0441C3EF60DF55DF67A807
:10151800EF8E6E3179BE69468CB361CB1A8366BC97
:10152800A0D26F2536E2685295770CCC03470BBBE7
:10153800B91602222F260555BE3BBAC5280BBDB2E7
:10154800925AB42B046AB35CA7FFD7C231CFD0B587
:101558008B9ED92C1DAEDE5BB0C2649B26F263EC79
:101568009CA36A750A936D02A906099C3F360EEB87
:101578008567077213570005824ABF95147AB8E247
:10158800AE2BB17B381BB60C9B8ED2920DBED5E527
:10159800B7EFDC7C21DFDB0BD4D2D38642E2D4F177
:1015A800F8B3DD686E83DA1FCD16BE815B26B9F607
:1015B800E177B06F7747B718E65A0888706A0FFF67
:1015C800CA3B06665C0B0111FF9E658F69AE62F827
:1015D800D3FF6B6145CF6C1678E20AA0EED20DD727
:1015E8005483044EC2B30339612667A7F71660D047
:1015F8004D476949DB776E3E4A6AD1AEDC5AD6D987
:10160800660BDF40F03BD83753AEBCA9C59EBBDEA6
:101618007FCFB247E9FFB5301CF2BDBD8AC2BACA56
:101628003093B353A6A3B4240536D0BA9306D7CDC6
:101638002957DE54BF67D9232E7A66B3B84A61C4E6
:10164800021B685D942B6F2A37BE0BB4A18E0CC3A6
:081658001BDF055A8DEF022D86
:0400000507FC00C92B
:00000001FF
