:0200000407FCF7
:10000000AC72FC07855CFC07995CFC07B35CFC07E1
:10001000CD5CFC07CD5CFC07CD5CFC07CD5CFC0730
:10002000000000000000000000000000CD5CFC07A4
:100030000000000000000000CD5CFC07A119FC07D7
:10004000D915FC076953FC07A526F007A519FC077D
:100050000518FC07CD5CFC078915FC07CD5CFC0787
:100060009515FC07CD5CFC07E516FC07EF16FC07B1
:10007000F916FC070317FC070D17FC074D19FC07C1
:10008000E919FC07CD5CFC07CD5CFC07CD5CFC07E7
:10009000CD5CFC07CD5CFC07CD5CFC07CD5CFC07B0
:0800A00000008E070E000000B5
:0200000407FCF7
:100110000348854601F026FA004800473D3EFC07AB
:10012000AC72FC073EB50D4D6D1E14D002880A421C
:10013000FAD16D1E0FD002880A42FAD0084A13681D
:100140000124234313606D1E05D002880A42FAD1B0
:10015000044A10683EBD00203EBD0000C0C62D0010
:1001600010E000E018E000E0F8B5074601200023A9
:10017000024600901946032049F744F9044602213B
:1001800080300170FF4DFE482A6843881146FF31D8
:10019000F7310B8680884886FB48066A0123DB0618
:1001A0009E431E430662FF320020FF3238325082E7
:1001B0009082D0821D200882F4484884F448C88286
:1001C000F448088300204882384649F75BFC014622
:1001D0002868FF30F730C28B920992010A43C2832C
:1001E000ED48416800208847002C02D0204648F79F
:1001F000F2FC2046F8BDFFB58BB0064616980027E6
:10020000022821D00D9801881498814278D37188F2
:10021000084640383F2802D8159855F7EFFC0C984F
:10022000361D0088149A80190E995EF765FF0C98A8
:100230000188149808180C9908800D980188149862
:10024000081A0D9908805CE100200E9D07906978DE
:100250002C78090221433180E978AC7809022143E6
:1002600071808C46403904242D1D024603468E467B
:10027000402900D32878614604291FD0052914D0CD
:10028000062918D070463F283DD8159855F7B6FC7A
:100290000006000E04D0C148008D0006C00F30D00B
:1002A00002230120BE4A002712E0697800290FD0FE
:1002B000BC4A17230CE0BC4A0F2309E0522802D0A5
:1002C000D22802D002E0142000E01520B74A1F23F4
:1002D000002A1AD0984218D28000105804900028A2
:1002E00013D000200890059070884038402803D330
:1002F0002878052430716D1C701D00900498B5E0BD
:10030000FEE03027F0E03327EEE07088042872D159
:100310000627E9E0522862D00CDC4B283FD004DCF1
:1003200041286AD0422858D111E04C2820D05028CA
:1003300053D140E0632830D004DC572818D061281E
:100340004BD19BE06C2864D0772846D109E0009817
:10035000297801700098641C401CA4B26D1C0090A8
:1003600081E00498401C04900178089881427AD179
:100370000098A41C401C41084900881C0090687823
:100380002A780002104308800599AD1CA4B2002908
:1003900069D008900020059065E00120FBE710225D
:1003A000294600985EF7A8FE009810341030A4B2D9
:1003B0001035009057E02046403014990390884251
:1003C0000BD84022294600985EF796FE00984030F0
:1003D00000900398403584B245E0342743E008227A
:1003E000294600985EF788FE009808340830A4B2C9
:1003F0000835009037E068E0FFE7062229460098BC
:100400005EF77AFE0098A41D801DA4B2AD1D009079
:1004100029E01498001B80B203903088001B001D57
:1004200081B2012007900498401C04900098401C61
:100430004008400000900498007857281CD04228BB
:10044000CBD100980170090A417000982946801CA0
:100450000090039A5EF750FE03980399201884B227
:100460000098401800900498401C049000780028E0
:100470001ED0002F17D01BE04908E2E71498001B9C
:1004800081B200980391401C400840000090012078
:100490000A460790294600985EF72EFE03996018D9
:1004A00084B20098DDE70D990988A14200D331E7B5
:1004B0000D980088A04208D304990978002904D136
:1004C0000799002903D1A04201D034270CE00D99EF
:1004D000001B08800C9801880098801B001F0818DA
:1004E0000C99002F08800CD07088042809D00628A9
:1004F00007D04038402804D30E984079707100E04E
:10050000342738460FB0F0BDFFB581B01F46164600
:100510000C4610465CF7B4FC00257F2802D02189E8
:10052000062909D03B4632462146019855F7F9FE87
:100530000546284605B0F0BDC00601D50225F8E7FE
:1005400020780028F5D1300AA11D42F782F8F0E7A3
:10055000F1B598B0189842F77AFA04461898052130
:100560000079134A4006C00F099068460184618BE8
:1005700008460A38904276D2E08A062873D319E0FA
:1005800030BCFC074CB9FC07C000004010800000E4
:10059000294100007671000058BFFC0748BEFC07E7
:1005A0003803F2074003F2079C03F207D803F2076F
:1005B000770C00001922D201904254D8228BFF23DD
:1005C000F5339A424FD8521C9300D2184243521C22
:1005D0000A23521059438A4245DC217F00290CD15D
:1005E000617F002909D1A17F002906D1E17F00297F
:1005F00003D12021095DC90635D0274620377978F7
:10060000C906C90E491F0C292DD2A18A81422AD8B8
:10061000E17C002927D0421E082A01D9082000E0E9
:10062000401E81421FD8684646F7D2FA00281AD1E8
:10063000FE4D0622286221460AA85EF75DFDA879D4
:100640002E46803E00287DD06079800901280BD09D
:100650000AA809994CF78BFD010003D03820405CB3
:10066000002870D09BE008E1F06A807A012808D069
:10067000042806D00AA84CF7E7FD286200284ED0CF
:1006800054E0686A06220AA932305EF759FD002854
:1006900006D00AA84CF7D8FD2862002802D012E044
:1006A000686AF9E700210AA84CF7E4FD2862F16ABC
:1006B000897A012905D18B071A6849068A430A43BA
:1006C0001A60002811D0F16A286A062225301031FC
:1006D0005EF736FD002808D1286AF16A2030C07A1A
:1006E000C97B884201D1286A1EE0D148D1490088DF
:1006F000C96880B206225043081842F7ADF9014696
:1007000014A8062202305EF7F7FC13AA00213C2051
:1007100042F76FFC0121B06D47F796FEA9E011A9E1
:100720000AA84CF7A7FD2862002838D001462531D9
:1007300006220FA85EF7E0FC286A08AA2030C17ADA
:100740000FA801E041E024E04CF7F4FB002812D0B0
:10075000286A2030C07A002809D16846B649008C42
:100760004BF75BFB08AA0121B3484CF7E3FB684653
:100770000AA9008C0AE008AA012111A84CF7DAFBAB
:1007800000280CD0296A6846008C32314BF75BFB9D
:1007900005E00A18527D002A08D010286DDBF06AA7
:1007A000407A022806D0032804D00EE0401C10280E
:1007B000EFDBF4E76846008C052806D308AA0AA8F0
:1007C00009994CF7B7FB002857D00022694620460C
:1007D0004CF759FC002850D1F06A407A02280BD01F
:1007E000032809D00023684602880AA809994CF713
:1007F0006BFC002802D02FE00123F4E7E18A684671
:100800000181218B4181618B8181787806224109A8
:10081000684681757878C106C90E684641752146DB
:100820000E305EF769FC189800794006C10F6846E3
:1008300001750388214602A8B26D47F7ABF901465E
:10084000B06502A842F723FC0020B0652146684647
:100850001C31008846F70FFA49F78EFA734C2034A2
:10086000207A002805D0002109205CF74CFC0020EC
:100870002072002108465CF7EEFA19B0F0BDF8B519
:100880006E4C064685000F4660594C21095C2429B0
:100890000ED140691022791D2E305EF72DFC615972
:1008A00025204031087300221146304654F7F9FAEA
:1008B00060594C21095C0C291FD140691022791D17
:1008C0002E305EF719FC60595F214069095C090709
:1008D0002DD401462E3110221E305EF731FC002847
:1008E0000CD06059092140300173304654F7F6FFAF
:1008F00001460022304653F753FEF8BD04216846F6
:1009000001706A460521304653F7F4FF68460178C6
:100910006020014368460170304654F7DFFF01460E
:10092000684602780123304653F74FFFF8BD304642
:1009300054F7D4FF012809D06059072140300173D2
:1009400000221146304654F7ACFAF8BD6159002038
:100950004969C031887160590421426930461E32AC
:1009600053F7C8FF605941694031897F002907D09A
:100970001A21403001730021304654F71CFBF8BDAA
:100980001B2140300173304654F76AFBF8BDF8B5BF
:100990002A4C05468600A0594C22125C192A11D116
:1009A00040224D30491D5EF7A7FBA0594022244943
:1009B0004D305EF7C5FB002805D021492846203977
:1009C0005BF729FDF8BD0B21684601706A460521D9
:1009D000284653F78FFF6846017860200143684638
:1009E0000170284654F77AFF0146684602780123D1
:1009F000284653F7EAFEF8BDFFB581B003980C46D0
:100A0000060A00255CF73CFA002827D0132825D0D9
:100A1000142823D00B48B700C0592030407BC006B3
:100A200037D503985CF72CFA15280DE030BCFC078D
:100A300068B9FC0760BBFC0750F5F1073CBEFC073A
:100A4000FCBDFC0778BBFC070CD0A07941F7F2FF96
:100A5000304647F78DF8032806D015E0A07941F716
:100A6000E9FF1FE002251DE03248C0592030407BDD
:100A7000400704D53D21304642F7DAFC04E03D2230
:100A80000021304642F7E3FC3D21304646F7B8F8F6
:100A900008E02046103828490181468120464EF75B
:100AA000A1FD0125284645E524485222006864300E
:100AB0008188C37E5143224A12688918FF225F321F
:100AC000525AFF31120AD21A01310B8CD2B2DB0B0F
:100AD00009D00B8C5B045B0C0B84002A03D180884B
:100AE000184A012111547047FFB51746140A81B006
:100AF000104A0298A100515840780026114D002953
:100B000007D0295D002905D0002803D1204643F7EE
:100B1000F3FE2E553A46049B0299019844F77DFE58
:100B200008E50A4808490160094941607047704773
:100B30007047000078BBFC070608000084BBFC0778
:100B40004CB9FC07C28BFC070459F007C0000840F1
:100B5000490C00BF10B50F4903205CF74AF900218A
:100B600003205CF778F910BD10B5044601230A4A4A
:100B700000210A485BF73EFF09498C4201D103215D
:100B800003E008498C4201D1002101704EF72AFD93
:100B900010BD0000585DFC0711FC000001080000BA
:100BA000A5A5A5A5C3C3C3C37FB5E4486B4601880B
:100BB000428889186A46118001214C002218154686
:100BC000403DED8F065B5288AD19AA18491CC9B289
:100BD0001A530729F1D38189C089081881B2D981B4
:100BE000D888002821D01889002820D0988800288B
:100BF0001FD0588900281ED0988900281DD05888F9
:100C000000281CD000291CD0188800280BD00720F1
:100C1000062254001C5B8C4201D22146D0B2521EE7
:100C200052B2002AF5DA04B070BD0320FBE70420BD
:100C3000F9E70220F7E70520F5E70620F3E70120B2
:100C4000F1E70720EFE7F0B595B0EFF310801090D3
:100C5000012080F31088BA48816B4A07520F694619
:100C60000A800A92816B0122C908C9008163B549D3
:100C70008B8869464B800224B24B00219980C16A5F
:100C800009078B0F69468B800F93C16A0C23994328
:100C90000831C1620521090709880906CB0F694699
:100CA000CB8005210907099309888023194305236F
:100CB0001B071980A449898A4906CB0F69460B8115
:100CC000A1490893898A402319439F4B9982016A5D
:100CD00009074B0F69464B810C93036A0E218B4326
:100CE00003629B4D99486860FF204030A8602888C7
:100CF000A0432880974841680B071B0F69468B81EA
:100D00000B934168090909010831416041684906AE
:100D10004B0F6946CB810D93416870239943603135
:100D200041608748403801688904CB0F69460B82CF
:100D30000293036841140B4303600168CB07DB0F88
:100D400069464B820E930168114301604168890333
:100D5000CA0D69468A8203924168CA05D20D694666
:100D6000CA82049281688903CA0D69460A83019286
:100D70008168CA05D20D69464A8305924168764A60
:100D800011400322D203891841604168490A49028F
:100D9000FF314131416081686F4A11400322D20323
:100DA000891881608168490A4902FF3141318160B7
:100DB000642000F02DF9A88969468007C00F888358
:100DC000A8892043A8810024604F2888002601219B
:100DD000084328800A2000F01BF9FF205F494130BA
:100DE0003A680A4200D0761C401E3F1D0004000CE9
:100DF000F6D1A88A8004FCD15149886B671CC208CF
:100E0000D2007807400F02438A630A2000F000F9FD
:100E100060004A49FCB20E52082CD5D348480A99C2
:100E2000826BD208D2000A4382636946454A4988E8
:100E300091800F998A00C16A0C2399431143C162C2
:100E40000999CA010521090709888023994311439B
:100E500005221207118008998A013B49898A40239B
:100E600099431143384A91820C994A00016A0E2332
:100E700099431143016237480B99426812091201E4
:100E80000A4342600D994268090170239A430A435C
:100E90004260029841032A48403800680122520308
:100EA000904308432649403908600E98096849086C
:100EB000490001432248403801600398420220481B
:100EC000403840682449084010431D4A403A506069
:100ED00004985268520A520202431948403842604C
:100EE0000198174A4002403A92680A400243144867
:100EF000403882601249059840398968490A490298
:100F000001430F48403881601098002800D001202C
:100F100080F3108815B0F0BD10B5114C2078002872
:100F200008D0FFF790FEFFF73FFE0E490870002043
:100F3000207010BD04F02AF80120F9E75069FC0781
:100F40008010004000120040203000505064FC0728
:100F50000035005040200040FF01FCFFC0C0C0C071
:100F6000FE8EFC07FF8EFC0710B5FF2215490132EB
:100F70000A60BFF34F8FBFF36F8F13490A601349A5
:100F80000B6840241B0A1B0223430B601049898A0B
:100F90000021C30700D03521830702D57D231B0222
:100FA0001943430702D575231B041943000702D5D3
:100FB0003D2000060143064820380163014880387F
:100FC000026010BD80E100E080E200E008E400E0A3
:100FD000A010004010B5062000F01AF810BD10B5A2
:100FE000092000F015F810BD10B5812000F010F8B0
:100FF00010BD10B5044800F00BF810BD10B5034843
:1010000000F006F810BD0000010200000108000019
:1010100000280CD000BF00BF00BF00BF00BF00BF52
:1010200000BF00BF00BF00BF00BF401EF0D170472F
:1010300010B50C460123FE4A0021FE485BF7DAFC9E
:10104000FD4A21781170002101704EF7CBFA002083
:1010500010BD10B5F64A0C460123521E0021F5487A
:101060005BF7C8FCF54A21781170002101704EF73A
:10107000B9FA002010BD10B5ED4A0C460123921EAE
:101080000021EC485BF7B6FCED49A2884A800A468D
:101090002388403AD387E2888A8062880A800021C8
:1010A00001704EF79FFA002010BD10B51A4682233A
:1010B0000021E0485BF79EFC112101704EF792FA87
:1010C000002010BDDA4A10B50123413A0021D94869
:1010D0005BF790FC112101704EF784FA002010BDDF
:1010E000D34A10B50123403A0021D2485BF782FC75
:1010F000112101704EF776FA002010BD10B51A4686
:1011000002230021CB485BF775FC112101704EF7DB
:1011100069FA002010BD10B51A4601230021C54808
:101120005BF768FC112101704EF75CFA002010BDDE
:1011300010B51A4601230021BE485BF75BFC112164
:1011400001704EF74FFA002010BD10B51A468223E9
:101150000021B8485BF74EFC112101704EF742FAAE
:10116000002010BD10B51A4682230021B1485BF75C
:1011700041FC00214170112101704EF733FA00202B
:1011800010BD10B51A4601230021AA485BF732FCB6
:10119000112101704EF726FA002010BDA44A10B5A7
:1011A0000823333A0021A3485BF724FC0446031DBF
:1011B000C21C811C401C5BF7F5F901460020002988
:1011C0000BD0112121706070A070E070A080E080D1
:1011D00020464EF707FA002010BD2070F7E77FB5D4
:1011E0000025084600950195103802955BF747FCED
:1011F0005BF7EDFB00246E46039020465BF7E1FBB6
:1012000061008919641CE4B24880042CF5D3884A33
:101210001023313A002187485BF7ECFB6E461ECE67
:101220001EC0103805704EF7DDF9012004B070BD06
:10123000F8B57F4A0F4608230A3A00217D485BF73C
:10124000D9FB804D0446286B6E12B04330432863AF
:101250007D493888496A88476060286BB04300211F
:10126000286338886080217020464EF7BBF9002043
:10127000F8BDF8B56E4A0D460423093A00216D48C1
:101280005BF7B8FB6F4E0446306B7712B8433843B8
:1012900030636D4A2888926A69689047306BB8431A
:1012A0000021306328886080217020464EF79AF92B
:1012B0000020F8BD70B518460D465D4A0146012371
:1012C000323A5C485BF796FB04462878002802D047
:1012D000012805D101E05D4800E05D4841F746FA8C
:1012E0001220207020464EF77DF9002070BD10B509
:1012F00018460C464E4A01460823133A4D485BF700
:1013000079FB2188012292078918096841602188A8
:101310004180002101704EF765F9002010BD10B525
:1013200018460C46424A01460423123A41485BF7EC
:1013300061FB228801239B07D21861681160218814
:101340004180002101704EF74DF9002010BD10B50D
:101350001C4608464BF760FE354A0123113A2146E8
:1013600034485BF747FB002101704EF73BF9002042
:1013700010BD70B50C8818461646032C00D3032404
:10138000CA788B78150252225443324A1D4313689F
:10139000E318FF3301335D830B7911686118FF3166
:1013A00001318A8B120A12021A438A83204A0146AB
:1013B00001230E3A1F485BF71DFB002101704EF719
:1013C00011F9002130465BF746FD002070BD10B5D5
:1013D00088781C46002801D0012200E000220888FD
:1013E000114645F751FC124A01230D3A2146114896
:1013F0005BF700FB002101704EF7F4F8002010BDF0
:1014000070B518460C460A4A014601230C3A0948B1
:101410005BF7F0FA227852214A430E4900230D6807
:101420005219FF3241325382227852256A4313E027
:1014300043FC000001080000B0B9FC07D9B9FC0763
:1014400030BCFC074000004058BFFC07C3C3C3C307
:10145000A5A5A5A54CB9FC070D685219FF3241326C
:10146000938222785224096862435118FF31413136
:10147000CB82002101704EF7B5F8002070BD70B529
:1014800018460C4601460123324A33485BF7B2FA4C
:10149000227852214A43314900230D685219FF3204
:1014A00041329381227852256A430D685219FF32E6
:1014B0004132D38122785224096862435118FF31A6
:1014C00041310B82002101704EF78CF8002070BD75
:1014D00070B5184616460D461E4A01460123D21C19
:1014E0001D485BF787FA04462888032800D30320A9
:1014F00047F786FB002805D000212170A9786430C9
:10150000C17701E01220207020464EF76BF80021D1
:1015100030465BF7A0FC002070BDF8B50E461049C0
:101520001C4615460020C2008A5AA24209D1C000BA
:1015300040184768002F07D02A4631461846B8475A
:1015400002E0401C1928EED322463146284602F01C
:101550002FFBF8BD38FC0000010800004CB9FC0767
:10156000685DFC07064C0125064E05E0E36807CCE4
:101570002B430C3C98471034B442F7D3FEF7CCFD14
:101580001864FC074864FC0701480121018070478A
:101590000E1500500F48011F09880A0703D5504A4D
:1015A000138A5B1C1382CA070AD0028807239A4356
:1015B000EA4BDB7B13430380494AD3895B1CD3810D
:1015C000490706D5018807229143E44A127C0A4361
:1015D00002807047B8100040B0B5D64B0820188084
:1015E000052000070188302211430180048803216F
:1015F0000C4304801C896407FCD403889343038054
:1016000003888B430380D54CE38B4380238C9D1E42
:10161000184B5D8007251D800588154305800588CA
:101620000D4305801D886D07FCD403889343038018
:1016300002888A4302804289920702D042898A4303
:101640004281018980220A430281018A0422914356
:101650000182818A8907FCD540F763FE206B064929
:10166000086006480168490700D500BE01684907BF
:10167000FCD5B0BD0016005008020040100000402C
:10168000F8B500250095134E13497160B5603168B7
:1016900004220A433260EFF31084012787F3108895
:1016A0003946814089B20D48FEF73CFD0090306814
:1016B000B8433060002C02D087F3108801E085F336
:1016C0001088009841424141B24AD1700249081A3B
:1016D000F8BDC04610E000E0FFFFFF000030005002
:1016E0006469FC0780B50A2000F036F880BD80B53B
:1016F0000B2000F031F880BD80B50C2000F02CF8F4
:1017000080BD80B50D2000F027F880BD80B50E208B
:1017100000F022F880BD000070B501258D40400129
:10172000064C049E002E01D0055301E0261875805A
:101730001343201849004018838070BD02300050C8
:101740008140012282400348038893430B43038076
:101750007047C0461E30005070B5C0B203460A3B09
:1017600001210A469A4093B20A4C1C195C40660853
:10177000094B1C880025360402D06D1C760CFAE754
:101780009443AAB20D46954025431D808140684888
:10179000016070BDFFFF01000E14005010B5032161
:1017A000CA01052109070B885B0113404A8A624C74
:1017B0001440E2184A820368114A13604368536078
:1017C00083689360C368D36003691361436953619D
:1017D00083699361C369D361106259480368536296
:1017E000436893628368D36243691363C368536336
:1017F00000699063888AC00600D4FEE700BE10BD71
:101800000090FC0702480088494810210160704799
:101810002C130050B0B5114D2888400602D52888F9
:10182000800609D40E49086A0024002814D0CA6929
:10183000521CCA6182420FD309480024C461281F88
:10184000046017480088FFF7E3FB2888C00701D130
:10185000012401E04CF74CFB2046B0BD14100050B1
:10186000B8BAFC0780B54CF714FB0B48828980217D
:101870000A438281027903781202D2181423534357
:10188000064A12881207D20ED218921C044B1A80F4
:1018900082898A43828180BD00100050C0100050B0
:1018A000C08BFC0710B5052109070A8A04231343DE
:1018B0000B820A89402313430B811D4A01231360C5
:1018C0001C4A082313800322D2010B885B011340BA
:1018D0004A8A194C1440E2184A820368174A136076
:1018E0004368536083689360C368D360036913617E
:1018F0004369536183699361C369D361106210487E
:1019000003685362436893628368D36243691363D5
:10191000C368536300699063888AC00600D4FEE7F9
:1019200000BE488A074A10408018001D488210BD3A
:1019300080E200E0003300507FFE00005090FC0782
:1019400028ED00E0FC7F00007047000080B50348F0
:10195000C06A002801D004F05BF880BDF08EFC075F
:10196000AC494A6B002802D0824200D9486B8A6B8E
:10197000904200D9886B084A108088780221814003
:1019800006484843002803D000BF00BF401EF9E7C7
:101990007047C0466469FC0702000050F106000071
:1019A0007047000010B50F4CA1880F200840022896
:1019B00006D004280BD00C280CD00128F4D110E05C
:1019C00020880221884320802088802106E004F0BE
:1019D00051F8E9E704F04EF820880121884320807F
:1019E000E2E710BD041100500521080702883023EA
:1019F0009A430280028803239A4302808288120558
:101A00000DD5184A13880B40052B08D110880421E6
:101A1000014311801088012188431080704781881C
:101A2000C90606D510498A88D20702D00A8812064C
:101A300010D48088C0060CD50B488188890708D54A
:101A40000188C90505D5022181800188074A0A401D
:101A50000280704701208880088880229043088097
:101A60007047C0460002005000010050FFFE000019
:101A700081B0BD4801884907FCD4C1880091009914
:101A800080880904081801B07047C046B64801882C
:101A9000490700D500BE3F21C900418001880122CD
:101AA0000A4302218A430280018804220A430280F9
:101AB0007047C046FEB5504C002121800327FD0130
:101AC0002946903161804026A6805C224B498A5A83
:101AD000A281A289324330239A43A281484A1660E8
:101AE000BFF34F8FBFF36F8F002800D17FE00197C6
:101AF00002952288B2430578AB0113432380E7881F
:101B000070229743437819013943E180002D05D1B4
:101B1000E1880725A9431B090B43E380218804259D
:101B2000A943C3789B000B43238001790902A38852
:101B3000DBB25918A180E1881140324F40292DD1E4
:101B40006220F149085A002800D131483149888182
:101B5000012000032188014321801920FFF758FA52
:101B6000029A10468030218801432180208830432A
:101B70002080608828436080608827490140618018
:101B80000F204002618801436180403760883840FF
:101B90001043608060880199884327E021881A4AB1
:101BA0000A4022808178102900D300BE6288174B3A
:101BB00013404902194361806188019A9143427937
:101BC0000A43628081790029029A01D10A4600E025
:101BD00080322188394011432180C079082800D300
:101BE00000BE40376188394080010843608020880A
:101BF000012101432180FEBD00150050C88BFC0768
:101C000080E100E0FFFD0000FFEF0000FFE10000C9
:101C1000407600006469FC07FF1F000080B504489F
:101C2000016803220A4302605020FFF7F1F980BDEA
:101C3000AC10004010B5016800290CD5036802689B
:101C40000124A40700688000800C00195B0001D407
:101C5000028000E00270C80F10BDB0B50C46002530
:101C6000202D04D040F74BFE60556D1CF8E7002096
:101C7000B0BD000010B504460548064970225DF766
:101C80003BFA0548001B054908801430488010BD08
:101C900070A0FC07405EFC07B8A0FFFF78A0FC071F
:101CA000B0B500F027F800F039F80F490B880F485D
:101CB0000468244A1440E31803600D4B1C888569AE
:101CC00015402C1984615B88C4691440E318C36112
:101CD0004B8A046A1440E3180362898A436A1340FA
:101CE00059184162B0BDC0461030004088A0FC07C2
:101CF0006430004010B507480188074A1368114C4A
:101D000023405918116040885168214008185060DC
:101D100010BDC046183000408CA0FC0710B5074825
:101D20000188074A1368074C2340591811604088FE
:101D3000516821400818506010BDC046383000403E
:101D400098A0FC070000FFFF07481E214180018882
:101D500003220A430280018804220A430280D148F8
:101D6000012101707047C0460016005080B50D4833
:101D70000078C00708D105205BF782F800280FD152
:101D80002A200A49085C04E00748417D012907D15F
:101D9000007D41424141C21E50425041084380BD36
:101DA000002080BDFDB9FC0788BDFC0730BDFC07E5
:101DB00007480168BB4A927D002A04D0064A1140B8
:101DC000064A891801E0034A114001607047C04685
:101DD000B810004077F7FFD577F7FFC08808002AD2
:101DE000704780B55FF7C8F880BDF8B56946C87020
:101DF000020A8A70020C4A70000E087008465FF7EB
:101E0000A3F88FBDF0B585B00E46EF483A4A0225DB
:101E100019462B465AF7EEFD0746337837480290AD
:101E200005220620002B114600D00146002B00D0D1
:101E30001046764A1288D20500D5014602A84170A4
:101E40002F490391FFF736FE2320FFF7E1F82D49D4
:101E50000888284308800122130208888007FCD4E0
:101E6000CA81088A284D4C882407009706D40E881A
:101E70004024344006D02E46563605E02E466036C5
:101E80005E3506E02E465A36002C01D0543500E06F
:101E9000583500242F5F0194355FC0334C881C40B7
:101EA0009C4205D04B88DB055B0F0624E31A0193A7
:101EB0000B8893430B80154C60433E1931465DF708
:101EC000A1F807466543284631465DF7B1F8391A4F
:101ED000A1420B4600D323460D4A002591422946D4
:101EE000009800D81946019AD14001804DF77AFB3D
:101EF000284605B0F0BDC0461AFE000001050A00E4
:101F00000003010100150050C88BFC07FFFF000013
:101F1000FEFF010010B51946AB48044A00242346D1
:101F20005AF768FD4DF75EFB204610BD07FE000026
:101F3000FEB51C460F46A448204A022321465AF704
:101F400059FD044679780120002202910C290346AC
:101F500000D313463D78694269411940FE780C2E42
:101F6000034600D31346BF787A427A411A400A40AA
:101F70004240228020464DF735FB208800281BD1A7
:101F80000F48FFF745F84748C17C807C0024009447
:101F900022462346FFF7C0FB4248417D007D009466
:101FA00022462346FFF7B8FB284602993A463346B5
:101FB00003F0F4FD03F0CCFA0020FEBD09FE0000A2
:101FC000E2040000B0B51D460C46E5480E4A012368
:101FD00029465AF70FFD002101702278511E134641
:101FE0008B4130498B7509490B88DB0507D4531E9B
:101FF0009A4192024B8D064C1C40A2184A854DF71F
:10200000F1FA0020B0BDC0461CFE00002A000050BE
:10201000FFF90000FEB50193164602910746002025
:10202000041D102C0AD00CA10D58384602993246D6
:10203000019BA84700282046F2D10BE07F204202F6
:10204000C748042301995AF7D5FC02990978016021
:102050004DF7C8FA0020FEBDD935FC070D36FC0748
:10206000E138FC0710B51946EF480D4A08235AF726
:10207000C1FC0446EF48007A02280ED103F0CEFBE3
:102080000848816D2180416E6180016EA1805830C9
:10209000008AE08020464DF7A5FA002010BDC0461A
:1020A0000DFE0000F08EFC07F8B51946DE48264A02
:1020B000012423465AF79EFC0546244E37882740C4
:1020C0000FD13088204330803088282101435020B0
:1020D0008143318030880621014331801C48FEF75E
:1020E00097FF3088C00701D1FF2021E00095194DEE
:1020F00068886C80288808218843288028880221E5
:102100000143A14329802888042101432980002616
:102110002888400706D5632E04D86420FEF778FF90
:10212000761CF5E72888400300B2C013009D074ED7
:102130002870002F02D13088A043308028464DF708
:1021400051FA0020F8BDC04616FE000022000050E3
:10215000400D03000016005070B51946EE480C4AB9
:1021600042235AF747FC04460E250570801C094E91
:1021700031462A465CF7C0FF657020462230314662
:102180002A465CF7B9FF20464DF72CFA002070BDB7
:1021900008FE0000F863FC07B0B50D46DE480B4AA8
:1021A0000124194623465AF725FC2A780B2A04D81D
:1021B00007490988D140214000E0FF2101704DF717
:1021C00011FA0020B0BDC0460108000013FE000057
:1021D00000300050F0B587B00E46F048614A012447
:1021E000194623465AF706FC0490357800210B2D3A
:1021F000204600D808467279059232790392F77822
:10220000B27806927278032A11D8920002A39B58E2
:102210000A460E469F46C0464722FC072922FC0775
:102220003922FC074122FC070122160206E00120A8
:1022300046020022204606E001225602002202E069
:102240000322160222460296069B012B234600D843
:102250000B46012F264600D80E46059964292146D3
:1022600001D8164031460029214600D119460029DF
:1022700000D10446FF26002C6AD1284601F016FC46
:10228000284601F031FC0398002818D0012F28D0EF
:10229000002F049C5DD13548418B0122914341833D
:1022A0005002AA4030490A806A00511848800699B5
:1022B000481E81412846FFF743FA002649E0781E70
:1022C000414241410091002630462946029A334658
:1022D000FFF722FA0699481E81412846FFF730FA97
:1022E00036E001242046A8401F49088068004018B5
:1022F00003263102173141800699481E8141284644
:10230000FFF71EFA4D480188082211430180018819
:1023100031430180154D688B10436883688B04211D
:10232000884368837D20C1000398414310485CF7CF
:1023300069FE401E2880288800266E80411C059872
:10234000484364215CF75EFEE881688B2043688324
:10235000049C267020464DF745F9002007B0F0BDDB
:102360000108000012FE0000043000500834005044
:1023700080841E00FEB50E46B2482C4A012519463F
:102380002B465AF737FB044677783678304601F00B
:102390008DFB002E01D1264805800B2E3DD8022F43
:1023A0003BD20294234C002001906072A672E77227
:1023B0006570607AA17A009503273E0210233246A9
:1023C000FFF7AAF9607AA07AE17A4A1E9141FFF7F5
:1023D000B7F9E943184802880A400280174A938BEC
:1023E0000B409383118808230B43138011883943D2
:1023F000118001990180FF210906114A13688B435E
:10240000E90759181160E836468086800D49C18079
:10241000018829430180029802E0FF2020702046B5
:102420004DF7E0F80020FEBD0108000017FE000097
:10243000000300506469FC070034005004000050A1
:102440000CE400E0FFFF0000FEB51C460D467D4891
:10245000184AF22321465AF7CDFAAC781221002C03
:1024600022D03C2C20D82A88FF21C904551801907D
:10247000471D0094002C14D002AE04222846314699
:1024800002F060FCF81E02990170B81E71780170AC
:10249000781EB1780170F0783870641E2D1D3F1DD4
:1024A000E8E700210198009C447001704DF79AF80C
:1024B0000020FEBD04FE0000BCB51C460D46614870
:1024C000164A072321465AF795FA044628782070C1
:1024D000032807D002281AD1611C1248062202F0F4
:1024E00031FC14E06879A97909020818019028796B
:1024F0000006E97809040818A978090240186978E3
:102500004018009006486946022202F02DFC204641
:102510004DF768F80020BCBD0108000003FE000074
:10252000D47F0000D47FF807F0B585B01C460E4676
:1025300044481B4A022321465AF75CFA044600210C
:1025400003910291B7781220002F1AD03C2F1DD88A
:10255000F51C01963688002F15D0E8780006A9787A
:10256000090408186978090240182978401802906F
:1025700002A90122304602F0F7FB7F1E2D1D361DF9
:10258000E9E70F4602E00198877800206770207025
:1025900020464DF727F8002005B0F0BD01080000E7
:1025A00005FE000010B5194626480A4A01242346B4
:1025B0005AF720FA002101704DF714F80648082157
:1025C0000180064844800521018001880906FCD16C
:1025D000002010BD1DFE00000233005000310050ED
:1025E00010B519461748044A002423465AF702FA40
:1025F0004CF7F8FF204610BD0AFE0000B0B51D469E
:102600000C46FF48104A082329465AF7F3F90021DF
:10261000417022780270032A10D861687A441279D6
:102620005200974401030609096803E0A2680A60A2
:1026300004E00988416001E0A2680A804CF7D2FFFB
:102640000020B0BD0108000006FE0000F0B58FB00C
:102650001C460D46EA48EB4A022321465AF7CAF9BE
:1026600004462878E84FFE7D012800D198E0002834
:1026700000D0FAE0A878002800D0F4E0E8780B2831
:1026800000D9F0E02979002900D0ECE069790B2924
:1026900000D9E8E0A979002900D0E4E0E9790B2924
:1026A00000D9E0E0297A002900D0DCE0697A0B2922
:1026B00000D9D8E0697B002907D0A97B002900D088
:1026C000D1E0E97B0C2900D3CDE00C96CF4EB0478A
:1026D0006879B047E879B047687AB047687B0028E6
:1026E00002D0E87B01F0E2F9A878002802D1E8786E
:1026F00000281AD02879002802D16879002814D03F
:10270000A879002802D1E87900280ED0287A00287C
:1027100002D1687A002808D0687B002809D0A87BFD
:10272000002806D1E87B002803D10120F87502F0CB
:10273000D1FEE8780022B6490B28134601D84000A4
:10274000435A68790B28164601D84000465AE87962
:102750000B280A9202D84000405A0A90687A0B2847
:10276000099202D84000405A099002960393E87BF0
:102770000B2801D84000425AEFF31080012181F369
:1027800010880E918E02A34B198808963143198048
:102790000028049200D13FE10E9880F310883EE1BA
:1027A000287900285FD168790B285CD8A97800299E
:1027B00059D1E9780B2956D8697B002905D0A97B26
:1027C000002950D1E97B0C294DD201F06FF9E8784E
:1027D00001F06CF9687B002802D0E87B01F066F913
:1027E0002879002802D1687900280ED0A87800281E
:1027F00002D1E878002808D0687B002809D0A87B9F
:10280000002806D1E87B002803D10120F87502F0EA
:1028100061FEE8780023E8490B281A4601D84000F9
:10282000425A68790B280B9302D84000405A0B900B
:1028300007920A94A87B0B2801D84000435A297BB1
:10284000DE480180EFF31081012484F31088DC4816
:10285000028820270D973A43028000290C960FD05A
:1028600084F310880FE0FF202080FE7502F032FE16
:1028700002F05CFE20464CF7B5FE00200FB0F0BD24
:10288000002181F310880893CE4E31880E94A14325
:1028900031803188C907FCD1CB4F002009903886A0
:1028A0004821B9824F2139830821B98317213984FE
:1028B00039880622914339801F21C943BA8F0A40C3
:1028C000BA873A8F0A403A87BC48048838880E9BFA
:1028D000184338803888402202433A8038880D995E
:1028E000084338803A88102082433A80B74A521C05
:1028F000B98811402143B98031881943318031882A
:10290000C907FCD0B2490A68802313437F2293434E
:102910000B60B0490860A8784001A74BC018E9785F
:1029200049000922425228794001C01869794900BA
:102930000A2242520E984402687B002806D0E97BA6
:10294000A87B099B00932246FEF7E6FE68780128E3
:102950000DD1E87AA97AB2885207FCD53982204392
:102960003882B0884007FCD5B0888006FCD403F0DC
:1029700025F8A87AB1884907FCD538820A9CB08826
:102980004007FCD5032000023882B0898006FCD0C5
:10299000388AC0B22080687B00280ED04B2080008F
:1029A000FEF736FBA87B400183490818801F00888A
:1029B000E97BC8400E9908402080E8780B289F4F9B
:1029C0007D4902D84000079A425268790B2802D804
:1029D00040000B9A4252A87B0B2802D84000089A6C
:1029E000425230880E99884330803088C007FCD12D
:1029F000F84908880D9A904308800C9E35E7C04638
:102A00000108000011FE0000F08EFC07AD3AFC0743
:102A10000630005004000050002080F310886E4AF9
:102A200020200D90108090881C2106910843602181
:102A300088439080908803210591884390809088F6
:102A4000802398439080387BFE2101403973002613
:102A500096810B961089079318431081387BF121DA
:102A60000140881C38731089072101437820814375
:102A70001181108840218843108010880D99884367
:102A80001080E978A8780096059A12020592534FB3
:102A9000069BB8476979287900961A2332464F4F2A
:102AA000B847E979A87900961B23059F3A464B4E13
:102AB000B047697A287A0E9E00961D233A46474F02
:102AC000B8470B9F687B002806D0E97BA87B00975E
:102AD00072023B46FEF720FE6878012810D1E87AA2
:102AE0000690AE7A02F010FF304602F0B3FE069870
:102AF00002F0B0FE38498F8408880D9A1043088090
:102B000002F05CFFAE7A02F0FFFE07980643304603
:102B100002F0A0FE384602F09DFE2F4A97841188ED
:102B20000D9B19431180C0B22080687B0028C74FDD
:102B30000ED04B208000FEF76BFAA87B40011E49A7
:102B40000818801F0088E97BC8400E990840208043
:102B5000E8780B280C9E18490E9B02D84000039A77
:102B6000425268790B2802D84000029A4252E87912
:102B70000B2802D840000A9A4252687A0B2802D8E1
:102B80004000099A4252A87B0B2802D84000049AC0
:102B90004252EFF3108083F310888E4A1188089D0B
:102BA000A9431180002802D083F310885DE60B98BA
:102BB00080F3108859E6C04606300050A46BFC072D
:102BC000040000506C13005000130050FFFBFFFF87
:102BD00004E400E000E100E0001200501917FC07D7
:102BE000B0B51D460C46E948084A0123294659F765
:102BF00001FF05462078EB49C87502F06BFC002404
:102C00002C7028464CF7EEFC2046B0BD1EFE00009E
:102C1000B0B51D460C46EE48074A0123294659F730
:102C2000E9FE002505704CF7DDFC2078DD4948738E
:102C30003FF706FD2846B0BD1BFE0000F08EFC07E6
:102C400010B51946E248054A012359F7D3FE00247E
:102C500004704CF7C7FC204610BDC04618FE0000AB
:102C6000FEB50E465748584D012419462A462346BC
:102C700059F7C0FE002707704CF7B4FC4BF764F916
:102C80003078022816D0012807D0002800D096E01E
:102C90005848C7705A48077091E002F0F3FE4C485C
:102CA0000770B07871780A46024360D1514802211A
:102CB000017167E002F0E6FE4449082008804449BB
:102CC0000F7072B6434EB28904210A43B281B288B2
:102CD00080239A43B280B288402302931A43B28081
:102CE0003D4A118032883D4B13403380FA433C4BC0
:102CF0001A60328AD206FCD47E35F2892A40F281EB
:102D0000E243384B9D8815409D80374D2F680F4317
:102D10002F60B58A25430227BD43B582B58A0D438E
:102D200001908543B582B58A102028432025A84309
:102D3000B082B0892043B081188810401880988AEA
:102D40002A4A02400720C00210189882A0039A8ADB
:102D500002439A82F08C264A1688C00517D4602058
:102D600006431680988A03220243029F17E0214AF5
:102D70001471214A4A4319218901414388181F4986
:102D8000096848621B48C4701D48047017E02E4350
:102D90003846029FBE4316809A8A0243A2439A8213
:102DA000988A019A10439882988A88439882188B4F
:102DB0003843A843188300BF00BF00BF30BF0020C6
:102DC000FEBDC0460208000001FE000000330050B6
:102DD000348CFC070400005000020050FFF7000094
:102DE00080E200E00C03005010ED00E0FFC30000A3
:102DF0005200005054BAFC070077010058B9FC0794
:102E0000B4BAFC07BCB51C460D46B2480E4A0023B6
:102E1000214659F7EFFD04462878B34DA871287A6A
:102E200000280BD15F48583012215CF77EF9A97950
:102E300001A8017047F7AAFE0220287220464CF72D
:102E4000D1FB0020BCBDC0460CFE0000F08EFC078C
:102E5000B0B519469F480A4A0024234659F7CAFDCF
:102E60000546A148007A052808D102F091FD02F03C
:102E7000D5FC9C48046028464CF7B4FB0020B0BD4C
:102E800010FE00007CB51C460D4692481D4A0023EA
:102E9000214659F7AFFD04462878934EB071687803
:102EA0007071307A002828D101AD25206870B07982
:102EB00028707079A870FEF77BFF284647F7D9FD88
:102EC0000120C20387490B6813430B6082030B6820
:102ED00093430B6002030B6893430B600A680A4B31
:102EE00013400B600521317200027C490860BFF37A
:102EF0004F8FBFF36F8F02F017FD20464CF772FB28
:102F000000207CBD0FFE000000FEFFFF80B50878AA
:102F1000754A90714878D07188785071C87809796D
:102F200009020818908202F05BFC002080BDC046B8
:102F3000B0B50C461548164A012519462B4659F7D7
:102F400059FD2178052900D8002505704CF74AFB6A
:102F50004AF7FAFF7D20FEF75BF82078052804D8B1
:102F60000CA1095C0DA2105C01E00B2108200D4AA8
:102F70005176107603223FF799FB002420463FF755
:102F8000F1FB3FF7B7FB2046B0BDC046010800008B
:102F900015FE00000301060B000100006834110853
:102FA000011A0000F08EFC0770B50C46D048094AA3
:102FB000642519462B4659F71DFD064621462A462B
:102FC0005CF79AF830464CF70DFB002070BDC04608
:102FD0000108000014FE0000F8B50E46C4483E4A41
:102FE000002519462B4659F705FD0446307854282C
:102FF0002CD0522812D04F286AD102F0C9FC3A4E88
:10300000307A062854D0072858D102F007FC012056
:10301000C00734490A6882430A604FE00120000279
:103020002E490860BFF34F8FBFF36F8F7578FEF79F
:10303000BFFE6846057047F7A9FD2948401C29498D
:103040000A6802430A60284807212DE00120000297
:1030500022490860BFF34F8FBFF36F8F7678FEF77A
:10306000A7FE224D2846FEF7E5FD0C20071D342F54
:1030700005D02818FEF7DEFD00283846F6D13820A6
:10308000071D582F05D02818FEF7D4FD0028384614
:10309000F6D117480321417016483018164A1060BF
:1030A0001648016010480621017202F03DFC0CE058
:1030B000124805600E48022181700580012000023F
:1030C0000F4908600F490860357220464CF78AFAAC
:1030D0000020F8BD010800000EFE000080E100E0C5
:1030E000FFFFFF7FE00000406469FC0770A0FC0761
:1030F000041000400001620904300040AC100040A0
:1031000000E100E080E200E0F0B58FB00D467848C5
:10311000784F022419463A46234659F76BFC064677
:10312000297807291DD86878AA7812021218C04693
:103130007944097949008F4416191C2F3942030339
:103140006D49FE2802465AD10F46891D00200C28E1
:1031500050D00A880F231340012B4ED0891C401CED
:10316000F5E70024D1E1654800882DE0634802803E
:1031700029E06248018A0122120280320A40802A34
:1031800006D1418AC906FCD47D37018A39400182C3
:1031900003200002401D14E090B2FF210C1A574991
:1031A0000B8800209C420FDB9A1806E053490B88DD
:1031B00094B20020A34207D39A1A0A8004E00120A7
:1031C0004002FE490882002030800024FC4AD17C65
:1031D000907C137D984204D1527D914201D1002709
:1031E000B9E1002217460092032212020223FEF7E1
:1031F00093FAB0E10C22FF2000E002463946059424
:10320000C7B200240C2F01D3204602E07800081832
:10321000801D0B2F09902DD80496079504880392E2
:10322000D6B2304600F042FC304600F05DFC002E85
:103230000BD1E348817C002907D1C07C002804D150
:103240000120DE4988804002C880012001900002F0
:10325000099908800799897800220E920D920292AE
:103260000C92002908D001294AD12546AF229300AB
:10327000D54A04E0042046E12546D24AFA23D34E3B
:103280000A247463B363326474641422B2646E22D9
:10329000F264726BB265B26BF265B170F16CF1639E
:1032A0000B2F2C462CD8B90001A251588F46C0468E
:1032B000E132FC070B33FC071B33FC072B33FC0705
:1032C0003B33FC074B33FC075B33FC076B33FC07DA
:1032D0007B33FC078B33FC079B33FC07AB33FC07CA
:1032E00003210902B54BDA888A430243DA8063E09E
:1032F0000108000002FE00000030005002000050F3
:10330000079D049E039A0298FDE003210902AB4B3E
:103310001A898A4302431A814EE003210902A74B0E
:103320005A898A4302435A8146E003210902A34B8A
:103330009A898A4302439A813EE0032109029F4B06
:10334000DA898A430243DA8136E0032109029B4B82
:103350001A8A8A4302431A822EE003210902974BFC
:103360005A8A8A4302435A8226E003210902934B78
:103370009A8A8A4302439A821EE0032109028F4BF4
:10338000DA8A8A430243DA8216E0032109028B4B70
:103390001A8B8A4302431A830EE003210902874BEA
:1033A0005A8B8A4302435A8306E003210902834B66
:1033B0009A8B8A4302439A83F06BFEF7D1FA384620
:1033C000FEF75EF90C900C98316C884205D30C988E
:1033D000316C401A716C88421AD90C98316C884251
:1033E00005D2306C0C99401A716C884210D90C9837
:1033F000316C8842069415D9F06D0A90F06DFEF795
:10340000AFFA3846FEF73CF90E9000200B9014E01E
:103410003C36039A3068411C72D0801C079D049E84
:103420005BD070E7B06D0B90B06DFEF799FA38463F
:10343000FEF726F90D9000200A90002408970C9AB8
:10344000336CF06B0C999A4202D90D910B9001E00C
:103450000E910A90306C0D9B0DA90EAA0E9FBB42D7
:103460000B4600D313461B680D9F0E9DAF4200D83C
:1034700011460A68D11A121A0B9D0A98401B504334
:103480005BF7D6FD4019F063F06BFEF769FA089818
:10349000FEF7F6F80C900C98316C884205D30C9826
:1034A000316C401A716C88420DD9601C0C99326CD9
:1034B000914205D2316C0C9A891A726C914202D9F0
:1034C000092C0446BBD3F078002808D00020FEF772
:1034D00047FA079D049E069C039A059813E00C98F2
:1034E000316C726C891A8842069C05D30C98316C39
:1034F000726C5118884250D90020FEF731FA039AB5
:10350000079D049E019830802978FE2008400628F7
:1035100017461DD1022020431F210140032917D146
:103520000694D1B2012088402449294A13460C88C8
:10353000204204D05B1CFAD301E0521C02D20B885B
:103540001842FAD07D200001FDF762FD069C3A4644
:10355000100600D13AE630464CF744F82878FE21B0
:103560000140062916D1022020431F2101400329D2
:1035700010D1F9B201208840164A10490B88184230
:1035800003D1531E12041A46F8D10998002801D01D
:103590000998048000200FB0F0BD1B4800883065FA
:1035A000306D716B8842039A02D8306D0028A7D124
:1035B000306DB16B8842A3D250362BE700300050FB
:1035C000F08EFC0700127A00007C92006469FC0710
:1035D000E708C9FFB68C000070B500240E785F2E96
:1035E00003D0332E0DD1084806887F204202B04810
:1035F000042519462B4659F7FDF906604BF7F2FFF3
:1036000000E0E443204670BD02000050F0B591B0E8
:1036100000270878AA2800D0C8E003917F200190F5
:103620004202A3480C2519462B4659F7E3F90290AC
:1036300001F0A2FC01F030FB01F0A6FF02F096FAC7
:103640009C4D281D20215BF770FD9B4C2C60216850
:103650009A48AF60E86069600168994A50236B61DD
:10366000AA61296111682F62E96121681425294343
:103670006B2291432160052101602846FDF7C8FCBB
:10368000FEF7CCFAE06F109010980F9010980B9006
:10369000109809908B4903204870206D0126304313
:1036A00020653102206D0D91084320653004216DA5
:1036B000014321658448401C216D01432165206D33
:1036C0000A210143A9432165206C40210C91084344
:1036D0002064FEF7A3FA2846FDF79AFCE06C02216D
:1036E0000E910843E064E06C04963043E0640720E8
:1036F00040020B9949010B9001400A913F20400480
:10370000099989020990014008911F200790C1067C
:103710000F980007C00E05906E4C06910A46664D44
:10372000802F45D0286D1E218843059908432865C0
:10373000286D0B9988430A9908432865286D0999D3
:103740008843089908432865FF200006296D8143B6
:103750001143296505205D4C0F92A0470E99CE4379
:10376000E86C3040E864286C0C9A10432864286C9C
:10377000079A10432864E86C0843E8640D98C63043
:10378000A0476420A047A96FE86C3040514CE86422
:103790004D4801407D20400148434D495BF732FCD4
:1037A0000F9AE051069812183F1DB9E7FE437CE0DE
:1037B000002049497C2806D0221852682358D21A82
:1037C0000A50001DF6E700220B4614461546104627
:1037D000002A09D01F2A0DD01E68A64200DA1C68F4
:1037E0001E68AE4201DC01E00C681D6840CB301859
:1037F000521CEDE71F215BF705FC01467D2000020E
:103800005BF700FC010ACA01049B1940C8400199FA
:1038100008408018C01CC0B2804C6082608A264B71
:10382000D968FF229143C0B20918D9601102DA6841
:103830008A4300021018D8600025242D0BD01D49A2
:10384000485949194A6802608868002801D0FDF784
:10385000DFFB0C35F1E718488589FEF721FA22785D
:1038600000231E481946083138290FD0C3181B6998
:10387000114E0C36B3420B46F5D1002A04D1049AFE
:1038800022704218D26862624018C5600D480E99D5
:10389000817002994D6000260680606A88600398F6
:1038A0000078086008464BF79DFE304611B0F0BD29
:1038B00001080000D469FC0704300040AC1000404F
:1038C0004C12004004100040FFFF7F001110FC0765
:1038D00081030000246AFC07A46AFC07C88BFC076C
:1038E000F0B587B00027F8430A78BB2A00D093E0F0
:1038F0000690059149490879002804D101200871F2
:103900004748408848657F20420246480C251946B2
:103910002B4659F76FF80490434C20881621014339
:1039200008208143218020884049084001267102F7
:10393000401820806020C1432088029108402080E8
:10394000FEF7A4F8FEF794F8218820220A434021CC
:103950008A43228085214D0031460226A842324604
:1039600000D80A460192A842039100D83946009136
:10397000FEF78CF8FEF77CF8A842019800D8009872
:1039800040012188029A1140081820802088274988
:10399000084003998902401820803846002E17D429
:1039A0002788FEF773F87805070FFEF761F8A8423D
:1039B000069902D8A84209D0012122881C4B1A403E
:1039C000B14079180906490C11432180761EE5E7BC
:1039D00018492E1A00D24618FEF758F8FEF748F894
:1039E000291A01D213494118B14205D9208810493A
:1039F0000840F901014321802068049A5060208822
:103A0000074948800548406D90600598007810602F
:103A100010464BF7E7FD002007B0F0BD6469FC07D6
:103A2000A000FC0701080000240000507FF8FFFF01
:103A30007FF80000F6FEFFFF80B51B480021016003
:103A4000FDF7D2FA164800781F214901134A13687E
:103A50008B43C006800DC018106080BD80B5114832
:103A600002210170FDF7B6FA80BDC04680B50B4853
:103A700001688905C90E0A4A11701F2149010268AF
:103A80008A43026007480121017007480168032248
:103A90000A430260FDF7A8FA80BDC0464C12004000
:103AA0004C64FC0706100040AC1000400C490A882A
:103AB00002280DD0D205920F052801D1012A07D086
:103AC000012801D1022A03D00A2808D1032A06D1ED
:103AD0004888C006FCD40888024A02400A80704721
:103AE000120000507FFE000080B5002814D1D0489D
:103AF000C17D022910D0C17C827C13460B4301D1C9
:103B00000223C375037D934204D1427D8A4201D1D1
:103B10000121C17501F0DEFC80BDC046FEB5144632
:103B2000002918D005460127002B17D0CA18238872
:103B3000002D18D0087828706E1C0220002B0FD0A2
:103B400002938B1C93420AD84B783370029B012B53
:103B50000ED8AE1C04E00021084602E02E4638468E
:103B6000711B2180FEBD881C012690423046F7D88B
:103B70008E1C48788006000E029031463018AE1C2C
:103B80009042ECD8002D0CD0E81801903046029FEE
:103B90003A465BF7B1FAF0190199884203D8002040
:103BA00002E0002001E00120400002997618D7E7EA
:103BB00070B51346024600200E4C102808D0255A36
:103BC0009D4201D00830F8E720184468002C0DD140
:103BD0000020094C0546F02D0AD0665B9E4201D0BC
:103BE0000835F8E764196468002C01D01846A0472E
:103BF00070BDC0460864FC07B05EFC07FEB5144605
:103C0000002905D005460120022B04D22E463FE0B4
:103C1000002088213DE02288AF18002D09D00297AE
:103C20000E784F786F702E70012A06D8AE1C0220D5
:103C30002EE0032B05D202262AE0032B03D2AE1C72
:103C400026E08A7805E08A78AA70EE1C029FBE42C0
:103C5000EDD80297CB180193C91C9206120E8B184F
:103C60000093EE1C019B009F9F4211D8002D09D0AC
:103C7000304617465BF740FAF019029A904204D892
:103C8000002003E00020174601E001204000F61963
:103C9000711B2180FEBD000070B5EFF31081012083
:103CA00080F3108805221207148880231C43148097
:103CB000274C25680726B543256065686D07FCD548
:103CC000244D2561244D656114889C43148000298E
:103CD00002D080F3108870BD002080F3108870BD82
:103CE00018B51B490B68072213406C4623702378D4
:103CF000834206D00B68934303430B604868400738
:103D0000FCD518BDB0B5EFF31081012080F3108809
:103D1000052213071A88802414431C800C4A146857
:103D20000725AC43146054686407FCD51B881B0648
:103D300000D400BE074B1361074B5361002902D02A
:103D400080F31088B0BD002080F31088B0BDC0465D
:103D50000000F4070F009909090404A4B0B50D464A
:103D60000446052000070088000600D400BE104667
:103D7000FFF7B6FFFF20C004A90008582168091A00
:103D800048424841B0BD000070B5174EB06800F021
:103D90002DF827494A6B00234B631518084C284619
:103DA00021465BF72FF9706106494143481901D05C
:103DB000201A80B23061306808210143316070BD43
:103DC000710200008FFDFFFF80B5064800210160F1
:103DD00001F0D0FC0120C00703490A6882430A6051
:103DE00080BDC046A8B9FC073000004080B502463F
:103DF000C00B09D00E48006C00210B465BF72CF974
:103E00008905800A401880BD0948006C4243900A29
:103E100080BDC04680B5FFF7E9FF80BD80B504498D
:103E2000896B41430348081803495BF7EBF880BDF1
:103E3000F08EFC0720A1070040420F0000B59DB0A6
:103E40008D4D08262E808D4F388818AC2080208814
:103E5000C046C046208804211791C943084202D0B9
:103E60000020388003E0B88901218843B881B88BED
:103E70008349014007201290C0020818B883814B83
:103E8000188830431880D88D06229043D8850124A5
:103E9000A003B98B0143B98318887B49014019807D
:103EA000588807921043B043588005200C960F9015
:103EB0000607718D754AFF32D88D10407D22D200E1
:103EC0000F2316931B03C905159409920D931BD458
:103ED0000321490208436B4CE085E08D1843E085DF
:103EE000B88B0C998843B883B88B04218843B88376
:103EF0006088674901406180E08D15990843E0853D
:103F0000708D4007FCD51AE01146183108435D4C0E
:103F1000E085E08D5F490140159AD0030818E085DF
:103F2000B88B0C990843B883B88B17998843B8832A
:103F3000E08D9043E085B88B40218843B883B88BEF
:103F400003210A910843B88321882022114340208D
:103F5000C04301402180398C1192114301403984C2
:103F6000F18A80220B9211430140F182318EFF22AF
:103F700091433186318F179F39431822069291431E
:103F80003187318FA0220A4302403287424807809E
:103F9000B08842490140B180159C20044049086026
:103FA000FFF7B0FE02201490FFF79AFE3D4800682C
:103FB000C1B20C20AA29014600D03946328882437A
:103FC00088183080C046C04637480068374909889D
:103FD0006827374B00220E92DA53364B1A4644328A
:103FE000918058642046C046C046334A101F00687E
:103FF0003249884200D04DE1089716980407042002
:10400000002110911746139403463918081F3A46A9
:10401000EC32904200D342E1179300681990199B4B
:10402000234009200407199AA3425AD1199B1D0A5B
:10403000EBB21693D2B2531E162B00D993E05B005D
:104040007B449B885B009F44040104018E000401B3
:104050008E003B00A8008E008E008E008E008E0029
:104060008E008E008E008E00BB00CF00E300F100BA
:104070008E00F700FC00C0460033005004030050DF
:10408000FFC3000052000050FFBF000000F0FFFF20
:10409000FFF90000FF0F000000020050FFF70000D2
:1040A00080E200E0D07FF807D47FF807D87FF807D8
:1040B000C88BFC07F08EFC07D47EF807A5A5A5A544
:1040C000D14C089FE05DC0002018169A92005BF763
:1040D00013F8E05D4019E055C0B205286ED300BE6C
:1040E0006CE0900F10D01998C84988420CD8179BE3
:1040F0001846083031462831199A8A421ED1D959BA
:10410000C34A1180139C7FE71998139C2040129991
:104110000907884203D10020C046C0460BE0199829
:1041200020401599C907884205D0199820400F9959
:10413000490788420DD11798001D65E7B11C199AEF
:104140008A42139C00D08CE0D9596622AE4B99521A
:104150005AE7199820400A9949078842179900D0D0
:1041600088E0081D50E71E2A73D116984008020601
:104170006FD00B684A680831002425460835382D71
:1041800008D0A14F3C1924699C422C46F6D19E4B85
:104190005B19DA60401E9F4FE9E769249A4F385D4A
:1041A000C00038181030169A92005AF7A5FF385DF3
:1041B00040193855C0B20D2800D300BE954F48E0D5
:1041C000179AD1594843D259120C801A00B2C0082C
:1041D0008D4B4033D88288B2101A81088E4A114024
:1041E0000818401C988234E0179AD1594843D25994
:1041F000120C801A00B2C008834B4033588388B237
:10420000101A8108844A11400818401C188320E0C5
:10421000109CA0001AAA1018169DAA005AF76CFF4D
:104220002C191094032C14D300BE12E01798C05917
:104230006221754A50520CE01798C05972490865BE
:1042400007E01798C05964216F4A5052000400D10A
:1042500000BE1698800017990818001D6F4D139C1A
:10426000D2E631462431199A8A4209D1D959684A8D
:104270005180C9E61998401C11D000BE0846C3E61B
:1042800031462031199A8A4200D0BDE6D959604A98
:104290009180B9E666205C490F5A614A38E05A4C71
:1042A000204640301A99818309211B9A5143130CEF
:1042B000C91A09B2C908018491B2591A8A08564B21
:1042C0001A405118491CC183089AA05CC10701D04B
:1042D00000BEA05C4008A0546920215CCA07504A77
:1042E00001D000BE215C490821546420215A0029D4
:1042F00001D1099921526620275A002F08D1494936
:104300000968C9B2AA290B9F00D06E273E490F52F7
:10431000159C20021090D783B08CA043B0840D2050
:10432000FCF776FE70892043149988437081708968
:104330004006FCD577800998FCF76AFE70890A99D7
:10434000884370810E9C70890006FCD57F2034491B
:104350004870344880693449C861FFF79DFC334890
:104360000068334988420F9B00D04EE13148324902
:104370005AF7DBFE1298010230485AF7D6FEFCF7D6
:10438000D7FB2F482F4901602F4830492A225AF77E
:10439000B3FE2F480021C171817141710171C1705B
:1043A0008170169141703F210891017029482AA11E
:1043B000402213925AF7A0FE4B208200364837491C
:1043C0005AF79AFE1720C04300280BD032490A182A
:1043D00051239B00D21832A10B18183392CB92C2F2
:1043E0000C30F1E710994431334A1E20002865D083
:1043F0001790294843181446A1CCA1C31798074D1C
:10440000401E0C310C32F1E7C88BFC074C420050C7
:10441000A000FC07D47EF807FF3F000000330050E7
:10442000F08EFC07D07FF8076469FC079CB8FC0796
:104430006587341200A0FC07AC14000000B9FC072B
:1044400060BAFC070861FC0700BAFC077CFCF107B6
:10445000DAB9FC07B0BCFC072000800000C00000F7
:10446000000084000000282200000000000004007A
:1044700000F7FFFF7F00000030F0FF0F000000009A
:104480000004000000000000000000000000000028
:104490000000000000000000388CFC0738FBF1072A
:1044A00000FD0700DD63FC07D963FC0701FD070081
:1044B000DD63FC07C463FC07A05FFC073A20F249F8
:1044C0004885F248C862F248159F0770F148F249E2
:1044D0000160F248F2490160F249F3480860F3488C
:1044E0000A210170F24816990170F24832210E91AA
:1044F0000170F1480F990160F0480760F0480160D1
:10450000F04807990160F04812990160EF480C9C4F
:104510000460EF48EF4901601098801DEE49086083
:10452000EE49086000F072FC308930218843308108
:1045300030890B9908433081308920433081308C99
:10454000B843308470890699884370813089139A02
:1045500010433081308A042188433082B08A80073A
:10456000FCD512910D99FF31F08C08400B21090206
:104570000143F184F08C159F3843F08470890C99C5
:10458000084310210D9188437081708CB84370846A
:10459000308990433081D2483730BB0719680140D9
:1045A000196008984002CF4C2168814378030818AD
:1045B0002060CD48411C2068179108432060CB48FB
:1045C0000068CB4988420F933BD0C1480068A06087
:1045D000C84AD0699075010E5176010C1176000A17
:1045E000D0751098C030C4490A46002817D0401E24
:1045F000435C147825460A9F3D40BE4F7D19AD7D32
:104600005D4065401570521CEFE7BC48BA495A023C
:10461000944200D9AAE622586250241DF7E7B54D0E
:104620006035B5491C2228465CF7FAFC002800D00A
:1046300000BE28465CF788FCAC48AD490160B04D2F
:10464000A84CA34800683DF705FEAE48169F0771C9
:10465000C7700F9A1068109908431060FDF774FB3B
:10466000159800F05BFCA3490F72149848718F7184
:104670002520C8710E988882A248C770A24807708A
:104680000F82A248583012215AF74FFD206817991F
:1046900008432060F08A0B99084313998843F082FD
:1046A000FFF792FB0F20FCF75FFC15994802019081
:1046B000089880020890C8031790954F954896492E
:1046C0000818964940188008401E0A900F9C3089AF
:1046D000000600D436E1206B1799084200D031E182
:1046E00088480088C00700D02CE158F786FE0025D6
:1046F000284600F013FC8548407C042800D097E051
:10470000159800F00BFC199519A8042149F716FA21
:1047100000287E4B00D18BE015983860386800285F
:10472000FCD1E069596A884201D25D622946411A8A
:10473000CA09997B182A01D8002979D0002905D007
:10474000986A401C986200F073FD71E058627449E9
:10475000088807904888069088880590C888049043
:104760001B9570481A901AA8FDF7A4F9674B099891
:1047700017306B4A1189014059835189014099834F
:104780001089089B184001990843108150891840EE
:1047900008435081108814990843108010888007BE
:1047A000FCD41598D081108A03901346514988890A
:1047B00002905648428B19461B89089803401343C0
:1047C0000B81524A928B4B89034013434B810398D0
:1047D0000299401A09994143002804DC524A891879
:1047E000C017084001E05148081851495AF720FC09
:1047F00083091933454A50787F280FD0181A41B2DF
:10480000C9114840401A40B2052808DB906A401C94
:104810009062039300F00CFD039B3C4A53704048A8
:1048200006994180059981800499C180079901808A
:10483000F048806DF34A117A012905D1002803D18F
:10484000157200F0CDFFEF4A108A918A88420DD38D
:10485000107A01280AD11582F3482946F34A2B46DB
:1048600058F7C8F84AF7BEFE00F0D8FF58F7C5FD64
:104870001498C043EA490978C91E81425AD8642075
:10488000EB490860DC4D22E700BAFC07388CFC07D6
:10489000FDB9FC0750B9FC07603FF20754B9FC07AB
:1048A0002C62FC0758B9FC073061FC07B0B9FC0763
:1048B000B1B9FC07D9B9FC075CB9FC0760B9FC07C2
:1048C00064B9FC0768B9FC076CB9FC0770B9FC0750
:1048D0004CB9FC0700A0FC0748B9FC0744B9FC0729
:1048E000C8FEFFFF00020040FFFF1F009CB8FC074E
:1048F000658734126469FC075C8FFC0700B0FC0715
:104900000033005054BAFC07B4BAFC07F08EFC0721
:10491000FC000040406300001001FC07030004F8A5
:1049200000150050010400002BFDFFFFD502000020
:10493000AA050000BE4A1068411E11600028AE4D55
:1049400000DDC4E6FDF712FA002800D1BFE672B61A
:10495000B24800790228169802D0AC480068406A34
:104960001A902889C00700D042E157F712FE0028AC
:1049700000D13DE1A948C07800285ED0B08AC007C8
:1049800000D0BCE0A5480088002856D1A948806A1C
:10499000002803D09D480068406A1A9000F0EAFEA3
:1049A0009E4881781AA858F7ECFB002845D020696A
:1049B000400642D4994881781AA849F7BFF80028E0
:1049C0003BD04BF73DF8002800D111E149F7B8FC86
:1049D000002800D10CE1914881781AA858F7D1FB42
:1049E00000281ED0206940061BD48C4881781AA864
:1049F00049F7A4F8002814D00898FF308E4A11888F
:104A000001401098014311801A9A002A1CD0206A94
:104A10007F494018DA28C74B1AD8521E07921A92BB
:104A200017E079480078C00702D13DF74BFE04E05B
:104A300000203DF797FE3DF75DFEFDF797F9002852
:104A400000D1D5E030BFD3E000200790B94B00E0A3
:104A50000792188C6B4A916A0818D062E06B774B0A
:104A600018400843E063E06B75490840116B890208
:104A70000143E163E06B68490840D16A49050818C1
:104A8000E0637048079A824200D300BEA949086DCE
:104A9000496D00235AF7E0FA0903000D41185948FF
:104AA000006B821C8A4200D0481E5C4909794A1E6C
:104AB000914144F759FF6448C06A80471799206BB9
:104AC0000842FCD01099534C20680842FCD0206862
:104AD0000B99884320606889452804D8462169815C
:104AE000081AF24948633DF7F0FBA068EF490863F4
:104AF00020680006FCD530890B99884330814848EE
:104B00000178308A129B18433082464A1068184355
:104B100010603A4A1089159DA8431081708A0129B6
:104B200003D10D99884370821EE00D9C2043708252
:104B3000708A18437082FFF7E5F8708A204370820C
:104B40000A9842490860EFF3108085F31088318895
:104B50000B9A91433180002802D085F3108802E03F
:104B6000002080F31088254A139B119C0025358373
:104B7000708D1099084204D1214908881843A04338
:104B80000880108C1843A0431084B08C159CA0435F
:104B9000B0840D20FCF73CFA7089204314998843B7
:104BA000708170894006FCD50E987080B08AC0066E
:104BB000134A0F9C02D510480C99018030BFB08A6F
:104BC0001088119B18431399C943084010800B4A61
:104BD000108C18430840108400F018F90F48C57075
:104BE0000F4805700F4A1068129988431060024DF3
:104BF00062B66CE5B0BBFC07003300500403005004
:104C0000520000506469FC07FDB9FC0758B9FC0765
:104C1000C8FEFFFF00020040FFFF1F0054BAFC0760
:104C2000B4BAFC0710ED00E0010800000BFE000024
:104C30004864FC0774BEFC073830005000FCFFFFDE
:104C4000FF03E0FF40420F0058BFFC072000F407BD
:104C500080B549F712FC00F0F9FE80BD80B54AF737
:104C60001AFE00F0F3FE80BD7CB514460D460646E4
:104C7000BE488178012908D1017A0079002200928A
:104C8000032212020223FCF747FD30462946224642
:104C900049F771F97CBDC046F0B569212448415CF3
:104CA0001030B24A527B00230C4E8B4212D247681E
:104CB0000A2A3C4606D33D46074C2540204C246832
:104CC00064042C430568B54200D127462F600830A4
:104CD0005B1CEAE7F0BDC046FFFF01FC3830004036
:104CE000F0B568211248415CA04A527B0023124D66
:104CF000134E8B421AD290C80838AC4212D1FC0134
:104D0000640C2C460ED00A2A2C460BD30324240212
:104D10003C403F04BF0E3C192C60C488074F3C4008
:104D2000346000E0276008305B1CE2E7F0BDC0465D
:104D3000C88BFC07F08EFC074C100040FF01000000
:104D4000A86BFC0770B514460D460646FEF7DAFF61
:104D50000220FEF7C5FF2846314622465AF7CCF915
:104D6000FEF79AFF70BD0000F0B585B00392029186
:104D70000546052007070024234E01970398844227
:104D800040D0FEF7BFFF3888000600D400BE388848
:104D9000000600D400BEA000E90B00D000BE0299BE
:104DA0000F180495AD080320FEF79AFF002228464D
:104DB0003946D20709D10A68B2607060326892073A
:104DC000FCD5401C091D0122F3E73068C007FCD068
:104DD000042238462946FEF7C1FF002810D00522DC
:104DE00038462946FEF7BAFF002809D00320FEF70F
:104DF00077FFFEF751FF641C049D2D1D019FBDE749
:104E0000FEF74AFF05B0F0BD0400F407F8B5274EE1
:104E10000125F57500F05EFB2548018880273943A0
:104E20000180244824A118225AF766F928A02B49AA
:104E30001CC81CC1FBF775FE29482A4901600520E2
:104E40000007018830229143018001880324A14397
:104E50000180254908220A80818839438180E10147
:104E600003885B010B40418A204F0F40F9184182B3
:104E70001F48072101801F4F0020B8803880832001
:104E80003881307E002801D0717E03E01A483083DB
:104E90000B21104622463DF709FC3C8100F046FB01
:104EA0001648018829430180F8BDC046F08EFC07F2
:104EB0000015005020000840F99DF0070000000098
:104EC000E3A1F107000000004FA4F107000000007B
:104ED0005105FC077F08FC078F09FC07C000FC0791
:104EE0000000084007001000003300507FFE000063
:104EF0008810005004100050080B00000C030050F4
:104F000003480188034A11408918091D0180704730
:104F100012000050FC7F000070477047B0B5C24DD2
:104F20002978012921D11249002803D00888400797
:104F3000FCD402E00888400717D400232B70C888EF
:104F40008988000444181F204006492122465EF744
:104F500087FA2865696564214143080CA863054800
:104F60006043800B401C40082864B0BDF08EFC07F5
:104F7000001600501111010010B5E04C08202070FF
:104F80001120FCF745F80320607010BDFEB56348A2
:104F900003260670624C20461438016814220A4326
:104FA0006B218A430260A06A5E4908620020C04308
:104FB000A06220683F218843206020685A49084049
:104FC00020606068594908400121019189020291DD
:104FD0004018606060684021014330208143616077
:104FE000A069534908400B2149064018A061A069F7
:104FF0005049084071024018A061A069182101437E
:1050000027208143A161432020714B4880474B48B2
:1050100080474B48804741480670009649480568DC
:105020004948804749488047206849490840E90580
:10503000401820603C4D403520682840490C4018FD
:10504000206041272771606838490840029940185C
:1050500060603948804739488047394880472F4841
:1050600006703848066838488047384880472068C6
:1050700037490840F1054018206020682840490C55
:10508000401820602771606828490840029940183C
:1050900060602948804729488047294880471F4841
:1050A00000990170274800682168294A1140C2050B
:1050B0008918216021682940264D0540A80108185B
:1050C000206060680199884360601648006AA062A9
:1050D00020681C210143232081432160206812495C
:1050E00008402060A069124908400721890640183D
:1050F000A061A0690F4908400F21C9014018A061B3
:10510000A0691E21014321208143A1610E488047EF
:105110000E4880471048C585FEBDC04605100040BA
:10512000183000406469FC07FF7FFFFFFFF9FFFFB5
:10513000FFFFFFC03FF0FFFF5D3AFC076D3AFC0741
:10514000F30FFC0788300040393AFC07DF0FFC07FB
:10515000FFFF7F00FF010000D469FC0770470000DB
:10516000F0B58BB03022002181541F221204254B50
:105170001D68954301246204AA181A60234B244D2C
:105180004561244D244E254F254AC2610662436283
:105190001D4A8262C562234A07604260E004C54A34
:1051A000136883431360282903D001A84154491C84
:1051B000F9E7C6480068403001A9282259F79CFF4A
:1051C000F04D09206873FFF7D7FEFFF789FDFFF761
:1051D00063FD00F0D9F900F0C9FC00F041F8FFF7D9
:1051E000D5FEAC7311480088072101402974FBF7F4
:1051F00093FEFCF755FDB14802218170002101802A
:105200000BB0F0BD740000405D52FC075952FC0722
:105210004553FC072953FC074919FC070153FC07B8
:105220000353FC075D51FC07F08EFC07B8100040EB
:1052300080B5FFF7A1FEFFF72FFD00F0A5F900F004
:1052400095FCFBF769FEFCF755FD9C480221817037
:105250000021018080BDC0460020704770470000DB
:105260000E4908880E4A024001204302D2180A80E3
:105270004105904A13688B431360810700224A67F7
:105280001F2212044B6F93434004181848670868A4
:10529000E0220243102082430A60704738300050F9
:1052A000FFFC000080B51F20000401218A07536F16
:1052B000834348041818506710680721884310601A
:1052C0000D48018808220A430280FFF755FEFFF7C8
:1052D00007FDFFF7E1FC00F057F900F047FCFFF78E
:1052E000BFFFFCF71BFD7548022181700021018082
:1052F0000F20FBF739FE80BD08000050041000406D
:10530000704780B5E62800D3E620282800D828205A
:10531000F9214A0042437D20C100104659F772FE30
:105320007F38C0B280BD00000548016807220A43EB
:105330000260012080045F490A6882430A60704766
:1053400030000040022902D0012900D000BE002810
:1053500002D0FF2804D000BE022901D10C207047E2
:10536000F648407B7047C046F8B552480168C90707
:1053700003D0016802220A43026001240168490245
:1053800003D5A10502680A430260260265024A4964
:105390000095084608380768002F00D189E03806D4
:1053A00006D58020086048F772FAFCF7CDFC424928
:1053B000B8070AD50220086042480068B021405C66
:1053C00000F07CFB44F761F93B49380727D50820FA
:1053D00008603D4800686821415A52224A433B49CF
:1053E0000968711889185E22895A090A6830C07DD7
:1053F000081AC0B200F062FBFBF756FB35462646A2
:105400000024204644F7FAF82B490420EF4A507450
:1054100002202A4A9070148034462E46009D37425E
:1054200004D00E60012044F7E9F823492F4203D04D
:105430000D6048F795FA2049780604D540200860A9
:1054400044F7D7F81C49F80604D51020086042F745
:1054500093FC194978071BD504200860184908886F
:10546000A04308801A480078C00702D13DF72AF906
:1054700004E000203DF776F93DF73CF958F724F8B1
:105480003DF7DEF8FCF760FC0020D04948740A497B
:10549000F80707D00C6058F733F848F7F8F90649D1
:1054A000CA484474B80600D473E72020086000BEE0
:1054B0006FE7F8BD000200401800004004100040F3
:1054C0000833005058B9FC0784BBFC074CB9FC07F3
:1054D000FDB9FC0710B5BD48C07D012811D00028DA
:1054E00017D11048002404800F480188C90613D141
:1054F0000121490201801420FBF78AFD084804803D
:1055000010BD074801210180064806214180812104
:1055100004E004480021018001480121018010BD00
:10552000000300504000005006300050B0B5074D59
:105530002878002807D1002001240146024623468E
:1055400000F02CFB2C7000F003F8B0BD348CFC078D
:10555000BCB5F44D697D287D0024009401232246CA
:10556000FCF7DAF8E97CA87C2A7D904203D16A7DB9
:10557000914200D1BCBD0094032212020223FCF729
:10558000CBF8BCBDF08EFC07FCB57F200002594A69
:10559000516981430B20000208185061106880B2E5
:1055A0005549401810609069544C04400123580339
:1055B000009020189061032001900002146B0443B6
:1055C0001463908F1024044394879088184390802C
:1055D0004B484C4A02604C4A104610384B4DAC8B3D
:1055E000044015204301E0185030A8836869484CF6
:1055F0000440484820186861A869474C04400920C5
:1056000040022018A8612868444C044044482018EF
:1056100028606868434C0440434820186860A868C4
:10562000424C044042482018A860E868414C0440BD
:1056300041482018E860C1204001D04C647B24061A
:1056400020183F4C2060052080023E4F3880401DCE
:10565000B880388C55260643AA2086433E84FF2610
:105660006C363046C9303885374908460E30B88523
:1056700036483886B986C01D388735482885A86BD6
:105680003449014034480818A863344D2E80288FCF
:1056900010401F462037C019288731480188114023
:1056A0008919D531018081881140C918818001890B
:1056B0001140C91901812136AE802A480188114064
:1056C000C91860310180818A19220A4306218A4360
:1056D0008282A08F2449014000980818A08723489F
:1056E0000168019A114304229143016020486066D9
:1056F000FCBDC0462030004000008888FF00FEFF4F
:105700008000004059055C071FFCFFFF042000409B
:105710000000E0FF09581A00FEE1FFFFE0E0000092
:105720000809294900000303696A686C031FFFFF29
:1057300070600000E0E0E0E00B0A0A08F08EFC0771
:105740000010004028130040260A00005108000005
:10575000070F00002F64E0FE101A0601001200403F
:105760004412004088120040FF9F0000801000405B
:1057700050015001F8B5642013490E5ACE4FBC6B4E
:105780003046604312494018124959F73BFC054620
:1057900038843C3666430E4830180E4959F732FCBF
:1057A000001DA64988622818C01D08630A4A12789D
:1057B000022A01D111300863FEF718FB074940188F
:1057C00080B257F7ABFEF8BDC88BFC07F08EFC0724
:1057D00020A1070040420F00B4BAFC07E204000019
:1057E000BCB5964C207A002800D0BCBD0020208299
:1057F000A17901A80170E17941706179817045F763
:1058000038F9134DA86D002805D101A845F731F9E5
:105810000028F7D0FEE701202072BCBD10B5874CF0
:10582000207A012808D0207A022805D0207A05287D
:1058300002D0207A072807D10548806D3CF79BFFEE
:105840000020014657F707FB0020207210BDC0461C
:10585000B0BBFC0710B532498A885206D20E1CD064
:10586000530813439C081C4312092243130A134391
:105870001A0C1A43D24353081F4C1C40121B1F4BD7
:1058800094081A401C4012191309D2181C4B1340DB
:105890001C4A5A43120E1D3A00E003220B881F24B3
:1058A000A3430B800B8802241C430C800B88042428
:1058B0001C430C800B8801241C430C80D3175A40D6
:1058C000D21AD2B2022A01D300230B850884088B96
:1058D000C004FCD4022A02D3088D020402E0002A8C
:1058E00003D00022888B104301E0888BC0B21822BD
:1058F0008A5E002AFBD410BD5555555533333333DA
:105900000F0F0F0F0101010105480188202291436B
:105910000180C049097B0907490F81847047C0464F
:1059200000120050F08EFC07B0B5BA48817D002906
:1059300000D0B0BD20490A88082313430B800A8891
:10594000032313430B801B4906220A80FF22120601
:105950000B4B1C6894430122D50764191C60094B4A
:105960004B8000238B80084CC462CB80D003074B54
:105970001860088810430880B0BDC046F08EFC0750
:105980000CE400E0204E0000115AFC0700E100E0AA
:105990000120C103EF4A1160BFF34F8FBFF36F8F38
:1059A000EB490A8882430A80034801880822914310
:1059B00001807047003400500400005010B51248B8
:1059C000026801218A430260FF22120643681340E5
:1059D0000E4C1B19436083681340836003680224E4
:1059E000A343036003680424A343036003680B43D9
:1059F00003600368DB03FCD583681340836002689F
:105A00008A43026010BDC04610E000E02F75000020
:105A100010B5094C052020601920FBF7F9FAFFF7B3
:105A2000ABFA0648007A401FC0B2022803D88000B3
:105A300003A10858206010BDAC1000406469FC0749
:105A4000000000000300000000000000E0B5714805
:105A5000817801290AD106490A885206FCD5017AC3
:105A60000079002200920123FBF756FE8CBDC04650
:105A700014100050024801880122914301807047B0
:105A800004110050BCB5634D697D287D002400944D
:105A900022462346FBF740FEE97CA87C2A7D904203
:105AA00003D16A7D914200D1BCBD009422462346B9
:105AB000FBF732FEBCBDC046F08EFC07F0B587B0E8
:105AC0000446902028490858069094200F5C514DB8
:105AD000A86DEE6D296E0591696E049129465831C5
:105AE0000191098A039122063CD02946FAB20A2381
:105AF0005343069AD3185A88D50611D07F231A40EB
:105B0000761C0D46CE65D30703D00499491C049139
:105B10006966120721D50599491C059129661CE083
:105B2000DA88002812D0451C02960E468D6503992E
:105B30004143D0B20818294659F764FA01990882FE
