:0200000407FCF7
:1000000000C0FC072101FC073501FC074F01FC077C
:100010006901FC076901FC076901FC076901FC072C
:100020000000000000000000000000006901FC0763
:1000300000000000000000006901FC079D96FC071D
:100040006901FC076901FC07C196FC07B196FC0732
:100050006901FC076901FC076901FC076901FC07EC
:100060006901FC076901FC076901FC076901FC07DC
:100070006901FC076901FC076901FC076901FC07CC
:100080006901FC076901FC076901FC07E994FC07A9
:100090006901FC076901FC076901FC076901FC07AC
:0200000407FCF7
:1000C8000348854600F006F8004800477598FC0785
:1000D80000C0FC07064C0125064E05E0E36807CC86
:1000E8002B430C3C98471034B442F7D3FFF7ECFF8E
:1000F800FC01FC073C02FC0702E008C8121F08C10B
:10010800002AFAD170477047002001E001C1121F90
:10011800002AFBD170470000034880F3098800F0EB
:1001280025F8FFF7CDFFC04600C0FC070420714644
:10013800084203D0EFF309800A490847EFF3088023
:1001480008490847704704207146084203D0EFF376
:10015800098005490847EFF30880034908477047B5
:10016800FEE700002196FC071D96FC071C498888BD
:10017800072290438880052000078A89D20710D07B
:10018800098800290DD117494A8802858A888284FE
:10019800CA880284428A144B13400988C90119434A
:1001A8004182124906220A800121CA03104B1A60B3
:1001B800BFF34F8FBFF36F8F02221A60BFF34F8FC9
:1001C800BFF36F8F1960BFF34F8FBFF36F8F4189F4
:1001D8000422914341810021018062B67047C046E4
:1001E800040300509C0BFC077FFE00000034005005
:1001F80080E100E03C02FC07C894FC0758150000A9
:100208000001FC079417FC070003FC079C0800008A
:100218000001FC073020FC079C0BFC0708000000CD
:100228000001FC079417FC0720AAFC07080100003E
:100238001001FC0700280CD000BF00BF00BF00BFA2
:1002480000BF00BF00BF00BF00BF00BF00BF401E0F
:10025800F0D17047FEB5C64C1C34204806880120F2
:100268000190C004029000271D4D002E34D0042FA9
:1002780032D2F0072BD0A889000605D428896989CD
:10028800401A4142414100E000210198B840134A18
:1002980050802889029A134B1A60BFF34F8FBFF31F
:1002A8006F8F002907D0A989019A9143A981A9894B
:1002B80008229143A9812268002A05D0411C606860
:1002C80089B200949047009C0298AB4908601035A9
:1002D800083476087F1CC8E7FEBDC0468236005049
:1002E8000036005080E100E0F8B515460E46044699
:1002F80000F09CFC002800D0F8BD00951E4DA88891
:100308007C210143A9801D48876800F05BFC03201D
:100318000006304300F026FCA8881C210143602019
:100328008143A98000988119B94200D9B81B144E9D
:100338000090314655F71CFD05460746002F08D0AA
:100348002046314600F08EFDA41900F04FFE7F1EB6
:10035800F4E70C4868430099401805D081B220465C
:1003680000F080FD00F042FE0020034A90841088CF
:10037800202101431180F8BD0012005014ABFC0786
:10038800FFFF00000100FFFFFEE7000009480189A8
:1003980004220A430281018840220A430280064956
:1003A80001220A604189054A11408918091D4181C5
:1003B8007047C0460800005080E200E0FC7F000063
:1003C800B8B50122D0030E4909684901C90D0D4984
:1003D8000CD00B886C462380238802251D43954347
:1003E8002580009A02432280009A0A800A886B4678
:1003F8001A80009A02431A8000980880B8BDC04647
:100408000000FC071200005059488069002802D0FB
:10041800014801214170704720AAFC0780B50248B5
:1004280000F016FE80BDC0460011005080B502489D
:1004380000F00EFE80BDC04600100050F0B50A79ED
:10044800530140241C40130180251D401609360223
:1004580075192C19D20020251540621910241C404A
:1004680012190B785B0008241C40121906241C4042
:100478001219CB79DB079B0C4C796508ED07ED0C5D
:10048800EB18E407240D1B19134383818A790F2A7B
:1004980043D0354A82180423DA41931E022B1BD31A
:1004A800012A3AD8EFF31083012282F310888D795C
:1004B8002E4C2688F6B23609B54203D12688F02795
:1004C8003743278026880F27BE432E432680002BDC
:1004D8001CD082F3108820E0EFF31083012282F30E
:1004E8001088224C27880F2637408D79AF4202D1D9
:1004F8002788374327802688F027BE432D013543B8
:100508002580002B06D082F3108806E0002282F3B3
:10051800108802E0002282F310888A680280120C98
:100528004280CA688280120CC2800A8A521E4281A6
:100538004A88002A00D10A8A521E028140083822BD
:1005480002400B4880184A69C26189690162FF202C
:10055800000608490A6882430120C307D2180A60C6
:10056800C00405490860F0BD00CAFFAF80360050DE
:1005780094AAFC0710E400E000E100E008480078D5
:1005880000280BD00320C001052109070A88520161
:100598000240488A034B0340981848827047C04677
:1005A80010ABFC077FFE000010B50648002404804D
:1005B80001204002044908801420FFF73BFE03484D
:1005C800048010BD40000050063000500003005069
:1005D80080B50346402208461946FFF785FE80BDD0
:1005E800B8B0F34948880122019210434880FF209F
:1005F80007900880EF48082109910180F7F7D8F89B
:100608000DA8083003900320059000020690EF2003
:10061800C7430A97EFF31080012686F31088F24A41
:10062800118880230B9319431180002802D086F388
:10063800108802E0002080F3108858200225EB4B38
:100648001D52EB4F3888EB4988890B9A10438881F3
:100658000B20E94C20800998088000248C80888928
:1006680090438881059888810C96BE83088A202645
:100678000896B0432E460882088AA84308823C841C
:10068800DE48D8641C65DE485865BC84284600F0FE
:10069800F7FD25A800F05AFD002826D025A80078E7
:1006A80001280A9F24D1049625A800F04FFD3D4655
:1006B800ED35002820D03E4625A8077800F046FDF5
:1006C8003146EC31002816D025A800780002C71959
:1006D800049E00D196E1FA48874200D2B2E1152083
:1006E80000F0CEFD0A9DEB3507E00A9DEF3504E0EA
:1006F8003D46EE3501E00D46049EEE480C9C848193
:10070800EFF3108084F310880421EC4A1160BFF3E2
:100718004F8FBFF36F8FEB4A1160E54A11880B9B2F
:1007280099431180002802D084F3108802E0002049
:1007380080F31088012D1ADB0698DC49002D05D0BE
:1007480002780A706D1E401C491CF7E7C820D4497E
:100758000880D44809990180D74908980880002062
:100768008881FFF721FFFFF709FFFFF729FEC8215E
:10077800CB4804910180FA4A901E0680CA49881C19
:10078800908010201080481C508114805180099955
:1007980011800DAE0798B075B471B1807D208001CD
:1007A8007080254600243470039804604460846097
:1007B80084811A201081304600F0ACFA00F050FA1B
:1007C800A804C14DA860304600F0A4FA00F048FA29
:1007D800287800280A9D04D100F028FA002800D1C2
:1007E800ABE00C98C004B5490860BFF34F8FBFF366
:1007F8006F8F0720C10315AE0C223046FFF774FD3A
:100808003078702800D0E8E07078522800D0E4E012
:1008180016981390179914913691359035AF25464F
:10082800022C18D0386825AE3146FFF7D1FEB078D3
:10083800AA280DD1307870280AD17078512807D1AC
:1008480025A8C07837A908550C98A040C0B2054320
:100858003F1D641CE4E7032D07D0002D00D1BCE048
:100868006B1E581E83412A4611E037A9487809783B
:10087800FF2903D10028059A019B08D0002901D13E
:10088800FF2802D081420C9B00D30023059A002A3E
:1008980000D1A2E00B93D8B2800013A90E5815A975
:1008A8003046FFF795FE31464031169F7F4C204673
:1008B8003A46FFF719FD0A98EF3017992246854CFA
:1008C800002F09D013784340DBB29B00E358000A9D
:1008D8005840521C7F1EF3E7C04381426CD000F0A1
:1008E800A5F9002822D100F0A1F900281ED1DB4A81
:1008F80010881C210143602081431180062000F0EC
:1009080063FB00F0C1F9002810D100F099F98007C5
:100918000CD5B11CD14B18887C2202431A800C9844
:100928004007084300F050FB00F0AEF9032D0B9B85
:1009380053D10C9843400025ACE7F14A10881C219C
:10094800014360208143118000F03CF99F205F4EF5
:10095800B04700273846B0470B903846B04702905A
:100968003846B047E6490F84091F0A88089B1A438E
:100978000A800B990906090A029A1206120C5118E4
:10098800C0B2081800D12CE72A4629460C3100D1FC
:1009980027E74F4B9A18F423D25890420A46F5D1CC
:1009A8004B484018E43048492CC82CC119E7C046C8
:1009B8000031005002330050394804990180394809
:1009C8000999018000F00AF9019800F0B3F8FFF7DF
:1009D800EBFDFFF7D3FDFFF7F3FC00F0FFF8002075
:1009E80000F0A8F816E6C0460400005094AAFC07D8
:1009F8007C10005000100050C0100050E1A2FC070D
:100A0800B9A4FC070F4625A800F0A0FB002800D1D8
:100A180073E625A80178029100F098FB00283D466E
:100A280000D16AE625A8057800F090FB002833D0AD
:100A380028020299401825A909780904471800D006
:100A480049E64CE6062000F01BFC2546A7420DD0DF
:100A580013480799018025A800F078FB002815D0D5
:100A68002598069908554540641CEFE7E8B200F060
:100A780007FC25A800F06AFB00280AD025A8007802
:100A8800062801D00A9FE8373D4636E60A9DEA3532
:100A980033E60A9DE93530E60A9DE7352DE6C0467E
:100AA80000310050023300501B0300000000FC0717
:100AB800040000507C1000500430005080E100E039
:100AC8000191000080E200E014ABFC07F99DFC07EF
:100AD8003CA5FC0720A6FC0770B5124C0125258013
:100AE800114E3088C00518D5F6F7C0FA002803D093
:100AF80000F084FA1B2810D8308DC00400D4208C54
:100B08000A494D701B20087000F082FA08480188D5
:100B18002943018030884007FCD5A0892843A0815B
:100B280070BDC046000300502A00005020ABFC07EF
:100B3800800000500A49002803D0881E0222028043
:100B480001E002200880012042028A8010230B80E5
:100B58004A8108804A80082008800A817047C04678
:100B68000430005010B5044600F0A2F8BB490A88CA
:100B78001F239A430A800A88022313430B800A889A
:100B8800042313430B800A88012313430B80022894
:100B980001D3220C0A850C840A8BD204FCD40228C7
:100BA80002D3088D020402E0002803D00022888BBB
:100BB800104301E0888BC0B218228A5E002AFBD459
:100BC80010BDC046F2480188202291430180EF49B8
:100BD80009780907490F81847047C04610B5EFF3BB
:100BE8001081012080F310889B4A1388054C1C4013
:100BF8001480002902D080F3108810BD002080F3F3
:100C0800108810BDFFFB000080B5FB480278D207B2
:100C180004D1054A0023D35E002BFBD48268002A46
:100C280001D00846904780BD1812005080B500F0EA
:100C380007F80121014048420D21884380BD00008A
:100C480080B5E04801883C220A4340218A4302805B
:100C58000520000200F0B8F980B280BD04120050EF
:100C680080B5FFF7AFFFE04800218184018820228A
:100C78000A43028081881C220A4360218A438280B9
:100C8800AB2000F0A1F980BDB0B50025074C611C70
:100C9800A94205D06D1CFFF7D3FFC007F7D1691E25
:100CA8000020A14200D9C043B0BDC0467F841E00C9
:100CB800C44800884006C00E1CD0410801438A0879
:100CC8000A4300091043010A0143080C0843C043C2
:100CD80041080C4A0A40801A0B49820808400A4019
:100CE8008018010940180949014009484843000E85
:100CF8001D3800E00320C1174840401AC0B27047B1
:100D08000412005055555555333333330F0F0F0F19
:100D180001010101F0B589B00646EFF31080012505
:100D280085F31088A9024C4A13880B4313800028C6
:100D380002D085F3108802E0002080F31088AA4CC6
:100D480020200190208031790720084000F024F904
:100D58003078A188032291430007400F0843A08000
:100D68003178A28880208243C907090E5118A180D2
:100D780031782940F44D2A78FE23134059182B4620
:100D880029700027A7812189014321813078C00774
:100D980024D11878F1210140307980080E220240D0
:100DA8008818187071887D200002814202D121893B
:100DB8007F2009E049001D4654F7DAFF2B462189B8
:100DC8007F229143401EC0B208432081B07D218814
:100DD80040229143C007400E08182080B068586030
:100DE800F06898603069D8601D4D3246307DC00784
:100DF800284601D028462030186102AE77800421A9
:100E080031703782F78077710092517D0C01611D36
:100E1800317108970797059773491C31049131463A
:100E2800FFF70CFBE01C30710098007DC00701D073
:100E3800303500E01035F54845616B4C20462030D0
:100E4800059028463146FFF7F9FA2088019988432A
:100E5800208009B0F0BDC0460400005000120050C8
:100E680000360050F0B587B00546E84F3878C0071F
:100E780000D089E00C46FFF71BFF5B4E31881F222C
:100E880091433180318802220A433280318804221A
:100E98000A43328002281CD1308801210143318065
:100EA800002081B2A1420FD2318B8904FCD40021E9
:100EB80031853184318BC904FCD4B18B328D120455
:100EC800511802C5401CECE71820305E0028FBD4FE
:100ED8005AE0FFF7EDFE3B695A08382104910A40B1
:100EE80039461C3105912B4F8F50471EB8414000A1
:100EF8000627F94303919F890F40381898819D80F0
:100F0800280CD880601E0190188158819889082182
:100F1800029108439881988901210091084398819A
:100F280030881023034333800598801800274760D2
:100F3800D2484569A88940229043A8816C08049842
:100F48000440FFF7B5FE059A1751411E884140003D
:100F5800A989039B19400818A88106A82880000CB5
:100F68006880019828816881A889029B9843A88194
:100F7800A88900990843A88130881843308010193F
:100F8800476030880843308007B0F0BD94AAFC075A
:100F9800001200509D9EFC070A49022807D001282C
:100FA80009D000280A881C201043602207E00A881C
:100FB8007C20104304E00A883C20104340229043E0
:100FC800088070470412005010B50446FFF7FAFD78
:100FD8002046FFF7C7FD044900228A840A88202397
:100FE80013430B8010BDC04600120050A34800698F
:100FF8008189C907FCD1704794AAFC070E4801886B
:10100800890918220A4000888004400F8018704718
:1010180010B51F21490282010A4007490B88074C75
:101028001C4014430C800A88054B13404007800C71
:101038001818088010BDC04654000050FFF9000081
:10104800FFC70000794801214170704770470000D0
:10105800F0B585B004469348201A411E88414001E6
:101068008649081801464A310191014654310391D5
:101078000146503100910146403102910546423502
:1010880006463C364C30049027467C3720890F2191
:101098000140481E0B28F9D878440079400087445D
:1010A8005006052005242C0505050534EEE70298B1
:1010B80000882988814236D28842E7D02289C02315
:1010C8001340C02B03D13A88920703D4DEE7A28AE3
:1010D8009206DBD54A1C2A803368595C2180114668
:1010E800EAE7204600F0A4F8D0E704980268002A4E
:1010F800CCD0A08A9E21014004E004980268002A0E
:10110800C4D0012120469047C0E7204600F090F85F
:10111800A08801218843A080039801680029B5D0E0
:10112800019800880BE0A18802229143A180A18840
:1011380080229143A180009909680029A6D0884798
:10114800A4E705B0F0BDC04694AAFC07FEB5009020
:10115800364A0020107002905070504920230B80AE
:1011680001238B81274C216899432160FF26300693
:1011780065680540244FED196560A5680190054034
:10118800A560256802272F43276025680427BD43EB
:10119800256025681D432560384D1D49A961AB644C
:1011A8001C490F6000986864BFF34F8FBFF36F8FBF
:1011B800194908881843088008883843088030048B
:1011C80016490E6886435820285C8007000A3018A4
:1011D8000860134807601078002802D1507800286A
:1011E800F9D0A06801990840A06020689843206061
:1011F80050780028029802D01178002900D01846AB
:10120800FEBDC04610E000E05FEA000094AAFC07BB
:10121800D9A2FC0780E100E00410005000E400E0DF
:1012280000E100E0014801210170704720AAFC0795
:10123800F8B51C49411A4A1E914149010F4A5418F0
:101248002346443300943C34A589E2890E34AA42EB
:1012580009D2868AF60710D00688571C2780196895
:101268008E543A46F3E78188012399438180009898
:10127800416D002901D090B28847F8BD94AAFC07B7
:10128800064920220A80064A8A8106498A8A9206E5
:10129800FCD50880888A4006FCD570470430005089
:1012A8000203000000100050010000001130EF00A0
:1012B80000000200020000001230EF0000000400ED
:1012C8000300000000421F000000020004000000AC
:1012D8001120C20000000200050000001128C20011
:1012E80000000200060000001228C20000000400EE
:1012F8000F000000116085000000020010000000CF
:101308001140850000000200130000001264C800AC
:10131800000004001400000001431F000000040046
:101328001500000001111F00000004001600000055
:1013380002441F00000008001700000008441F00B6
:10134800000008001800000001841F0000000800C9
:10135800190000000C441F00000008001B000000DA
:101368000C451F00000010001C00000001651F0054
:10137800000001001D00000001101F000000020015
:101388001E00000008451F000000100000000000BB
:10139800963007772C610EEEBA51099919C46D077A
:1013A8008FF46A7035A563E9A395649E3288DB0ED5
:1013B800A4B8DC791EE9D5E088D9D2972B4CB609B8
:1013C800BD7CB17E072DB8E7911DBF906410B71D95
:1013D800F220B06A4871B9F3DE41BE847DD4DA1ACE
:1013E800EBE4DD6D51B5D4F4C785D38356986C13FF
:1013F800C0A86B647AF962FDECC9658A4F5C011478
:10140800D96C0663633D0FFAF50D088DC8206E3B55
:101418005E10694CE44160D5727167A2D1E4033C67
:1014280047D4044BFD850DD26BB50AA5FAA8B5358E
:101438006C98B242D6C9BBDB40F9BCACE36CD8327D
:10144800755CDF45CF0DD6DC593DD1ABAC30D92624
:101458003A00DE518051D7C81661D0BFB5F4B42127
:1014680023C4B3569995BACF0FA5BDB89EB8022824
:101478000888055FB2D90CC624E90BB1877C6F2FA9
:10148800114C6858AB1D61C13D2D66B69041DC76A4
:101498000671DB01BC20D2982A10D5EF8985B1717D
:1014A8001FB5B606A5E4BF9F33D4B8E8A2C907782C
:1014B80034F9000F8EA8099618980EE1BB0D6A7FC3
:1014C8002D3D6D08976C6491015C63E6F4516B6B7C
:1014D80062616C1CD83065854E0062F2ED95066C31
:1014E8007BA5011BC1F4088257C40FF5C6D9B065A6
:1014F80050E9B712EAB8BE8B7C88B9FCDF1DDD6203
:10150800492DDA15F37CD38C654CD4FB5861B24D68
:10151800CE51B53A7400BCA3E230BBD441A5DF4A32
:10152800D795D83D6DC4D1A4FBF4D6D36AE96943F5
:10153800FCD96E34468867ADD0B860DA732D0444A0
:10154800E51D03335F4C0AAAC97C0DDD3C710550CB
:10155800AA41022710100BBE86200CC925B5685772
:10156800B3856F2009D466B99FE461CE0EF9DE5EBB
:1015780098C9D9292298D0B0B4A8D7C7173DB3596C
:10158800810DB42E3B5CBDB7AD6CBAC02083B8EDFD
:10159800B6B3BF9A0CE2B6039AD2B1743947D5EA0A
:1015A800AF77D29D1526DB048316DC73120B63E339
:1015B800843B64943E6A6D0DA85A6A7A0BCF0EE498
:1015C8009DFF099327AE000AB19E077D44930FF053
:1015D800D2A3088768F2011EFEC206695D5762F74A
:1015E800CB67658071366C19E7066B6E761BD4FE87
:1015F800E02BD3895A7ADA10CC4ADD676FDFB9F964
:10160800F9EFBE8E43BEB717D58EB060E8A3D6D625
:101618007E93D1A1C4C2D83852F2DF4FF167BBD153
:101628006757BCA6DD06B53F4B36B248DA2B0DD856
:101638004C1B0AAFF64A0336607A0441C3EF60DFF9
:1016480055DF67A8EF8E6E3179BE69468CB361CBE2
:101658001A8366BCA0D26F2536E2685295770CCC07
:1016680003470BBBB91602222F260555BE3BBAC548
:10167800280BBDB2925AB42B046AB35CA7FFD7C239
:1016880031CFD0B58B9ED92C1DAEDE5BB0C2649B2A
:1016980026F263EC9CA36A750A936D02A906099C5D
:1016A8003F360EEB8567077213570005824ABF95D0
:1016B800147AB8E2AE2BB17B381BB60C9B8ED29253
:1016C8000DBED5E5B7EFDC7C21DFDB0BD4D2D386AA
:1016D80042E2D4F1F8B3DD686E83DA1FCD16BE811D
:1016E8005B26B9F6E177B06F7747B718E65A0888EE
:1016F800706A0FFFCA3B06665C0B0111FF9E658F7F
:1017080069AE62F8D3FF6B6145CF6C1678E20AA028
:10171800EED20DD75483044EC2B30339612667A7AE
:10172800F71660D04D476949DB776E3E4A6AD1AEFD
:10173800DC5AD6D9660BDF40F03BD83753AEBCA98C
:10174800C59EBBDE7FCFB247E9FFB5301CF2BDBDF9
:101758008AC2BACA3093B353A6A3B4240536D0BA02
:101768009306D7CD2957DE54BF67D9232E7A66B39F
:10177800B84A61C4021B685D942B6F2A37BE0BB44C
:10178800A18E0CC31BDF055A8DEF022D014800788E
:101798007047C04622AAFC07014800210170704723
:1017A80022AAFC0770B5EFF31085012484F3108892
:1017B80005200607708DC00509D51148047009F089
:1017C800ADFF1049087010480088204048703088E4
:1017D8008021014331800D4801680722914301604F
:1017E80041684907FCD50A4901610A494161002D50
:1017F80002D084F3108870BD002080F3108870BD7B
:1018080022AAFC0720ABFC07800000500000F40768
:101818000F009909090404A4800003A10858064987
:101828000860064848607047010099090300990953
:10183800070099090F0099091000F407090404A486
:101848007CB504460E4D28680726304001A908706B
:101858000878A04213D00B480088C00508D5A01E00
:10186800C1B2042904D840B207A1085C00F010F8FE
:101878002868B0432043286068684007FCD57CBDD1
:101888000000F4072A0000500B130B0B0B0000009C
:1018980010B5044609F042FFA04202D2204609F0E2
:1018A80047FF06480188C90707D1018801220A4372
:1018B8000280034801884907FCD510BD800000500C
:1018C8002A00005070B50D4604460320FFF7B8FF04
:1018D8000C48846045600168C907FCD00420FFF704
:1018E800AFFFFF20C604AD00A859A04207D10520CC
:1018F800FFF7A6FFA859011B4842484170BD0020C8
:1019080070BDC0460400F40710B504460220FFF776
:1019180097FFFF20C004A100085810BD70B51446F9
:101928000D4606460320FFF78BFF00210848A14219
:1019380009D032688260456002689207FCD5491C6C
:101948006D1C361DF3E70168C907FCD070BDC046A1
:101958000400F407F8B514460D460746FFF7DEFF06
:10196800042338462946224600F011F800260028AC
:101978000BD0052338462946224600F008F80028EF
:1019880003D00320FFF75CFF01263046F8BD70B591
:1019980014460E4605461846FFF752FFFF20C004BE
:1019A800B10009180020844207D00A682B689342C6
:1019B80003D1091D401C2D1DF5E7A04201D20020CE
:1019C80070BD012070BD70B514460E460546022054
:1019D800FFF736FFFF20C004B1000818002C03D021
:1019E80002C802C5641EF9E770BDC04670B5EFF3C2
:1019F8001085012484F310880520000702888021BF
:101A08000A430280144A13680726B34313605368D5
:101A18005B07FCD5114B1361114B536102888A4354
:101A28000280408DC0050DD50E48002101700E4E74
:101A3800307809F07DFE7078002803D10B480188C2
:101A4800A1430180002D02D084F3108870BD0020CE
:101A580080F3108870BDC0460000F4070F00990994
:101A6800090404A422AAFC0720ABFC07800000504C
:101A780070B51E2816D10C48101849080B4A0B06D9
:101A880010D0046843680830002635460835382DDC
:101A980006D096193669A6422E46F7D15419E36046
:101AA800491EECE770BDC046D47EF80724AAFC079F
:101AB800F0B589B06824A2480025055301263046B0
:101AC800C046C0469F4F381F00689F49884200D0D3
:101AD800FFE001A870C00F20060704200496054601
:101AE8003918081F3A46EC32904200D3F3E00068F8
:101AF8000890089B3340092214070898A34241D153
:101B0800089B1C0AE3B20593C0B2431E162B71D87A
:101B18009B003E4601A7FB5837469F460B08FC072B
:101B28000B08FC076907FC070B08FC076907FC079B
:101B3800ED06FC077307FC076907FC076907FC0744
:101B48006907FC076907FC076907FC076907FC07C1
:101B58006907FC076907FC076907FC079307FC0787
:101B6800B907FC07DF07FC07F507FC076907FC074F
:101B7800FB07FC070308FC07714A019FD05DC00002
:101B8800101842E0800F0FD00898724988420BD88D
:101B9800284608306E4B19462631089A8A4221D1C8
:101BA800E9596E4A51809AE7089830400721090799
:101BB800884203D10020C046C04611E00898304052
:101BC8000399C90788420BD0089830400521490776
:101BD800884205D00898304003214907884269D1D6
:101BE800281D7CE7089999425BD1E9596622544B34
:101BF800995274E705992A46FFF73AFF4BE069279F
:101C08004F4AD05DC00010181030059A92005EF758
:101C1800B9FC4B49C85D0019C85537463BE0E8593F
:101C28004243E959090C521A12B2D208444B4033C4
:101C3800DA8280B2081A8108444A11400818401C08
:101C4800988228E0E8594243E959090C521A12B21D
:101C5800D2083B4B40335A8380B2081A81083B4A6A
:101C680011400818401C188315E0029CA00006AA21
:101C78001018059EB2005EF785FC341902940AE03C
:101C8800E859622105E0E8592D49086503E0E8595B
:101C980064212B4A5052059880002818001D049E84
:101CA8001DE719462231089A8A4208D1E9592B4A78
:101CB800918014E70898401C28460CD00FE7194675
:101CC8001E31089A8A4200D009E7E959234AD1808F
:101CD80005E7FF2031E01A4C0199605C4008605428
:101CE8006920215C490821542046403006998183A7
:101CF8000921079A5143130CC91A09B2C90801846A
:101D080091B2591A8A08114B1A405118491CC183BB
:101D1800808C002803D17D20C00064216052662198
:101D2800625A0020002A08D10B4A1268D2B2AA2AA5
:101D380001D06E2200E08022625240B209B0F0BDAC
:101D480024AAFC07D47EF807A5A5A5A5FF3F000097
:101D5800020000504C420050D07FF8079C0BFC0753
:101D6800F8B56824144D295D0026144F8E4222D2FE
:101D78002868B8421AD16868C001400C384615D0A6
:101D8800C046C0460C49095D09280ED90320000247
:101D98000CCD18401B049B0E18181060083DE888ED
:101DA800074A1040074A106002E028686A68026023
:101DB8000835761CDAE7F8BD24AAFC074C10004069
:101DC800FF01000024ABFC07F8B56920954E009090
:101DD800315C143600270F4C8F4219D2351F286802
:101DE800A04210D1C046C0468E49009A895C092895
:101DF80008D93068084A1040084A12685204024359
:101E0800286801E028683268026008367F1CE3E72A
:101E1800F8BDC04638300040FFFF01FC24ABFC078A
:101E28007047C04670B5044610480480104D688B52
:101E38000126B04368830D2008F08CFD28883043C4
:101E480002218843288028884006FCD5284608387F
:101E580004807D20C00008F07DFD28880321884388
:101E6800288028880006FCD570BDC04690AAFC07CB
:101E78000A0000500B48018880220A434021C943C8
:101E88000A400280428BFF239A434283428C0423F8
:101E98001343182293434384428CA02313430B40DB
:101EA800438470471600005006480188064A0A40D5
:101EB8000721C902511801800448018808220A43F1
:101EC8000280704720030050FFC3000052000050FA
:101ED800FEB54C4808270780C046C0464A4D2888AA
:101EE80002AC20802088C046C04620880421019189
:101EF800C943084202D00020288003E0A8890121B4
:101F08008843A881FFF7D0FF4048C18D062291433E
:101F1800C18501218B03AE8B1E43AE8303883C4EE3
:101F28001E40068043881343BB434380052216079F
:101F3800738D384CFF34C28D2240DB051AD40F2331
:101F48001B03032464022243C285C28D1A43C2853F
:101F5800AA8BBA43AA83AA8B04239A43AA834288EA
:101F68002E4B13404380C28D0A43C285718D4907A9
:101F7800FCD516E08B021A43C285C28D264B13404E
:101F8800CA039A18C285AA8B3A43AA83AA8B019BD3
:101F98009A43AA83C28D8A43C285A98B4022914362
:101FA800A983A98B03220A43AA830188202211430B
:101FB8004023DB4319400180288C104318402884B3
:101FC800FFF758FFFFF7EEFB0220FFF739FC144834
:101FD8000068C1B20C20AA29014600D001993288B4
:101FE800824388183080C046C046FFF761FD6620EE
:101FF8000C49085AFFF716FFFFF7F8FC09F0FCF840
:10200800FEBDC0460033005004030050520000508B
:10201800FFBF000000F0FFFFFF0F0000FFF9000006
:10202800D07FF80724AAFC07000000008E070E00E6
:0400000507FC00C92B
:00000001FF
