:0200000407FCF7
:1000000000C0FC072101FC073501FC074F01FC077C
:100010006901FC076901FC076901FC076901FC072C
:100020000000000000000000000000006901FC0763
:1000300000000000000000006901FC076901FC07E6
:100040006901FC076901FC076901FC076901FC07FC
:100050006901FC076901FC076901FC076901FC07EC
:100060006901FC076901FC076901FC076901FC07DC
:100070006901FC076901FC076901FC076901FC07CC
:100080006901FC076901FC076901FC07E994FC07A9
:100090006901FC076901FC076901FC076901FC07AC
:0200000407FCF7
:1000C8000348854600F006F800480047A597FC0756
:1000D80000C0FC07064C0125064E05E0E36807CC86
:1000E8002B430C3C98471034B442F7D3FFF7ECFF8E
:1000F800FC01FC073C02FC0702E008C8121F08C10B
:10010800002AFAD170477047002001E001C1121F90
:10011800002AFBD170470000034880F3098800F0EB
:1001280025F8FFF7CDFFC04600C0FC070420714644
:10013800084203D0EFF309800A490847EFF3088023
:1001480008490847704704207146084203D0EFF376
:10015800098005490847EFF30880034908477047B5
:10016800FEE700002196FC071D96FC071C498888BD
:10017800072290438880052000078A89D20710D07B
:10018800098800290DD117494A8802858A888284FE
:10019800CA880284428A144B13400988C90119434A
:1001A8004182124906220A800121CA03104B1A60B3
:1001B800BFF34F8FBFF36F8F02221A60BFF34F8FC9
:1001C800BFF36F8F1960BFF34F8FBFF36F8F4189F4
:1001D8000422914341810021018062B67047C046E4
:1001E80004030050EC0AFC077FFE000000340050B6
:1001F80080E100E03C02FC07C894FC077016000090
:100208000001FC07AC18FC070003FC07EC07000022
:100218000001FC079820FC07EC0AFC070800000016
:100228000001FC07AC18FC0738ABFC07F40200001F
:100238001001FC0700280CD000BF00BF00BF00BFA2
:1002480000BF00BF00BF00BF00BF00BF00BF401E0F
:10025800F0D17047FEB5A74C183420480688012015
:100268000190C004029000271D4D002E34D0042FA9
:1002780032D2F0072BD0A889000605D428896989CD
:10028800401A4142414100E000210198B840134A18
:1002980050802889029A134B1A60BFF34F8FBFF31F
:1002A8006F8F002907D0A989019A9143A981A9894B
:1002B80008229143A9812268002A05D0411C606860
:1002C80089B200949047009C02988C4908601035C8
:1002D800083476087F1CC8E7FEBDC0468236005049
:1002E8000036005080E100E0F8B515460E46044699
:1002F80000F080FD002800D0F8BD00951E4DA888AC
:100308007C210143A9801D48C76800F03FFD0320F8
:100318000006304300F00AFDA8881C210143602034
:100328008143A98000988119B94200D9B81B144E9D
:100338000090314655F71CFD05460746002F08D0AA
:100348002046314600F070FEA41900F031FF7F1EF0
:10035800F4E70C4868430099401805D081B220465C
:1003680000F062FE00F024FF0020034A9084108809
:10037800202101431180F8BD0012005038ABFC0762
:10038800FFFF00000100FFFFFEE7000009480189A8
:1003980004220A430281018840220A430280064956
:1003A80001220A604189054A11408918091D4181C5
:1003B8007047C0460800005080E200E0FC7F000063
:1003C800F0B50A79530140241C40130180251D40D3
:1003D8001609360275192C19D20020251540621904
:1003E80010241C4012190B785B0008241C401219B9
:1003F80006241C401219CB79DB079B0C4C79650845
:10040800ED07ED0CEB18E407240D1B19134383814A
:100418008A790F2A43D0354A82180423DA41931E79
:10042800022B1BD3012A3AD8EFF31083012282F35F
:1004380010888D792E4C2688F6B23609B54203D13C
:100448002688F0273743278026880F27BE432E4368
:100458002680002B1CD082F3108820E0EFF3108355
:10046800012282F31088224C27880F2637408D7985
:10047800AF4202D12788374327802688F027BE431A
:100488002D0135432580002B06D082F3108806E025
:10049800002282F3108802E0002282F310888A6822
:1004A8000280120C4280CA688280120CC2800A8ABA
:1004B800521E42814A88002A00D10A8A521E0281AD
:1004C8004008382202400B4880184A6982618969CD
:1004D800C161FF20000608490A6882430120C3075A
:1004E800D2180A60C00405490860F0BD00CAFFAF11
:1004F80080360050F0ADFC0710E400E000E100E0B9
:1005080080B50346402208461946FFF7EDFE80BD38
:10051800F4B0FC494888012420434880FF20099012
:100528000880F948082110910180F7F7E9F850A8E8
:100538000C30149050A822300C9024A80830059054
:1005480003200490C00102900394E0030190EF207F
:10055800C0430890C821EB4807910180EB4A901EE0
:10056800022106910180EA49881C908010201080A1
:10057800481C50810125158051801099118024ACA8
:100588000998A075A571A1807D2080016080002157
:1005980021700598016041608160229181811A2053
:1005A8001081204600F098FC00F03CFC2395A8043C
:1005B800D84DE860204600F08FFC00F033FC287925
:1005C800002803D100F016FC00285CD02398C00452
:1005D800D1490860BFF34F8FBFF36F8F0720C10366
:1005E80040AC0C2220460F92FFF77EFE2078702840
:1005F80000D04BE36078522800D047E341983E9002
:1006080042993F9171917090229F3B973C973D97FB
:100618003BAC70AE0E97022F20D0306850AD294603
:10062800FFF76EFFA878AA2814D12878702811D16E
:10063800687851280ED150A8C0786CA9C8550622F0
:1006480020460C9955F70EFC2398B840C0B20E9975
:1006580001430E91361DA41D7F1CDCE70E9903296A
:1006680007D0002900D111E34A1E501E82410846D6
:100678004BE06CA8417802780320FF2A3CD100297E
:100688003AD1039A41E0A54E30881C2101436020ED
:100698008143318000F07AFB9F20A14FB8470025A5
:1006A8002846B84721902846B84704462846B84700
:1006B8003584311F0A88202313430B8021990906AA
:1006C800090A2206120C5118C0B2081800D17DE799
:1006D800089A11460C3100D178E7924B9A18F42306
:1006E800D25890420A46F5D18E484018E4308949DC
:1006F800091D1CC81CC169E7002A01D1FF2901D0C6
:100708008A4201D3002200E00122002800D1BDE284
:100718000D920024022C20D0062060433BA9081823
:10072800C578A8008049401850A9042200F0CAFAE8
:1007380000210846042904D050A90A5C411CFF2A5C
:10074800F7D0052D239900D30021001F42424241D2
:100758000A403AA80255641CDCE700262AAF04992F
:100768000D9C022E1FD03AA8805D002813D03BA80C
:10077800405C400123916D494018664D1035202496
:100788002946224600F09EFA3846294622460D9C04
:1007980055F768FB23992037891D761CE1E701206E
:1007A800444000200E900D94E4B2A0003EA90858E1
:1007B80040A90A90FFF7A4FE3AA8005D002800D1DE
:1007C800F4E1419A0A99403159481192FFF78CFD9A
:1007D8004C480999018057485749016060012AA986
:1007E8002390091800221346042B1BD28D18514C54
:1007F800A4182E7836066F783F04BE19AF783F02EA
:10080800F619EF78F61966602E7936066F793F0487
:10081800BE19AF793F02F619ED797519A56008324E
:100828009B1CE1E74349143144A204232C2B1FD01D
:100838000C1F24689D0714D1E5B2484F7D5D2D0239
:10084800260AF6B2BE5D36047519260CF6B2BE5DF0
:100858003606AD19240E3C5D2D19147824066C401B
:10086800521C0D46103D2D68654020C15B1CDDE71C
:10087800792189002F4A50182AA9239A89181031FA
:1008880010220B90219255F7EDFA28201421052803
:100898006CD32390274842581346229130490B4085
:1008A800DD095D1B30480540560033462D4C23407A
:1008B8006B405D002F460F40FC093F1B07400E4070
:1008C8002299F409341B0440F748054065406E003E
:1008D800F54806407E4072401446109FFC4117467A
:1008E8006F402198C741239867405A401824E24135
:1008F8007A405A406A407240ED4B5A50091D401EDA
:10090800C5E7C046003100500233005004300050A3
:100918001B03000038ABFC0780E100E00412005024
:10092800C19FFC0754A4FC07A87EF807C87CF807F9
:100938000000FC0788ABFC070A0004000102040859
:10094800102040801B366CD8AB4D9A2F5EBC63C616
:1009580097356AD4B37DFAEFC591000038A6FC0735
:1009680080808080FEFEFEFE1B1B1B1B64A80B996B
:100978003CC93CC00020102806D064A9095809BA0F
:100988006CAA1150001DF6E7C54C11980F2800DC21
:10099800E9E01038129060A81022139421461592AD
:1009A80055F760FA0020102808D060A9095809BA3C
:1009B80070AA115068AA1150001DF4E7BC490888B4
:1009C8001690000108180F990A1D07D068AA5358F5
:1009D800441864685C405450091FF5E7431808330D
:1009E8001698401E1A9000271698874200D1A1E059
:1009F80017930425149C1B97002D00D187E023949E
:100A0800A807000F68A9085CAD4C235C681C800728
:100A1800000F08184078265CA81C8007000F0818EB
:100A28008078205C6D1EAA07120F8918C978615C4E
:100A38001A9A97425FDA229606464E4074001B22A5
:100A4800802E209100D354401F94229C6040410086
:100A58008028219200D351401F9AD2B2C9B21E9168
:100A68004A405100802A01D3219A51401D911A46CB
:100A780062405100802A01D3219A5140CCB22246CB
:100A88001E994A405100802A199401D3219A514055
:100A98001D9AD7B2CCB2224618977A405100802AC4
:100AA8001C9401D3219A5140CFB21C4620994C4046
:100AB8006100802C01D3219C6140239C229A5140E3
:100AC800C9B21C9A5140794071407B405E40199AE6
:100AD8005640189A564058401F9A50401D9A504008
:100AE8000006209A5340229A53401E9A53401C9A5B
:100AF80053401A0403E000040A061946239C0243E3
:100B08003002104308432060241F1B9F74E7159888
:100B1800179B00280AD0011F50AA8A5818181438A1
:100B28000068504068AA88500846F2E71B18103B36
:100B38007F1C59E7002010280CD06CA90A5870AB0C
:100B48001B580B5068A90958514009BA50AA1150AE
:100B5800001DF0E750A91022139C204655F782F992
:100B68001034129812E70020102806D06CA90958F2
:100B780009BA64AA1150001DF6E764A80B9D1EC8A7
:100B88001EC50898EF30002242994A4C119B9342A7
:100B980009D0434B9B5C4340DBB29B00E358000AFF
:100BA8005840521CF2E7C04381422CD000F022F991
:100BB800002823D100F01EF900281FD1C14A10884F
:100BC8001C210143602081431180062000F0DEFAD9
:100BD80000F03CF9002811D100F016F980070DD576
:100BE8000A98811CB74B18887C2202431A8001207E
:100BF8004007084300F0CAFA00F028F90E980328C5
:100C08000D9C43D1CBE524480799018023481099CE
:100C1800018000F0C7F8039800F070F80024264817
:100C28000480029D284680303F4948801420FFF701
:100C380001FB314804801D4800780028194A09D072
:100C48001046123800884001284011881B4B194073
:100C580001431180124908680842019B0ED0108890
:100C680050A908800888069A1043012290430D4A2B
:100C7800088050981843088050981080108850A910
:100C880008805098184308805098108000F08AF81F
:100C9800002000F033F85DE40031005002330050CA
:100CA8000000FC0712000050FEFEFEFE38ABFC07F9
:100CB80088ABFC0738A7FC07400000507FFE000007
:100CC80038A5FC0770B514460D460646F6F7DAF95E
:100CD8000220F6F713FA28463146224655F7C2F89D
:100CE800F6F7B4FA70BD000003480121018082893B
:100CF8000A4382817047C046000300500A49002811
:100D080003D0881E0222028001E002200880012010
:100D180042028A8010230B804A8108804A8008207A
:100D280008800A817047C0460430005010B5044658
:100D380000F0A0F8BA490A881F239A430A800A8853
:100D4800022313430B800A88042313430B800A8869
:100D5800012313430B80022801D3220C0A850C843B
:100D68000A8BD204FCD4022802D3088D020402E0C4
:100D7800002803D00022888B104301E0888BC0B282
:100D880018228A5E002AFBD410BDC046F1480188AB
:100D9800202291430180EE4909780907490F81848F
:100DA8007047C04610B5EFF31081012080F310881A
:100DB8009A4A1388054C1C401480002902D080F3FD
:100DC800108810BD002080F3108810BDFFFB0000C4
:100DD80080B5FA480278D20704D1054A0023D35EC9
:100DE800002BFBD48268002A01D00846904780BDBA
:100DF8001812005080B500F007F801210140484260
:100E08000D21884380BD000080B5DF4801883C2261
:100E18000A4340218A4302800520000200F0B6F907
:100E280080B280BD80B5FFF7B1FFE0480021818422
:100E3800018820220A43028081881C220A436021FB
:100E48008A438280AB2000F0A1F980BDB0B50025AF
:100E5800074C611CA94205D06D1CFFF7D5FFC007E0
:100E6800F7D1691E0020A14200D9C043B0BDC046D9
:100E78007F841E00C44800884006C00E1CD041086C
:100E880001438A080A4300091043010A0143080C78
:100E98000843C04341080C4A0A40801A0B4982089B
:100EA80008400A40801801094018094901400948CA
:100EB8004843000E1D3800E00320C1174840401A7F
:100EC800C0B270470412005055555555333333336B
:100ED8000F0F0F0F01010101F0B589B00646EFF3BE
:100EE8001080012585F31088A9024C4A13880B430A
:100EF8001380002802D085F3108802E0002080F3D8
:100F08001088AA4C202001902080317907200840C1
:100F180000F024F93078A188032291430007400F9C
:100F28000843A0803178A28880208243C907090E2F
:100F38005118A18031782940A04D2A78FE2313400A
:100F480059182B4629700027A7812189014321813F
:100F58003078C00724D11878F12101403079800811
:100F68000E2202408818187071887D200002814284
:100F780002D121897F2009E049001D4654F7F8FE77
:100F88002B4621897F229143401EC0B2084320810D
:100F9800B07D218840229143C007400E0818208068
:100FA800B0685860F06898603069D8601D4D324666
:100FB800307DC007284601D028462030186102AE8F
:100FC8007780042131703782F78077710092517DE4
:100FD8000C01611D317108970797059773491C31FA
:100FE80004913146FFF7ECF9E01C30710098007D60
:100FF800C00701D0303500E01035704845616B4CB2
:1010080020462030059028463146FFF7D9F9208838
:1010180001998843208009B0F0BDC0460400005003
:101028000012005000360050F0B587B00546634FF7
:101038003878C00700D089E00C46FFF71BFF5B4EED
:1010480031881F2291433180318802220A4332803D
:10105800318804220A43328002281CD130880121B9
:1010680001433180002081B2A1420FD2318B890423
:10107800FCD4002131853184318BC904FCD4B18B77
:10108800328D1204511802C5401CECE71820305E5E
:101098000028FBD45AE0FFF7EDFE3B695A083821D7
:1010A80004910A403946183105912B4F8F50471E3D
:1010B800B84140000627F94303919F890F4038182B
:1010C80098819D80280CD880601E019018815881D5
:1010D80098890821029108439881988901210091F3
:1010E800084398813088102303433380059880187B
:1010F8000027476031484569A88940229043A88164
:101108006C0804980440FFF7B5FE059A1751411E74
:1011180088414000A989039B19400818A88106A89E
:101128002880000C6880019828816881A889029B22
:101138009843A881A88900990843A8813088184352
:1011480030801019476030880843308007B0F0BD00
:10115800F0ADFC070012005065A0FC070A49022800
:1011680007D0012809D000280A881C2010436022D3
:1011780007E00A887C20104304E00A883C201043DA
:1011880040229043088070470412005010B504466E
:10119800FFF7FCFD2046FFF7C9FD044900228A84B9
:1011A8000A88202313430B8010BDC046001200504C
:1011B800024800698189C907FCD17047F0ADFC0776
:1011C800010000001130EF000000020002000000E2
:1011D8001230EF00000004000300000000421F006E
:1011E80000000200040000001120C20000000200FC
:1011F800050000001128C2000000020006000000DF
:101208001228C200000004000F00000011608500D1
:1012180000000200100000001140850000000200DC
:10122800130000001264C80000000400140000004D
:1012380001431F00000004001500000001111F00F9
:10124800000004001600000002441F00000008000F
:101258001700000008441F000000080018000000E4
:1012680001841F0000000800190000000C441F0042
:10127800000008001B0000000C451F0000001000C3
:101288001C00000001651F00000001001D00000097
:1012980001101F00000002001E00000008451F008A
:1012A8000000100052096AD53036A538BF40A39E09
:1012B80081F3D7FB7CE339829B2FFF87348E43442D
:1012C800C4DEE9CB547B9432A6C2233DEE4C950B89
:1012D80042FAC34E082EA16628D924B2765BA249E9
:1012E8006D8BD12572F8F66486689816D4A45CCC08
:1012F8005D65B6926C704850FDEDB9DA5E154657DB
:10130800A78D9D8490D8AB008CBCD30AF7E4580510
:10131800B8B34506D02C1E8FCA3F0F02C1AFBD031C
:1013280001138A6B3A9111414F67DCEA97F2CFCEED
:10133800F0B4E67396AC7422E7AD3585E2F937E888
:101348001C75DF6E47F11A711D29C5896FB7620ECA
:10135800AA18BE1BFC563E4BC6D279209ADBC0FEAB
:1013680078CD5AF41FDDA8338807C731B112105958
:101378002780EC5F60517FA919B54A0D2DE57A9F4A
:1013880093C99CEFA0E03B4DAE2AF5B0C8EBBB3C3F
:1013980083539961172B047EBA77D626E1691463C3
:1013A80055210C7D637C777BF26B6FC53001672B11
:1013B800FED7AB76CA82C97DFA5947F0ADD4A2AF41
:1013C8009CA472C0B7FD9326363FF7CC34A5E5F14F
:1013D80071D8311504C723C31896059A071280E2FD
:1013E800EB27B27509832C1A1B6E5AA0523BD6B351
:1013F80029E32F8453D100ED20FCB15B6ACBBE39C1
:101408004A4C58CFD0EFAAFB434D338545F9027FAC
:10141800503C9FA851A3408F929D38F5BCB6DA2165
:1014280010FFF3D2CD0C13EC5F974417C4A77E3D91
:10143800645D197360814FDC222A908846EEB814E7
:10144800DE5E0BDBE0323A0A4906245CC2D3AC62AA
:101458009195E479E7C8376D8DD54EA96C56F4EAB5
:10146800657AAE08BA78252E1CA6B4C6E8DD741FC6
:101478004BBD8B8A703EB5664803F60E613557B989
:1014880086C11D9EE1F8981169D98E949B1E87E943
:10149800CE5528DF8CA1890DBFE6426841992D0FF2
:1014A800B054BB1600000000963007772C610EEE92
:1014B800BA51099919C46D078FF46A7035A563E9A3
:1014C800A395649E3288DB0EA4B8DC791EE9D5E0CA
:1014D80088D9D2972B4CB609BD7CB17E072DB8E7C9
:1014E800911DBF906410B71DF220B06A4871B9F31E
:1014F800DE41BE847DD4DA1AEBE4DD6D51B5D4F457
:10150800C785D38356986C13C0A86B647AF962FDBB
:10151800ECC9658A4F5C0114D96C0663633D0FFA08
:10152800F50D088DC8206E3B5E10694CE44160D50E
:10153800727167A2D1E4033C47D4044BFD850DD2F8
:101548006BB50AA5FAA8B5356C98B242D6C9BBDB0B
:1015580040F9BCACE36CD832755CDF45CF0DD6DC06
:10156800593DD1ABAC30D9263A00DE518051D7C8AD
:101578001661D0BFB5F4B42123C4B3569995BACF38
:101588000FA5BDB89EB802280888055FB2D90CC659
:1015980024E90BB1877C6F2F114C6858AB1D61C1D2
:1015A8003D2D66B69041DC760671DB01BC20D298F1
:1015B8002A10D5EF8985B1711FB5B606A5E4BF9F7E
:1015C80033D4B8E8A2C9077834F9000F8EA8099671
:1015D80018980EE1BB0D6A7F2D3D6D08976C6491DC
:1015E800015C63E6F4516B6B62616C1CD8306585F5
:1015F8004E0062F2ED95066C7BA5011BC1F40882D2
:1016080057C40FF5C6D9B06550E9B712EAB8BE8B12
:101618007C88B9FCDF1DDD62492DDA15F37CD38C9B
:10162800654CD4FB5861B24DCE51B53A7400BCA399
:10163800E230BBD441A5DF4AD795D83D6DC4D1A4CB
:10164800FBF4D6D36AE96943FCD96E34468867ADA2
:10165800D0B860DA732D0444E51D03335F4C0AAA41
:10166800C97C0DDD3C710550AA41022710100BBE44
:1016780086200CC925B56857B3856F2009D466B98B
:101688009FE461CE0EF9DE5E98C9D9292298D0B0C0
:10169800B4A8D7C7173DB359810DB42E3B5CBDB76D
:1016A800AD6CBAC02083B8EDB6B3BF9A0CE2B603EE
:1016B8009AD2B1743947D5EAAF77D29D1526DB04A3
:1016C8008316DC73120B63E3843B64943E6A6D0DEE
:1016D800A85A6A7A0BCF0EE49DFF099327AE000A39
:1016E800B19E077D44930FF0D2A3088768F2011ECC
:1016F800FEC206695D5762F7CB67658071366C1963
:10170800E7066B6E761BD4FEE02BD3895A7ADA1083
:10171800CC4ADD676FDFB9F9F9EFBE8E43BEB71764
:10172800D58EB060E8A3D6D67E93D1A1C4C2D838EE
:1017380052F2DF4FF167BBD16757BCA6DD06B53F54
:101748004B36B248DA2B0DD84C1B0AAFF64A033693
:10175800607A0441C3EF60DF55DF67A8EF8E6E3112
:1017680079BE69468CB361CB1A8366BCA0D26F255B
:1017780036E2685295770CCC03470BBBB9160222A8
:101788002F260555BE3BBAC5280BBDB2925AB42BBD
:10179800046AB35CA7FFD7C231CFD0B58B9ED92CD2
:1017A8001DAEDE5BB0C2649B26F263EC9CA36A7537
:1017B8000A936D02A906099C3F360EEB85670772EE
:1017C80013570005824ABF95147AB8E2AE2BB17B55
:1017D800381BB60C9B8ED2920DBED5E5B7EFDC7CDC
:1017E80021DFDB0BD4D2D38642E2D4F1F8B3DD6833
:1017F8006E83DA1FCD16BE815B26B9F6E177B06F2E
:101808007747B718E65A0888706A0FFFCA3B06661A
:101818005C0B0111FF9E658F69AE62F8D3FF6B61A7
:1018280045CF6C1678E20AA0EED20DD75483044E49
:10183800C2B30339612667A7F71660D04D476949D7
:10184800DB776E3E4A6AD1AEDC5AD6D9660BDF40EA
:10185800F03BD83753AEBCA9C59EBBDE7FCFB2479D
:10186800E9FFB5301CF2BDBD8AC2BACA3093B35382
:10187800A6A3B4240536D0BA9306D7CD2957DE548B
:10188800BF67D9232E7A66B3B84A61C4021B685D64
:10189800942B6F2A37BE0BB4A18E0CC31BDF055ADD
:1018A8008DEF022D014800787047C0467CADFC07DB
:1018B80001480021017070477CADFC0710B5EFF3BB
:1018C8001081012080F310880522120713888024D4
:1018D8001C4314800A4A13680724A34313605368FF
:1018E8005B07FCD5074B1361074B5361002902D0F6
:1018F80080F3108810BD002080F3108810BDC0460A
:101908000000F4070F009909090404A4800003A14A
:101918000858064908600648486070470100990958
:1019280003009909070099090F0099091000F407A5
:10193800090404A418B508490B68072213406C462B
:1019480023702378834206D00B68934303430B60CC
:1019580048684007FCD518BD0000F40770B50D466F
:1019680004460320FFF7E6FF0C48846045600168E1
:10197800C907FCD00420FFF7DDFFFF20C604AD0037
:10198800A859A04207D10520FFF7D4FFA859011B89
:101998004842484170BD002070BDC0460400F407AD
:1019A80010B504460220FFF7C5FFFF20C004A100C0
:1019B800085810BD70B514460D4606460320FFF7BB
:1019C800B9FF00210848A14209D032688260456009
:1019D80002689207FCD5491C6D1C361DF3E70168A7
:1019E800C907FCD070BDC0460400F407F8B514461A
:1019F8000D460746FFF7DEFF0423384629462246F0
:101A080000F011F8002600280BD005233846294697
:101A1800224600F008F8002803D00320FFF78AFFC9
:101A280001263046F8BD70B514460E4605461846E0
:101A3800FFF780FFFF20C004B1000918002084428E
:101A480007D00A682B68934203D1091D401C2D1D3D
:101A5800F5E7A04201D2002070BD012070BD70B52D
:101A680014460E4605460220FFF764FFFF20C00417
:101A7800B1000818002C03D002C802C5641EF9E79B
:101A880070BDC04670B5EFF31081012080F3108857
:101A980005221207148880231C4314800B4C2568E8
:101AA8000726B543256065686D07FCD5084D256197
:101AB800084D656114889C431480002902D080F386
:101AC800108870BD002080F3108870BD0000F407F6
:101AD8000F009909090404A470B51E2816D10C48F2
:101AE800101849080B4A0B0610D0046843680830E0
:101AF800002635460835382D06D096193669A6428F
:101B08002E46F7D15419E360491EECE770BDC04674
:101B1800D47EF80780ADFC07F0B589B06824A248E8
:101B28000025055301263046C046C0469F4F381F42
:101B380000689F49884200D0FFE001A870C00F20CC
:101B480006070420049605463918081F3A46EC3261
:101B5800904200D3F3E000680890089B33400922C4
:101B680014070898A34241D1089B1C0AE3B20593C5
:101B7800C0B2431E162B71D89B003E4601A7FB58E6
:101B880037469F465B07FC075B07FC07B906FC075F
:101B98005B07FC07B906FC073D06FC07C306FC0704
:101BA800B906FC07B906FC07B906FC07B906FC0725
:101BB800B906FC07B906FC07B906FC07B906FC0715
:101BC800B906FC07E306FC070907FC072F07FC0713
:101BD8004507FC07B906FC074B07FC075307FC073A
:101BE800714A019FD05DC000101842E0800F0FD0ED
:101BF8000898724988420BD8284608306E4B194617
:101C08002631089A8A4221D1E9596E4A51809AE7C9
:101C18000898304007210907884203D10020C046B0
:101C2800C04611E0089830400399C90788420BD094
:101C38000898304005214907884205D00898304067
:101C480003214907884269D1281D7CE708999942F0
:101C58005BD1E9596622544B995274E705992A4693
:101C6800FFF73AFF4BE069274F4AD05DC0001018D4
:101C78001030059A92005EF711FD4B49C85D0019B6
:101C8800C85537463BE0E8594243E959090C521A0E
:101C980012B2D208444B4033DA8280B2081A810863
:101CA800444A11400818401C988228E0E8594243E9
:101CB800E959090C521A12B2D2083B4B40335A83E5
:101CC80080B2081A81083B4A11400818401C188342
:101CD80015E0029CA00006AA1018059EB2005EF747
:101CE800DDFC341902940AE0E859622105E0E8595C
:101CF8002D49086503E0E85964212B4A505205989C
:101D080080002818001D049E1DE719462231089AF4
:101D18008A4208D1E9592B4A918014E70898401C57
:101D280028460CD00FE719461E31089A8A4200D07F
:101D380009E7E959234AD18005E7FF2031E01A4C29
:101D48000199605C400860546920215C490821546D
:101D580020464030069981830921079A5143130C84
:101D6800C91A09B2C908018491B2591A8A08114BD3
:101D78001A405118491CC183808C002803D17D204A
:101D8800C000642160526621625A0020002A08D1EE
:101D98000B4A1268D2B2AA2A01D06E2200E0802231
:101DA800625240B209B0F0BD80ADFC07D47EF8079E
:101DB800A5A5A5A5FF3F0000020000504C42005019
:101DC800D07FF807EC0AFC07F8B56824144D295DA4
:101DD8000026144F8E4222D22868B8421AD1686869
:101DE800C001400C384615D0C046C0460C49095DB4
:101DF80009280ED9032000020CCD18401B049B0EA5
:101E080018181060083DE888074A1040074A106013
:101E180002E028686A6802600835761CDAE7F8BDCF
:101E280080ADFC074C100040FF01000028AEFC0705
:101E3800F8B56920954E0090315C143600270F4C98
:101E48008F4219D2351F2868A04210D1C046C0461B
:101E58008E49009A895C092808D93068084A1040D8
:101E6800084A126852040243286801E02868326868
:101E7800026008367F1CE3E7F8BDC04638300040F2
:101E8800FFFF01FC28AEFC077047C04670B504464A
:101E980010480480104D688B0126B04368830D20DC
:101EA80008F0E4FD288830430221884328802888E8
:101EB8004006FCD52846083804807D20C00008F07C
:101EC800D5FD288803218843288028880006FCD56A
:101ED80070BDC046ECADFC070A0000500B480188F5
:101EE80080220A434021C9430A400280428BFF23D3
:101EF8009A434283428C0423134318229343438416
:101F0800428CA02313430B404384704716000050B3
:101F180006480188064A0A400721C902511801806B
:101F28000448018808220A430280704720030050B1
:101F3800FFC3000052000050FEB54C480827078038
:101F4800C046C0464A4D288802AC20802088C0463A
:101F5800C046208804210191C943084202D00020CC
:101F6800288003E0A88901218843A881FFF7D0FFD2
:101F78004048C18D06229143C18501218B03AE8B58
:101F88001E43AE8303883C4E1E400680438813439D
:101F9800BB43438005221607738D384CFF34C28D2E
:101FA8002240DB051AD40F231B03032464022243B7
:101FB800C285C28D1A43C285AA8BBA43AA83AA8B4B
:101FC80004239A43AA8342882E4B13404380C28D30
:101FD8000A43C285718D4907FCD516E08B021A4366
:101FE800C285C28D264B1340CA039A18C285AA8B94
:101FF8003A43AA83AA8B019B9A43AA83C28D8A4338
:10200800C285A98B40229143A983A98B03220A4345
:10201800AA830188202211434023DB431940018011
:10202800288C104318402884FFF758FFFFF746FC18
:102038000220FFF77FFC14480068C1B20C20AA29CF
:10204800014600D001993288824388183080C04602
:10205800C046FFF761FD66200C49085AFFF716FFD6
:10206800FFF710FD09F05CFAFEBDC04600330050D2
:102078000403005052000050FFBF000000F0FFFFB3
:10208800FF0F0000FFF90000D07FF80780ADFC07C4
:08209800000000008E070E009D
:0400000507FC00C92B
:00000001FF
