:0200000407FCF7
:100000000000FD072101FC073501FC074F01FC073B
:100010006901FC076901FC076901FC076901FC072C
:100020000000000000000000000000006901FC0763
:1000300000000000000000006901FC077DD6FC07FD
:100040006901FC076901FC07A1D6FC0791D6FC07F2
:100050006901FC076901FC076901FC076901FC07EC
:100060006901FC076901FC076901FC076901FC07DC
:100070006901FC076901FC076901FC076901FC07CC
:100080006901FC076901FC076901FC07C9D4FC0789
:100090006901FC076901FC076901FC076901FC07AC
:0200000407FCF7
:1000C8000348854600F006F80048004751D8FC0769
:1000D8000000FD07064C0125064E05E0E36807CC45
:1000E8002B430C3C98471034B442F7D3FFF7ECFF8E
:1000F8008001FC07C001FC0702E008C8121F08C104
:10010800002AFAD170477047002001E001C1121F90
:10011800002AFBD170470000034880F3098800F0EB
:1001280025F8FFF7CDFFC0460000FD070420714603
:10013800084203D0EFF309800A490847EFF3088023
:1001480008490847704704207146084203D0EFF376
:10015800098005490847EFF30880034908477047B5
:10016800FEE7000001D6FC07FDD5FC0780B5AD48C9
:100178005EF7AEFC80BDC046C001FC07C8D4FC07D2
:10018800501400000001FC071016FC070003FC07D0
:10019800880300000001FC079819FC078806FC0783
:1001A800080000000001FC071016FC0718E9FC070E
:1001B800240100001001FC07FEB5C64C1C34204881
:1001C800068801200190C004029000271D4D002ED2
:1001D80034D0042F32D2F0072BD0A889000605D4DA
:1001E80028896989401A4142414100E0002101986B
:1001F800B840134A50802889029A134B1A60BFF3FB
:100208004F8FBFF36F8F002907D0A989019A9143B7
:10021800A981A98908229143A9812268002A05D0C9
:10022800411C606889B200949047009C0298AB49D1
:1002380008601035083476087F1CC8E7FEBDC04644
:10024800823600500036005080E100E0F8B51546CF
:100258000E46044600F04CFC002800D0F8BD00957E
:100268001E4DA8887C210143A9801D48876800F09D
:100278000BFC03200006304300F0D6FBA8881C21A5
:10028800014360208143A98000988119B94200D9AF
:10029800B81B144E009031464FF788FE05460746B6
:1002A800002F08D02046314600F03EFDA41900F08A
:1002B800FFFD7F1EF4E70C4868430099401805D0FD
:1002C80081B2204600F030FD00F0F2FD0020034A24
:1002D80090841088202101431180F8BD001200503D
:1002E8002CEAFC07FFFF00000100FFFFFEE700000B
:1002F8000948018904220A430281018840220A43ED
:100308000280064901220A604189054A114089187C
:10031800091D41817047C0460800005080E200E096
:10032800FC7F0000B8B50122D0030E4909684901D5
:10033800C90D0D490CD00B886C46238023880225F3
:100348001D4395432580009A02432280009A0A8023
:100358000A886B461A80009A02431A80009808801F
:10036800B8BDC0460000FC0712000050594880691B
:10037800002802D0014801214170704718E9FC07A4
:1003880080B5024800F0A2FD80BDC04600110050B3
:1003980080B5024800F09AFD80BDC04600100050AC
:1003A800F0B50A79530140241C40130180251D40F3
:1003B8001609360275192C19D20020251540621924
:1003C80010241C4012190B785B0008241C401219D9
:1003D80006241C401219CB79DB079B0C4C79650865
:1003E800ED07ED0CEB18E407240D1B19134383816B
:1003F8008A790F2A43D0354A82180423DA41931E9A
:10040800022B1BD3012A3AD8EFF31083012282F37F
:1004180010888D792E4C2688F6B23609B54203D15C
:100428002688F0273743278026880F27BE432E4388
:100438002680002B1CD082F3108820E0EFF3108375
:10044800012282F31088224C27880F2637408D79A5
:10045800AF4202D12788374327802688F027BE433A
:100468002D0135432580002B06D082F3108806E045
:10047800002282F3108802E0002282F310888A6842
:100488000280120C4280CA688280120CC2800A8ADA
:10049800521E42814A88002A00D10A8A521E0281CD
:1004A8004008382202400B4880184A69C2618969AD
:1004B8000162FF20000608490A6882430120C30739
:1004C800D2180A60C00405490860F0BD00CAFFAF31
:1004D80080360050ACE9FC0710E400E000E100E0E1
:1004E8000848007800280BD00320C001052109071F
:1004F8000A8852010240488A034B034098184882F0
:100508007047C04628EAFC077FFE000010B552F786
:10051800EBF90120410200242046224652F792F8C6
:10052800142051F79BFF0148048010BD00030050C0
:1005380080B50346402208461946FFF787FE80BD6E
:10054800BAB0F84948880122079210434880FF2032
:1005580009900880FE4808210B910180F2F75AFEA5
:100568000FA8083004900320039000020A90EF209F
:10057800C0430C90F74C204652F7CEFE582102207B
:10058800F54E7052F54B1988A18980221143A1813B
:100598000B21F34D29800B9921800025A580A18985
:1005A8009143A1810399A18101210E919983218A07
:1005B8002022069291432182218A814321821D842F
:1005C800FA49F1643565F84971659D8400F096FD36
:1005D80027A800F0F9FC002824D027A800780128D3
:1005E80023D127A800F0F0FC0C990E46ED36002820
:1005F8001DD027A807780C4600F0E6FCEC3400284C
:1006080000D158E127A800780002C71900D16BE192
:10061800E748874200D287E1152000F06FFD0C9E65
:10062800EB3604E00C9EEF3601E00C9EEE36DD481A
:1006380052F78CFE012E1BDB0A98D949002E05D0F3
:1006480002780A70761E401C491CF7E7C820D24978
:100658000880D2480B990180052000210A460B46E4
:1006680052F712F8FFF752FFFFF73AFFFFF75AFE6B
:10067800C821C948059101801D220E980A9C21466F
:10068800079BE84DA84704201C2200262146089213
:100698003346A8471B22304621463346A847032045
:1006A8001A220D9031463346A8470FAF0998B875FE
:1006B8000E9CBC710B98B8807D20800178803E70BC
:1006C80004980660466086608681384600F084FAA1
:1006D80000F028FAA004B74CA060384600F07CFA75
:1006E80000F020FA2078002803D100F001FA002851
:1006F8004CD00E98C004B2490860BFF34F8FBFF3C7
:100708006F8F0720C10317AF0C223846FFF79EFDF5
:100718003878702800D0E1E07878522800D0DDE001
:1007280018981590199916913891379037AC354625
:10073800022E18D0206827AF3946FFF7F9FEB8789F
:10074800AA280DD1387870280AD17878512807D18D
:1007580027A8C07839A988550E98B040C0B205437B
:10076800241D761CE4E7032D07D0002D00D1B5E049
:10077800691E481E8141284648E039A94878097809
:10078800FF293AD1002838D107993EE0E44C208867
:100798000899084360218843208000F075F99F205C
:1007A800854DA84700273846A84702903846A847ED
:1007B80001903846A8472784211F0A88069B1A43B8
:1007C8000A8002990906090A019A1206120C5118A0
:1007D800C0B208188DD00C9A11460C3189D0774BCD
:1007E8009A18F423D25890420A46F6D17348401812
:1007F800E43070491CC81CC17BE7002901D1FF28DF
:1008080002D081420E9900D300210D98002865D0AE
:100818000D91C8B2800015A90F5817A93846FFF7DF
:1008280087FE39464031189E5D4C20463246FFF718
:100838000DFD0C98EF3019992246624C002E09D014
:1008480013784340DBB29B00E358000A5840521C1F
:10085800761EF3E7C04381422FD000F049F9002803
:1008680022D100F045F900281ED1D64A10880899EF
:100878000843602188431080062000F007FB00F041
:1008880065F9002810D100F03DF980070CD5B91C96
:10089800CC4B18887C2202431A800E9840070843E4
:1008A80000F0F4FA00F052F9032D0D9916D10E98C4
:1008B80041400025ACE72646B9E63748059901804E
:1008C80036480B99018000F0EBF8079800F090F893
:1008D800FFF71CFEFFF704FEFFF724FD00F0E0F829
:1008E800002000F085F845E627A800F06DFB0028F9
:1008F80000D19CE627A8077800F066FB002826466A
:1009080000D194E627A8047800F05EFB00283FD0C9
:100918002002C01927A909780904471800D077E6EA
:100928007AE6C04600310050062000F0E7FB2C466E
:10093800AF4217D018480999018027A800F044FB56
:1009480000281FD027980A99485544406D1CEFE7A6
:100958000233005000100050ACE9FC077C10005036
:10096800C0100050E0B200F0C9FB27A800F02CFB33
:1009780000280AD027A80078062801D00C9FE8375D
:100988003E4654E60C9EEA3651E60C9EE9364EE6A3
:100998000C9EE7364BE6C04600310050023300504B
:1009A8000000FC0700100050B1E3FC07D9E1FC0788
:1009B800019100002CEAFC0739DDFC0734E4FC0750
:1009C80080E100E018E5FC07B0B5064C012525805C
:1009D800054802781B20054951F7F0FDA0892843F6
:1009E800A081B0BD000300501AE9FC0738EAFC07F3
:1009F80070B503460120450200240A4E29462246C6
:100A0800B0470420294622462346B04720462946B7
:100A180022462346B0470320294622462346B047AC
:100A280070BDC04699F9F10710B5044600F0A2F868
:100A3800BB490A881F239A430A800A880223134362
:100A48000B800A88042313430B800A88012313436D
:100A58000B80022801D3220C0A850C840A8BD2044D
:100A6800FCD4022802D3088D020402E0002803D037
:100A78000022888B104301E0888BC0B218228A5E5E
:100A8800002AFBD410BDC046F248018820229143B9
:100A98000180EF4909780907490F81847047C046EA
:100AA80010B5EFF31081012080F310889B4A13885A
:100AB800054C1C401480002902D080F3108810BD1A
:100AC800002080F3108810BDFFFB000080B5FB48B4
:100AD8000278D20704D1054A0023D35E002BFBD449
:100AE8008268002A01D00846904780BD181200503D
:100AF80080B500F007F80121014048420D218843E4
:100B080080BD000080B5E04801883C220A434021AE
:100B18008A4302800520000200F0B8F980B280BD47
:100B28000412005080B5FFF7AFFFE0480021818430
:100B3800018820220A43028081881C220A436021FE
:100B48008A438280AB2000F0A1F980BDB0B50025B2
:100B5800074C611CA94205D06D1CFFF7D3FFC007E5
:100B6800F7D1691E0020A14200D9C043B0BDC046DC
:100B78007F841E00C44800884006C00E1CD041086F
:100B880001438A080A4300091043010A0143080C7B
:100B98000843C04341080C4A0A40801A0B4982089E
:100BA80008400A40801801094018094901400948CD
:100BB8004843000E1D3800E00320C1174840401A82
:100BC800C0B270470412005055555555333333336E
:100BD8000F0F0F0F01010101F0B589B00646EFF3C1
:100BE8001080012585F31088A9024C4A13880B430D
:100BF8001380002802D085F3108802E0002080F3DB
:100C08001088AA4C202001902080317907200840C4
:100C180000F024F93078A188032291430007400F9F
:100C28000843A0803178A28880208243C907090E32
:100C38005118A18031782940E24D2A78FE231340CB
:100C480059182B4629700027A78121890143218142
:100C58003078C00724D11878F12101403079800814
:100C68000E2202408818187071887D200002814287
:100C780002D121897F2009E049001D464FF796F9E6
:100C88002B4621897F229143401EC0B20843208110
:100C9800B07D218840229143C007400E081820806B
:100CA800B0685860F06898603069D8601D4D324669
:100CB800307DC007284601D028462030186102AE92
:100CC8007780042131703782F78077710092517DE7
:100CD8000C01611D317108970797059773491C31FD
:100CE80004913146FFF75CFBE01C30710098007DF1
:100CF800C00701D0303500E01035E34845616B4C42
:100D080020462030059028463146FFF749FB2088C9
:100D180001998843208009B0F0BDC0460400005006
:100D28000012005000360050F0B587B00546F24F6B
:100D38003878C00700D089E00C46FFF71BFF5B4EF0
:100D480031881F2291433180318802220A43328040
:100D5800318804220A43328002281CD130880121BC
:100D680001433180002081B2A1420FD2318B890426
:100D7800FCD4002131853184318BC904FCD4B18B7A
:100D8800328D1204511802C5401CECE71820305E61
:100D98000028FBD45AE0FFF7EDFE3B695A083821DA
:100DA80004910A4039461C3105912B4F8F50471E3C
:100DB800B84140000627F94303919F890F4038182E
:100DC80098819D80280CD880601E019018815881D8
:100DD80098890821029108439881988901210091F6
:100DE800084398813088102303433380059880187E
:100DF80000274760C0484569A88940229043A881D8
:100E08006C0804980440FFF7B5FE059A1751411E77
:100E180088414000A989039B19400818A88106A8A1
:100E28002880000C6880019828816881A889029B25
:100E38009843A881A88900990843A8813088184355
:100E480030801019476030880843308007B0F0BD03
:100E5800ACE9FC0700120050DDDDFC070A49022856
:100E680007D0012809D000280A881C2010436022D6
:100E780007E00A887C20104304E00A883C201043DD
:100E880040229043088070470412005010B5044671
:100E9800FFF7FAFD2046FFF7C7FD044900228A84C0
:100EA8000A88202313430B8010BDC046001200504F
:100EB800914800698189C907FCD17047ACE9FC07F2
:100EC800794801214170704770470000F0B585B03E
:100ED80004469348201A411E884140018649081853
:100EE80001464A310191014654310391014650317E
:100EF80000910146403102910546423506463C368E
:100F08004C30049027467C3720890F210140481E29
:100F18000B28F9D87844007940008744500605200A
:100F280005242C0505050534EEE702980088298874
:100F3800814236D28842E7D02289C0231340C02B91
:100F480003D13A88920703D4DEE7A28A9206DBD55A
:100F58004A1C2A803368595C21801146EAE72046FA
:100F680000F0A4F8D0E704980268002ACCD0A08A40
:100F78009E21014004E004980268002AC4D001219F
:100F880020469047C0E7204600F090F8A08801214D
:100F98008843A080039801680029B5D0019800888B
:100FA8000BE0A18802229143A180A188802291436D
:100FB800A180009909680029A6D08847A4E705B050
:100FC800F0BDC046ACE9FC07FEB50090364F0021E5
:100FD80039707970052001252A4602910B4651F790
:100FE80053FB27480168A9430160FF242206416892
:100FF8001140244BC91841608168019211408160F9
:10100800016802230B4303600168042399430160CC
:1010180001682943016038491C4E8E61009A4A6470
:101028008D641B4E3360BFF34F8FBFF36F8F194E24
:1010380032882A43328032881A4332802204164E7C
:10104800346894435822895C8907090A6118316019
:1010580012490B603978002902D179780029F9D032
:101068008168019A114081600168A943016078781C
:101078000028029802D03978002900D02846FEBD01
:1010880010E000E05FEA0000ACE9FC07D1E1FC07F2
:1010980080E100E00410005000E400E000E100E01E
:1010A800014801210170704718E9FC07F8B51C498F
:1010B800411A4A1E914149010F4A541823464433A4
:1010C80000943C34A589E2890E34AA4209D2868A62
:1010D800F60710D00688571C278019688E543A46A0
:1010E800F3E781880123994381800098416D0029A5
:1010F80001D090B28847F8BDACE9FC07B0B504460A
:101108000320010205200222002351F7BDFA044DF5
:101118002846214652F74FF9284652F762F9B0BDE2
:1011280000100050010000001130EF000000020024
:10113800020000001230EF0000000400030000006D
:1011480000421F0000000200040000001120C2003D
:1011580000000200050000001128C2000000020083
:10116800060000001228C200000004000F00000062
:101178001160850000000200100000001140850089
:1011880000000200130000001264C8000000040000
:101198001400000001431F000000040015000000B7
:1011A80001111F00000004001600000002441F0087
:1011B800000008001700000008441F000000080095
:1011C8001800000001841F0000000800190000003A
:1011D8000C441F00000008001B0000000C451F0005
:1011E800000010001C00000001651F000000010045
:1011F8001D00000001101F00000002001E0000007A
:1012080008451F0000001000000000009630077716
:101218002C610EEEBA51099919C46D078FF46A70E2
:1012280035A563E9A395649E3288DB0EA4B8DC7902
:101238001EE9D5E088D9D2972B4CB609BD7CB17E82
:10124800072DB8E7911DBF906410B71DF220B06A52
:101258004871B9F3DE41BE847DD4DA1AEBE4DD6D62
:1012680051B5D4F4C785D38356986C13C0A86B6462
:101278007AF962FDECC9658A4F5C0114D96C066382
:10128800633D0FFAF50D088DC8206E3B5E10694C62
:10129800E44160D5727167A2D1E4033C47D4044BA2
:1012A800FD850DD26BB50AA5FAA8B5356C98B24282
:1012B800D6C9BBDB40F9BCACE36CD832755CDF4502
:1012C800CF0DD6DC593DD1ABAC30D9263A00DE5132
:1012D8008051D7C81661D0BFB5F4B42123C4B35622
:1012E8009995BACF0FA5BDB89EB802280888055FA2
:1012F800B2D90CC624E90BB1877C6F2F114C685802
:10130800AB1D61C13D2D66B69041DC760671DB01EF
:10131800BC20D2982A10D5EF8985B1711FB5B606C1
:10132800A5E4BF9F33D4B8E8A2C9077834F9000F01
:101338008EA8099618980EE1BB0D6A7F2D3D6D08A1
:10134800976C6491015C63E6F4516B6B62616C1C91
:10135800D83065854E0062F2ED95066C7BA5011BC1
:10136800C1F4088257C40FF5C6D9B06550E9B71261
:10137800EAB8BE8B7C88B9FCDF1DDD62492DDA1521
:10138800F37CD38C654CD4FB5861B24DCE51B53A41
:101398007400BCA3E230BBD441A5DF4AD795D83D41
:1013A8006DC4D1A4FBF4D6D36AE96943FCD96E3481
:1013B800468867ADD0B860DA732D0444E51D033361
:1013C8005F4C0AAAC97C0DDD3C710550AA41022771
:1013D80010100BBE86200CC925B56857B3856F2041
:1013E80009D466B99FE461CE0EF9DE5E98C9D929A1
:1013F8002298D0B0B4A8D7C7173DB359810DB42EE1
:101408003B5CBDB7AD6CBAC02083B8EDB6B3BF9A2C
:101418000CE2B6039AD2B1743947D5EAAF77D29DB8
:101428001526DB048316DC73120B63E3843B649498
:101438003E6A6D0DA85A6A7A0BCF0EE49DFF099398
:1014480027AE000AB19E077D44930FF0D2A3088708
:1014580068F2011EFEC206695D5762F7CB676580B8
:1014680071366C19E7066B6E761BD4FEE02BD389B8
:101478005A7ADA10CC4ADD676FDFB9F9F9EFBE8E18
:1014880043BEB717D58EB060E8A3D6D67E93D1A158
:10149800C4C2D83852F2DF4FF167BBD16757BCA638
:1014A800DD06B53F4B36B248DA2B0DD84C1B0AAFD8
:1014B800F64A0336607A0441C3EF60DF55DF67A858
:1014C800EF8E6E3179BE69468CB361CB1A8366BCE8
:1014D800A0D26F2536E2685295770CCC03470BBB38
:1014E800B91602222F260555BE3BBAC5280BBDB238
:1014F800925AB42B046AB35CA7FFD7C231CFD0B5D8
:101508008B9ED92C1DAEDE5BB0C2649B26F263ECC9
:101518009CA36A750A936D02A906099C3F360EEBD7
:101528008567077213570005824ABF95147AB8E297
:10153800AE2BB17B381BB60C9B8ED2920DBED5E577
:10154800B7EFDC7C21DFDB0BD4D2D38642E2D4F1C7
:10155800F8B3DD686E83DA1FCD16BE815B26B9F657
:10156800E177B06F7747B718E65A0888706A0FFFB7
:10157800CA3B06665C0B0111FF9E658F69AE62F877
:10158800D3FF6B6145CF6C1678E20AA0EED20DD777
:101598005483044EC2B30339612667A7F71660D097
:1015A8004D476949DB776E3E4A6AD1AEDC5AD6D9D7
:1015B800660BDF40F03BD83753AEBCA9C59EBBDEF7
:1015C8007FCFB247E9FFB5301CF2BDBD8AC2BACAA7
:1015D8003093B353A6A3B4240536D0BA9306D7CD17
:1015E8002957DE54BF67D9232E7A66B3B84A61C437
:1015F800021B685D942B6F2A37BE0BB4A18E0CC3F7
:101608001BDF055A8DEF022D014800787047C04650
:101618001AE9FC0701480021017070471AE9FC0724
:1016280080B50248024960F705FC80BD1AE9FC074D
:1016380038EAFC0780B560F7C5FB80BD80B5024875
:10164800024960F7A3FC80BD1AE9FC0738EAFC07E9
:1016580070B51E2816D10C48101849080B4A0B06FD
:1016680010D0046843680830002635460835382D00
:1016780006D09619366BA6422E46F7D15419E36266
:10168800491EECE770BDC046D42EF8071CE9FC07DC
:10169800F0B589B00120C046C04688271B4C0025FC
:1016A800E5536E461AA1242230465DF705F8214914
:1016B80020462A4633465FF75DF8E15D4908E15563
:1016C8008921625C520862548421625A002A02D13C
:1016D8007D22D20062528621625A002A14D1FF224A
:1016E8001302154A12681A4035231B029A4209D080
:1016F8000D239B029A4203D033231B029A4203D143
:10170800942200E09022625209B0F0BD1CE9FC0767
:101718003504FC074D04FC077504FC0700000000B5
:10172800A104FC074903FC0700000000D02EF807BD
:10173800C02FF8078806FC07D02FF8078800101874
:10174800024940587C21024A50527047D02EF8076F
:101758001CE9FC0770B50C46064811188825064E8A
:10176800705DC0003018A2005CF7A6FF705D00191C
:10177800705570BDD42EF8071CE9FC0770B50C46EF
:10178800074811188925074E705DC00030183030A1
:10179800A2005CF791FF705D0019705570BDC046DE
:1017A800D42EF8071CE9FC070948115809234B43B4
:1017B8001058000C1A1A1204D214744B60331A848D
:1017C80089B2401A0104890C0818401CD883704754
:1017D800D42EF8077047C04680B5024908805EF7E6
:1017E800B3FE80BDA8E9FC070248018802220A432B
:1017F800028070473800005010B50A4C2088082134
:10180800014321804B2080005FF734F960888021F4
:10181800014361800F20800203490A8802430A803D
:1018280010BDC0465200005020030050FEB54E487F
:1018380008270780C046C0464C4C208802AD288047
:101848002888C046C046288804210191C943084217
:1018580002D00020208003E0A08901218843A081D4
:10186800FFF7CAFF4248C18D06229143C185012175
:101878008B03A68B1E43A68303883E4E1E4006801C
:1018880043881343BB43438005221607728D3A4DA4
:10189800FF35C38D2B40D20522D40F2215030097A4
:1018A80003277A021343C385C28D2A43C285A28BBC
:1018B800009B9A43A283A28B04239A43A283428863
:1018C8002F4B1340438042882E4B1340FA029A183C
:1018D8004280C28D0A43C285718D4907FCD516E046
:1018E8008A021343C385C28D244B1340CA039A1836
:1018F800C285A28B3A43A283A28B019B9A43A283FF
:10190800C28D8A43C285A18B40220A43A283A18B40
:1019180003220A43A283018820220A4340218A43E2
:101928000280308F022420433087FFF779FE20465B
:10193800FFF780FE14480068C1B20C20AA290146AE
:1019480000D001993288824388183080C046C0464A
:10195800FFF79EFE86200D49085AFFF73DFFFFF767
:101968006DFE0DF03DFBFEBD00330050040300503A
:1019780052000050FFBF000000F0FFFFFF0F000003
:10198800FFF90000FFC70000D02FF8071CE9FC078B
:081998000000000090070E00A2
:0400000507FC00C92B
:00000001FF
