:0200000407FCF7
:100000000000FD072101FC073501FC074F01FC073B
:100010006901FC076901FC076901FC076901FC072C
:100020000000000000000000000000006901FC0763
:1000300000000000000000006901FC076901FC07E6
:100040006901FC076901FC076901FC076901FC07FC
:100050006901FC076901FC076901FC076901FC07EC
:100060006901FC076901FC076901FC076901FC07DC
:100070006901FC076901FC076901FC076901FC07CC
:100080006901FC076901FC076901FC07C9D4FC0789
:100090006901FC076901FC076901FC076901FC07AC
:0200000407FCF7
:1000C8000348854600F006F80048004785D7FC0736
:1000D8000000FD07064C0125064E05E0E36807CC45
:1000E8002B430C3C98471034B442F7D3FFF7ECFF8E
:1000F8008001FC07C001FC0702E008C8121F08C104
:10010800002AFAD170477047002001E001C1121F90
:10011800002AFBD170470000034880F3098800F0EB
:1001280025F8FFF7CDFFC0460000FD070420714603
:10013800084203D0EFF309800A490847EFF3088023
:1001480008490847704704207146084203D0EFF376
:10015800098005490847EFF30880034908477047B5
:10016800FEE7000001D6FC07FDD5FC0780B5AD48C9
:100178005EF7AEFC80BDC046C001FC07C8D4FC07D2
:10018800741600000001FC073418FC070003FC0784
:100198009C0300000001FC07D01BFC079C06FC0721
:1001A800080000000001FC073418FC073CEBFC07C2
:1001B800140300001001FC07FEB5A74C18342048B2
:1001C800068801200190C004029000271D4D002ED2
:1001D80034D0042F32D2F0072BD0A889000605D4DA
:1001E80028896989401A4142414100E0002101986B
:1001F800B840134A50802889029A134B1A60BFF3FB
:100208004F8FBFF36F8F002907D0A989019A9143B7
:10021800A981A98908229143A9812268002A05D0C9
:10022800411C606889B200949047009C02988C49F0
:1002380008601035083476087F1CC8E7FEBDC04644
:10024800823600500036005080E100E0F8B51546CF
:100258000E46044600F092FD002800D0F8BD009537
:100268001E4DA8887C210143A9801D48C76800F05D
:1002780051FD03200006304300F01CFDA8881C2116
:10028800014360208143A98000988119B94200D9AF
:10029800B81B144E009031464FF788FE05460746B6
:1002A800002F08D02046314600F082FEA41900F045
:1002B80043FF7F1EF4E70C4868430099401805D0B7
:1002C80081B2204600F074FE00F036FF0020034A99
:1002D80090841088202101431180F8BD001200503D
:1002E8003CEBFC07FFFF00000100FFFFFEE70000FA
:1002F8000948018904220A430281018840220A43ED
:100308000280064901220A604189054A114089187C
:10031800091D41817047C0460800005080E200E096
:10032800FC7F0000F0B50A79530140241C401301FA
:1003380080251D401609360275192C19D200202572
:100348001540621910241C4012190B785B00082410
:100358001C40121906241C401219CB79DB079B0C90
:100368004C796508ED07ED0CEB18E407240D1B1913
:10037800134383818A790F2A43D0354A821804238C
:10038800DA41931E022B1BD3012A3AD8EFF31083CC
:10039800012282F310888D792E4C2688F6B2360910
:1003A800B54203D12688F0273743278026880F27B0
:1003B800BE432E432680002B1CD082F3108820E0F9
:1003C800EFF31083012282F31088224C27880F262E
:1003D80037408D79AF4202D1278837432780268856
:1003E800F027BE432D0135432580002B06D082F32C
:1003F800108806E0002282F3108802E0002282F3CF
:1004080010888A680280120C4280CA688280120CA6
:10041800C2800A8A521E42814A88002A00D10A8A6A
:10042800521E02814008382202400B4880184A694F
:1004380082618969C161FF20000608490A68824310
:100448000120C307D2180A60C00405490860F0BD3E
:1004580000CAFFAF8036005014EEFC0710E400E03D
:1004680000E100E080B50346402208461946FFF740
:10047800EDFE80BDF4B0DD49488801242043488062
:10048800FF2009900880DA48082110910180F2F7CE
:10049800C1FE50A80C30149050A822300C9024A80B
:1004A800083003900320C1010191000202900594D5
:1004B800E0030090EF20C0430790C821F248049160
:1004C80001801D22059D2846029C21462B46EF4EA1
:1004D800B04704201C2200270890214606923B467C
:1004E800B0471B223846214618923B46B0470320A6
:1004F8001A22239039463B46B04724AC0998A07588
:10050800A5711098A0807D208001608027700398D5
:100518000760476087608781204600F0A1FC00F0F3
:1005280045FCA804DA4DE860204600F099FC00F08C
:100538003DFC2879002803D100F020FC00285CD07D
:1005480001202290C004D3490860BFF34F8FBFF346
:100558006F8F0720C10340AD0C2228460F92FFF78A
:1005680075FE2878702800D043E36878522800D0B8
:100578003FE341983E9042993F91719170903B972B
:100588003C973D973BAC70AE0E97022F20D0306859
:1005980050AD2946FFF766FFA878AA2814D1287815
:1005A800702811D1687851280ED150A8C0786CA94C
:1005B800C855062220460C994FF772FD2298B8407C
:1005C800C0B20E9901430E91361DA41D7F1CDCE7B5
:1005D8000E99032907D0002900D10AE34F1E781E7F
:1005E800874108464FE06CA8417802780320FF2A2B
:1005F80040D100293ED1059F45E0A74E3088069995
:10060800084360218843308000F084FB9F20A34981
:100618003E460F46884700252846B8472290284678
:10062800B84704462846B84737469B490D84091FF2
:100638000A88202313430B8022990906090A2206F7
:10064800120C5118C0B2081800D179E7079A114660
:100658000C3100D174E7924B9A18F423D258904287
:100668000A46F5D18E484018E4308949091D1CC84E
:100678001CC165E7002A01D1FF2901D08A4201D3B4
:10068800002700E00127002800D1B2E20D970024DE
:100698002399022C20D0062060433BA90818C5786E
:1006A800A8008049401850A9042200F0C1FA00218E
:1006B8000846042904D050A90A5C411CFF2AF7D037
:1006C800052D229900D30021001F424242410A40D1
:1006D8003AA80255641CDBE700262AAF0D9C022EBF
:1006E8001FD03AA8805D002813D03BA8405C400189
:1006F80023916D494018664D10352024294622461D
:1007080000F096FA3846294622460D9C4FF7C8FC59
:1007180023992037891D761CE1E7012044400020F9
:100728000E900D94E4B2A0003EA9085840A90A9082
:10073800FFF798FE3AA8005D002800D1E7E1419A4A
:100748000A99403159481192FFF780FD4E4809999E
:10075800018057485749016060012AA92390091868
:1007680000221346042B1BD28D18514CA4182E7846
:1007780036066F783F04BE19AF783F02F619EF7856
:10078800F61966602E7936066F793F04BE19AF797F
:100798003F02F619ED797519A56008329B1CE1E74F
:1007A8004349143144A2089B2C2B23D00C1F2468E6
:1007B8009D0714D1E5B2484F7D5D2D02260AF6B299
:1007C800BE5D36047519260CF6B2BE5D3606AD1947
:1007D800240E3C5D2D19147824066C40521C0D46DD
:1007E800103D2D68654020C15B1CDDE700310050DD
:1007F80002330050792189002D4A50182AA9239ADA
:100808008918103110220B9021924FF749FC2820AB
:100818001421052862D32390254842581346229173
:10082800FC490B40DD095D1BF8480540560033467E
:10083800F94C23406B405D002F460F40FC093F1BDD
:1008480007400E402299F409341B0440F248054041
:1008580065406E00F04806407E4072401446109F86
:10086800FC4117466F402198C741239867405A407A
:100878001824E2417A405A406A407240E84B5A5084
:10088800091D401EC5E7C0460031005099F9F1071F
:100898003CEBFC0780E100E004120050C5DFFC07D8
:1008A80058E4FC07A82EF807C82CF8070000FC0736
:1008B8008CEBFC070A0004000102040810204080A9
:1008C8001B366CD8AB4D9A2F5EBC63C697356AD47D
:1008D800B37DFAEFC59100003CE6FC0764A80B99CC
:1008E8003CC93CC00020102806D064A9095809BAA0
:1008F8006CAA1150001DF6E7C34C11980F2800DCB4
:10090800E2E01038129060A8102213942146159244
:100918004FF7C6FB0020102808D060A9095809BA6B
:1009280070AA115068AA1150001DF4E7BC49088844
:100938001690000108180F990A1D07D068AA535885
:10094800441864685C405450091FF5E7431808339D
:100958001698401E1B9000271698874200D19AE0EF
:100968001793042514981C97002D00D180E023903C
:10097800A807010F68A8415CAC4B5C5C6A1C920735
:10098800120F82185278995CAA1C9207120F8218CB
:1009980092789E5C6D1EAA07120F8018C0781A5CA8
:1009A8001B98874257DA2291374657407800802FA4
:1009B800189900D348402090229B5E407000802EFA
:1009C800219200D34840209AD2B2C0B21F90424030
:1009D8005000802A00D348401E9022465A405000BA
:1009E800802A00D34840C3B21A461F98424050009C
:1009F800802A1A9300D348401E9AD3B2C2B21D92DD
:100A08005A405000802A00D34840C2B2214621985B
:100A1800414048008029199301D3189948402299E8
:100A28004840C0B21D9B58405040784054406740F1
:100A38001A9A5740199A57406640209A56401E9A6B
:100A480056403306219A54404C401F994C401D99FA
:100A58004C40220403E0330412060F4620461A4392
:100A680039021143014323980160001F1C9F7BE753
:100A78001598179B00280AD0011F50AA8A581818E1
:100A880014380068504068AA88500846F2E71B18D6
:100A9800103B7F1C60E7002010280CD06CA90A5876
:100AA80070AB1B580B5068A90958514009BA50AA95
:100AB8001150001DF0E750A91022139C20464FF753
:100AC800EFFA1034129819E70020102806D06CA904
:100AD800095809BA64AA1150001DF6E764A80B9DCD
:100AE8001EC81EC50798EF30002242994D4C119B35
:100AF800934209D0444B9B5C4340DBB29B00E358D4
:100B0800000A5840521CF2E7C04381422CD000F042
:100B180035F9002823D100F031F900281FD1CB4A3C
:100B2800108806990843602188431080062000F049
:100B3800F1FA00F04FF9002811D100F029F98007E7
:100B48000DD50A98811CC14B18887C2202431A8053
:100B580001204007084300F0DDFA00F03BF90E9849
:100B680003280D9C45D1D8E52548049901802548DE
:100B78001099018000F0DAF8059800F07FF851F735
:100B8800B3FE019D2946803100242046224651F7B4
:100B980059FD142051F762FC354804801F4800783D
:100BA80000281B4A09D01046123800884001284006
:100BB80011881D4B194001431180134908680842E8
:100BC800009B0ED0108850A9088008880222024392
:100BD800012082430A800E4A509818430880509892
:100BE8001080108850A908805098184308805098A1
:100BF800108000F09BF8002000F040F85DE4C0464B
:100C080000310050023300500000FC071B1B1B1B67
:100C18001200005080808080FEFEFEFE3CEBFC0748
:100C28008CEBFC073CE7FC077FFE00003CE5FC077B
:100C380070B514460D460646F2F7E6F90220F2F7BB
:100C4800EDF92846314622464FF72AFAF2F7EAF933
:100C580070BD0000B0B5064C012525800548027816
:100C68001B20054951F7AAFCA0892843A081B0BDE3
:100C78000003005080EDFC074CEEFC0770B50346FE
:100C88000120450200240A4E29462246B047042086
:100C9800294622462346B04720462946224623466F
:100CA800B0470320294622462346B04770BDC046B8
:100CB80099F9F10710B5044600F0A0F8BA490A8876
:100CC8001F239A430A800A88022313430B800A8849
:100CD800042313430B800A88012313430B80022843
:100CE80001D3220C0A850C840A8BD204FCD4022876
:100CF80002D3088D020402E0002803D00022888B6A
:100D0800104301E0888BC0B218228A5E002AFBD407
:100D180010BDC046F1480188202291430180EE4968
:100D280009780907490F81847047C04610B5EFF369
:100D38001081012080F310889A4A1388054C1C40C2
:100D48001480002902D080F3108810BD002080F3A1
:100D5800108810BDFFFB000080B5FA480278D20762
:100D680004D1054A0023D35E002BFBD48268002AF5
:100D780001D00846904780BD1812005080B500F099
:100D880007F80121014048420D21884380BD000039
:100D980080B5DF4801883C220A4340218A4302800B
:100DA8000520000200F0B6F980B280BD80B5FFF7DB
:100DB800B1FFE04800218184018820220A43028093
:100DC80081881C220A4360218A438280AB2000F07C
:100DD800A1F980BDB0B50025074C611CA94205D01A
:100DE8006D1CFFF7D5FFC007F7D1691E0020A1428F
:100DF80000D9C043B0BDC0467F841E00C4480088E7
:100E08004006C00E1CD0410801438A080A43000965
:100E18001043010A0143080C0843C04341080C4A27
:100E28000A40801A0B49820808400A4080180109C4
:100E380040180949014009484843000E1D3800E0A0
:100E48000320C1174840401AC0B27047041200502E
:100E580055555555333333330F0F0F0F010101012A
:100E6800F0B589B00646EFF31080012585F31088A8
:100E7800A9024C4A13880B431380002802D085F33B
:100E8800108802E0002080F31088AA4C20200190EE
:100E9800208031790720084000F024F93078A188B3
:100EA800032291430007400F0843A0803178A288AD
:100EB80080208243C907090E5118A1803178294042
:100EC800A04D2A78FE23134059182B462970002775
:100ED800A7812189014321813078C00724D118785E
:100EE800F1210140307980080E22024088181870DC
:100EF80071887D200002814202D121897F2009E08A
:100F080049001D464FF752F82B4621897F2291430D
:100F1800401EC0B208432081B07D21884022914301
:100F2800C007400E08182080B0685860F0689860C4
:100F38003069D8601D4D3246307DC007284601D043
:100F480028462030186102AE77800421317037823C
:100F5800F78077710092517D0C01611D31710897FE
:100F68000797059773491C3104913146FFF7DAF961
:100F7800E01C30710098007DC00701D0303500E0DA
:100F88001035704845616B4C204620300590284646
:100F98003146FFF7C7F9208801998843208009B0B6
:100FA800F0BDC0460400005000120050003600504A
:100FB800F0B587B00546634F3878C00700D089E0A0
:100FC8000C46FFF71BFF5B4E31881F22914331808F
:100FD800318802220A433280318804220A4332804F
:100FE80002281CD13088012101433180002081B2C0
:100FF800A1420FD2318B8904FCD400213185318480
:10100800318BC904FCD4B18B328D1204511802C53E
:10101800401CECE71820305E0028FBD45AE0FFF7AC
:10102800EDFE3B695A08382104910A4039461831C7
:1010380005912B4F8F50471EB84140000627F943B2
:1010480003919F890F40381898819D80280CD8807B
:10105800601E0190188158819889082102910843DF
:10106800988198890121009108439881308810233C
:101078000343338005988018002747603148456945
:10108800A88940229043A8816C0804980440FFF77F
:10109800B5FE059A1751411E88414000A989039B56
:1010A80019400818A88106A82880000C68800198B3
:1010B80028816881A889029B9843A881A8890099FA
:1010C8000843A88130881843308010194760308859
:1010D8000843308007B0F0BD14EEFC070012005042
:1010E80069E0FC070A49022807D0012809D000282E
:1010F8000A881C201043602207E00A887C201043DD
:1011080004E00A883C20104340229043088070473E
:101118000412005010B50446FFF7FCFD2046FFF707
:10112800C9FD044900228A840A88202313430B80BE
:1011380010BDC04600120050024800698189C907E5
:10114800FCD1704714EEFC07010000001130EF00DD
:1011580000000200020000001230EF00000004004E
:101168000300000000421F0000000200040000000D
:101178001120C20000000200050000001128C20072
:1011880000000200060000001228C200000004004F
:101198000F00000011608500000002001000000030
:1011A8001140850000000200130000001264C8000E
:1011B800000004001400000001431F0000000400A8
:1011C8001500000001111F000000040016000000B7
:1011D80002441F00000008001700000008441F0018
:1011E800000008001800000001841F00000008002B
:1011F800190000000C441F00000008001B0000003C
:101208000C451F00000010001C00000001651F00B5
:10121800000001001D00000001101F000000020076
:101228001E00000008451F000000100052096AD582
:101238003036A538BF40A39E81F3D7FB7CE33982C3
:101248009B2FFF87348E4344C4DEE9CB547B943212
:10125800A6C2233DEE4C950B42FAC34E082EA1665A
:1012680028D924B2765BA2496D8BD12572F8F66431
:1012780086689816D4A45CCC5D65B6926C704850AC
:10128800FDEDB9DA5E154657A78D9D8490D8AB0061
:101298008CBCD30AF7E45805B8B34506D02C1E8F8A
:1012A800CA3F0F02C1AFBD0301138A6B3A911141C6
:1012B8004F67DCEA97F2CFCEF0B4E67396AC7422AF
:1012C800E7AD3585E2F937E81C75DF6E47F11A712D
:1012D8001D29C5896FB7620EAA18BE1BFC563E4B66
:1012E800C6D279209ADBC0FE78CD5AF41FDDA83328
:1012F8008807C731B11210592780EC5F60517FA968
:1013080019B54A0D2DE57A9F93C99CEFA0E03B4D96
:10131800AE2AF5B0C8EBBB3C83539961172B047E0A
:10132800BA77D626E169146355210C7D637C777BF7
:10133800F26B6FC53001672BFED7AB76CA82C97DC9
:10134800FA5947F0ADD4A2AF9CA472C0B7FD93265A
:10135800363FF7CC34A5E5F171D8311504C723C35E
:101368001896059A071280E2EB27B27509832C1AA2
:101378001B6E5AA0523BD6B329E32F8453D100EDFC
:1013880020FCB15B6ACBBE394A4C58CFD0EFAAFBE0
:10139800434D338545F9027F503C9FA851A3408FA8
:1013A800929D38F5BCB6DA2110FFF3D2CD0C13ECC0
:1013B8005F974417C4A77E3D645D197360814FDC55
:1013C800222A908846EEB814DE5E0BDBE0323A0A39
:1013D8004906245CC2D3AC629195E479E7C8376DBD
:1013E8008DD54EA96C56F4EA657AAE08BA78252EE2
:1013F8001CA6B4C6E8DD741F4BBD8B8A703EB5666B
:101408004803F60E613557B986C11D9EE1F898115B
:1014180069D98E949B1E87E9CE5528DF8CA1890D4A
:10142800BFE6426841992D0FB054BB16000000007A
:10143800963007772C610EEEBA51099919C46D07D9
:101448008FF46A7035A563E9A395649E3288DB0E34
:10145800A4B8DC791EE9D5E088D9D2972B4CB60917
:10146800BD7CB17E072DB8E7911DBF906410B71DF4
:10147800F220B06A4871B9F3DE41BE847DD4DA1A2D
:10148800EBE4DD6D51B5D4F4C785D38356986C135E
:10149800C0A86B647AF962FDECC9658A4F5C0114D7
:1014A800D96C0663633D0FFAF50D088DC8206E3BB5
:1014B8005E10694CE44160D5727167A2D1E4033CC7
:1014C80047D4044BFD850DD26BB50AA5FAA8B535EE
:1014D8006C98B242D6C9BBDB40F9BCACE36CD832DD
:1014E800755CDF45CF0DD6DC593DD1ABAC30D92684
:1014F8003A00DE518051D7C81661D0BFB5F4B42187
:1015080023C4B3569995BACF0FA5BDB89EB8022883
:101518000888055FB2D90CC624E90BB1877C6F2F08
:10152800114C6858AB1D61C13D2D66B69041DC7603
:101538000671DB01BC20D2982A10D5EF8985B171DC
:101548001FB5B606A5E4BF9F33D4B8E8A2C907788B
:1015580034F9000F8EA8099618980EE1BB0D6A7F22
:101568002D3D6D08976C6491015C63E6F4516B6BDB
:1015780062616C1CD83065854E0062F2ED95066C90
:101588007BA5011BC1F4088257C40FF5C6D9B06505
:1015980050E9B712EAB8BE8B7C88B9FCDF1DDD6262
:1015A800492DDA15F37CD38C654CD4FB5861B24DC8
:1015B800CE51B53A7400BCA3E230BBD441A5DF4A92
:1015C800D795D83D6DC4D1A4FBF4D6D36AE9694355
:1015D800FCD96E34468867ADD0B860DA732D044400
:1015E800E51D03335F4C0AAAC97C0DDD3C7105502B
:1015F800AA41022710100BBE86200CC925B56857D2
:10160800B3856F2009D466B99FE461CE0EF9DE5E1A
:1016180098C9D9292298D0B0B4A8D7C7173DB359CB
:10162800810DB42E3B5CBDB7AD6CBAC02083B8ED5C
:10163800B6B3BF9A0CE2B6039AD2B1743947D5EA69
:10164800AF77D29D1526DB048316DC73120B63E398
:10165800843B64943E6A6D0DA85A6A7A0BCF0EE4F7
:101668009DFF099327AE000AB19E077D44930FF0B2
:10167800D2A3088768F2011EFEC206695D5762F7A9
:10168800CB67658071366C19E7066B6E761BD4FEE6
:10169800E02BD3895A7ADA10CC4ADD676FDFB9F9C3
:1016A800F9EFBE8E43BEB717D58EB060E8A3D6D685
:1016B8007E93D1A1C4C2D83852F2DF4FF167BBD1B3
:1016C8006757BCA6DD06B53F4B36B248DA2B0DD8B6
:1016D8004C1B0AAFF64A0336607A0441C3EF60DF59
:1016E80055DF67A8EF8E6E3179BE69468CB361CB42
:1016F8001A8366BCA0D26F2536E2685295770CCC67
:1017080003470BBBB91602222F260555BE3BBAC5A7
:10171800280BBDB2925AB42B046AB35CA7FFD7C298
:1017280031CFD0B58B9ED92C1DAEDE5BB0C2649B89
:1017380026F263EC9CA36A750A936D02A906099CBC
:101748003F360EEB8567077213570005824ABF952F
:10175800147AB8E2AE2BB17B381BB60C9B8ED292B2
:101768000DBED5E5B7EFDC7C21DFDB0BD4D2D38609
:1017780042E2D4F1F8B3DD686E83DA1FCD16BE817C
:101788005B26B9F6E177B06F7747B718E65A08884D
:10179800706A0FFFCA3B06665C0B0111FF9E658FDE
:1017A80069AE62F8D3FF6B6145CF6C1678E20AA088
:1017B800EED20DD75483044EC2B30339612667A70E
:1017C800F71660D04D476949DB776E3E4A6AD1AE5D
:1017D800DC5AD6D9660BDF40F03BD83753AEBCA9EC
:1017E800C59EBBDE7FCFB247E9FFB5301CF2BDBD59
:1017F8008AC2BACA3093B353A6A3B4240536D0BA62
:101808009306D7CD2957DE54BF67D9232E7A66B3FE
:10181800B84A61C4021B685D942B6F2A37BE0BB4AB
:10182800A18E0CC31BDF055A8DEF022D01480078ED
:101838007047C04680EDFC070148002101707047E1
:1018480080EDFC0780B50248024960F705FC80BDC1
:1018580080EDFC074CEEFC0780B560F7C5FB80BD4A
:1018680080B50248024960F7A3FC80BD80EDFC0703
:101878004CEEFC0770B51E2816D10C481018490804
:101888000B4A0B0610D0046843680830002635461A
:101898000835382D06D09619366BA6422E46F7D154
:1018A8005419E362491EECE770BDC046D42EF80710
:1018B80084EDFC07F0B589B00120C046C0468827F2
:1018C8001B4C0025E5536E461AA1242230465DF7CD
:1018D80005F8214920462A4633465FF75DF8E15D61
:1018E8004908E1558921625C520862548421625A90
:1018F800002A02D17D22D20062528621625A002A31
:1019080014D1FF221302154A12681A4035231B020C
:101918009A4209D00D239B029A4203D033231B021B
:101928009A4203D1942200E09022625209B0F0BD9D
:1019380084EDFC073504FC074D04FC077504FC071F
:1019480000000000A104FC074903FC070000000098
:10195800D02EF807C02FF8079C06FC07D02FF807F1
:1019680088001018024940587C21024A505270479A
:10197800D02EF80784EDFC0770B50C460648111800
:101988008825064E705DC0003018A2005CF7A6FFDF
:10199800705D0019705570BDD42EF80784EDFC07F2
:1019A80070B50C46074811188925074E705DC000B0
:1019B80030183030A2005CF791FF705D0019705547
:1019C80070BDC046D42EF80784EDFC0709481158AD
:1019D80009234B431058000C1A1A1204D214784BDE
:1019E80060331A8489B2401A0104890C0818401C13
:1019F800D8837047D42EF8077047C04680B502498F
:101A080008805EF7B3FE80BD10EEFC07024801882F
:101A180002220A43028070473800005010B50A4C71
:101A280020880821014321804B2080005FF734F98A
:101A380060888021014361800F20800203490A8861
:101A480002430A8010BDC0465200005020030050D7
:101A5800FEB5524808270780C046C046504C20882B
:101A680002AD28802888C046C046288804210191F4
:101A7800C943084202D00020208003E0A089012148
:101A88008843A081FFF7CAFF4648C18D06229143CB
:101A9800C18501218B03A68B1E43A6830388424E72
:101AA8001E40068043881343BB4343800522160724
:101AB800728D3E4DFF35C38D2B40D20522D40F22A7
:101AC8001503009703277A021343C385C28D2A435F
:101AD800C285A28B009B9A43A283A28B04239A43BC
:101AE800A2834288334B134043804288324B1340D1
:101AF800FA029A184280C28D0A43C285718D49073D
:101B0800FCD516E08A021343C385C28D284B1340C7
:101B1800CA039A18C285A28B3A43A283A28B019B5F
:101B28009A43A283C28D8A43C285A18B40220A436D
:101B3800A283A18B03220A43A283018820220A439D
:101B480040218A430280308F022420433087FFF7E8
:101B580079FE2046FFF780FE18480068C1B20C20C5
:101B6800AA29014600D0019932888243881830801A
:101B7800C046C046FFF79EFE86201149085AFFF767
:101B88003DFFFFF76DFE0F48018850220A43AF2141
:101B98008A4302800DF07CFCFEBDC0460033005035
:101BA8000403005052000050FFBF000000F0FFFF88
:101BB800FF0F0000FFF90000FFC70000D02FF80753
:101BC80084EDFC07041500500000000090070E008B
:0400000507FC00C92B
:00000001FF
