:0200000407FCF7
:100000009074FC07615EFC07755EFC078F5EFC0761
:10001000A95EFC07A95EFC07A95EFC07A95EFC07B8
:10002000000000000000000000000000A95EFC07C6
:100030000000000000000000A95EFC07D919FC07C1
:10004000D915FC07AD54FC07A526F007DD19FC0700
:100050002118FC07A95EFC078915FC07A95EFC07AF
:100060009515FC07A95EFC07E916FC07F316FC07CB
:10007000FD16FC070717FC071117FC078519FC077D
:10008000211AFC07A95EFC07A95EFC07A95EFC0714
:10009000A95EFC07A95EFC07A95EFC07A95EFC0738
:0800A00000008E070E000000B5
:0200000407FCF7
:100110000348854601F026FA004800470D3FFC07DA
:100120009074FC073EB50D4D6D1E14D002880A4236
:10013000FAD16D1E0FD002880A42FAD0084A13681D
:100140000124234313606D1E05D002880A42FAD1B0
:10015000044A10683EBD00203EBD0000C0C62D0010
:1001600010E000E018E000E0F8B5074601200023A9
:10017000024600901946032049F744F9044602213B
:1001800080300170FF4DFE482A6843881146FF31D8
:10019000F7310B8680884886FB48066A0123DB0618
:1001A0009E431E430662FF320020FF3238325082E7
:1001B0009082D0821D200882F4484884F448C88286
:1001C000F448088300204882384649F75BFC014622
:1001D0002868FF30F730C28B920992010A43C2832C
:1001E000ED48416800208847002C02D0204648F79F
:1001F000F2FC2046F8BDFFB58BB0064616980027E6
:10020000022821D00D9801881498814278D37188F2
:10021000084640383F2802D8159855F7EFFC0C984F
:10022000361D0088149A80190E995EF765FF0C98A8
:100230000188149808180C9908800D980188149862
:10024000081A0D9908805CE100200E9D07906978DE
:100250002C78090221433180E978AC7809022143E6
:1002600071808C46403904242D1D024603468E467B
:10027000402900D32878614604291FD0052914D0CD
:10028000062918D070463F283DD8159855F7B6FC7A
:100290000006000E04D0C148008D0006C00F30D00B
:1002A00002230120BE4A002712E0697800290FD0FE
:1002B000BC4A17230CE0BC4A0F2309E0522802D0A5
:1002C000D22802D002E0142000E01520B74A1F23F4
:1002D000002A1AD0984218D28000105804900028A2
:1002E00013D000200890059070884038402803D330
:1002F0002878052430716D1C701D00900498B5E0BD
:10030000FEE03027F0E03327EEE07088042872D159
:100310000627E9E0522862D00CDC4B283FD004DCF1
:1003200041286AD0422858D111E04C2820D05028CA
:1003300053D140E0632830D004DC572818D061281E
:100340004BD19BE06C2864D0772846D109E0009817
:10035000297801700098641C401CA4B26D1C0090A8
:1003600081E00498401C04900178089881427AD179
:100370000098A41C401C41084900881C0090687823
:100380002A780002104308800599AD1CA4B2002908
:1003900069D008900020059065E00120FBE710225D
:1003A000294600985EF7A8FE009810341030A4B2D9
:1003B0001035009057E02046403014990390884251
:1003C0000BD84022294600985EF796FE00984030F0
:1003D00000900398403584B245E0342743E008227A
:1003E000294600985EF788FE009808340830A4B2C9
:1003F0000835009037E068E0FFE7062229460098BC
:100400005EF77AFE0098A41D801DA4B2AD1D009079
:1004100029E01498001B80B203903088001B001D57
:1004200081B2012007900498401C04900098401C61
:100430004008400000900498007857281CD04228BB
:10044000CBD100980170090A417000982946801CA0
:100450000090039A5EF750FE03980399201884B227
:100460000098401800900498401C049000780028E0
:100470001ED0002F17D01BE04908E2E71498001B9C
:1004800081B200980391401C400840000090012078
:100490000A460790294600985EF72EFE03996018D9
:1004A00084B20098DDE70D990988A14200D331E7B5
:1004B0000D980088A04208D304990978002904D136
:1004C0000799002903D1A04201D034270CE00D99EF
:1004D000001B08800C9801880098801B001F0818DA
:1004E0000C99002F08800CD07088042809D00628A9
:1004F00007D04038402804D30E984079707100E04E
:10050000342738460FB0F0BDFFB581B01F46164600
:100510000C4610465CF7B4FC00257F2802D02189E8
:10052000062909D03B4632462146019855F7F9FE87
:100530000546284605B0F0BDC00601D50225F8E7FE
:1005400020780028F5D1300AA11D42F782F8F0E7A3
:10055000F1B598B0189842F77AFA04461898052130
:100560000079134A4006C00F099068460184618BE8
:1005700008460A38904276D2E08A062873D319E0FA
:1005800030BCFC074CB9FC07C000004010800000E4
:10059000294100007671000058BFFC0748BEFC07E7
:1005A0003803F2074003F2079C03F207D803F2076F
:1005B000770C00001922D201904254D8228BFF23DD
:1005C000F5339A424FD8521C9300D2184243521C22
:1005D0000A23521059438A4245DC217F00290CD15D
:1005E000617F002909D1A17F002906D1E17F00297F
:1005F00003D12021095DC90635D0274620377978F7
:10060000C906C90E491F0C292DD2A18A81422AD8B8
:10061000E17C002927D0421E082A01D9082000E0E9
:10062000401E81421FD8684646F7D2FA00281AD1E8
:10063000FE4D0622286221460AA85EF75DFDA879D4
:100640002E46803E00287DD06079800901280BD09D
:100650000AA809994CF78BFD010003D03820405CB3
:10066000002870D09BE008E1F06A807A012808D069
:10067000042806D00AA84CF7E7FD286200284ED0CF
:1006800054E0686A06220AA932305EF759FD002854
:1006900006D00AA84CF7D8FD2862002802D012E044
:1006A000686AF9E700210AA84CF7E4FD2862F16ABC
:1006B000897A012905D18B071A6849068A430A43BA
:1006C0001A60002811D0F16A286A062225301031FC
:1006D0005EF736FD002808D1286AF16A2030C07A1A
:1006E000C97B884201D1286A1EE0D148D1490088DF
:1006F000C96880B206225043081842F7ADF9014696
:1007000014A8062202305EF7F7FC13AA00213C2051
:1007100042F76FFC0121B06D47F796FEA9E011A9E1
:100720000AA84CF7A7FD2862002838D001462531D9
:1007300006220FA85EF7E0FC286A08AA2030C17ADA
:100740000FA801E041E024E04CF7F4FB002812D0B0
:10075000286A2030C07A002809D16846B649008C42
:100760004BF75BFB08AA0121B3484CF7E3FB684653
:100770000AA9008C0AE008AA012111A84CF7DAFBAB
:1007800000280CD0296A6846008C32314BF75BFB9D
:1007900005E00A18527D002A08D010286DDBF06AA7
:1007A000407A022806D0032804D00EE0401C10280E
:1007B000EFDBF4E76846008C052806D308AA0AA8F0
:1007C00009994CF7B7FB002857D00022694620460C
:1007D0004CF759FC002850D1F06A407A02280BD01F
:1007E000032809D00023684602880AA809994CF713
:1007F0006BFC002802D02FE00123F4E7E18A684671
:100800000181218B4181618B8181787806224109A8
:10081000684681757878C106C90E684641752146DB
:100820000E305EF769FC189800794006C10F6846E3
:1008300001750388214602A8B26D47F7ABF901465E
:10084000B06502A842F723FC0020B0652146684647
:100850001C31008846F70FFA49F78EFA734C2034A2
:10086000207A002805D0002109205CF74CFC0020EC
:100870002072002108465CF7EEFA19B0F0BDF8B519
:100880006E4C064685000F4660594C21095C2429B0
:100890000ED140691022791D2E305EF72DFC615972
:1008A00025204031087300221146304654F7F9FAEA
:1008B00060594C21095C0C291FD140691022791D17
:1008C0002E305EF719FC60595F214069095C090709
:1008D0002DD401462E3110221E305EF731FC002847
:1008E0000CD06059092140300173304654F7F6FFAF
:1008F00001460022304653F753FEF8BD04216846F6
:1009000001706A460521304653F7F4FF68460178C6
:100910006020014368460170304654F7DFFF01460E
:10092000684602780123304653F74FFFF8BD304642
:1009300054F7D4FF012809D06059072140300173D2
:1009400000221146304654F7ACFAF8BD6159002038
:100950004969C031887160590421426930461E32AC
:1009600053F7C8FF605941694031897F002907D09A
:100970001A21403001730021304654F71CFBF8BDAA
:100980001B2140300173304654F76AFBF8BDF8B5BF
:100990002A4C05468600A0594C22125C192A11D116
:1009A00040224D30491D5EF7A7FBA0594022244943
:1009B0004D305EF7C5FB002805D021492846203977
:1009C0005BF729FDF8BD0B21684601706A460521D9
:1009D000284653F78FFF6846017860200143684638
:1009E0000170284654F77AFF0146684602780123D1
:1009F000284653F7EAFEF8BDFFB581B003980C46D0
:100A0000060A00255CF73CFA002827D0132825D0D9
:100A1000142823D00B48B700C0592030407BC006B3
:100A200037D503985CF72CFA15280DE030BCFC078D
:100A300068B9FC0760BBFC0750F5F1073CBEFC073A
:100A4000FCBDFC0778BBFC070CD0A07941F7F2FF96
:100A5000304647F78DF8032806D015E0A07941F716
:100A6000E9FF1FE002251DE03248C0592030407BDD
:100A7000400704D53D21304642F7DAFC04E03D2230
:100A80000021304642F7E3FC3D21304646F7B8F8F6
:100A900008E02046103828490181468120464EF75B
:100AA000A1FD0125284645E524485222006864300E
:100AB0008188C37E5143224A12688918FF225F321F
:100AC000525AFF31120AD21A01310B8CD2B2DB0B0F
:100AD00009D00B8C5B045B0C0B84002A03D180884B
:100AE000184A012111547047FFB51746140A81B006
:100AF000104A0298A100515840780026114D002953
:100B000007D0295D002905D0002803D1204643F7EE
:100B1000F3FE2E553A46049B0299019844F77DFE58
:100B200008E50A4808490160094941607047704773
:100B30007047000078BBFC070608000084BBFC0778
:100B40004CB9FC07C28BFC070459F007C0000840F1
:100B5000490C00BF10B50F4903205CF74AF900218A
:100B600003205CF778F910BD10B5044601230A4A4A
:100B700000210A485BF73EFF09498C4201D103215D
:100B800003E008498C4201D1002101704EF72AFD93
:100B900010BD0000345FFC0711FC000001080000DC
:100BA000A5A5A5A5C3C3C3C37FB5E4486B4601880B
:100BB000428889186A46118001214C002218154686
:100BC000403DED8F065B5288AD19AA18491CC9B289
:100BD0001A530729F1D38189C089081881B2D981B4
:100BE000D888002821D01889002820D0988800288B
:100BF0001FD0588900281ED0988900281DD05888F9
:100C000000281CD000291CD0188800280BD00720F1
:100C1000062254001C5B8C4201D22146D0B2521EE7
:100C200052B2002AF5DA04B070BD0320FBE70420BD
:100C3000F9E70220F7E70520F5E70620F3E70120B2
:100C4000F1E70720EFE7F0B595B0EFF310801090D3
:100C5000012080F31088BA48816B4A07520F694619
:100C60000A800A92816B0122C908C9008163B549D3
:100C70008B8869464B800224B24B00219980C16A5F
:100C800009078B0F69468B800F93C16A0C23994328
:100C90000831C1620521090709880906CB0F694699
:100CA000CB8005210907099309888023194305236F
:100CB0001B071980A449898A4906CB0F69460B8115
:100CC000A1490893898A402319439F4B9982016A5D
:100CD00009074B0F69464B810C93036A0E218B4326
:100CE00003629B4D99486860FF204030A8602888C7
:100CF000A0432880974841680B071B0F69468B81EA
:100D00000B934168090909010831416041684906AE
:100D10004B0F6946CB810D93416870239943603135
:100D200041608748403801688904CB0F69460B82CF
:100D30000293036841140B4303600168CB07DB0F88
:100D400069464B820E930168114301604168890333
:100D5000CA0D69468A8203924168CA05D20D694666
:100D6000CA82049281688903CA0D69460A83019286
:100D70008168CA05D20D69464A8305924168764A60
:100D800011400322D203891841604168490A49028F
:100D9000FF314131416081686F4A11400322D20323
:100DA000891881608168490A4902FF3141318160B7
:100DB000642000F02DF9A88969468007C00F888358
:100DC000A8892043A8810024604F2888002601219B
:100DD000084328800A2000F01BF9FF205F494130BA
:100DE0003A680A4200D0761C401E3F1D0004000CE9
:100DF000F6D1A88A8004FCD15149886B671CC208CF
:100E0000D2007807400F02438A630A2000F000F9FD
:100E100060004A49FCB20E52082CD5D348480A99C2
:100E2000826BD208D2000A4382636946454A4988E8
:100E300091800F998A00C16A0C2399431143C162C2
:100E40000999CA010521090709888023994311439B
:100E500005221207118008998A013B49898A40239B
:100E600099431143384A91820C994A00016A0E2332
:100E700099431143016237480B99426812091201E4
:100E80000A4342600D994268090170239A430A435C
:100E90004260029841032A48403800680122520308
:100EA000904308432649403908600E98096849086C
:100EB000490001432248403801600398420220481B
:100EC000403840682449084010431D4A403A506069
:100ED00004985268520A520202431948403842604C
:100EE0000198174A4002403A92680A400243144867
:100EF000403882601249059840398968490A490298
:100F000001430F48403881601098002800D001202C
:100F100080F3108815B0F0BD10B5114C2078002872
:100F200008D0FFF790FEFFF73FFE0E490870002043
:100F3000207010BD04F0CCF80120F9E7346BFC07F9
:100F40008010004000120040203000503466FC0742
:100F50000035005040200040FF01FCFFC0C0C0C071
:100F6000FE8EFC07FF8EFC0710B5FF2215490132EB
:100F70000A60BFF34F8FBFF36F8F13490A601349A5
:100F80000B6840241B0A1B0223430B601049898A0B
:100F90000021C30700D03521830702D57D231B0222
:100FA0001943430702D575231B041943000702D5D3
:100FB0003D2000060143064820380163014880387F
:100FC000026010BD80E100E080E200E008E400E0A3
:100FD000A010004010B5062000F01AF810BD10B5A2
:100FE000092000F015F810BD10B5812000F010F8B0
:100FF00010BD10B5044800F00BF810BD10B5034843
:1010000000F006F810BD0000010200000108000019
:1010100000280CD000BF00BF00BF00BF00BF00BF52
:1010200000BF00BF00BF00BF00BF401EF0D170472F
:1010300010B50C460123FE4A0021FE485BF7DAFC9E
:10104000FD4A21781170002101704EF7CBFA002083
:1010500010BD10B5F64A0C460123521E0021F5487A
:101060005BF7C8FCF54A21781170002101704EF73A
:10107000B9FA002010BD10B5ED4A0C460123921EAE
:101080000021EC485BF7B6FCED49A2884A800A468D
:101090002388403AD387E2888A8062880A800021C8
:1010A00001704EF79FFA002010BD10B51A4682233A
:1010B0000021E0485BF79EFC112101704EF792FA87
:1010C000002010BDDA4A10B50123413A0021D94869
:1010D0005BF790FC112101704EF784FA002010BDDF
:1010E000D34A10B50123403A0021D2485BF782FC75
:1010F000112101704EF776FA002010BD10B51A4686
:1011000002230021CB485BF775FC112101704EF7DB
:1011100069FA002010BD10B51A4601230021C54808
:101120005BF768FC112101704EF75CFA002010BDDE
:1011300010B51A4601230021BE485BF75BFC112164
:1011400001704EF74FFA002010BD10B51A468223E9
:101150000021B8485BF74EFC112101704EF742FAAE
:10116000002010BD10B51A4682230021B1485BF75C
:1011700041FC00214170112101704EF733FA00202B
:1011800010BD10B51A4601230021AA485BF732FCB6
:10119000112101704EF726FA002010BDA44A10B5A7
:1011A0000823333A0021A3485BF724FC0446031DBF
:1011B000C21C811C401C5BF7F5F901460020002988
:1011C0000BD0112121706070A070E070A080E080D1
:1011D00020464EF707FA002010BD2070F7E77FB5D4
:1011E0000025084600950195103802955BF747FCED
:1011F0005BF7EDFB00246E46039020465BF7E1FBB6
:1012000061008919641CE4B24880042CF5D3884A33
:101210001023313A002187485BF7ECFB6E461ECE67
:101220001EC0103805704EF7DDF9012004B070BD06
:10123000F8B57F4A0F4608230A3A00217D485BF73C
:10124000D9FB804D0446286B6E12B04330432863AF
:101250007D493888496A88476060286BB04300211F
:10126000286338886080217020464EF7BBF9002043
:10127000F8BDF8B56E4A0D460423093A00216D48C1
:101280005BF7B8FB6F4E0446306B7712B8433843B8
:1012900030636D4A2888926A69689047306BB8431A
:1012A0000021306328886080217020464EF79AF92B
:1012B0000020F8BD70B518460D465D4A0146012371
:1012C000323A5C485BF796FB04462878002802D047
:1012D000012805D101E05D4800E05D4841F746FA8C
:1012E0001220207020464EF77DF9002070BD10B509
:1012F00018460C464E4A01460823133A4D485BF700
:1013000079FB2188012292078918096841602188A8
:101310004180002101704EF765F9002010BD10B525
:1013200018460C46424A01460423123A41485BF7EC
:1013300061FB228801239B07D21861681160218814
:101340004180002101704EF74DF9002010BD10B50D
:101350001C4608464BF760FE354A0123113A2146E8
:1013600034485BF747FB002101704EF73BF9002042
:1013700010BD70B50C8818461646032C00D3032404
:10138000CA788B78150252225443324A1D4313689F
:10139000E318FF3301335D830B7911686118FF3166
:1013A00001318A8B120A12021A438A83204A0146AB
:1013B00001230E3A1F485BF71DFB002101704EF719
:1013C00011F9002130465BF746FD002070BD10B5D5
:1013D00088781C46002801D0012200E000220888FD
:1013E000114645F751FC124A01230D3A2146114896
:1013F0005BF700FB002101704EF7F4F8002010BDF0
:1014000070B518460C460A4A014601230C3A0948B1
:101410005BF7F0FA227852214A430E4900230D6807
:101420005219FF3241325382227852256A4313E027
:1014300043FC000001080000B0B9FC07D9B9FC0763
:1014400030BCFC074000004058BFFC07C3C3C3C307
:10145000A5A5A5A54CB9FC070D685219FF3241326C
:10146000938222785224096862435118FF31413136
:10147000CB82002101704EF7B5F8002070BD70B529
:1014800018460C4601460123324A33485BF7B2FA4C
:10149000227852214A43314900230D685219FF3204
:1014A00041329381227852256A430D685219FF32E6
:1014B0004132D38122785224096862435118FF31A6
:1014C00041310B82002101704EF78CF8002070BD75
:1014D00070B5184616460D461E4A01460123D21C19
:1014E0001D485BF787FA04462888032800D30320A9
:1014F00047F786FB002805D000212170A9786430C9
:10150000C17701E01220207020464EF76BF80021D1
:1015100030465BF7A0FC002070BDF8B50E461049C0
:101520001C4615460020C2008A5AA24209D1C000BA
:1015300040184768002F07D02A4631461846B8475A
:1015400002E0401C1928EED322463146284602F01C
:101550004BFBF8BD38FC0000010800004CB9FC074B
:10156000445FFC07064C0125064E05E0E36807CC06
:101570002B430C3C98471034B442F7D3FEF7CCFD14
:10158000F465FC072466FC070148012101807047CF
:101590000E1500500F48011F09880A0703D5514A4C
:1015A000538A5B1C5382CA070AD0028807239A43D6
:1015B000304BDB7B134303804A4A138A5B1C138244
:1015C000490706D5018807229143F24A127C0A4353
:1015D00002807047B8100040B0B5E34B0820188077
:1015E000052000070188302211430180048803216F
:1015F0000C4304801C896407FCD403889343038054
:1016000003888B430380E34CE38B4380238C9D1E34
:10161000194B5D8007251D800588154305800588C9
:101620000D4305801D886D07FCD403889343038018
:1016300002888A4302804289920702D042898A4303
:101640004281018980220A430281018A0422914356
:101650000182818A8907FCD540F763FE206B074928
:10166000086007480168490700D500BE01684907BE
:10167000FCD5B0BDF08EFC070016005008020040FB
:1016800010000040F8B500250095134E1349716015
:10169000B560316804220A433260EFF310840127F9
:1016A00087F310883946814089B20D48FEF73AFD2C
:1016B00000903068B8433060002C02D087F3108867
:1016C00001E085F31088009841424141BF4A5171C1
:1016D0000249081AF8BDC04610E000E0FFFFFF0015
:1016E00000300050486BFC0780B50A2000F036F847
:1016F00080BD80B50B2000F031F880BD80B50C2096
:1017000000F02CF880BD80B50D2000F027F880BDDA
:1017100080B50E2000F022F880BD000070B50125D4
:101720008D404001064C049E002E01D0055301E07F
:10173000261875801343201849004018838070BD17
:1017400002300050814001228240034803889343C5
:101750000B4303807047C0461E30005070B5C0B2C6
:1017600003460A3B01210A469A4093B20A4C1C19CF
:101770005C406608094B1C880025360402D06D1CAD
:10178000760CFAE79443AAB20D46954025431D8096
:1017900081407448016070BDFFFF01000E140050CD
:1017A000F8B5044601273E0205200507688DC005EF
:1017B00006D51B2004F0D6F96C4801883943018016
:1017C0008036288840013040698A694A0A400243CD
:1017D0006A8221681148016061684160A168816086
:1017E000E168C1602169016161694161A16981614B
:1017F000E169C161046260490A6842624A688262C2
:101800008A68C2624A690263CA684263096981637D
:10181000A88AC00600D4FEE700BEF8BD0090FC0711
:10182000024800884F481021016070472C13005077
:10183000B0B5114D2888400602D52888800609D405
:101840000E49086A0024002814D0CA69521CCA61D3
:1018500082420FD309480024C461281F046017483E
:101860000088FFF7D5FB2888C00701D1012401E0DB
:101870004CF73EFB2046B0BD14100050B8BAFC0730
:1018800080B54CF706FB0B48828980210A43828190
:10189000027903781202D21814235343064A12889D
:1018A0001207D20ED218921C044B1A8082898A43E6
:1018B000828180BD00100050C0100050C08BFC071A
:1018C000F8B5044605200507288A0421014329822A
:1018D00028894021014329812248012707602248A5
:1018E000082101803E02688DC00506D51B2004F04A
:1018F00039F91E4801883943018080362888400123
:101900003040698A1A4A0A4002436A8221681948AB
:10191000016061684160A1688160E168C16021691E
:10192000016161694161A1698161E169C16104622B
:1019300011490A6842624A6882628A68C2624A69D8
:101940000263CA68426309698163A88AC00600D439
:10195000FEE700BE688A094908404018001D6882F9
:10196000F8BDC04680E200E0003300508000005027
:101970007FFE00005090FC0728ED00E0FC7F000097
:101980007047000080B50348C06A002801D004F009
:101990002DF980BDF08EFC07AC494A6B002802D0BF
:1019A000824200D9486B8A6B904200D9886B084A02
:1019B000108008790221814006484843002803D05E
:1019C00000BF00BF401EF9E77047C046486BFC07E8
:1019D00002000050F10600007047000010B50F4CE7
:1019E000A1880F200840022806D004280BD00C281C
:1019F0000CD00128F4D110E02088022188432080F7
:101A00002088802106E004F023F9E9E704F020F9BA
:101A10002088012188432080E2E710BD0411005096
:101A200005210807028830239A4302800288032395
:101A30009A430280828812050DD5184A13880B40FC
:101A4000052B08D110880421014311801088012141
:101A50008843108070478188C90606D510498A8856
:101A6000D20702D00A88120610D48088C0060CD58E
:101A70000B488188890708D50188C90505D5022149
:101A800081800188074A0A400280704701208880CF
:101A900008888022904308807047C04600020050AA
:101AA00000010050FFFE000081B0BD4801884907D9
:101AB000FCD4C1880091009980880904081801B0FD
:101AC0007047C046B6480188490700D500BE3F218F
:101AD000C9004180018801220A4302218A43028011
:101AE000018804220A4302807047C046FEB5504C6C
:101AF000002121800327FD01294690316180402685
:101B0000A6805C224B498A5AA281A28932433023A3
:101B10009A43A281484A1660BFF34F8FBFF36F8F7D
:101B2000002800D17FE0019702952288B243057812
:101B3000AB0113432380E788702297434378190150
:101B40003943E180002D05D1E1880725A9431B0910
:101B50000B43E38021880425A943C3789B000B43F2
:101B6000238001790902A388DBB25918A180E1889A
:101B70001140324F40292DD16220F149085A0028E6
:101B800000D131483149C881012000032188014337
:101B900021801920FFF73CFA029A104680302188F4
:101BA0000143218020883043208060882843608062
:101BB00060882749014061800F204002618801430D
:101BC00061804037608838401043608060880199A8
:101BD000884327E021881A4A0A4022808178102908
:101BE00000D300BE6288174B13404902194361803D
:101BF0006188019A914342790A4362808179002980
:101C0000029A01D10A4600E080322188394011430E
:101C10002180C079082800D300BE40376188394050
:101C20008001084360802088012101432180FEBD9E
:101C300000150050C88BFC0780E100E0FFFD0000AC
:101C4000FFEF0000FFE1000040760000486BFC075A
:101C5000FF1F000080B50448016803220A430260A8
:101C60005020FFF7D5F980BDAC10004010B50168D9
:101C700000290CD5036802680124A40700688000CD
:101C8000800C00195B0001D4028000E00270C80FD4
:101C900010BDB0B50C460025202D04D040F72FFE16
:101CA00060556D1CF8E70020B0BD000010B504467B
:101CB0000548064970225DF71FFA0548001B0549D3
:101CC00008801430488010BD70A0FC071C60FC0721
:101CD000B8A0FFFF78A0FC07B0B500F027F800F02F
:101CE00039F80F490B880F480468244A1440E31858
:101CF00003600D4B1C88856915402C1984615B8835
:101D0000C4691440E318C3614B8A046A1440E318A1
:101D10000362898A436A134059184162B0BDC046C4
:101D20001030004088A0FC076430004010B5074820
:101D30000188074A1368114C2340591811604088E4
:101D4000516821400818506010BDC046183000404E
:101D50008CA0FC0710B507480188074A1368074C98
:101D6000234059181160408851682140081850607C
:101D700010BDC0463830004098A0FC070000FFFFAF
:101D800007481E214180018803220A4302800188FE
:101D900004220A430280D148012101707047C046E5
:101DA0000016005080B50D480078C00708D1052006
:101DB0005BF766F800280FD12A200A49085C04E086
:101DC0000748417D012907D1007D41424141C21EA2
:101DD00050425041084380BD002080BDFDB9FC0742
:101DE00088BDFC0730BDFC0707480168BB4A927DEF
:101DF000002A04D0064A1140064A891801E0034A25
:101E0000114001607047C046B810004077F7FFD519
:101E100077F7FFC08808002A704780B55FF7ACF8F5
:101E200080BDF8B56946C870020A8A70020C4A7013
:101E3000000E087008465FF787F88FBDF0B585B0D3
:101E40000E46EF483A4A022519462B465AF7D2FD6C
:101E5000074633783748029005220620002B1146AA
:101E600000D00146002B00D01046764A1288D205D9
:101E700000D5014602A841702F490391FFF736FEB5
:101E80002320FFF7C5F82D49088828430880012240
:101E9000130208888007FCD4CA81088A284D4C8820
:101EA0002407009706D40E884024344006D02E46DE
:101EB000563605E02E4660365E3506E02E465A362A
:101EC000002C01D0543500E0583500242F5F0194D8
:101ED000355FC0334C881C409C4205D04B88DB05E5
:101EE0005B0F0624E31A01930B8893430B80154C78
:101EF00060433E1931465DF785F80746654328463D
:101F000031465DF795F8391AA1420B4600D32346B6
:101F10000D4A002591422946009800D81946019A99
:101F2000D14001804DF75EFB284605B0F0BDC046AC
:101F30001AFE000001050A0000030101001500500F
:101F4000C88BFC07FFFF0000FEFF010010B519461B
:101F5000AB48044A002423465AF74CFD4DF742FB98
:101F6000204610BD07FE0000FEB51C460F46A448E3
:101F7000204A022321465AF73DFD04467978012084
:101F8000002202910C29034600D313463D78694292
:101F900069411940FE780C2E034600D31346BF78E2
:101FA0007A427A411A400A404240228020464DF748
:101FB00019FB208800281BD10F48FFF729F8474854
:101FC000C17C807C0024009422462346FFF7A6FBB8
:101FD0004248417D007D009422462346FFF79EFB48
:101FE000284602993A46334603F0C6FE03F078FBD2
:101FF0000020FEBD09FE0000E2040000B0B51D4651
:102000000C46E5480E4A012329465AF7F3FC002105
:1020100001702278511E13468B4130498B75094956
:102020000B88DB0507D4531E9A4192024B8D064C58
:102030001C40A2184A854DF7D5FA0020B0BDC04615
:102040001CFE00002A000050FFF90000FEB50193BD
:102050001646029107460020041D102C0AD00CA140
:102060000D58384602993246019BA8470028204661
:10207000F2D10BE07F204202C748042301995AF7AE
:10208000B9FC0299097801604DF7ACFA0020FEBD59
:102090001136FC074536FC071939FC0710B51946FF
:1020A000EF480D4A08235AF7A5FC0446EF48807A0A
:1020B00002280ED103F07AFC0848816D2180416E20
:1020C0006180016EA1805830008AE08020464DF783
:1020D00089FA002010BDC0460DFE0000F08EFC07FE
:1020E000F8B51946DE48264A012423465AF782FCF1
:1020F0000546244E378827400FD130882043308052
:1021000030882821014350208143318030880621C6
:10211000014331801C48FEF77BFF3088C00701D1A6
:10212000FF2021E00095194D68886C8028880821DF
:1021300088432880288802210143A14329802888D8
:1021400004210143298000262888400706D5632EF4
:1021500004D86420FEF75CFF761CF5E7288840036E
:1021600000B2C013009D074E2870002F02D13088A6
:10217000A043308028464DF735FA0020F8BDC04610
:1021800016FE000022000050400D03000016005013
:1021900070B51946EE480C4A42235AF72BFC044608
:1021A0000E250570801C094E31462A465CF7A4FFB7
:1021B00065702046223031462A465CF79DFF204656
:1021C0004DF710FA002070BD08FE0000D465FC0732
:1021D000B0B50D46DE480B4A0124194623465AF78E
:1021E00009FC2A780B2A04D807490988D1402140E4
:1021F00000E0FF2101704DF7F5F90020B0BDC046A9
:102200000108000013FE000000300050F0B587B058
:102210000E46F048614A0124194623465AF7EAFB64
:102220000490357800210B2D204600D8084672799D
:10223000059232790392F778B27806927278032A7F
:1022400011D8920002A39B580A460E469F46C046EC
:102250007F22FC076122FC077122FC077922FC0720
:102260000122160206E0012046020022204606E076
:1022700001225602002202E00322160222460296A2
:10228000069B012B234600D80B46012F264600D87B
:102290000E4605996429214601D816403146002989
:1022A000214600D11946002900D10446FF26002C02
:1022B0006AD1284601F016FC284601F031FC03984B
:1022C000002818D0012F28D0002F049C5DD135485C
:1022D000418B0122914341835002AA4030490A8038
:1022E0006A00511848800699481E81412846FFF728
:1022F00029FA002649E0781E41424141009100261A
:1023000030462946029A3346FFF708FA0699481ED6
:1023100081412846FFF716FA36E001242046A840FE
:102320001F49088068004018032631021731418098
:102330000699481E81412846FFF704FA4D48018856
:10234000082211430180018831430180154D688BBB
:1023500010436883688B0421884368837D20C10013
:102360000398414310485CF74DFE401E28802888A2
:1023700000266E80411C0598484364215CF742FEAC
:10238000E881688B20436883049C267020464DF7C3
:1023900029F9002007B0F0BD0108000012FE00007E
:1023A000043000500834005080841E00FEB50E46F4
:1023B000B2482C4A012519462B465AF71BFB044606
:1023C00077783678304601F08DFB002E01D1264813
:1023D00005800B2E3DD8022F3BD20294234C0020C7
:1023E0000190E07226736773E570E07A217B0095B7
:1023F00003273E0210233246FFF790F9E07A207B54
:10240000617B4A1E9141FFF79DF9E9431848028814
:102410000A400280174A938B0B409383118808234C
:102420000B43138011883943118001990180FF21EA
:102430000906114A13688B43E90759181160E836F9
:10244000468086800D49C180018829430180029819
:1024500002E0FF20207020464DF7C4F80020FEBDAA
:102460000108000017FE000000030050486BFC0745
:1024700000340050040000500CE400E0FFFF0000B6
:10248000FEB51C460D467D48184AF22321465AF7F0
:10249000B1FAAC781221002C22D03C2C20D82A880A
:1024A000FF21C90455180190471D0094002C14D039
:1024B00002AE04222846314602F0C0FCF81E029902
:1024C0000170B81E71780170781EB1780170F078D3
:1024D0003870641E2D1D3F1DE8E700210198009C07
:1024E000447001704DF77EF80020FEBD04FE000030
:1024F000BCB51C460D466148164A072321465AF7CB
:1025000079FA044628782070032807D002281AD1C7
:10251000611C1248062202F091FC14E06879A97946
:1025200009020818019028790006E97809040818BA
:10253000A978090240186978401800900648694651
:10254000022202F08DFC20464DF74CF80020BCBD65
:102550000108000003FE0000D47F0000D47FF807CC
:10256000F0B585B01C460E4644481B4A022321465E
:102570005AF740FA0446002103910291B7781220DD
:10258000002F1AD03C2F1DD8F51C01963688002F3D
:1025900015D0E8780006A9780904081869780902B6
:1025A000401829784018029002A90122304602F012
:1025B00057FC7F1E2D1D361DE9E70F4602E00198EE
:1025C000877800206770207020464DF70BF80020B8
:1025D00005B0F0BD0108000005FE000010B5194669
:1025E00026480A4A012423465AF704FA00210170BA
:1025F0004CF7F8FF06480821018006484480052171
:10260000018001880906FCD1002010BD1DFE0000DC
:10261000023300500031005010B519461748044AE3
:10262000002423465AF7E6F94CF7DCFF204610BD9C
:102630000AFE0000B0B51D460C46FF48104A0823AC
:1026400029465AF7D7F90021417022780270032AEF
:1026500010D861687A441279520097440103060940
:10266000096803E0A2680A6004E00988416001E0AB
:10267000A2680A804CF7B6FF0020B0BD0108000038
:1026800006FE0000F0B58FB01C460D46EA48EB4A46
:10269000022321465AF7AEF904462878E84FFE7D1A
:1026A000012800D198E0002800D0FAE0A87800289E
:1026B00000D0F4E0E8780B2800D9F0E0297900296F
:1026C00000D0ECE069790B2900D9E8E0A97900296C
:1026D00000D0E4E0E9790B2900D9E0E0297A00296B
:1026E00000D0DCE0697A0B2900D9D8E0697B0029A9
:1026F00007D0A97B002900D0D1E0E97B0C2900D3C9
:10270000CDE00C96CF4EB0476879B047E879B04736
:10271000687AB047687B002802D0E87B01F0E2F9D4
:10272000A878002802D1E87800281AD02879002853
:1027300002D16879002814D0A879002802D1E8795C
:1027400000280ED0287A002802D1687A002808D004
:10275000687B002809D0A87B002806D1E87B0028E8
:1027600003D10120F87502F057FFE8780022B6493E
:102770000B28134601D84000435A68790B281646A7
:1027800001D84000465AE8790B280A9202D8400046
:10279000405A0A90687A0B28099202D84000405AA1
:1027A000099002960393E87B0B2801D84000425A17
:1027B000EFF31080012181F310880E918E02A34B5C
:1027C00019880896314319800028049200D13FE10E
:1027D0000E9880F310883EE1287900285FD168794F
:1027E0000B285CD8A978002959D1E9780B2956D84B
:1027F000697B002905D0A97B002950D1E97B0C29F0
:102800004DD201F06FF9E87801F06CF9687B00288F
:1028100002D0E87B01F066F92879002802D16879B6
:1028200000280ED0A878002802D1E878002808D027
:10283000687B002809D0A87B002806D1E87B002807
:1028400003D10120F87502F0E7FEE8780023E8499B
:102850000B281A4601D84000425A68790B280B937E
:1028600002D84000405A0B9007920A94A87B0B288C
:1028700001D84000435A297BDE480180EFF31081E4
:10288000012484F31088DC48028820270D973A43FE
:10289000028000290C960FD084F310880FE0FF20EF
:1028A0002080FE7502F0B8FE02F0E4FE20464CF7F0
:1028B00099FE00200FB0F0BD002181F3108808932D
:1028C000CE4E31880E94A14331803188C907FCD1A6
:1028D000CB4F0020099038864821B9824F21398397
:1028E0000821B98317213984398806229143398018
:1028F0001F21C943BA8F0A40BA873A8F0A403A87E4
:10290000BC48048838880E9B184338803888402299
:1029100002433A8038880D99084338803A8810205D
:1029200082433A80B74A521CB98811402143B9808A
:102930003188194331803188C907FCD0B2490A680F
:10294000802313437F2293430B60B0490860A8782B
:102950004001A74BC018E978490009224252287962
:102960004001C018697949000A2242520E98440277
:10297000687B002806D0E97BA87B099B0093224650
:10298000FEF7CCFE687801280DD1E87AA97AB288E2
:102990005207FCD5398220433882B0884007FCD5E5
:1029A000B0888006FCD403F0F7F8A87AB18849070C
:1029B000FCD538820A9CB0884007FCD50320000271
:1029C0003882B0898006FCD0388AC0B22080687B0B
:1029D00000280ED04B208000FEF71AFBA87B400198
:1029E00083490818801F0088E97BC8400E99084079
:1029F0002080E8780B289F4F7D4902D84000079A35
:102A0000425268790B2802D840000B9A4252A87BA8
:102A10000B2802D84000089A425230880E99884309
:102A200030803088C007FCD1F84908880D9A90435F
:102A300008800C9E35E7C0460108000011FE00002A
:102A4000F08EFC07E53AFC07063000500400005009
:102A5000002080F310886E4A20200D90108090880E
:102A60001C210691084360218843908090880321AF
:102A70000591884390809088802398439080387B8C
:102A8000FE2101403973002696810B961089079329
:102A900018431081387BF1210140881C387310895C
:102AA0000721014378208143118110884021884308
:102AB000108010880D9988431080E978A8780096D6
:102AC000059A12020592534F069BB84769792879F7
:102AD00000961A2332464F4FB847E979A8790096F5
:102AE0001B23059F3A464B4EB047697A287A0E9EC3
:102AF00000961D233A46474FB8470B9F687B002836
:102B000006D0E97BA87B009772023B46FEF706FEE3
:102B10006878012810D1E87A0690AE7A02F0BCFFFE
:102B2000304602F05FFF069802F05CFF38498F8460
:102B300008880D9A1043088003F02EF8AE7A02F050
:102B4000ABFF07980643304602F04CFF384602F0D0
:102B500049FF2F4A978411880D9B19431180C0B2F9
:102B60002080687B0028C74F0ED04B208000FEF7E6
:102B70004FFAA87B40011E490818801F0088E97B96
:102B8000C8400E9908402080E8780B280C9E184910
:102B90000E9B02D84000039A425268790B2802D853
:102BA0004000029A4252E8790B2802D840000A9A63
:102BB0004252687A0B2802D84000099A4252A87BF8
:102BC0000B2802D84000049A4252EFF3108083F39E
:102BD00010888E4A1188089DA9431180002802D0D0
:102BE00083F310885DE60B9880F3108859E6C046A1
:102BF00006300050886DFC07040000506C13005034
:102C000000130050FFFBFFFF04E400E000E100E0E0
:102C1000001200501D17FC07B0B51D460C46E948D0
:102C2000084A0123294659F7E5FE05462078EB4975
:102C3000C87502F0F1FC00242C7028464CF7D2FC39
:102C40002046B0BD1EFE0000B0B51D460C46EE4845
:102C5000074A0123294659F7CDFE002505704CF798
:102C6000C1FC2078DD4948733FF7EAFC2846B0BD37
:102C70001BFE0000F08EFC0710B51946E248054A1D
:102C8000012359F7B7FE002404704CF7ABFC204633
:102C900010BDC04618FE0000FEB50E465748584D00
:102CA000012419462A46234659F7A4FE0027077037
:102CB0004CF798FC4BF748F93078022816D00128D9
:102CC00007D0002800D096E05848C7705A480770CF
:102CD00091E002F0C5FF4C480770B07871780A4661
:102CE000024360D151480221017167E002F0B8FF50
:102CF00044490820088044490F7072B6434EB28997
:102D000004210A43B281B28880239A43B280B288F8
:102D1000402302931A43B2803D4A118032883D4BD2
:102D200013403380FA433C4B1A60328AD206FCD4FB
:102D30007E35F2892A40F281E243384B9D88154066
:102D40009D80374D2F680F432F60B58A254302279A
:102D5000BD43B582B58A0D4301908543B582B58ADE
:102D6000102028432025A843B082B0892043B08199
:102D7000188810401880988A2A4A02400720C0020A
:102D800010189882A0039A8A02439A82F08C264AED
:102D90001688C00517D4602006431680988A03223F
:102DA0000243029F17E0214A1471214A4A43192124
:102DB0008901414388181F49096848621B48C4704B
:102DC0001D48047017E02E433846029FBE4316800C
:102DD0009A8A0243A2439A82988A019A104398825F
:102DE000988A88439882188B3843A843188300BF79
:102DF00000BF00BF30BF0020FEBDC046020800007B
:102E000001FE000000330050348CFC070400005029
:102E100000020050FFF7000080E200E00C030050C9
:102E200010ED00E0FFC300005200005054BAFC0750
:102E30000077010058B9FC07B4BAFC07BCB51C46C2
:102E40000D46B2480E4A0023214659F7D3FD0446E9
:102E50002878B34D2872A87A00280BD15F485830E3
:102E600012215CF762F9297A01A8017047F78EFEFA
:102E70000220A87220464CF7B5FB0020BCBDC0461E
:102E80000CFE0000F08EFC07B0B519469F480A4AB8
:102E90000024234659F7AEFD0546A148807A05284F
:102EA00008D102F03DFE02F081FD9C4804602846F6
:102EB0004CF798FB0020B0BD10FE00007CB51C460E
:102EC0000D4692481D4A0023214659F793FD0446BA
:102ED0002878934E30726878F071B07A002828D143
:102EE00001AD25206870307A2870F079A870FEF75F
:102EF0007BFF284647F7BDFD0120C20387490B68C9
:102F000013430B6082030B6893430B6002030B684F
:102F100093430B600A680A4B13400B600521B172A2
:102F200000027C490860BFF34F8FBFF36F8F02F040
:102F3000C3FD20464CF756FB00207CBD0FFE000071
:102F400000FEFFFF80B50878754A1072487850720D
:102F50008878D071C878097909020818D08202F0FF
:102F600007FD002080BDC046B0B50C461548164A86
:102F7000012519462B4659F73DFD2178052900D832
:102F8000002505704CF72EFB4AF7DEFF7D20FEF78B
:102F90003FF82078052804D80CA1095C0DA2105C2C
:102FA00001E00B2108200D4A5176107603223FF7ED
:102FB0007DFB002420463FF7D5FB3FF79BFB2046D7
:102FC000B0BDC0460108000015FE00000301060B5D
:102FD0000001000068341108011A0000F08EFC079F
:102FE00070B50C46D048094A642519462B4659F756
:102FF00001FD064621462A465CF77EF830464CF72E
:10300000F1FA002070BDC0460108000014FE000067
:10301000F8B50E46C4483E4A002519462B4659F7D6
:10302000E9FC0446307854282CD0522812D04F287E
:103030006AD102F075FD3A4EB07A062854D00728BE
:1030400058D102F0B3FC0120C00734490A6882431A
:103050000A604FE0012000022E490860BFF34F8F45
:10306000BFF36F8F7578FEF7BFFE6846057047F7B0
:103070008DFD2948401C29490A6802430A602848F6
:1030800007212DE00120000222490860BFF34F8F85
:10309000BFF36F8F7678FEF7A7FE224D2846FEF726
:1030A000E5FD0C20071D342F05D02818FEF7DEFDA6
:1030B00000283846F6D13820071D582F05D028188B
:1030C000FEF7D4FD00283846F6D117480321417099
:1030D00016483018164A106016480160104806213C
:1030E000817202F0E9FC0CE0124805600E480221F2
:1030F00081700580012000020F4908600F490860B7
:10310000B57220464CF76EFA0020F8BD01080000A9
:103110000EFE000080E100E0FFFFFF7FE0000040C6
:10312000486BFC0770A0FC07041000400001620916
:1031300004300040AC10004000E100E080E200E01C
:10314000F0B58FB00D467848784F022419463A46BC
:10315000234659F74FFC0646297807291DD8687879
:10316000AA7812021218C0467944097949008F449E
:1031700016191C2F394203036D49FE2802465AD105
:103180000F46891D00200C2850D00A880F231340B9
:10319000012B4ED0891C401CF5E70024D1E1654885
:1031A00000882DE06348028029E06248018A0122FC
:1031B000120280320A40802A06D1418AC906FCD414
:1031C0007D37018A3940018203200002401D14E04E
:1031D00090B2FF210C1A57490B8800209C420FDB4C
:1031E0009A1806E053490B8894B20020A34207D3F3
:1031F0009A1A0A8004E001204002FE490882002059
:1032000030800024FC4AD17C907C137D984204D10C
:10321000527D914201D10027B9E100221746009268
:10322000032212020223FEF779FAB0E10C22FF20FA
:1032300000E0024639460594C7B200240C2F01D3A2
:10324000204602E078000818801D0B2F09902DD829
:103250000496079504880392D6B2304600F042FCEB
:10326000304600F05DFC002E0BD1E348817C002944
:1032700007D1C07C002804D10120DE4988804002AB
:10328000C880012001900002099908800799897877
:1032900000220E920D9202920C92002908D0012970
:1032A0004AD12546AF229300D54A04E0042046E1E6
:1032B0002546D24AFA23D34E0A247463B363326498
:1032C00074641422B2646E22F264726BB265B26BE3
:1032D000F2653171F16CF1630B2F2C462CD8B900DB
:1032E00001A251588F46C0461933FC074333FC07EF
:1032F0005333FC076333FC077333FC078333FC074A
:103300009333FC07A333FC07B333FC07C333FC0739
:10331000D333FC07E333FC0703210902B54BDA88FA
:103320008A430243DA8063E00108000002FE0000E5
:103330000030005002000050079D049E039A02983E
:10334000FDE003210902AB4B1A898A4302431A812B
:103350004EE003210902A74B5A898A4302435A814E
:1033600046E003210902A34B9A898A4302439A81CA
:103370003EE0032109029F4BDA898A430243DA8146
:1033800036E0032109029B4B1A8A8A4302431A82C0
:103390002EE003210902974B5A8A8A4302435A823C
:1033A00026E003210902934B9A8A8A4302439A82B8
:1033B0001EE0032109028F4BDA8A8A430243DA8234
:1033C00016E0032109028B4B1A8B8A4302431A83AE
:1033D0000EE003210902874B5A8B8A4302435A832A
:1033E00006E003210902834B9A8B8A4302439A83A6
:1033F000F06BFEF7D1FA3846FEF744F90C900C98C2
:10340000316C884205D30C98316C401A716C88423B
:103410001AD90C98316C884205D2306C0C99401A3C
:10342000716C884210D90C98316C8842069415D979
:10343000F06D0A90F06DFEF7AFFA3846FEF722F90C
:103440000E9000200B9014E03C36039A3068411C2B
:1034500072D0801C079D049E5BD070E7B06D0B900E
:10346000B06DFEF799FA3846FEF70CF90D90002082
:103470000A90002408970C9A336CF06B0C999A42CE
:1034800002D90D910B9001E00E910A90306C0D9BCA
:103490000DA90EAA0E9FBB420B4600D313461B6814
:1034A0000D9F0E9DAF4200D811460A68D11A121A1C
:1034B0000B9D0A98401B50435BF7BAFD4019F0631F
:1034C000F06BFEF769FA0898FEF7DCF80C900C98A0
:1034D000316C884205D30C98316C401A716C88426B
:1034E0000DD9601C0C99326C914205D2316C0C9A4A
:1034F000891A726C914202D9092C0446BBD37079A7
:10350000002808D00020FEF747FA079D049E069C7D
:10351000039A059813E00C98316C726C891A8842F2
:10352000069C05D30C98316C726C5118884250D9A6
:103530000020FEF731FA039A079D049E019830801F
:103540002978FE200840062817461DD10220204376
:103550001F210140032917D10694D1B201208840D0
:103560002449294A13460C88204204D05B1CFAD314
:1035700001E0521C02D20B881842FAD07D200001D3
:10358000FDF746FD069C3A46100600D13AE6304665
:103590004CF728F82878FE210140062916D1022090
:1035A00020431F210140032910D1F9B20120884096
:1035B000164A10490B88184203D1531E12041A46AA
:1035C000F8D10998002801D00998048000200FB094
:1035D000F0BD1B4800883065306D716B8842039ADE
:1035E00002D8306D0028A7D1306DB16B8842A3D2CC
:1035F00050362BE700300050F08EFC0700127A00A6
:10360000007C9200486BFC07E708C9FFB68C0000FD
:1036100070B500240E785F2E03D0332E0DD10848EC
:1036200006887F204202B048042519462B4659F7E8
:10363000E1F906604BF7D6FF00E0E443204670BD99
:1036400002000050F0B591B000270878AA2800D0F9
:10365000C8E003917F2001904202A3480C2519463F
:103660002B4659F7C7F9029001F028FD01F090FBB5
:1036700002F052F802F068FB9C4D281D20215BF7F8
:1036800054FD9B4C2C6021689A48AF60E8606960EB
:103690000168994A50236B61AA61296111682F6200
:1036A000E9612168142529436B229143216005219A
:1036B00001602846FDF7ACFCFEF7CCFAE06F1090F5
:1036C00010980F9010980B90109809908B49032038
:1036D0004870206D0126304320653102206D0D9128
:1036E000084320653004216D014321658448401C56
:1036F000216D01432165206D0A210143A943216504
:10370000206C40210C9108432064FEF7A3FA284660
:10371000FDF77EFCE06C02210E910843E064E06C52
:1037200004963043E064072040020B9949010B9056
:1037300001400A913F204004099989020990014003
:1037400008911F200790C1060F980007C00E059032
:103750006E4C06910A46664D802F45D0286D1E217D
:103760008843059908432865286D0B9988430A9971
:1037700008432865286D09998843089908432865F6
:10378000FF200006296D81431143296505205D4C0A
:103790000F92A0470E99CE43E86C3040E864286C45
:1037A0000C9A10432864286C079A10432864E86C2C
:1037B0000843E8640D98C630A0476420A047A96F6D
:1037C000E86C3040514CE8644D4801407D20400198
:1037D00048434D495BF716FC0F9AE05106981218C2
:1037E0003F1DB9E7FE437CE0002049497C2806D014
:1037F000221852682358D21A0A50001DF6E70022F8
:103800000B46144615461046002A09D01F2A0DD033
:103810001E68A64200DA1C681E68AE4201DC01E0A8
:103820000C681D6840CB3018521CEDE71F215BF778
:10383000E9FB01467D2000025BF7E4FB010ACA01B7
:10384000049B1940C840019908408018C01CC0B2B0
:10385000804CA082A08A264BD968FF229143C0B237
:103860000918D9601102DA688A4300021018D8607A
:103870000025242D0BD01D49485949194A6802607A
:103880008868002801D0FDF7C3FB0C35F1E7184824
:103890008589FEF721FAA27800231E4819460831CF
:1038A00038290FD0C3181B69114E0C36B3420B4692
:1038B000F5D1002A04D1049AA2704218D26862623B
:1038C0004018C5600D480E99817002994D60002620
:1038D0000680606A886003980078086008464BF7A5
:1038E00081FE304611B0F0BD01080000B86BFC0746
:1038F00004300040AC1000404C1200400410004066
:10390000FFFF7F001110FC0781030000086CFC071B
:10391000886CFC07C88BFC07F0B587B00027F8431C
:103920000A78BB2A00D093E006900591494988792E
:10393000002804D1012088714748408848657F20CD
:10394000420246480C2519462B4659F753F8049075
:10395000434C208816210143082081432180208880
:103960004049084001267102401820806020C14370
:103970002088029108402080FEF7A4F8FEF794F812
:10398000218820220A4340218A43228085214D003C
:1039900031460226A842324600D80A460192A84281
:1039A000039100D839460091FEF78CF8FEF77CF8B9
:1039B000A842019800D8009840012188029A11403D
:1039C0000818208020882749084003998902401858
:1039D00020803846002E17D42788FEF773F8780524
:1039E000070FFEF761F8A842069902D8A84209D04D
:1039F000012122881C4B1A40B14079180906490C54
:103A000011432180761EE5E718492E1A00D2461888
:103A1000FEF758F8FEF748F8291A01D21349411861
:103A2000B14205D9208810490840F901014321809D
:103A30002068049A5060208807494880BF48406D3C
:103A4000906005980078106010464BF7CBFD002081
:103A500007B0F0BD486BFC07A000FC0701080000A0
:103A6000240000507FF8FFFF7FF80000F6FEFFFF04
:103A700080B51B4800210160FDF7B6FA16480078B2
:103A80001F214901134A13688B43C006800DC018DB
:103A9000106080BD80B5114802210170FDF79AFACF
:103AA00080BDC04680B50B4801688905C90E0A4A29
:103AB00011701F21490102688A43026007480121F1
:103AC00001700748016803220A430260FDF78CFA7F
:103AD00080BDC0464C1200402866FC07061000401E
:103AE000AC1000400C490A8802280DD0D205920F74
:103AF000052801D1012A07D0012801D1022A03D0CB
:103B00000A2808D1032A06D14888C006FCD40888B0
:103B1000024A02400A807047120000507FFE0000F7
:103B200080B5002814D1EE48C17D022910D0C17C97
:103B3000827C13460B4301D10223C375037D93425C
:103B400004D1427D8A4201D10121C17501F064FD99
:103B500080BDC046FEB51446002918D00546012791
:103B6000002B17D0CA182388002D18D00878287089
:103B70006E1C0220002B0FD002938B1C93420AD89C
:103B80004B783370029B012B0ED8AE1C04E0002151
:103B9000084602E02E463846711B2180FEBD881C77
:103BA000012690423046F7D88E1C48788006000ED9
:103BB000029031463018AE1C9042ECD8002D0CD04B
:103BC000E81801903046029F3A465BF795FAF019E3
:103BD0000199884203D8002002E0002001E0012082
:103BE000400002997618D7E770B5134602460020C8
:103BF0000E4C102808D0255A9D4201D00830F8E715
:103C000020184468002C0DD10020094C0546F02DE9
:103C10000AD0665B9E4201D00835F8E764196468F3
:103C2000002C01D01846A04770BDC046E465FC07D3
:103C30008C60FC07FEB51446002905D0054601201E
:103C4000022B04D22E463FE0002088213DE022884E
:103C5000AF18002D09D002970E784F786F702E7034
:103C6000012A06D8AE1C02202EE0032B05D2022624
:103C70002AE0032B03D2AE1C26E08A7805E08A787E
:103C8000AA70EE1C029FBE42EDD80297CB1801939A
:103C9000C91C9206120E8B180093EE1C019B009F0C
:103CA0009F4211D8002D09D0304617465BF724FA01
:103CB000F019029A904204D8002003E00020174631
:103CC00001E001204000F619711B2180FEBD0000BB
:103CD00070B5EFF31085012484F3108805200007E8
:103CE000028880210A4302804C4A13680726B343A6
:103CF000136053685B07FCD5494B1361494B536113
:103D000002888A430280408DC0050DD57C48002181
:103D10004172404E307801F025FF7078002803D1C1
:103D20003D480188A1430180002D02D084F3108812
:103D300070BD002080F3108870BDC046486BFC0742
:103D4000FEB50446164E30680727384002A90870B1
:103D50000878A04222D0134D2888C00517D5A01E90
:103D6000C0B211A1085C019001F0F2FE01998842F5
:103D700002D2084601F0F6FE27480188C90706D19D
:103D8000018801220A43028028884007FCD5306858
:103D9000B8432043306070684007FCD5FEBDC04684
:103DA0000000F4072A0000500B130B0B0B0000005F
:103DB00070B5EFF31085012484F310880520060701
:103DC000708DC00509D54E48447201F0C1FE1149FD
:103DD00008701148008820404870308880210143D5
:103DE00031800E480168072291430160416849070C
:103DF000FCD53188090600D400BE09490161094992
:103E00004161002D02D084F3108870BD002080F342
:103E1000108870BD486BFC07800000500000F4075C
:103E20000F009909090404A4B0B50D460446052005
:103E300000070088000600D400BE1046FFF780FF90
:103E4000FF20C004A90008582168091A48424841C7
:103E5000B0BD000070B5174EB06800F02DF82849CD
:103E60004A6B00234B631518084C284621465BF724
:103E7000C9F8706106494143481901D0201A80B23F
:103E80003061306808210143316070BD710200006B
:103E90008FFDFFFF80B506480021016001F032FD73
:103EA0000120C00703490A6882430A6080BDC046FA
:103EB000A8B9FC073000004080B50246C00B09D00D
:103EC0000F48006C00210B465BF7C6F88905800A95
:103ED000401880BD0A48006C4243900A80BDC0462D
:103EE000F08EFC0780B5FFF7E7FF80BD80B5044981
:103EF000896B41430348081803495BF783F880BD89
:103F0000F08EFC0720A1070040420F0000B59DB0D5
:103F10008D4D08262E808D4F388818AC2080208843
:103F2000C046C046208804211791C943084202D0E8
:103F30000020388003E0B88901218843B881B88B1C
:103F40008349014007201290C0020818B883814BB2
:103F5000188830431880D88D06229043D8850124D4
:103F6000A003B98B0143B98318887B4901401980AC
:103F7000588807921043B043588005200C960F9044
:103F80000607718D754AFF32D88D10407D22D20010
:103F90000F2316931B03C905159409920D931BD487
:103FA0000321490208436B4CE085E08D1843E0850E
:103FB000B88B0C998843B883B88B04218843B883A5
:103FC0006088674901406180E08D15990843E0856C
:103FD000708D4007FCD51AE01146183108435D4C3E
:103FE000E085E08D5F490140159AD0030818E0850F
:103FF000B88B0C990843B883B88B17998843B8835A
:10400000E08D9043E085B88B40218843B883B88B1E
:1040100003210A910843B8832188202211434020BC
:10402000C04301402180398C1192114301403984F1
:10403000F18A80220B9211430140F182318EFF22DE
:1040400091433186318F179F39431822069291434D
:104050003187318FA0220A430240328742480780CD
:10406000B08842490140B180159C20044049086055
:10407000FFF79EFE02201490FFF762FE3D480068A5
:10408000C1B20C20AA29014600D0394632888243A9
:1040900088183080C046C0463748006837490988CC
:1040A0006827374B00220E92DA53364B1A464432B9
:1040B000918058642046C046C046334A101F0068AD
:1040C0003249884200D04DE1089716980407042031
:1040D000002110911746139403463918081F3A46D9
:1040E000EC32904200D342E1179300681990199B7B
:1040F000234009200407199AA3425AD1199B1D0A8B
:10410000EBB21693D2B2531E162B00D993E05B008C
:104110007B449B885B009F44040104018E000401E2
:104120008E003B00A8008E008E008E008E008E0058
:104130008E008E008E008E00BB00CF00E300F100E9
:104140008E00F700FC00C04600330050040300500E
:10415000FFC3000052000050FFBF000000F0FFFF4F
:10416000FFF90000FF0F000000020050FFF7000001
:1041700080E200E0D07FF807D47FF807D87FF80707
:10418000C88BFC07F08EFC07D47EF807A5A5A5A573
:10419000D24C089FE05DC0002018169A92005AF792
:1041A000ABFFE05D4019E055C0B205286ED300BEFC
:1041B0006CE0900F10D01998C94988420CD8179B11
:1041C0001846083031462831199A8A421ED1D959E9
:1041D000C44A1180139C7FE71998139C20401299C0
:1041E0000907884203D10020C046C0460BE0199859
:1041F00020401599C907884205D0199820400F9989
:10420000490788420DD11798001D65E7B11C199A1E
:104210008A42139C00D08CE0D9596622AF4B995248
:104220005AE7199820400A9949078842179900D0FF
:1042300088E0081D50E71E2A73D116984008020630
:104240006FD00B684A680831002425460835382DA0
:1042500008D0A24F3C1924699C422C46F6D19F4BB2
:104260005B19DA60401EA04FE9E769249B4F385D77
:10427000C00038181030169A92005AF73DFF385D8A
:1042800040193855C0B20D2800D300BE964F48E003
:10429000179AD1594843D259120C801A00B2C0085B
:1042A0008E4B4033D88288B2101A81088F4A114051
:1042B0000818401C988234E0179AD1594843D259C3
:1042C000120C801A00B2C008844B4033588388B265
:1042D000101A8108854A11400818401C188320E0F4
:1042E000109CA0001AAA1018169DAA005AF704FFE5
:1042F0002C191094032C14D300BE12E01798C05947
:104300006221764A50520CE01798C05973490865EB
:1043100007E01798C0596421704A5052000400D138
:1043200000BE1698800017990818001D704D139C48
:10433000D2E631462431199A8A4209D1D959694ABB
:104340005180C9E61998401C11D000BE0846C3E64A
:1043500031462031199A8A4200D0BDE6D959614AC6
:104360009180B9E666205D490F5A624A38E05B4C9D
:10437000204640301A99818309211B9A5143130C1E
:10438000C91A09B2C908018491B2591A8A08574B4F
:104390001A405118491CC183089AA05CC10701D07A
:1043A00000BEA05C4008A0546920215CCA07514AA5
:1043B00001D000BE215C490821546420215A002903
:1043C00001D1099921526620275A002F08D14A4964
:1043D0000968C9B2AA290B9F00D06E273F490F5226
:1043E000159C20021090D783B08CA043B0840D2080
:1043F000FCF70EFE70892043149988437081708900
:104400004006FCD577800998FCF702FE70890A996E
:10441000884370810E9C70890006FCD57F20354949
:104420004870354880693549C861FFF751FC344808
:104430000068344988420F9B00D050E1324833492C
:104440005AF773FE1298010231485AF76EFEFCF7D4
:104450006FFB304830490160304831492A225AF711
:104460004BFE30480021C171817141710171C170F1
:104470008170169141703F21089101702A482BA14B
:10448000402213925AF738FE4B20820037483849B1
:104490005AF732FE1720C043109900280CD0334938
:1044A0000A1851239B00D21832A10B18183392CB53
:1044B00092C210990C30F0E74431344A1E20002893
:1044C00066D01790294843181446A1CCA1C3179869
:1044D000074D401E0C310C32F1E7C046C88BFC077B
:1044E0004C420050A000FC07D47EF807FF3F0000BC
:1044F00000330050F08EFC07D07FF807486BFC07B4
:104500009CB8FC076587341200A0FC07AC140000BF
:1045100000B9FC0760BAFC07E462FC0700BAFC07BC
:104520007CFCF107DAB9FC07B0BCFC072000800076
:1045300000C00000000084000000282200000000ED
:104540000000040000F7FFFF7F00000030F0FF0FC5
:104550000000000000040000000000000000000057
:10456000000000000000000000000000388CFC0784
:1045700038FBF10700FD0700B965FC07B565FC07CE
:1045800001FD0700B965FC07A065FC077C61FC071D
:104590003A20F2494885F248C862F248159F0770F0
:1045A000F148F2490160F248F2490160F249F348EA
:1045B0000860F3480A210170F24816990170F24828
:1045C00032210E910170F1480F990160F0480760A7
:1045D000F0480160F04807990160F04812990160C5
:1045E000EF480C9C0460EF48EF4901601098801D73
:1045F000EE490860EE49086000F084FC3089302103
:104600008843308130890B990843308130892043B9
:104610003081308CB843308470890699884370812A
:104620003089139A10433081308A042188433082C4
:10463000B08A8007FCD512910D99FF31F08C0840AB
:104640000B2109020143F184F08C159F3843F0845B
:1046500070890C99084310210D9188437081708CEA
:10466000B8437084308990433081D2483730BB07DB
:1046700019680140196008984002CF4C21688143B5
:10468000780308182060CD48411C20681791084322
:104690002060CB480068CB4988420F933BD0C1488B
:1046A0000068A060C84AD0691076010ED176010C6E
:1046B0009176000A50761098C030C4490A46002806
:1046C00017D0401E435C147825460A9F3D40BE4FDC
:1046D0007D192D7E5D4065401570521CEFE7BC488A
:1046E000BA495A02944200D9A8E622586250241DC1
:1046F000F7E7B54D6035B5491C2228465CF790FCBC
:10470000002800D000BE28465CF71EFCAC48AD492E
:104710000160B04DA84CA34800683DF79BFDAE4832
:10472000169F0771C7700F9A1068109908431060A0
:10473000FDF726FB159800F093FCA3498F7214989F
:10474000C8710F72252048720E98C882A248C7709F
:10475000A24807704F82A248583012215AF7E5FC50
:104760002068179908432060F08A0B990843139931
:104770008843F082FFF78EFB0F20FCF7F5FB1599BD
:1047800048020190089880020890C8031790954F3E
:10479000954896490818964940188008401E0A9086
:1047A0000F9C3089000600D438E1206B179908422D
:1047B00000D033E188480088C00700D02EE158F7C8
:1047C0001CFE0025284600F04BFC8548407C042850
:1047D00000D097E0159800F043FC199519A8042122
:1047E00049F7ACF900287E4B00D18BE01598386072
:1047F00038680028FCD1E069596A884201D25D62BC
:104800002946411ACA09997B182A01D8002979D06A
:10481000002905D0986A401C986200F0ABFD71E059
:1048200058627449088807904888069088880590DF
:10483000C88804901B9570481A901AA8FDF756F97D
:10484000674B099817306B4A118901405983518988
:10485000014099831089089B1840019908431081F1
:1048600050891840084350811088149908431080DB
:1048700010888007FCD41598D081108A03901346C5
:104880005149C88902905648428B19461B8908989D
:10489000034013430B81524A928B4B8903401343CD
:1048A0004B8103980299401A09994143002804DC7E
:1048B000524A8918C017084001E051480818514968
:1048C0005AF7B6FB83091933454A50787F280FD031
:1048D000181A41B2C9114840401A40B2052808DBF5
:1048E000906A401C9062039300F044FD039B3C4A95
:1048F0005370404806994180059981800499C18090
:10490000079901804048806D2F4A917A012905D18D
:10491000002803D1957201F02BF82B4A508AD18AD6
:1049200088420DD3907A01280AD15582F148294650
:10493000F14A2B4658F75EF84AF754FE01F036F874
:1049400058F75BFD1498C043F5490978C91E8142A8
:104950005CD86420F4490860E84D22E700BAFC07FF
:10496000388CFC07FDB9FC0750B9FC07603FF20723
:1049700054B9FC070864FC0758B9FC070C63FC0732
:10498000B0B9FC07B1B9FC07D9B9FC075CB9FC07A1
:1049900060B9FC0764B9FC0768B9FC076CB9FC078F
:1049A00070B9FC074CB9FC0700A0FC0748B9FC072C
:1049B00044B9FC07C8FEFFFF00020040FFFF1F00D4
:1049C0009CB8FC0765873412486BFC075C8FFC07BA
:1049D00000B0FC070033005054BAFC07B4BAFC071F
:1049E000F08EFC07FC0000401C6500001001FC0775
:1049F000030004F800150050010400002BFDFFFF28
:104A0000D5020000AA050000B0BBFC07C64A10682A
:104A1000411E11600028B94D00DDC2E6FDF7C2F964
:104A2000002800D1BDE672B6BC480079022816986D
:104A300002D0B6480068406A1A902889C00700D0A2
:104A400055E157F7A6FD002800D150E1B348C078E2
:104A500000285ED0B08AC00700D0BCE0AF48008814
:104A6000002856D1B148806A002803D0A7480068C2
:104A7000406A1A9000F046FFA84881781AA858F7B3
:104A800080FB002845D02069400642D4A3488178A5
:104A90001AA849F753F800283BD04AF7D1FF00285D
:104AA00000D124E149F74CFC002800D11FE19B48CC
:104AB00081781AA858F765FB00281ED020694006A7
:104AC0001BD4964881781AA849F738F8002814D0E2
:104AD0000898FF30964A11880140109801431180D0
:104AE0001A9A002A1CD0206A89494018DA28CF4B2C
:104AF0001AD8521E07921A9217E083480078C0070E
:104B000002D13DF7DFFD04E000203DF72BFE3DF72D
:104B1000F1FDFDF747F9002800D1E8E030BFE6E0FD
:104B200000200790C14B00E00792188C754A916AEB
:104B30000818D062E06B7F4B18400843E063E06BDD
:104B40007D490840116B89020143E163E06B7249C2
:104B50000840D16A49050818E0637848079A8242FC
:104B600000D300BEB149086D496D00235AF774FAAD
:104B70000903000D41186348006B821C8A4200D073
:104B8000481E664909794A1E914144F7EDFE6C487A
:104B9000C06A80471799206B0842FCD010995D4C81
:104BA00020680842FCD020680B99884320606889FF
:104BB000452804D846216981081A9C4948633DF775
:104BC00084FBA0689949086320680006FCD53089F9
:104BD0000B998843308152480178308A129B1843E0
:104BE0003082504A106818431060454A1089159D5C
:104BF000A8431081708A012906D10D9988437082DB
:104C00001099139B119C31E00D9C20437082708A97
:104C100018437082FFF7CCF8708A204370820A989C
:104C200048490860EFF3108085F3108831880B9AAB
:104C300091433180002802D085F3108802E00020E3
:104C400080F310881099139B119C708D08422C4A98
:104C50000CD00020E44948720B2000F083FF139B26
:104C6000274AE349C88D2843C88510990025358314
:104C7000708D084204D1DE4908881843A04308809B
:104C8000108C1843A0431084B08C159CA043B084B2
:104C90000D20FCF7BDF97089204314998843708179
:104CA00070894006FCD50E987080B08AC006D04A44
:104CB0000F9C02D511480C99018030BFB08A108832
:104CC000119B18431399C943084010800C4A108C5B
:104CD00018430840108400F015F91048C5701048BA
:104CE0000570104A1068129988431060034D62B62F
:104CF00057E5C046010800000BFE000000330050DD
:104D000004030050486BFC07FDB9FC0758B9FC07C9
:104D1000C8FEFFFF00020040FFFF1F0054BAFC075F
:104D2000B4BAFC0710ED00E02466FC0774BEFC0773
:104D30003830005000FCFFFFFF03E0FF40420F004F
:104D400058BFFC072000F40780B549F796FB00F038
:104D50006BFF80BD80B54AF79EFD00F065FF80BD0A
:104D60007CB514460D460646D1488178012908D104
:104D7000017A007900220092032212020223FCF73A
:104D8000CDFC30462946224649F7F5F87CBDC046A1
:104D9000F0B569212448415C1030C54A527B00239C
:104DA0000C4E8B4212D247680A2A3C4606D33D4637
:104DB000074C2540204C246864042C430568B54208
:104DC00000D127462F6008305B1CEAE7F0BDC046E3
:104DD000FFFF01FC38300040F0B568211248415C0B
:104DE000B34A527B0023124D134E8B421AD290C805
:104DF0000838AC4212D1FC01640C2C460ED00A2AB1
:104E00002C460BD3032424023C403F04BF0E3C1924
:104E10002C60C488074F3C40346000E027600830B5
:104E20005B1CE2E7F0BDC046C88BFC07F08EFC07B8
:104E30004C100040FF0100008C6DFC0770B514465B
:104E40000D460646FEF7B4FF0220FEF779FF28461E
:104E5000314622465AF750F9FEF73AFF70BD00007E
:104E6000F0B585B00392029105460520070700249E
:104E7000234E01970398844240D0FEF799FF38886B
:104E8000000600D400BE3888000600D400BEA00092
:104E9000E90B00D000BE02990F180495AD0803205D
:104EA000FEF74EFF002228463946D20709D10A688C
:104EB000B260706032689207FCD5401C091D012267
:104EC000F3E73068C007FCD0042238462946FEF7D5
:104ED000ABFF002810D0052238462946FEF7A4FF74
:104EE000002809D00320FEF72BFFFEF7F1FE641C1B
:104EF000049D2D1D019FBDE7FEF7EAFE05B0F0BD44
:104F00000400F407F8B538480125C57500F084FBA6
:104F10002F0205200607708DC0051AD53248407A49
:104F2000012803D100F014FE1B2812D8304C208831
:104F3000C00401D42D48808AFF201C302D490880F0
:104F40001B2000F00FFEE08D2843E085708D4007A8
:104F5000FCD50095284801888025294301802748F1
:104F600027A118225AF7C8F82BA02E491CC81CC12B
:104F7000FBF7D7FD2C482D4901603088302188434C
:104F8000308030880324A0433080294808220280E2
:104F9000B0882843B0808037308840013840718A1B
:104FA000244B0B4003437382234807210180234D88
:104FB0000020A8802880832028810B49087E0028B3
:104FC00001D0497E03E01E4808830B21104622468B
:104FD0003DF76CFB2C8100F04DFB044A10880099D2
:104FE00008431080F8BDC046F08EFC070C0300504B
:104FF00052000050486BFC0700150050200008408C
:10500000F99DF00700000000E3A1F1070000000097
:105010004FA4F107000000005105FC077F08FC07C2
:105020008F09FC07C000FC070000084007001000C3
:10503000003300507FFE0000881000500410005024
:10504000080B000003480188034A11408918091D14
:105050000180704712000050FC7F000070477047CD
:10506000B0B5C24D2978012921D11249002803D0B9
:1050700008884007FCD402E00888400717D40023C2
:105080002B70C8888988000444181F2040064921D5
:1050900022465EF7E5F92865696564214143080CFD
:1050A000A86305486043800B401C40082864B0BDDD
:1050B000F08EFC07001600501111010010B5E04CF5
:1050C000082020701120FBF7A3FF0320607010BDA3
:1050D000FEB5634803260670624C2046143801680A
:1050E00014220A436B218A430260A06A5E49086267
:1050F0000020C043A06220683F21884320602068D0
:105100005A490840206060685949084001210191CE
:10511000890202914018606060684021014330209C
:1051200081436160A069534908400B21490640183A
:10513000A061A0695049084071024018A061A069AF
:105140001821014327208143A161432020714B484E
:1051500080474B4880474B4880474148067000963F
:105160004948056849488047494880472068494977
:105170000840E905401820603C4D40352068284033
:10518000490C401820604127277160683849084061
:10519000029940186060394880473948804739484B
:1051A00080472F4806703848066838488047384896
:1051B0008047206837490840F10540182060206882
:1051C0002840490C40182060277160682849084031
:1051D000029940186060294880472948804729483B
:1051E00080471F4800990170274800682168294AB4
:1051F0001140C2058918216021682940264D0540CB
:10520000A80108182060606801998843606016480A
:10521000006AA06220681C21014323208143216091
:105220002068124908402060A069124908400721FF
:1052300089064018A061A0690F4908400F21C901E3
:105240004018A061A0691E21014321208143A16172
:105250000E4880470E4880471048C585FEBDC046B1
:105260000510004018300040486BFC07FF7FFFFF2F
:10527000FFF9FFFFFFFFFFC03FF0FFFF953AFC077C
:10528000A53AFC07F30FFC0788300040713AFC0791
:10529000DF0FFC07FFFF7F00FF010000B86BFC077A
:1052A00070470000F0B58BB03022002181541F22DE
:1052B0001204254B1D68954301246204AA181A6044
:1052C000234B244D4561244D244E254F254AC26170
:1052D000066243621D4A8262C562234A07604260D9
:1052E000E004C54A136883431360282903D001A84A
:1052F0004154491CF9E7C6480068403001A92822FA
:1053000059F7FAFED74D09206873FFF7D7FEFFF76C
:1053100063FDFFF73DFD00F0FFF900F015FD00F023
:1053200041F8FFF7D5FEAC73114800880721014012
:105330002974FBF7F1FDFCF7CFFCB1480221817025
:10534000002101800BB0F0BD74000040A153FC07A8
:105350009D53FC078954FC076D54FC078119FC0719
:105360004554FC074754FC07A152FC07F08EFC078C
:10537000B810004080B5FFF7A1FEFFF709FD00F06F
:10538000CBF900F0E1FCFBF7C7FDFCF7CFFC9C4834
:10539000022181700021018080BDC046002070473D
:1053A000704700000E4908880E4A0240012043025F
:1053B000D2180A804105904A13688B431360810715
:1053C00000224A671F2212044B6F934340041818AF
:1053D00048670868E0220243102082430A60704751
:1053E00038300050FFFC000080B51F200004012170
:1053F0008A07536F834348041818506710680721C1
:10540000884310600D48018808220A430280FFF794
:1054100055FEFFF7E1FCFFF7BBFC00F07DF900F063
:1054200093FCFFF7BFFFFCF795FC754802218170E4
:10543000002101800F20FBF797FD80BD0800005080
:1054400004100040704780B5E62800D3E6202828E5
:1054500000D82820F9214A0042437D20C10010468F
:1054600059F7D0FD7F38C0B280BD00000548016803
:1054700007220A430260012080045F490A688243D0
:105480000A60704730000040022902D0012900D094
:1054900000BE002802D0FF2804D000BE022901D19E
:1054A0000C2070479B48407B7047C046F8B5524877
:1054B0000168C90703D0016802220A43026001247F
:1054C0000168490203D5A10502680A430260260269
:1054D00065024A490095084608380768002F00D140
:1054E00089E0380606D58020086048F7D0F9FCF737
:1054F00047FC4249B8070AD50220086042480068C4
:10550000B021405C00F0C8FB44F7BFF83B493807C6
:1055100027D5082008603D4800686821415A52227A
:105520004A433B490968711889185E22895A090A59
:105530006830C07D081AC0B200F0AEFBFBF7B4FAC9
:10554000354626460024204644F758F82B490420C7
:10555000DE4A507402202A4A9070148034462E4647
:10556000009D374204D00E60012044F747F82349DC
:105570002F4203D00D6048F7F3F92049780604D58F
:105580004020086044F735F81C49F80604D510207F
:10559000086042F7F1FB194978071BD50420086021
:1055A00018490888A04308801A480078C00702D12B
:1055B0003DF788F804E000203DF7D4F83DF79AF86D
:1055C00057F782FF3DF73CF8FCF7DAFB0020E34990
:1055D00048740A49F80707D00C6057F791FF48F75D
:1055E00056F90649DD484474B80600D473E7202014
:1055F000086000BE6FE7F8BD0002004018000040E0
:10560000041000400833005058B9FC0784BBFC0765
:105610004CB9FC07FDB9FC0710B5D048C07D012886
:1056200011D0002817D111480024048010480188A7
:10563000C90613D10121490201801420FBF7E8FCBF
:105640000948048010BD084801210180074806214F
:105650004180812104E005480021018002480121A8
:10566000018010BDF08EFC07000300504000005088
:105670000630005010B5184C2078002828D1174863
:105680000078062822D8C046784400794000874434
:10569000031D070B0E12170000200123014612E024
:1056A0000221002003230EE00020032105E0042155
:1056B0000020052307E00020052102460B4603E0F9
:1056C000062100200723024600F056FB012020702F
:1056D00000F006F810BDC046348CFC073066FC07AD
:1056E000BCB5F44D697D287D002400940123224639
:1056F000FCF714F8E97CA87C2A7D904203D16A7DEE
:10570000914200D1BCBD0094032212020223FCF797
:1057100005F8BCBDF08EFC07FCB57F200002594A9D
:10572000516981430B20000208185061106880B253
:105730005549401810609069544C044001235803A7
:10574000009020189061032001900002146B044324
:105750001463908F1024044394879088184390809A
:105760004B484C4A02604C4A104610384B4DAC8BAB
:10577000044015204301E0185030A8836869484C64
:105780000440484820186861A869474C0440092033
:1057900040022018A8612868444C0440444820185E
:1057A00028606868434C0440434820186860A86833
:1057B000424C044042482018A860E868414C04402C
:1057C00041482018E860C1204001D04C647B240689
:1057D00020183F4C2060052080023E4F3880401D3D
:1057E000B880388C55260643AA2086433E84FF267F
:1057F0006C363046C9303885374908460E30B88592
:1058000036483886B986C01D388735482885A86B44
:105810003449014034480818A863344D2E80288F3D
:1058200010401F462037C019288731480188114091
:105830008919D531018081881140C9188180018979
:105840001140C91901812136AE802A4801881140D2
:10585000C91860310180818A19220A4306218A43CE
:105860008282A08F2449014000980818A08723480D
:105870000168019A11430422914301602048606647
:10588000FCBDC0462030004000008888FF00FEFFBD
:105890008000004059055C071FFCFFFF042000400A
:1058A0000000E0FF09581A00FEE1FFFFE0E0000001
:1058B0000809294900000303696A686C031FFFFF98
:1058C00070600000E0E0E0E00B0A0A08F08EFC07E0
:1058D0000010004028130040260A00005108000074
:1058E000070F00002F64E0FE101A060100120040AE
:1058F0004412004088120040FF9F000080100040CA
:1059000050015001F8B5642013490E5AE14FBC6BA9
:105910003046604312494018124959F773FB054657
:1059200038843C3666430E4830180E4959F76AFBF6
:10593000001DB94988622818C01D08630A4A1278F8
:10594000022A01D111300863FEF7B6FA0749401860
:1059500080B257F7E3FDF8BDC88BFC07F08EFC075B
:1059600020A1070040420F00B4BAFC07E204000087
:10597000BCB5A94CA07A002800D0BCBD0020608234
:10598000217A01A80170617A4170E179817045F74F
:1059900070F8134DA86D002805D101A845F769F8E6
:1059A0000028F7D0FEE70120A072BCBD10B59A4CCC
:1059B000A07A012808D0A07A022805D0A07A05286C
:1059C00002D0A07A072807D10548806D3CF7D3FEA6
:1059D0000020014657F73FFA0020A07210BDC046D4
:1059E000B0BBFC0710B532498A885206D20E1CD0D3
:1059F000530813439C081C4312092243130A134300
:105A00001A0C1A43D24353081F4C1C40121B1F4B45
:105A100094081A401C4012191309D2181C4B134049
:105A20001C4A5A43120E1D3A00E003220B881F2421
:105A3000A3430B800B8802241C430C800B88042496
:105A40001C430C800B8801241C430C80D3175A4044
:105A5000D21AD2B2022A01D300230B850884088B04
:105A6000C004FCD4022A02D3088D020402E0002AFA
:105A700003D00022888B104301E0888BC0B218222B
:105A80008A5E002AFBD410BD555555553333333348
:105A90000F0F0F0F010101010548018820229143DA
:105AA0000180D349097B0907490F81847047C046AB
:105AB00000120050F08EFC07B0B5CD48817D002962
:105AC00000D0B0BD21490A88082313430B800A88FF
:105AD000032313430B801C4906220A80FF2212066F
:105AE0000B4B1C6894430122D50764191C60094BB9
:105AF0004B8000238B80084CC462CB80D003074BC3
:105B00001860088810430880B0BDC046F08EFC07BE
:105B10000CE400E0204E0000ED5BFC0700E100E03B
:105B20000120C103074A1160BFF34F8FBFF36F8F8E
:105B300005490A8882430A80044801880822914363
