:0200000407FCF7
:100000004057FC07CD41FC07E141FC07FB41FC07E1
:100010001542FC071542FC071542FC071542FC0778
:100020000000000000000000000000001542FC0776
:1000300000000000000000001542FC07D10EFC0784
:100040008D0BFC07A13CFC07A526F007D50EFC078D
:10005000190DFC071542FC073D0BFC071542FC0778
:10006000490BFC071542FC07510CFC075B0CFC0715
:10007000650CFC076F0CFC07790CFC077D0EFC0778
:10008000190FFC071542FC071542FC071542FC0737
:100090001542FC071542FC071542FC071542FC07F8
:0800A000000000008E070E00B5
:0200000407FCF7
:100110000348854600F000FD00480047D12EFC074B
:100120004057FC073EB50D4D6D1E14D002880A42A3
:10013000FAD16D1E0FD002880A42FAD0084A13681D
:100140000124234313606D1E05D002880A42FAD1B0
:10015000044A10683EBD00203EBD0000C0C62D0010
:1001600010E000E018E000E07047704770470000C2
:1001700010B50F49032058F70AFF0021032058F754
:1001800038FF10BD10B5044601230A4A00210A4871
:1001900058F7FEFC09498C4201D1032103E00849CC
:1001A0008C4201D1002101704CF75EFD10BD0000B2
:1001B0003042FC0711FC000001080000A5A5A5A520
:1001C000C3C3C3C37FB5E4486B460188428889181E
:1001D0006A46118001214C0022181546403DED8FE2
:1001E000065B5288AD19AA18491CC9B21A530729CF
:1001F000F1D38189C089081881B2D981D8880028B3
:1002000021D01889002820D0988800281FD058892C
:1002100000281ED0988900281DD0588800281CD09E
:1002200000291CD0188800280BD007200622540073
:100230001C5B8C4201D22146D0B2521E52B2002A1F
:10024000F5DA04B070BD0320FBE70420F9E70220D3
:10025000F7E70520F5E70620F3E70120F1E707209F
:10026000EFE7F0B595B0EFF310801090012080F328
:100270001088BA48816B4A07520F69460A800A9271
:10028000816B0122C908C9008163B5498B88694621
:100290004B800224B24B00219980C16A09078B0F61
:1002A00069468B800F93C16A0C2399430831C16260
:1002B0000521090709880906CB0F6946CB8005216E
:1002C0000907099309888023194305231B0719800F
:1002D000A449898A4906CB0F69460B81A149089335
:1002E000898A402319439F4B9982016A09074B0F62
:1002F00069464B810C93036A0E218B4303629B4D2D
:1003000099486860FF204030A8602888A043288072
:10031000974841680B071B0F69468B810B93416817
:100320000909090108314160416849064B0F6946D6
:10033000CB810D93416870239943603141608748B8
:10034000403801688904CB0F69460B820293036829
:1003500041140B4303600168CB07DB0F69464B82F6
:100360000E9301681143016041688903CA0D694613
:100370008A8203924168CA05D20D6946CA820492F4
:1003800081688903CA0D69460A8301928168CA059A
:10039000D20D69464A8305924168764A114003228C
:1003A000D203891841604168490A4902FF3141314D
:1003B000416081686F4A11400322D203891881602D
:1003C0008168490A4902FF3141318160642000F0AF
:1003D0000FF9A88969468007C00F8883A889204340
:1003E000A8810024604F2888002601210843288026
:1003F0000A2000F0FDF8FF205F4941303A680A42C8
:1004000000D0761C401E3F1D0004000CF6D1A88AC7
:100410008004FCD15149886B671CC208D200780760
:10042000400F02438A630A2000F0E2F860004A4964
:10043000FCB20E52082CD5D348480A99826BD208D8
:10044000D2000A4382636946454A498891800F99E0
:100450008A00C16A0C2399431143C1620999CA01F8
:1004600005210907098880239943114305221207B2
:10047000118008998A013B49898A40239943114395
:10048000384A91820C994A00016A0E23994311431C
:10049000016237480B994268120912010A4342600F
:1004A0000D994268090170239A430A4342600298F9
:1004B00041032A4840380068012252039043084310
:1004C0002649403908600E980968490849000143E7
:1004D0002248403801600398420220484038406872
:1004E0002449084010431D4A403A5060049852681D
:1004F000520A520202431948403842600198174A92
:100500004002403A92680A400243144840388260F0
:100510001249059840398968490A490201430F4840
:10052000403881601098002800D0012080F31088A6
:1005300015B0F0BD10B5114C2078002808D0FFF799
:1005400090FEFFF73FFE0E4908700020207010BD9E
:100550005FF70CF80120F9E7104EFC07801000400F
:1005600000120040203000501049FC0700350050B8
:1005700040200040FF01FCFFC0C0C0C0EE8EFC0761
:10058000EF8EFC0710B5FF22154901320A60BFF358
:100590004F8FBFF36F8F13490A6013490B684024D4
:1005A0001B0A1B0223430B601049898A0021C307E1
:1005B00000D03521830702D57D231B021943430751
:1005C00002D575231B041943000702D53D20000600
:1005D000014306482038016301488038026010BD9D
:1005E00080E100E080E200E008E400E0A0100040CC
:1005F00000280CD000BF00BF00BF00BF00BF00BF7D
:1006000000BF00BF00BF00BF00BF401EF0D1704759
:1006100010B50C460123FD4A0021FD4858F7B8FAF1
:10062000FC4A21781170002101704CF71DFB00205D
:1006300010BD10B5F54A0C460123521E0021F448A6
:1006400058F7A6FAF449A2884A842288CA83E28825
:100650008A8462880A84002101704CF705FB00201F
:1006600010BD10B51A4682230021E94858F790FAC8
:10067000112101704CF7F8FA002010BDE34A10B5C3
:100680000123403A0021E24858F782FA1121017013
:100690004CF7EAFA002010BDDC4A10B501233F3ABE
:1006A0000021DB4858F774FA112101704CF7DCFA8D
:1006B000002010BD10B51A4602230021D44858F777
:1006C00067FA112101704CF7CFFA002010BD10B568
:1006D0001A4601230021CE4858F75AFA1121017019
:1006E0004CF7C2FA002010BD10B51A4601230021B4
:1006F000C74858F74DFA112101704CF7B5FA0020A0
:1007000010BD10B51A4682230021C14858F740FA9F
:10071000112101704CF7A8FA002010BD10B51A463F
:1007200082230021BA4858F733FA00214170112181
:1007300001704CF799FA002010BD10B51A4601233C
:100740000021B34858F724FA112101704CF78CFAB4
:10075000002010BDAD4A10B50823323A0021AC4844
:1007600058F716FA0446031DC21C811C401C57F79B
:10077000E7FF0146002000290BD011212170607095
:10078000A070E070A080E08020464CF76DFA002059
:1007900010BD2070F7E77FB500250846009501954C
:1007A0001038029558F739FA58F7DFF900246E46E9
:1007B0000390204658F7D3F961008919641CE4B20C
:1007C0004880042CF5D3914A1023303A00219048F8
:1007D00058F7DEF96E461ECE1EC0103805704CF775
:1007E00043FA012004B070BDF8B5884A0F460823CB
:1007F000093A0021864858F7CBF9884D0446286B02
:100800006E12B0433043286385493888496A884767
:100810006060286BB04300212863388860802170B5
:1008200020464CF721FA0020F8BDF8B5774A0D466E
:100830000423083A0021764858F7AAF9774E04466F
:10084000306B7712B84338433063754A2888926A10
:1008500069689047306BB843002130632888608016
:10086000217020464CF700FA0020F8BD70B51846FC
:100870000D46664A01460123313A654858F788F922
:1008800004462878002802D0012805D101E06548F7
:1008900000E0654841F76AFF1220207020464CF7BF
:1008A000E3F9002070BD10B518460C46574A0146C2
:1008B0000823123A564858F76BF92188012292070B
:1008C00089180968416021884180002101704CF736
:1008D000CBF9002010BD10B518460C464B4A014616
:1008E0000423113A4A4858F753F9228801239B07F9
:1008F000D2186168116021884180002101704CF795
:10090000B3F9002010BD10B51C46084649F74EFF4C
:100910003E4A0123103A21463D4858F739F9002153
:1009200001704CF7A1F9002010BD70B50C88184675
:100930001646032C00D30324CA788B781502522262
:1009400054433A4A1D431368E318FF3301335D8370
:100950000B7911686118FF3101318A8B120A12027A
:100960001A438A83294A014601230D3A284858F739
:100970000FF9002101704CF777F90021304658F744
:1009800038FB002070BD10B588781C46002801D0C7
:10099000012200E000220888114645F769FE1B4A43
:1009A00001230C3A21461A4858F7F2F80021017049
:1009B0004CF75AF9002010BD70B518460C46134A82
:1009C000014601230B3A124858F7E2F822785221E7
:1009D0004A43164900230D685219FF3241325382AF
:1009E000227852256A430D685219FF3241329382B0
:1009F00022785224096862435118FF314131CB8279
:100A0000002101704CF730F9002070BD42FC00005D
:100A100001080000AAB9FC07BCBBFC07400000406D
:100A200000BFFC07C3C3C3C3A5A5A5A54CB9FC075C
:100A300070B518460C4601460123334A334858F72F
:100A4000A7F8227852214A43314900230D685219F0
:100A5000FF3241329381227852256A430D68521940
:100A6000FF324132D38122785224096862435118FF
:100A7000FF3141310B82002101704CF7F5F8002065
:100A8000C3E770B5184616460D461F4A01460123B6
:100A9000D21C1E4858F77CF804462888032800D347
:100AA000032047F7E6F8002805D000212170A97837
:100AB0006430C17701E01220207020464CF7D4F852
:100AC0000021304658F795FA00209EE7F8B50E460B
:100AD00010491C4615460020C2008A5AA24209D17C
:100AE000C00040184768002F07D02A4631461846F4
:100AF000B84702E0401C1828EED32246314628466B
:100B000002F000F9F8BD000038FC00000108000008
:100B10004CB9FC074042FC07064C0125064E05E097
:100B2000E36807CC2B430C3C98471034B442F7D30E
:100B3000FFF7F2FABC48FC07EC48FC07014801212A
:100B4000018070470E1500500F48011F09880A07E1
:100B500003D5DC4A138A5B1C1382CA070AD00288B9
:100B600007239A43C94BDB7B13430380D54AD389C0
:100B70005B1CD381490706D5018807229143C34AEC
:100B8000127C0A4302807047B810004010B5B44888
:100B900008210180BD4C218CE08B5EF7CBF95CF71E
:100BA000FCFC10484188890703D041880322914307
:100BB0004180018880220A430280018904229143F6
:100BC000018181898907FCD541F7ABFB206B064980
:100BD000086006480168490700D500BE016849075A
:100BE000FCD510BD08000050080200401000004075
:100BF000F8B500250095134E13497160B560316852
:100C000004220A433260EFF31084012787F310882F
:100C10003946814089B20D48FFF784FA0090306868
:100C2000B8433060002C02D087F3108801E085F3D0
:100C30001088009841424141EB4AD1700249081A9C
:100C4000F8BDC04610E000E0FFFFFF00003000509C
:100C500080B50A2000F016F880BD80B50B2000F0AA
:100C600011F880BD80B50C2000F00CF880BD80B577
:100C70000D2000F007F880BD80B50E2000F002F8CE
:100C800080BD000010B504465CF78EFEE0B2012185
:100C900081407248016010BDF8B5044601273E024C
:100CA00005200507688DC00506D51B205CF7B2FC42
:100CB0006C480188394301808036288840013040E3
:100CC000698A694A0A4002436A82216811480160C0
:100CD00061684160A1688160E168C160216901616A
:100CE00061694161A1698161E169C1610462604931
:100CF0000A6842624A6882628A68C2624A6902631A
:100D0000CA68426309698163A88AC00600D4FEE705
:100D100000BEF8BD0090FC07024800884F48102133
:100D2000016070472C130050B0B5114D2888400663
:100D300002D52888800609D40E49086A00240028B4
:100D400014D0CA69521CCA6182420FD309480024D8
:100D5000C461281F046017480088FFF749FC2888F1
:100D6000C00701D1012401E04AF78CFC2046B0BD48
:100D70001410005084BAFC0780B54AF754FC0B48A5
:100D8000828980210A438281027903781202D21873
:100D900014235343064A12881207D20ED218921C0B
:100DA000044B1A8082898A43828180BD00100050E2
:100DB000C0100050C08BFC07F8B50446052005079D
:100DC000288A04210143298228894021014329815D
:100DD0002248012707602248082101803E02688DD1
:100DE000C00506D51B205CF715FC1E480188394359
:100DF00001808036288840013040698A1A4A0A40BA
:100E000002436A8221681948016061684160A168F3
:100E10008160E168C1602169016161694161A16925
:100E20008161E169C161046211490A6842624A68EC
:100E300082628A68C2624A690263CA684263096957
:100E40008163A88AC00600D4FEE700BE688A09490B
:100E500008404018001D6882F8BDC04680E200E0EE
:100E600000330050800000507FFE00005090FC07CF
:100E700028ED00E0FC7F00007047000080B5AF481F
:100E8000C06A002801D003F083F880BDE08EFC0723
:100E900055498A6B002802D0824200D9886BCA6B00
:100EA000904200D9C86B084A10808878022181409E
:100EB00006484843002803D000BF00BF401EF9E7A2
:100EC0007047C046244EFC0702000050F1060000A7
:100ED0007047000010B50F4CA1880F200840022871
:100EE00006D004280BD00C280CD00128F4D110E037
:100EF00020880221884320802088802106E003F09A
:100F000077F8E9E703F074F820880121884320800E
:100F1000E2E710BD0411005080B55CF73EFB1948B4
:100F2000018809050CD518490A8805231340052BAB
:100F300006D10888042202430A80088801221EE0A4
:100F40000188C90606D511498A88D20702D00A88C5
:100F5000120610D40088C0060CD50C488188890779
:100F600008D50188C90505D5022181800188084A74
:100F70000A40028080BD012088800888802290433A
:100F8000088080BD040000500002005000010050A5
:100F9000FFFE000081B0464801884907FCD4C188A3
:100FA0000091009980880904081801B07047C04674
:100FB0003F480188490700D500BE3F21C900418054
:100FC000018801220A4302218A4302800188042207
:100FD0000A4302807047C04680B5DE490C317D4A25
:100FE0005DF71EFE80BDC046244EFC0780B5044858
:100FF000016803220A4302605020FFF7F9FA80BD1E
:10100000AC10004010B5016800290CD503680268D7
:101010000124A40700688000800C00195B0001D443
:10102000028000E00270C80F10BDB0B50C4600256C
:10103000202D04D041F75DFC60556D1CF8E70020C1
:10104000B0BD0000B0B504461048094D4022294605
:101050005AF704F948350748302229465AF7FEF86E
:101060000548001B0549088014304880B0BDC046C3
:10107000D017F207B0A0FC07B8A0FFFF78A0FC07CC
:1010800080B502485EF73CFB80BDC04670A0FC07FF
:10109000DD481E214180018803220A430280018825
:1010A00004220A430280AC48012101707047C04607
:1010B0000016005080B50D480078C00708D1052003
:1010C00057F7ACFF00280FD12A200A49085C04E03A
:1010D0000748417D012907D1007D41424141C21E9F
:1010E00050425041084380BD002080BDCDB9FC076F
:1010F00034BDFC07DCBCFC0780B50348016896489A
:10110000801C5BF761FF80BD0849FC070748016848
:10111000914A927D002A04D0064A1140064A891855
:1011200001E0034A114001607047C046B81000401A
:1011300077F7FFD577F7FFC08808002AE08EFC0715
:10114000704780B55BF7E4FF80BDF8B56946C870AD
:10115000020A8A70020C4A70000E087008465BF79B
:10116000BFFF8FBDBCB51C460D46C648164A0223BC
:10117000214657F70DFD04462B78144800900522B0
:101180000620002B114600D00146002B00D010464F
:101190004A4A1288D20500D50146684641700C497A
:1011A0000191FFF719FF2320FFF722FA5DF7A2FD57
:1011B00008495DF71BFE05465DF78CFD258020463E
:1011C0004BF752FD0020BCBD1AFE000001050A00CD
:1011D00000030101C48BFC0710B51946A948044A55
:1011E0000024234657F7D4FC4BF73EFD204610BDA4
:1011F00007FE0000FEB51C460F46A2481B4A02230C
:10120000214657F7C5FC044638780190B87802901B
:10121000FD787F7838465CF7E5FA064628465CF7A5
:10122000E1FA304001214140218020464BF71CFD6E
:101230002088002818D10E48FFF7DAF9464EF07CD6
:1012400000242146224623465CF7A2FA707D2146FF
:10125000224623465CF79CFA01983946029A2B46AF
:1012600002F042FF02F076FD0020FEBD09FE000004
:10127000E2040000B0B51D460C46E4480E4A0123C6
:10128000294657F785FC002101702278511E13462C
:101290008B4131498B7509490B88DB0507D4531EF7
:1012A0009A4192024B8D064C1C40A2184A854BF77E
:1012B000DBFC0020B0BDC0461CFE00002A00005030
:1012C000FFF90000FEB50193164602910746002083
:1012D000041D102C0AD00CA10D5838460299324634
:1012E000019BA84700282046F2D10BE07F20420254
:1012F000C6480423019957F74BFC0299097801600D
:101300004BF7B2FC0020FEBDD926FC070D27FC07D9
:10131000DD29FC0710B51946F0480D4A082357F798
:1013200037FC0446F048007A02280ED102F08EFD08
:101330000948016D2180C16D6180816DA1805030AF
:10134000008AE08020464BF78FFC002010BDC0468D
:101350000DFE0000244EFC07E08EFC07F8B5194690
:10136000DE48264A0124234657F712FC0546244E40
:10137000378827400FD1308820433080308828219B
:101380000143502081433180308806210143318060
:101390001C48FFF72DF93088C00701D1FF2021E05C
:1013A0000095194D68886C8028880821884328801A
:1013B000288802210143A143298028880421014370
:1013C000298000262888400706D5632E04D864208B
:1013D000FFF70EF9761CF5E72888400300B2C0132A
:1013E000009D074E2870002F02D13088A043308026
:1013F00028464BF739FC0020F8BDC04616FE000019
:1014000022000050400D03000016005070B5194630
:10141000F0480C4A422357F7BBFB04460E250570E3
:10142000801C094E31462A4659F718FF6570204640
:10143000223031462A4659F711FF20464BF714FC5B
:10144000002070BD08FE00009C48FC07B0B51C469B
:101450000D46E0480C4A0123214657F799FB044604
:101460002D7828465CF7BEF9002803D028465CF7A3
:10147000ADF900E0FF20207020464BF7F5FB00207F
:10148000B0BDC0460108000013FE0000F0B585B0F5
:101490000C46F1485E4A01261946334657F778FB59
:1014A0000290A0780490E57820790190607903900B
:1014B000277838465CF796F962780021032A12D81B
:1014C0007040920002A39B580A460C469F46C046B5
:1014D000FF14FC07E114FC07F114FC07F914FC07E6
:1014E0000122140206E0012044020022304606E0F8
:1014F00001225402002202E0032214023246009428
:10150000049B012B334600D80B46012D344600D8EE
:101510000C4603996429314601D81440214600291C
:10152000314600D11946002900D10646FF24002E7D
:1015300063D1384601F064FB384601F07FFB019E21
:10154000002E17D0012D25D0002D029D56D13148F7
:10155000418B0122914341835102002438462246A7
:1015600023465CF715F90499481E814138465CF71B
:1015700021F943E0681E4342434100243846009964
:1015800022465CF705F90499481E814138465CF70C
:1015900011F932E003252902172200243846234698
:1015A0005CF7F6F80499481E814138465CF702F969
:1015B0004F48018808221143018001882943018096
:1015C000144D688B10436883688B042188436883BB
:1015D0007D20C1007143104859F7C6FD401E288088
:1015E00028886C80411C03984843642159F7BCFD4E
:1015F000E881688B012101436983029D2C70284694
:101600004BF732FB002005B0F0BDC04601080000DA
:1016100012FE00000834005080841E00FEB50E4605
:10162000B7482F4A012519462B4657F7B1FA0290C1
:101630007478367830465CF7D5F80746304601F0C6
:10164000DFFA002E02D1274801210180022C00D3AD
:1016500000252F423BD0244F002001907872BE72AB
:10166000FC7201257D70787AB87A03242602102254
:1016700031462B465CF78CF8787AB87AF97A4A1EAC
:1016800091415CF797F8E943184802880A400280C4
:10169000174A938B0B409383118808230B431380C5
:1016A00011882143118001990180FF210906114A07
:1016B00013688B43E90759181160E8364680868025
:1016C0000D49C180018829430180029802E0FF2171
:1016D000029801704BF7C8FA0020FEBD0108000017
:1016E00017FE000000030050244EFC070034005099
:1016F000040000500CE400E0FFFF0000FEB51C46B3
:101700000D467F48184AF223214657F741FAAC7834
:101710001221002C22D03C2C20D82A88FF21C90479
:1017200055180190471D0094002C14D002AE0422DD
:101730002846314602F048F9F81E02990170B81E99
:1017400071780170781EB1780170F0783870641E7D
:101750002D1D3F1DE8E700210198009C4470017099
:101760004BF782FA0020FEBD04FE0000BCB51C460B
:101770000D466348184A0723214657F709FA0446DD
:1017800000200190009028782070032807D00228BC
:101790001AD1611C1248062202F016F914E0687989
:1017A000A97909020818019028790006E978090446
:1017B0000818A9780902401869784018009007486D
:1017C0006946022202F010F920464BF74DFA00203C
:1017D000BCBDC0460108000003FE0000D47F00002D
:1017E000D47FF807F0B585B01C460E4644481B4A26
:1017F0000223214657F7CCF90446002103910291B8
:10180000B7781220002F1AD03C2F1DD8F51C019656
:101810003688002F15D0E8780006A9780904081842
:1018200069780902401829784018029002A901221B
:10183000304602F0D9F87F1E2D1D361DE9E70F4610
:1018400002E00198877800206770207020464BF7EF
:101850000BFA002005B0F0BD0108000005FE0000F5
:1018600010B5194626480A4A0124234657F790F92D
:10187000002101704BF7F8F906480821018006485D
:1018800044800521018001880906FCD1002010BD9B
:101890001DFE0000023300500031005010B5194603
:1018A0001748044A0024234657F772F94BF7DCF92E
:1018B000204610BD0AFE0000B0B51D460C46FD488E
:1018C000104A0823294657F763F90021417022780E
:1018D0000270032A10D861687A4412795200974442
:1018E00001030609096803E0A2680A6004E00988A8
:1018F000416001E0A2680A804BF7B6F90020B0BD54
:101900000108000006FE0000F0B589B01C460D4637
:10191000FB48E94A0223214657F73AF9044628785A
:10192000F94EF77D012800D100E1002800D0B6E192
:10193000E8785BF757FF002800D1AEE168795BF7E4
:1019400051FF002800D1A8E1E8795BF74BFF0028A0
:1019500000D1A2E1687A5BF745FF002800D19CE145
:10196000687B002805D0E87B5BF73CFF002800D1AE
:1019700093E1E878D54EB0476879B047E879B04749
:10198000687AB047687B002802D0E87B01F038F91C
:10199000A8780028E84E02D1E87800281AD02879E3
:1019A000002802D16879002814D0A879002802D133
:1019B000E87900280ED0287A002802D1687A002819
:1019C00008D0687B002809D0A87B002806D1E87BD6
:1019D000002803D10120F07502F07CF9E87800239B
:1019E000B64A0B28194601D84000815A68790B285D
:1019F000049302D84000805A04900391E8790B28A0
:101A0000194601D84000815A0291697A0B2918467B
:101A100001D84800805A0190E87B0B2801D840008B
:101A2000835A0593A6488171297A41710178012270
:101A300006921140027992080E231340591831730F
:101A40005CF768FBE8780321090208911C22002357
:101A500007939F4EB04768791A2207990B469C4E10
:101A6000B047E8791B220899079B994EB047687ADE
:101A70001D220899069B964EB047687B002806D029
:101A8000E87B06994902002213465BF781FE6878DD
:101A900001280CD1E87A0890AE7A02F0F3F93046CA
:101AA0005CF77AFB08985CF777FB5CF767FB02F062
:101AB00045FAAE7A02F0E6F9802030435CF76CFB21
:101AC00000205CF769FB06465CF758FBF0B220800B
:101AD000687B002807D04B208000FEF789FDE87B5B
:101AE0005BF774FE2080E8780B28934E734902D888
:101AF0004000039A425268790B28059A02D84000A8
:101B0000049B4352E8790B2802D84000029B4352C1
:101B1000687A0B2802D84000019B4352A87B0B280F
:101B200001D8400042525CF7C3FAB8E068795BF72D
:101B300059FE002800D1B0E0E8785BF753FE00289A
:101B400000D1AAE0687B002805D0E87B5BF74AFE5D
:101B5000002800D1A1E0687901F052F8E87801F09E
:101B60004FF8687B002802D0E87B01F049F828791B
:101B7000002802D1687900280ED0A878002802D168
:101B8000E878002808D0687B002809D0A87B0028C6
:101B900006D1E87B002803D10120F07502F09AF805
:101BA000E878002245490B28134601D84000435AE3
:101BB00068790B28164601D84000465A06960793C6
:101BC000A87B0B2801D84000425A0892297B3C4848
:101BD000818208305CF7EAFCE87800260922314669
:101BE0005BF7B4FD68790A2231465BF7AFFD01204F
:101BF0004602687B002805D0E87B00223146134668
:101C00005BF7C6FD334668782F4E01280ED1E87A7F
:101C1000A97A32885207FCD52A4A118018431080CD
:101C200030884007FCD530888006FCD402F086F965
:101C3000A87A31884907FCD5224A108030884007AD
:101C4000FCD50320000210801C4930898006FCD09E
:101C50001088C0B22080687B002808D04B2080000C
:101C6000FEF7C6FCE87B5BF7B1FD14492080E878FD
:101C70000B28B54E02D84000079A425268790B28CB
:101C800002D84000069A4252A87B0B2802D8400096
:101C9000089A42525CF7F0FC01E0FF202080F775C3
:101CA00002F018F802F044F820464AF7DDFF002061
:101CB00009B0F0BD0108000011FE00000630005020
:101CC000EC48FC071013005070130050012CFC0767
:101CD00091D7F107B0B51D460C46EB48094A0123E0
:101CE000294656F755FF05462078ED49C87501F09D
:101CF000F1FF00242C7028464AF7B6FF2046B0BDFD
:101D0000010800001EFE0000E08EFC07B0B51D4675
:101D10000C46EE48074A0123294656F739FF0025AD
:101D200005704AF7A1FF2078DD49487340F788FC29
:101D30002846B0BD1BFE0000E08EFC0710B519461A
:101D4000E248054A012356F723FF002404704AF7AE
:101D50008BFF204610BDC04618FE0000FEB50E46A3
:101D60005748584D012419462A46234656F710FF76
:101D7000002707704AF778FF49F7B0FC307802284F
:101D800016D0012807D0002800D096E05848C77028
:101D90005A48077091E002F033F94C480770B07868
:101DA00071780A46024360D151480221017167E00F
:101DB00002F026F944490820088044490F7072B6A1
:101DC000434EB28904210A43B281B28880239A43E8
:101DD000B280B288402302931A43B2803D4A1180F8
:101DE00032883D4B13403380FA433C4B1A60328AB1
:101DF000D206FCD47E35F2892A40F281E243384B88
:101E00009D8815409D80374D2F680F432F60B58A00
:101E100025430227BD43B582B58A0D430190854312
:101E2000B582B58A102028432025A843B082B08906
:101E30002043B081188810401880988A2A4A0240AE
:101E40000720C00210189882A0039A8A02439A823F
:101E5000F08C264A1688C00517D4602006431680E9
:101E6000988A03220243029F17E0214A1471214AF3
:101E70004A4319218901414388181F49096848626A
:101E80001B48C4701D48047017E02E433846029F5B
:101E9000BE4316809A8A0243A2439A82988A019A84
:101EA00010439882988A88439882188B3843A843B5
:101EB000188300BF00BF00BF30BF0020FEBDC0467A
:101EC0000208000001FE000000330050308CFC07C7
:101ED0000400005000020050FFF7000080E200E024
:101EE0000C03005010ED00E0FFC300005200005052
:101EF00020BAFC070077010058B9FC0780BAFC073C
:101F0000BCB51C460D46B1480E4A0023214656F783
:101F10003FFE04462878B24DA871287A00280BD1DC
:101F20005F485030122159F7B2F9A97901A8017020
:101F300046F744FF0220287220464AF795FE00200B
:101F4000BCBDC0460CFE0000E08EFC07B0B51946D3
:101F50009E480A4A0024234656F71AFE0546A04822
:101F6000007A052808D101F0D1FF01F06FFF9B48EE
:101F7000046028464AF778FE0020B0BD10FE00003D
:101F80007CB51C460D4691481D4A0023214656F754
:101F9000FFFD04462878924EB07168787071307AEF
:101FA000002828D101AD25206870B079287070799B
:101FB000A870FFF7ABF8284646F786FE0120C2035B
:101FC00086490B6813430B6082030B6893430B60D5
:101FD00002030B6893430B600A680A4B13400B60C3
:101FE0000521317200027B490860BFF34F8FBFF3B8
:101FF0006F8F01F057FF20464AF736FE00207CBD68
:102000000FFE000000FEFFFF80B50878744A907153
:102010004878D07188785071C87809790902081811
:10202000908201F0F5FE002080BDC046B0B50C46A0
:102030001548164A012519462B4656F7A9FD217861
:10204000052900D8002505704AF70EFE49F746FB22
:102050007D20FEF7CDFA2078052804D80CA1095C74
:102060000DA2105C01E00B2108200D4A517610767C
:10207000032240F71BFB0024204640F773FB40F788
:1020800039FB2046B0BDC0460108000015FE000027
:102090000301060B0001000068341108011A00005A
:1020A000E08EFC0770B50C46F948094A64251946CC
:1020B0002B4656F76DFD064621462A4659F7CEF8BF
:1020C00030464AF7D1FD002070BDC046010800002F
:1020D00014FE0000F8B50E46ED483D4A00251946AD
:1020E0002B4656F755FD0446307854282CD05228FC
:1020F00012D04F2868D101F009FF394E307A0628F6
:1021000054D0072856D101F0A1FE0120C007334961
:102110000A6882430A604DE0012000022D490860F0
:10212000BFF34F8FBFF36F8F7578FEF7EFFF6846F1
:10213000057046F743FE2848401C28490A680243B8
:102140000A60274807212DE001200002214908608C
:10215000BFF34F8FBFF36F8F7678FEF7D7FF214D18
:102160002846FEF74FFF0C20071D342F05D02818F6
:10217000FEF748FF00283846F6D13820071D582FB3
:1021800005D02818FEF73EFF00283846F6D116483D
:102190000321017015483018154A10601548016078
:1021A0000F480621017201F07DFE0AE0114805602A
:1021B0005DF72CFA012000020F4908600F49086002
:1021C000357220464AF750FD0020F8BD0108000096
:1021D0000EFE000080E100E0FFFFFF7FE000004016
:1021E000244EFC0770A0FC070510004000016209A6
:1021F00004300040AC10004000E100E080E200E06C
:10220000F0B58DB01A460D46A148A24E02231146E4
:102210003246059356F7BCFC0446297807291BD89B
:102220006878AA78120212187944097949008F4413
:1022300015181B2E394403039749FE2809905DD1D8
:1022400000200E460C2853D00A880F231340012B80
:1022500052D0891C401CF5E70026D1E18F48008848
:1022600030E08E4802802CE08C48018A0122120264
:1022700080320A40802A06D1418AC906FCD47D36C4
:10228000018A3140018203200002401D17E02646EA
:1022900090B2FF210C1A81490B8800209C420ADB76
:1022A0009A1807E026467D490B8894B20020A34285
:1022B00001D39A1A0A80344604E00120400276498C
:1022C0004881002020800026FD49C87C0A7D8B7C47
:1022D000934205D1497D884202D100200990BAE19C
:1022E000032109020222002309935BF751FAB2E1AC
:1022F0000C200990FF2000E009903146C7B200266B
:102300000C2F01D3304601E0780040180B2F0490C9
:102310002ED8029506880998C5B2284600F070FCB0
:10232000284600F08BFC002D0DD1E548817C00296A
:1023300009D1C07C002806D10120410200200246BC
:1023400003465BF725FA03940120009000020499EC
:1023500008800299897800220C920B9201920A92CD
:10236000002907D001293FD1AF229300D64A03E0CC
:10237000042043E1D34AFA23D44D0A24AC63EB632F
:102380006A64AC641422EA646E222A65AA6BEA6568
:10239000EA6B2A66A970296D29640B2F24D8B9002D
:1023A00001A251588F46C046D923FC07F123FC07F0
:1023B0000124FC071124FC072124FC073124FC071D
:1023C0004124FC075124FC076124FC077124FC070D
:1023D0008124FC07A124FC0703210902B74B1A88BA
:1023E0008A4302431A8062E0029D039C019805E142
:1023F00003210902B14B5A888A4302435A8056E0AE
:1024000003210902AD4B9A888A4302439A804EE029
:1024100003210902A94BDA888A430243DA8046E0A5
:1024200003210902A54B1A898A4302431A813EE01F
:1024300003210902A14B5A898A4302435A8136E09B
:10244000032109029D4B9A898A4302439A812EE017
:1024500003210902994BDA898A430243DA8126E093
:1024600003210902954B1A8A8A4302431A821EE00D
:1024700003210902914B5A8A8A4302435A8216E089
:10248000032109028D4B9A8A8A4302439A820EE005
:102490000108000002FE000006300050020000505B
:1024A00003210902854BDA8A8A430243DA82039CBC
:1024B000286CFEF7EDFC3846FEF79AFB0A900A9866
:1024C000696C884205D30A98696C401AA96C8842E5
:1024D00019D90A98696C884205D2686C0A99401A21
:1024E000A96C88420FD90A98696C884213D9286E62
:1024F0000790286EFEF7CCFC3846FEF779FB0C906F
:102500000020089012E040352868411C74D0801CDF
:10251000029D5FD06AE7E86D0890E86DFEF7B8FCB1
:102520003846FEF765FB0B900020079000240696C6
:102530000A9A6B6C286C0A999A4202D90B910890FE
:1025400001E00C9107903D466048406C0B9B0BA945
:102550000CAA0C9EB3420B4600D313461B680B9E7D
:102560000C9FBE4200D811460A68D11A121A089E62
:102570000798801B504358F70DFE8019534E306466
:10258000306CFEF785FC2F4635463846FEF730FBAB
:102590000A900A98716C8842069E05D30A98696C65
:1025A000401AA96C88420DD9601C0A996A6C914244
:1025B00005D2696C0A9A891AAA6C914202D9092C2F
:1025C0000446B5D3E878002806D00020FEF760FC6A
:1025D000029D039C059811E00A98696CAA6C891AFF
:1025E0008842039C05D30A98696CAA6C51188842EA
:1025F00053D90020FEF74CFC029D009820802978DA
:10260000FE200840062822D1022030431F2101402D
:1026100003291CD1069603942E462D4C2546099875
:10262000C7B238465BF7D2F8002804D06D1CF6D349
:1026300001E0641C04D238465BF7C8F80028F8D0E3
:102640007D200001FDF7D4FF3546039C069E0998C6
:10265000000600D138E620464AF706FB2878FE211E
:102660000140062916D1022030431F2101400329D1
:1026700010D1184D0998C4B220465BF7A7F800287E
:1026800003D1681E29040546F6D10498002801D01C
:102690000498068000200DB0F0BD1B4800886865D6
:1026A000686DA96B884202D8686D0028A4D1686D56
:1026B000E96B8842A0D2543526E7C0460630005068
:1026C000E08EFC0700127A00007C9200244EFC078A
:1026D000E708C9FFB68C000070B500240E785F2EA5
:1026E00003D0332E0DD1084806887F204202AF4820
:1026F000042519462B4656F74BFA06604AF7B4FAFA
:1027000000E0E443204670BD02000050F0B591B0F7
:1027100000270878AA2800D0C8E003917F20019004
:102720004202A2480C241946234656F731FA029079
:102730005CF756FF01F010F901F024FB5CF78EFF07
:102740009B4C201D202158F7A2FD9A4D2560296839
:102750009948A760E06061600168984A502363610E
:10276000A261216111682762E16129681426314361
:102770006B2291432960052101603046FDF738FF47
:10278000FEF734FCE86F109010980F9010980B90A3
:10279000109809908A4803210170286D0124204374
:1027A00028652102286D0E91084328652004296DB3
:1027B000014329658348401C296D01432965286D23
:1027C0000A210143B1432965286C40210D9108433A
:1027D0002864FEF70BFC3046FDF70AFFE86C022187
:1027E0000C910843E864E86C04942043E8640720F3
:1027F00040020B9949010B9001400A913F2040048F
:10280000099989020990014008911F200790C1068B
:102810000F980007C00E05906D4C06910A46654E54
:10282000694D802F44D0306D1E218843059908439F
:102830003065306D0B9988430A9908433065306DD7
:1028400009998843089908433065FF200006316DD7
:1028500081431143316505200F92A8470C9AD44358
:10286000F06C2040F064306C0D9908433064306C9B
:10287000079908433064F06C1043F0640E98C6303A
:10288000A8476420A847B16FF06C2040504CF0641A
:102890004C4801407D20400148434C4958F764FCB6
:1028A0000F9AE051069812183F1DBAE7F8437AE0F4
:1028B000002048497C2806D0221852682358D21A92
:1028C0000A50001DF6E700220B4614461546104636
:1028D000002A09D01F2A0DD01E68A64200DA1C6803
:1028E0001E68AE4201DC01E00C681D6840CB301868
:1028F000521CEDE71F2158F737FC01467D200002EE
:1029000058F732FC010ACA01049B1940C8400199DA
:1029100008408018C01CC0B27F4C6082608A254B82
:10292000D968FF229143C0B20918D9601102DA6850
:102930008A4300021018D8600025242D0BD01C49B2
:10294000485949194A6802608868002801D0FDF793
:102950004FFE0C35F1E717488589FEF791FB227889
:1029600000231D481946083138290FD0C3181B69A8
:10297000104E0C36B3420B46F5D1002A04D1049A0E
:1029800022704218D26862624018C5605CF73EFE51
:1029900002994D60606A8860039800780860084674
:1029A0004AF762F9002011B0F0BDC04601080000EE
:1029B0001850FC0704300040AC1000404C1200409E
:1029C00005100040FFFF7F00F105FC0781030000B8
:1029D000984EFC07184FFC07C48BFC07F0B587B076
:1029E0000027F8430A78BB2A00D093E006900591AF
:1029F00049490879002804D1012008714748808896
:102A000088657F20420246480C2519462B4656F71A
:102A1000BFF80490434C20881621014308208143CD
:102A200021802088404908400126710240182080FA
:102A30006020C1432088029108402080FEF7B8FA48
:102A4000FEF7A8FA218820220A4340218A432280E7
:102A500085214D0031460226A842324600D80A465A
:102A60000192A842039100D839460091FEF7A0FADE
:102A7000FEF790FAA842019800D8009840012188FA
:102A8000029A11400818208020882749084003999D
:102A90008902401820803846002E17D42788FEF778
:102AA00087FA7805070FFEF775FAA842069902D84B
:102AB000A84209D0012122881C4B1A40B140791844
:102AC0000906490C11432180761EE5E718492E1AA4
:102AD00000D24618FEF76CFAFEF75CFA291A01D20A
:102AE00013494118B14205D9208810490840F9011D
:102AF000014321802068049A50602088074988801B
:102B00000548806D906005980078106010464AF77F
:102B1000ABF8002007B0F0BD244EFC07A000FC0776
:102B200001080000240000507FF8FFFF7FF800003C
:102B3000F6FEFFFF80B556F795FD48F772FAE148BB
:102B40000121417480BDC04600BE704780B50E486B
:102B500000686821415A52224A430C490968891881
:102B6000AF225200895A090A6830C07D081AC0B2E3
:102B700001F060FA002045F7C6FBD24804214174F9
:102B80005CF744FD80BDC04650BBFC074CB9FC0758
:102B900080B5012045F7B7FB80BD80B548F741FA05
:102BA000FEF776FA80BD000080B504480068B021C9
:102BB000405C01F03FFA45F7F2FB80BD58B9FC07D5
:102BC00080B50D4801880122914301800B480078AF
:102BD000C00702D13FF776FD04E000203FF7C2FDB9
:102BE0003FF788FD56F722FD3FF72AFDFEF750FA22
:102BF000B4480021417480BD08330050CDB9FC07B2
:102C00000C490A8802280DD0D205920F052801D15F
:102C1000012A07D0012801D1022A03D00A2808D1AD
:102C2000032A06D14888C006FCD40888024A02401C
:102C30000A807047120000507FFE000080B5002817
:102C400014D1A048C17D022910D0C17C827C1346DA
:102C50000B4301D10223C375037D934204D1427D0E
:102C60008A4201D10121C17501F034F880BDC0460E
:102C7000FEB51446002918D005460127002B17D0B1
:102C8000CA182388002D18D0087828706E1C0220DE
:102C9000002B0FD002938B1C93420AD84B783370D1
:102CA000029B012B0ED8AE1C04E00021084602E076
:102CB0002E463846711B2180FEBD881C012690429D
:102CC0003046F7D88E1C48788006000E02903146B8
:102CD0003018AE1C9042ECD8002D0CD0E8180190B2
:102CE0003046029F3A4658F7B9FAF01901998842DE
:102CF00003D8002002E0002001E0012040000299FA
:102D00007618D7E770B51346024600200E4C1028FF
:102D100008D0255A9D4201D00830F8E720184468B1
:102D2000002C0DD10020094C0546F02D0AD0665B21
:102D30009E4201D00835F8E764196468002C01D080
:102D40001846A04770BDC046AC48FC076843FC0766
:102D5000FEB51446002905D005460120022B04D2F9
:102D60002E463FE0002088213DE02288AF18002D4C
:102D700009D002970E784F786F702E70012A06D80E
:102D8000AE1C02202EE0032B05D202262AE0032BE4
:102D900003D2AE1C26E08A7805E08A78AA70EE1C81
:102DA000029FBE42EDD80297CB180193C91C920630
:102DB000120E8B180093EE1C019B009F9F4211D8AE
:102DC000002D09D03046174658F748FAF019029AF4
:102DD000904204D8002003E00020174601E00120C3
:102DE0004000F619711B2180FEBD000080B53548FA
:102DF000093009495BF70AFE80BDC04680B5022054
:102E00005BF720FD80BD000080B52E4809300249E7
:102E10005BF750FD80BDC0463C50FC0770B5174EB7
:102E2000B06800F02DF827494A6B00234B63151852
:102E3000084C2846214658F797F9706106494143E6
:102E4000481901D0201A80B230613068082101434E
:102E5000316070BD710200008FFDFFFF80B5064834
:102E60000021016000F09EFF0120C00703490A68AD
:102E700082430A6080BDC046A4B9FC073000004010
:102E800080B50246C00B09D00E48406C00210B46AD
:102E900058F794F98905800A401880BD0948406CAC
:102EA0004243900A80BDC04680B5FFF7E9FF80BD70
:102EB00080B50449096C414303480818034958F791
:102EC00053F980BDE08EFC0720A1070040420F00AF
:102ED00000B59BB0E24808210D910180E14D2888A2
:102EE00018AC20802088C046C04620880422D143E8
:102EF0000842159202D00020288003E0A889012111
:102F00008843A881A88BD849014007200A90C002B5
:102F10000818A883D54F38880D9C20433880F88D39
:102F200006229043F88501239803A98B0143A983C6
:102F30003888CF4901403980788808921043A043EF
:102F4000788005200B900607718DCA4AFF32F88DF4
:102F500010407D22D2000F24C905129303921694CB
:102F60001AD5114618310843F885F88DC249014039
:102F7000129AD0030818F885A88B0D990843A883E6
:102F8000A88B159CA043A883F88D9043F885A88B47
:102F900040218843A8831BE02103032252021043EF
:102FA000F885F88D0843F885A88B0D998843A88388
:102FB000A88B04218843A8837888B0490140798090
:102FC000F88D12990843F885159C708D4007FCD543
:102FD000A88B03210F910843A8833988202211432D
:102FE0004020C04301403980298C14921143014094
:102FF0002984F18A80220C9211430140F182318EA2
:10300000FF2291433186318F21431822914331872A
:10301000318FA0220A430240328799480480B08849
:1030200098490140B18098491298887000049749E6
:103030000860FFF7E9FEFFF7E1FE954D2868C1B291
:103040000C20AA29014600D02146328882438818E4
:103050003080C046C0468F4800888B4988878E489C
:10306000006888631298C046C0468C4800908C4A1D
:1030700020328C4F8C498D4B38465AF7C3F8642068
:103080000990385A0028039801D10999785266218D
:10309000785A00287C4A06D12868C0B2AA280C9821
:1030A00000D06E207852D083144659F7A5FF7F20B8
:1030B0006070A8697A49C861FFF798FE7C4800688B
:1030C0007C498842129D169F00D0BCE028021090D7
:1030D00079487A4958F7DBF80A980102784858F796
:1030E000D6F8FDF743F87748774901607748784983
:1030F0002A2258F7B3F877480024C47184714471C8
:103100000471C470847044703F210791017072484B
:1031100072A14022139258F7A1F88048C4718471BB
:103120004571C02101711499C170302181701194D1
:103130004470077009204201794F7A49384658F7A0
:103140008DF81720C04300280BD03A182723DB0046
:10315000D21875A10B18183332CB32C2129D0C3025
:10316000F1E710983830764C1E210D9B002910D0C5
:103170003B18159121463A461690A1CCA1C30C46A6
:10318000159916981746129D0D9B491E0C300C344C
:10319000ECE739204D494885CF626A4805706A4896
:1031A0006A4901606A486B4901606B496B48086075
:1031B0006B4832210E9101706A480B9901606A4890
:1031C00005606A4801606A480899016069480A997F
:1031D000016069480360694F374838601098801D66
:1031E000674908606749086000F016FC59F732FE2D
:1031F00059F776FE59F790FE2D480068624C2D492C
:10320000884200D1D9E03868A060254AD06990751D
:10321000010E5176010C1176000AD0751098C0305D
:103220005A490A46002800D1B4E0401E435C157894
:103230002F460F9C27401A4CE719BF7D5F406F4017
:103240001770521CEEE700205149504A0B9B5B025D
:10325000984200D93AE743588350001DF6E7C0462C
:103260000033005004030050FFC300005200005020
:10327000FFBF000000F0FFFFFF0F0000FFF900009C
:1032800000020050FFF70000E08EFC0780E200E043
:10329000D07FF807D87FF807D47FF8070000000038
:1032A000244EFC07C48BFC07A000FC078939FC07EF
:1032B0009CB8FC076587341200A0FC07AC14000022
:1032C00000B9FC072CBAFC07C045FC07D0B9FC07C5
:1032D00094BCF107ABB9FC075CBCFC072000800084
:1032E00000C00000000004000000282200000000D0
:1032F0000000040000F7C3F77E00000030F007086C
:1033000000000000000400000000000000000000B9
:10331000000000000000000000000000B3B9FC073E
:10332000348CFC075CBBF10700FD07008148FC07FB
:103330007D48FC0701FD07008148FC076848FC0741
:103340005844FC07CDB9FC0750B9FC072A17F2070F
:1033500054B9FC07D446FC0758B9FC07D845FC070C
:10336000AAB9FC075CB9FC0760B9FC0764B9FC07A3
:1033700068B9FC076CB9FC0770B9FC074CB9FC07CD
:1033800048B9FC0744B9FC0700020040448FFC0721
:1033900000B0FC07DD4F6437DD491C2238465AF780
:1033A0006FFC0028129D00D000BE384659F798FEE9
:1033B000D848D9490160D94CD94F38683EF74AFFFF
:1033C000D848119F0771C770A9070868109A104361
:1033D00015910860FDF75CFE284600F083FBCB4D9D
:1033E0002F72022016906871AF712520E8710E9837
:1033F000A882CC48C770CC4807702F82CB48503089
:10340000122157F744FFCA48401C2168014321603C
:10341000F08A0C99084313998843F082FFF71EFD48
:103420000F20FDF7AFF8129948020290079880022A
:103430000190CC03BF48C0490818C0494018800813
:10344000401E0A900B943089000600D4BEE0159807
:10345000006B204200D0B9E0B2480088C00700D01D
:10346000B4E056F77CF80027384600F03BFBAF4845
:10347000407C04287AD1129800F034FB179717A8E3
:10348000042147F725FF0028A84B6FD01298AC4ABB
:103490001060159910680028FCD1C869596A8842E3
:1034A00001D25F623946411ACA09997B182A01D8AC
:1034B00000295BD0002905D0986A401C986200F072
:1034C00097FB53E058629F49088807904888069008
:1034D00088880590C8880C4604901997F64818907B
:1034E00018A8FDF779FD039817302346218901407C
:1034F000F54A518361890140F34881832089019C09
:103500002040029908431881588920400843588177
:10351000A8895BF799FCEC4A0890538BEF48018926
:10352000214019430181938B418921400B9C194310
:10353000418151787F290ED00898431A59B2C91198
:103540004B40591A49B2052907DB916A491C91621F
:1035500000F04EFBDC4A08985070E0480699418024
:10356000059981800499C18007990180DD48C06B6D
:10357000297A012904D1002802D12F7200F048FCD9
:10358000288AA98A88420DD3287A01280AD12F8255
:10359000D5483946D54A3B4655F7FAFA49F764FB10
:1035A00000F054FC55F7DBFF1698C043C949097871
:1035B000C91E814203D80998CD49086043E7CC4A27
:1035C0001068411E1160002800DD3CE7FDF772FD28
:1035D000002800D137E772B617A9119A0A70BC48C3
:1035E00000790228104602D0B8480068406A189056
:1035F0002F4628373846BF4A5BF7DEFC002831D11A
:10360000BD48806A002803D0B0480068406A18901E
:1036100000F0C8FB18A938465BF704FD002821D14B
:1036200049F750FD00281AD048F754FA002816D060
:1036300018A85BF719FD002814D1012059F7B8FF2D
:10364000189A002A00D1DAE01598006AAB494018B0
:10365000DA28CB4B00D9D4E0521E1892D1E017A83B
:10366000002101709B4800780128169800D00F981F
:1036700017A90978042900D00846811E02292DD2F5
:10368000318A042739433182022831D00328109926
:1036900070D1934908683843086089490889129DA8
:1036A000A8430881708A102420437082708A3843AE
:1036B0007082FFF7A9FB708A204370820A989449B0
:1036C0000860EFF3108085F3108831880C9A9143DD
:1036D0003180002838D085F3108838E0012800D0E8
:1036E0008BE0FDF7E7FC002800D186E030BF84E0E6
:1036F0007B4908683843086071490889129A9043E9
:103700000881708A10218843708230E0244EFC07C3
:10371000448FFC079CB8FC07658734120002004008
:103720004CB9FC0720BAFC0780BAFC07E08EFC0706
:10373000FFFF1F00FC4700001001FC07030004F816
:10374000FC00004000150050002080F31088109904
:103750000B9C708D08420BD00020ED4948720B2065
:1037600059F758FF5749C88D129A1043C8851099C8
:1037700000203083708D084206D152490888139A80
:103780001043149A904308804D49088C139A1043B3
:10379000149A90430884B08C129DA843B0840D20E5
:1037A000FCF726FF708928430221884370817089C5
:1037B0004006FCD50E987080B08AC006714D02D5C7
:1037C0003E480D99018030BFB08A3E4A1088149B54
:1037D00018431399C94308401080394A108C184384
:1037E0000840108400F018F900203949C8703949A0
:1037F00008703B490868B843086062B623E60022B7
:10380000C34B188CE96A08182863159FF86B3C4B6A
:1038100018400843F863F86B3A490840696B89021D
:103820000143F96317A804210170F86B2A49084085
:10383000296B49050818F8633348824200D300BE5B
:10384000E949886CC96C002357F7B8FC0903000DDF
:103850004118686B821C8A4200D0481E1C490979B5
:103860004A1E914144F79CFE2848C06A804715993A
:10387000086B2042FCD01099D94F38680842FCD020
:1038800038680C99884338600C484089452805D829
:1038900046210A4A5181081AD34948633EF715FD6B
:1038A000B868D149086338680006FCD530890C999E
:1038B00088433081D6E6C046010400000033005042
:1038C0000403005052000050E08EFC0758B9FC077A
:1038D00020BAFC0780BAFC07FFFF1F00001500504C
:1038E00010ED00E07CBBFC07010800000BFE0000AF
:1038F0000449FC07F910FC071CBEFC07C8FEFFFFCB
:1039000000FCFFFFFF03E0FF40420F0000BFFC0789
:103910002000F40780B548F77AF900F057FB80BD26
:1039200080B549F7FAFA00F051FB80BD70B5144636
:103930000D460646D9480179012906D1007A0321AE
:1039400009020222002359F723FF30462946224666
:1039500047F7DBFE70BDC04680B5F348437B09489E
:10396000016A1848002259F7CFFD80BD80B5EE48A6
:10397000437B044920311348002259F791FD80BD53
:10398000E08EFC07244EFC0770B51E2816D10C48AB
:10399000101849080B4A0B0610D004684368083019
:1039A000002635460835382D06D096193669A642C8
:1039B0002E46F7D15419E360491EECE770BDC046AE
:1039C000D47EF807C48BFC0770B514460D46064636
:1039D000FFF71AFAFFF712FA28463146224657F740
:1039E0003DFCFFF703FA70BDF8B514460D460646D8
:1039F000002C0FD0FFF708FAB108012228465AF729
:103A0000D5FF0746FFF7F2F9002F03D0641E2D1DE6
:103A1000361DEDE7F8BD0000F8B5F84E0120009026
:103A2000F07500F057F9727A1B201E4959F74AFECB
:103A30001D4801888024214301801C48002707601D
:103A400059F7ABFD1A48082202800520000781883B
:103A5000214381800324E10103885B010B40418AFB
:103A6000144D0D40E9184182134807210180134D80
:103A7000AF802F8083202881307E002801D0717E86
:103A800003E00F4830830B21104622463EF70EFE1E
:103A90002C8100F04DF90B480188009A11430180F8
:103AA000F8BDC0463C50FC0700150050000008401F
:103AB000003300507FFE00008810005004100050BA
:103AC000080B00000C03005003480188034A114012
:103AD0008918091D0180704712000050FC7F00000A
:103AE0007047000080B50146ED480278012A0ED1EA
:103AF000084A002903D011884907FCD402E0118844
:103B0000490704D400210170403059F71FFA80BDE5
:103B1000E08EFC070016005070470000F0B58BB037
:103B20003022002181541F221204244B1D6895432A
:103B300001246204AA181A60224B234D4561234DCB
:103B4000234E244F244AC261066243621C4A8262A9
:103B5000C562224A07604260E0045C4A13688343FE
:103B60001360282903D001A84154491CF9E71D48D6
:103B70000068403001A9282257F770FBDE4D09206C
:103B800068735BF72DFDFFF7F1FEFFF7E5FE00F030
:103B9000F9F85BF763FD5BF775FD5BF7E7FCAC736A
:103BA00012480088072101402974FCF7C3FCFDF787
:103BB00067FA5BF72BFD0BB0F0BDC0467400004008
:103BC000193CFC07153CFC07793CFC0741F6F10762
:103BD000790EFC07753CFC071DF6F107193BFC0745
:103BE000000200404CB9FC07E08EFC07B810004012
:103BF00080B55BF7F5FCFFF7AFFE00F0C3F85BF7AD
:103C00002DFDFCF797FC1A485BF75AFD5BF7FEFCAD
:103C100080BDC046002070477047000080B51F205F
:103C2000000401218A07536F834348041818506722
:103C300010680721884310600C48018808220A4355
:103C400002805BF7CDFCFFF791FEFFF785FE00F0E9
:103C500099F85BF703FD5BF715FD05485BF740FD41
:103C60005BF7D4FC0F20FCF78DFC80BD08000050F2
:103C700070A0FC0770470000022902D0012900D083
:103C800000BE002802D0FF2804D000BE022901D1C6
:103C90000C207047E648407B7047C046E08EFC072A
:103CA00080B50A480168C90703D0016802220A43A7
:103CB00002600168490204D50121890502680A43AE
:103CC000026003485BF760F980BDC0460002004017
:103CD0001043FC0710B5D648C07D012815D0002838
:103CE0001BD159F785FE0024204659F737FD0028DF
:103CF00015D1012041022046224659F727FD142004
:103D0000FCF776FC0948048010BD084801210180B9
:103D10000020062259F75AFE10BD59F769FE0348E4
:103D20000121018010BDC046E08EFC070003005059
:103D300010B5074C2078002807D100200321024647
:103D40000B4600F0D1F90120207000F003F810BDFF
:103D5000308CFC0710B5E34C607D012200210B463E
:103D600059F716FDE07C217DA27C8A4203D1617D5A
:103D7000884200D110BD032109020222002359F715
:103D800007FD10BD80B55BF797F9C1204001F349ED
:103D9000497B09060818024908605BF707FA80BDED
:103DA00000100040F8B5642013490E5AEB4F3C6CEC
:103DB0003046604312494018124957F7D5F9054675
:103DC00038843C3666430E4830180E4957F7CCF914
:103DD000001D7A49C8622818C01D48630A4A127833
:103DE000022A01D111304863FFF74AF80749401809
:103DF00080B255F745FCF8BDC48BFC07E08EFC078C
:103E000020A1070040420F0080BAFC07E204000036
:103E1000BCB56A4C207A002800D0BCBD00202082AE
:103E2000A17901A80170E17941706179817044F74D
:103E30004BFF134DE86B002805D101A844F744FF60
:103E40000028F7D0FEE701202072BCBD10B55B4C06
:103E5000207A012808D0207A022805D0207A052867
:103E600002D0207A072807D10548C06B3EF783FCB3
:103E70000020014655F7BDF80020207210BDC04655
:103E80007CBBFC0705480188202291430180B3498F
:103E9000097B0907490F81847047C0460012005012
:103EA000E08EFC07B0B5AD48817D002900D0B0BDE3
:103EB00021490A88082313430B800A8803231343EC
:103EC0000B801C4906220A80FF2212060B4B1C683D
:103ED00094430122D50764191C60094B4B800023D1
:103EE0008B80084CC462CB80D003074B18600888D5
:103EF00010430880B0BDC046E08EFC070CE400E033
:103F0000204E0000913FFC0700E100E00120C103CA
:103F1000074A1160BFF34F8FBFF36F8F05490A88BF
:103F200082430A8004480188082291430180704737
:103F300080E100E0003400500400005010B5124849
:103F4000026801218A430260FF221206436813407F
:103F50000E4C1B194360836813408360036802247E
:103F6000A343036003680424A343036003680B4373
:103F700003600368DB03FCD5836813408360026839
:103F80008A43026010BDC04610E000E02F750000BB
:103F900010B5094C052020601920FCF729FB5BF7C0
:103FA0001FFB0648007A401FC0B2022803D88000D9
:103FB00003A10858206010BDAC100040244EFC073F
:103FC00000000000030000000000000010B5634C7A
:103FD0002079012808D105485AF74FFA207A0122A2
:103FE00000210B4659F7D4FB10BDC046001000500D
:103FF000024801880122914301807047041100505A
:1040000010B5564C607D00210A460B4659F7C0FB9F
:10401000E07C217DA27C8A4203D1617D884200D16F
:1040200010BD00210A460B4659F7B2FB10BDC04631
:10403000E08EFC07F0B587B0044690202849085868
:10404000069094200F5C454D286D6E6DA96D05910D
:10405000E96D0491294650310191098A03912206A4
:104060003CD02946FAB20A235343069AD3185A88F9
:10407000D50611D07F231A40761C0D464E65D30716
:1040800003D00499491C0491E965120721D50599CB
:10409000491C0591A9651CE0DA88002812D0451C4E
:1040A00002960E460D6503994143D0B20818294681
:1040B00057F75AF80199088280B20390284635468E
:1040C000029E06E001200D460865D2B201990392D6
:1040D0000A82641E7A1C07271740C0E707B0F0BDAC
:1040E000ACBAFC07E08EFC07F8B51D4616460C4638
:1040F00007460846FEF784FD2846FEF781FD174B6C
:104100005D751E75DC749F74D87D022811D0284619
:104110006040314679400143484248412146394395
:1041200001D0002805D0002801D1022000E00020A5
:10413000D875FFF7CFFDB7420BD1AC4209D1074884
:10414000047201220271002120460B4659F720FB20
:10415000F8BD002001490871F8BDC046E08EFC079B
:1041600010B51946FD2002020E48022354F710FD37
:10417000902141700024047048F776FD204610BD60
:1041800010B519460748084A032354F701FDFF21DB
:104190008170912141700024047048F765FD20462C
:1041A00010BDC0460108000001FD000002E008C883
:1041B000121F08C1002AFAD170477047002001E0A1
:1041C00001C1121F002AFBD170470000034880F391
:1041D000098800F025F8FBF79BFFC0464057FC0715
:1041E00004207146084203D0EFF309800A490847CA
:1041F000EFF30880084908477047042071460842D9
:1042000003D0EFF3098005490847EFF3088003491D
:1042100008477047FEE70000B90DFC07990CFC0742
:1042200080B5024858F734FB80BDC046A000FC07AB
:10423000000000000843FC07204EFC0701000100BD
:1042400001FC00006306FC0702FC00007D06FC0781
:1042500003FC00009906FC0705FC0000B506FC07FE
:1042600006FC0000CF06FC0707FC0000E906FC077F
:1042700008FC00000307FC0709FC00001D07FC0701
:104280000AFC00003B07FC0710FC00005507FC0778
:1042900039FC0000E907FC073AFC00002B08FC078A
:1042A00011FC00006D08FC0730FC0000A708FC07AB
:1042B00031FC0000D708FC0732FC00000709FC07AE
:1042C00035FC00002B09FC0736FC00008709FC07C1
:1042D00037FC0000B909FC0738FC0000310AFC0774
:1042E0003BFC0000830AFC0712FC00009707FC0758
:1042F00041FC00003306FC0742FC00001106FC07ED
:1043000005080000CD0AFC070043FC07010000007F
:10431000800000009B2BFC0702000000A92BFC077B
:10432000080000004D2BFC0700010000912BFC074A
:1043300000020000F5B0F00740000000FD82F00729
:10434000100000007F6FF00704000000C12BFC0785
:1043500001000000352BFC0720000000492BFC0762
:10436000000000000000000000FE0000C512FC0775
:1043700001FE00005D1DFC0702FE00000122FC079B
:1043800003FE00006D17FC0704FE0000FD16FC078D
:1043900005FE0000E517FC0706FE0000B918FC0743
:1043A00007FE0000D911FC0708FE00000D14FC07F1
:1043B00009FE0000F511FC070AFE00009D18FC072D
:1043C0000BFE00000920FC070CFE0000011FFC078B
:1043D0000DFE00001513FC070EFE0000D520FC07A3
:1043E0000FFE0000811FFC0710FE00004D1FFC07A0
:1043F00011FE00000919FC0712FE00008D14FC07D5
:1044000013FE00004D14FC0714FE0000A520FC075D
:1044100015FE00002D20FC0716FE00005D13FC07B2
:1044200017FE00001D16FC0718FE00003D1DFC07CE
:104430001AFE00006511FC071BFE00000D1DFC07A5
:104440001CFE00007512FC071EFE0000D51CFC07B8
:104450001DFE00006118FC0700FE07008148FC07F4
:104460009348FC0701FE07007C48FC0700000000A1
:1044700002FE07006848FC078948FC0703FE0700A6
:104480007248FC077248FC0704FE07018048FC07DD
:10449000712CFC0705FE0702512DFC077D48FC0727
:1044A00006FE07008F48FC078B48FC0707FE070045
:1044B000000000000000000008FE070000000000EF
:1044C0006E48FC0709FE07006B48FC078948FC079B
:1044D0000AFE07008348FC07000000000BFE0700EF
:1044E0007A48FC07000000000CFE07008148FC072A
:1044F000000000000DFE0700000000008648FC07D9
:104500000EFE07007D48FC07000000000FFE0700BC
:104510007D48FC070000000010FE070000000000BE
:104520000000000011FE07007648FC078948FC07E0
:1045300012FE07007348FC078148FC0713FE0700C2
:104540008148FC078148FC0714FE07006048FC070F
:104550006048FC0715FE07008148FC078148FC07FE
:1045600016FE0700000000008148FC0717FE070048
:104570006548FC078148FC0718FE07008148FC07D6
:104580008148FC071AFE07008148FC078948FC07A0
:104590001BFE07008148FC078148FC071CFE070042
:1045A0008148FC078148FC071EFE07008148FC0784
:1045B0008148FC071DFE07009748FC078148FC075F
:1045C0000000000000000000F4011600F43523484C
:1045D000F40108C4140A0000050000004057FC075D
:1045E000000400005093FC0764020000448FFC07A5
:1045F00000040000C095FC077005000020030000C7
:1046000000A60E0005000000D200000032000000ED
:104610003C0000000100000001000000020000005A
:10462000020000000400000003000000060000007B
:104630000000000002000000020000000000000076
:10464000000000000300000003000000050000005F
:1046500005000000060000000A0000000A0000003B
:10466000C8000000B80B000002000000B80B0000FA
:10467000B80B000010000000D4010000CC010000C5
:10468000700200006A000000040000000100000049
:10469000200000000A00000001000000E204000009
:1046A0008A020000DC050000AF0000004C48FC0757
:1046B000C446FC07000000005448FC07000000004E
:1046C00000000000A8B8FC07A0B8FC07B8B8FC07B9
:1046D000F8B8FC071D3BFC071D3CFC07790DFC07E7
:1046E00085B6F007290DFC07DDB6F007F5B6F00733
:1046F0002D39FC072DB7F007ADBAF00751BDF00713
:1047000091BBF007B1BBF007D1BBF0071539FC072F
:104710001FBCF00779D0F00735CEF00753CEF00775
:104720006FCEF00789CEF0079DCEF0072139FC0748
:1047300033CFF0077B8FF1070392F107F797F0076C
:104740006DCDF10751CEF1074DCEF10749CEF107FE
:104750008D21F007C93AFC071D2EFC075D2EFC07D2
:10476000B12EFC07A92EFC07BB70F007896FF0077C
:104770002970F007F965F1070122F10769F9F107DE
:10478000E9F9F107E13AFC07C9FAF10759FBF1072A
:1047900091FBF107000000007101FC078501FC0797
:1047A0009BA1F007595AF107C760F107FD64F107B3
:1047B000FD63F107D736F1076545F1075DF9F007AD
:1047C0000DDBF0074111FC0785AAF007599AF007A5
:1047D000D19AF0078D9BF007CF2DF007892EF007B7
:1047E0001D73F007E771F0078536F0070000000041
:1047F0004311FC074B11FC072B10FC07A785F107A1
:104800001B86F1079F86F1074510FC07000000009A
:104810000000000000000000000000000000000098
:104820000000000000000000000000000000000088
:104830000000000000000000000000000000000078
:10484000000000000000000000000000C845FC0758
:10485000188FFC07000000000000000000000000AE
:1048600031303042003242003342003442003636AA
:104870004200423642003137420042424242420048
:10488000484200424800484848480042424C0042E2
:104890004C4C004C4C4C004E554C4C00765F362E28
:1048A000302E32342E3134363400000000FD00004A
:1048B0006141FC0701FD00008141FC070C49FC0738
:1048C0001049FC0730070000BC41FC070C49FC07FD
:1048D0004050FC0700070000BC41FC07C08BFC07F0
:1048E000C08BFC0784030000BC41FC070000D0071C
:1048F0000800010048004F000800170001000100F7
:0C4900000000010164000000E001000064
:0400000507FC0111E2
:00000001FF
