:0200000407FCF7
:10000000B44BFC07ED3CFC07013DFC071B3DFC0726
:10001000353DFC07353DFC07353DFC07353DFC070C
:10002000000000000000000000000000353DFC075B
:100030000000000000000000353DFC07050CFC0737
:10004000D108FC072936FC07A526F007090CFC0798
:10005000610AFC07353DFC07A108FC07353DFC079C
:10006000AD08FC07353DFC079909FC07A309FC070F
:10007000AD09FC07B709FC07C109FC07C30BFC0766
:100080004D0CFC07353DFC07353DFC07353DFC07B5
:10009000353DFC07353DFC07353DFC07353DFC078C
:0800A0000000000090070E00B3
:0200000407FCF7
:100110000348854600F0B2FB004800471D27FC0756
:10012000B44BFC073EB50D4D6D1E14D002880A423B
:10013000FAD16D1E0FD002880A42FAD0084A13681D
:100140000124234313606D1E05D002880A42FAD1B0
:10015000044A10683EBD00203EBD0000C0C62D0010
:1001600010E000E018E000E0F0B50546007985B049
:1001700007073F0F284642F770FC02902879400697
:10018000C00F0390284642F768FC4448806A807993
:10019000012825D00126414840300079800775D5D7
:1001A000002E73D000222B2311463D485AF7A4FDA0
:1001B0000227077001263B4946700446C969A879A1
:1001C00088472A210855287900210007000FA070D0
:1001D00003005DF741F90737393B423F423D42009A
:1001E000029801902D4814300090002604680BE01E
:1001F000611D019842F747FD002804D02079B842DC
:1002000001D101261BE02468002CF1D1009842F7AF
:1002100030FD25490978884202D1244806780EE04D
:1002200000210C205AF75AFC04460622401D019971
:100230005DF7BEF827712146009842F74BFC01207C
:100240004640A8E7A1700AE0A67021E0032002E082
:10025000A77004E00420A07001E0012818D0A8884D
:10026000000A801FA072284642F7F7FB811D204636
:10027000A27A0B305DF79CF80622201D02995DF7EB
:1002800097F80398E07020464DF7B8FD05B0F0BD33
:10029000A172F1E7704770477047000074FBFC07DC
:1002A00004080000E4FEFC07A1F9FC07A2F9FC0722
:1002B00010B50F4903205AF71EFF002103205AF7FB
:1002C0004CFF10BD10B5044601230A4A00210A481C
:1002D0005AF712FD09498C4201D1032103E0084974
:1002E0008C4201D1002101704DF788FD10BD000046
:1002F000503DFC0711FC000001080000A5A5A5A5C4
:10030000C3C3C3C310B5FF22154901320A60BFF34E
:100310004F8FBFF36F8F13490A6013490B68402456
:100320001B0A1B0223430B601049898A0021C30763
:1003300000D03521830702D57D231B0219434307D3
:1003400002D575231B041943000702D53D20000682
:10035000014306482038016301488038026010BD1F
:1003600080E100E080E200E008E400E0A01000404E
:1003700010B50C460123FE4A0021FE485AF7BCFC8A
:10038000FD4A21781170002101704DF737FD0020E2
:1003900010BD10B5F64A0C460123921E0021F54807
:1003A0005AF7AAFCF549A2884A800A462388403AAF
:1003B000D387E2888A8062880A80002101704DF725
:1003C0001DFD002010BD10B51A4682230021E9480A
:1003D0005AF792FC112101704DF710FD002010BD5D
:1003E000E34A10B50123413A0021E2485AF784FC60
:1003F000112101704DF702FD002010BDDC4A10B53F
:100400000123403A0021DB485AF776FC11210170A4
:100410004DF7F4FC002010BD10B51A460223002150
:10042000D4485AF769FC112101704DF7E7FC002010
:1004300010BD10B51A4601230021CE485AF75CFCC6
:10044000112101704DF7DAFC002010BD10B51A46DD
:1004500001230021C7485AF74FFC112101704DF7C5
:10046000CDFC002010BD10B51A4682230021C148E2
:100470005AF742FC112101704DF7C0FC002010BD5D
:1004800010B51A4682230021BA485AF735FC0021DC
:100490004170112101704DF7B1FC002010BD10B565
:1004A0001A4601230021B3485AF726FC1121017096
:1004B0004DF7A4FC002010BDAD4A10B50823333A17
:1004C0000021AC485AF718FC0446031DC21C811CCD
:1004D000401C5AF7E9F90146002000290BD01121F0
:1004E00021706070A070E070A080E08020464DF721
:1004F00085FC002010BD2070F7E77FB50025084679
:1005000000950195103802955AF73BFC5AF7E1FB2C
:1005100000246E46039020465AF7D5FB61008919E6
:10052000641CE4B24880042CF5D3914A1023313A7C
:10053000002190485AF7E0FB6E461ECE1EC01038D0
:1005400005704DF75BFC012004B070BDF8B5884A1A
:100550000F4608230A3A002186485AF7CDFB884DFA
:100560000446286B6E12B0433043286385493888AF
:10057000496A88476060286BB04300212863388847
:100580006080217020464DF739FC0020F8BDF8B599
:10059000774A0D460423093A002176485AF7ACFB06
:1005A000774E0446306B7712B84338433063754A50
:1005B0002888926A69689047306BB843002130639D
:1005C00028886080217020464DF718FC0020F8BD77
:1005D00070B518460D46664A01460123323A654811
:1005E0005AF78AFB04462878002802D0012805D152
:1005F00001E0654800E0654842F7B8F81220207035
:1006000020464DF7FBFB002070BD10B518460C4688
:10061000574A01460823133A56485AF76DFB21887A
:1006200001229207891809684160218841800021D0
:1006300001704DF7E3FB002010BD10B518460C46C5
:100640004B4A01460423123A4A485AF755FB22887E
:1006500001239B07D2186168116021884180002125
:1006600001704DF7CBFB002010BD10B51C460846AD
:100670004BF789F93E4A0123113A21463D485AF782
:100680003BFB002101704DF7B9FB002010BD70B598
:100690000C8818461646032C00D30324CA788B789E
:1006A0001502522254433A4A1D431368E318FF339C
:1006B00001335D830B7911686118FF3101318A8B39
:1006C000120A12021A438A83294A014601230E3A6A
:1006D00028485AF711FB002101704DF78FFB0021CC
:1006E00030465AF73AFD002070BD10B588781C4698
:1006F000002801D0012200E000220888114646F7B8
:10070000FFF91B4A01230D3A21461A485AF7F4FA19
:10071000002101704DF772FB002010BD70B5184626
:100720000C46134A014601230C3A12485AF7E4FAE0
:10073000227852214A43164900230D685219FF328C
:1007400041325382227852256A430D685219FF3292
:100750004132938222785224096862435118FF3152
:100760004131CB82002101704DF748FB002070BD64
:1007700043FC000001080000A1F9FC07F4FBFC07A2
:1007800040000040E4FEFC07C3C3C3C3A5A5A5A564
:100790004CF9FC0770B518460C4601460123334A54
:1007A00033485AF7A9FA227852214A4331490023A3
:1007B0000D685219FF3241329381227852256A43E3
:1007C0000D685219FF324132D381227852240968D0
:1007D00062435118FF3141310B82002101704DF706
:1007E0000DFB0020C3E770B5184616460D461F4A9C
:1007F00001460123D21C1E485AF77EFA0446288877
:10080000032800D3032048F71DF9002805D0002154
:100810002170A9786430C17701E012202070204651
:100820004DF7ECFA002130465AF797FC00209EE77E
:10083000F8B50E4610491C4615460020C2008A5ADB
:10084000A24209D1C00040184768002F07D02A46AD
:1008500031461846B84702E0401C1828EED322461D
:100860003146284601F074FEF8BD000038FC000057
:10087000010800004CF9FC07603DFC07064C01250F
:10088000064E05E0E36807CC2B430C3C9847103438
:10089000B442F7D3FFF740FCF043FC072044FC07C9
:1008A00001480121018070470E150050074800885B
:1008B000010703D5D049CA89521CCA81C00703D099
:1008C000CD488189491C81817047C046B4100040E1
:1008D00010B5B54808210180134CA18B608B60F7DF
:1008E0001DFC5EF75EFF11484188890703D04188EF
:1008F000032291434180018880220A4302800189BA
:1009000004229143018181898907FCD541F709FDC2
:10091000A06A0749086007480168490700D500BE7A
:1009200001684907FCD510BD00CFFC070800005046
:100930000802004010000040F8B500250095134E55
:1009400013497160B560316804220A433260EFF3E5
:100950001084012787F310883946814089B20D48F9
:10096000FFF7E0FB00903068B8433060002C02D005
:1009700087F3108801E085F31088009841424141D7
:10098000DC4A91700249081AF8BDC04610E000E048
:10099000FFFFFF000030005080B50A2000F016F87D
:1009A00080BD80B50B2000F011F880BD80B50C2013
:1009B00000F00CF880BD80B50D2000F007F880BD78
:1009C00080B50E2000F002F880BD000010B504468E
:1009D0005FF7EEF8E0B2012181407248016010BD7E
:1009E000F8B5044601273E0205200507688DC005BD
:1009F00006D51B205EF712FF6C4801883943018041
:100A00008036288840013040698A694A0A4002439A
:100A10006A8221681148016061684160A168816053
:100A2000E168C1602169016161694161A169816118
:100A3000E169C161046260490A6842624A6882628F
:100A40008A68C2624A690263CA684263096981634B
:100A5000A88AC00600D4FEE700BEF8BD00F8FC0777
:100A6000024800884F481021016070472C13005045
:100A7000B0B5114D2888400602D52888800609D4D3
:100A80000E49086A0024002814D0CA69521CCA61A1
:100A900082420FD309480024C461281F046017480C
:100AA00000885EF763FE2888C00701D1012401E0B9
:100AB0004BF727FE2046B0BD141000507CFAFC070F
:100AC00080B54BF7F0FD0B48828980210A43828173
:100AD000027903781202D21814235343064A12886B
:100AE0001207D20ED218921C044B1A8082898A43B4
:100AF000828180BD00100050C0100050C0CBFC07A8
:100B0000F8B5044605200507288A042101432982F7
:100B10002889402101432981224801270760224872
:100B2000082101803E02688DC00506D51B205EF7B6
:100B300075FE1E48018839430180803628884001AF
:100B40003040698A1A4A0A4002436A822168194879
:100B5000016061684160A1688160E168C1602169EC
:100B6000016161694161A1698161E169C1610462F9
:100B700011490A6842624A6882628A68C2624A69A6
:100B80000263CA68426309698163A88AC00600D407
:100B9000FEE700BE688A094908404018001D6882C7
:100BA000F8BDC04680E200E00033005080000050F5
:100BB0007FFE000050F8FC0728ED00E0FC7F0000FD
:100BC000704770474B49CA6A002802D0824200D958
:100BD000C86A0A6B904200D9086B084A10804878AE
:100BE0000221814006484843002803D000BF00BFCF
:100BF000401EF9E77047C0464844FC070200005019
:100C0000F10600007047000010B50F4CA1880F20BE
:100C10000840022806D004280BD00C280CD001284C
:100C2000F4D110E020880221884320802088802190
:100C300006E002F071FFE9E702F06EFF2088012173
:100C400088432080E2E710BD0411005080B55EF7B4
:100C5000A8FD1948018809050CD518490A880523FB
:100C60001340052B06D10888042202430A80088815
:100C700001221EE00188C90606D511498A88D207DB
:100C800002D00A88120610D40088C0060CD50C4881
:100C90008188890708D50188C90505D50221818089
:100CA0000188084A0A40028080BD012088800888A7
:100CB00080229043088080BD040000500002005054
:100CC00000010050FFFE00007FB507A101AB1A46EE
:100CD00070C970C27C217A4A515A09091971C949EF
:100CE0000A3160F7D1F87FBD5BB00502000000005B
:100CF000320000004844FC0710B5016800290CD5FB
:100D0000036802680124A40700688000800C0019B1
:100D10005B0001D4028000E00270C80F10BDB0B5C6
:100D20000C460025202D04D041F7E9FD60556D1CCF
:100D3000F8E70020B0BD0000B0B5044609480A4DF0
:100D4000402229465CF734FB4835084830222946C2
:100D50005CF72EFB0648001B0649088014304880CB
:100D6000B0BDC04670E0FC077C37F207B0E0FC077E
:100D7000B8E0FFFF78E0FC07CF481E2141800188E2
:100D800003220A430280018804220A4302809E480B
:100D9000012101707047C04680B50D480078C0073A
:100DA00008D105205AF7EEF900280FD12A200A4968
:100DB000085C04E00748417D012907D1007D4142DC
:100DC0004141C21E50425041084380BD002080BDB9
:100DD000C5F9FC0714FDFC07BCFCFC0780B5034803
:100DE00001688948801C5EF713FA80BD3C44FC070B
:100DF000074801680A4A1278002A02D1054A1140C0
:100E000003E0054A1140054A891801607047C04651
:100E1000B810004077F7FFD577F7FFC08808002AA1
:100E200051CCFC07704780B55EF796FA80BDF8B5E7
:100E30006946C870020A8A70020C4A70000E087077
:100E400008465EF771FA8FBDBCB51C460D46B94821
:100E5000174A0223214659F74FFF04462A781548BE
:100E6000009005200625002A014600D02946002AC8
:100E70002A4600D0024610480088C00500D5114619
:100E8000684641700D490191FFF71EFF23205EF770
:100E90006DFC60F745F80A492A4660F7BDF805463B
:100EA00060F72EF8258020464CF7A8FF0020BCBD37
:100EB0001AFE000001050A002A000050000301018B
:100EC000C4CBFC0710B519469A48044A00242346AF
:100ED00059F712FF4CF792FF204610BD07FE0000A5
:100EE000FEB51C460F46F5481B4A0223214659F71A
:100EF00003FF044638780190B8780290FD787F7837
:100F000038465EF773FD064628465EF76FFD3040B3
:100F100001214140218020464CF770FF20880028A5
:100F200018D10E485EF722FC374EF07B0024214694
:100F3000224623465EF730FD707C2146224623463A
:100F40005EF72AFD01983946029A2B4602F05CFEB4
:100F500002F0E6FB0020FEBD09FE0000E2040000F6
:100F600010B51946D548054A012359F7C5FE002496
:100F700004704CF743FF204610BDC0461CFE000025
:100F800070B51D460E785F2E03D0332E0AD10C4863
:100F900006887F204202C9480423294659F7ACFE3F
:100FA000066009E00C467F204202F84804232946E7
:100FB00059F7A2FE217801604CF720FF002070BD98
:100FC0000200005010B51946F0480D4A082359F7A1
:100FD00093FE0446F048807902280ED102F01AFDF3
:100FE0000948816C2180416D6180016DA18048308C
:100FF000008AE08020464CF701FF002010BDC0466B
:101000000DFE00004844FC0700CFFC07F8B5194668
:10101000DE48264A0124234659F76EFE0546244E33
:10102000378827400FD130882043308030882821EE
:1010300001435020814331803088062101433180B3
:101040001C485EF793FB3088C00701D1FF2021E0E8
:101050000095194D68886C8028880821884328806D
:10106000288802210143A1432980288804210143C3
:10107000298000262888400706D5632E04D86420DE
:101080005EF774FB761CF5E72888400300B2C013B6
:10109000009D074E2870002F02D13088A043308079
:1010A00028464CF7ABFE0020F8BDC04616FE0000F7
:1010B00022000050400D03000016005070B5194684
:1010C000F0480C4A422359F717FE04460E250570D6
:1010D000801C094E31462A465CF76AF96570204645
:1010E000223031462A465CF763F920464CF786FEEB
:1010F000002070BD08FE0000D043FC07B0B51C46C0
:101100000D46E0480C4A0123214659F7F5FD0446F7
:101110002D7828465EF76AFC002803D028465EF743
:1011200059FC00E0FF20207020464CF767FE0020AD
:10113000B0BDC0460108000013FE0000F0B585B048
:101140000C46F1485E4A01261946334659F7D4FD4C
:101150000290A0780490E57820790190607903905E
:10116000277838465EF742FC62780021032A12D8BD
:101170007040920002A39B580A460C469F46C04608
:10118000AF11FC079111FC07A111FC07A911FC0785
:101190000122140206E0012044020022304606E04B
:1011A00001225402002202E003221402324600947B
:1011B000049B012B334600D80B46012D344600D842
:1011C0000C4603996429314601D814402146002970
:1011D000314600D11946002900D10646FF24002ED1
:1011E00063D1384601F032F9384601F04DF9019EDD
:1011F000002E17D0012D25D0002D029D56D131484B
:10120000418B0122914341835102002438462246FA
:1012100023465EF7C1FB0499481E814138465EF7BC
:10122000CDFB43E0681E4342434100243846009909
:1012300022465EF7B1FB0499481E814138465EF7AD
:10124000BDFB32E00325290217220024384623463D
:101250005EF7A2FB0499481E814138465EF7AEFB5B
:101260004F480188082211430180018829430180E9
:10127000144D688B10436883688B0421884368830E
:101280007D20C100714310485CF718F8401E28808B
:1012900028886C80411C0398484364215CF70EF851
:1012A000E881688B012101436983029D2C702846E7
:1012B0004CF7A4FD002005B0F0BDC04601080000B9
:1012C00012FE00000834005080841E00FEB50E4659
:1012D000B7482F4A012519462B4659F70DFD0290B4
:1012E0007478367830465EF781FB0746304601F069
:1012F000ADF8002E02D1274801210180022C00D335
:1013000000252F423BD0244F00200190F8713E72FF
:101310007C7201253D70F879387A03242602102268
:1013200031462B465EF738FBF879387A797A4A1ECF
:1013300091415EF743FBE943184802880A40028066
:10134000174A938B0B409383118808230B43138018
:1013500011882143118001990180FF210906114A5A
:1013600013688B43E90759181160E8364680868078
:101370000D49C180018829430180029802E0FF21C4
:10138000029801704CF73AFD0020FEBD01080000F4
:1013900017FE0000000300504844FC0700340050D2
:1013A000040000500CE400E0FFFF0000FEB51C4606
:1013B0000D467F48184AF223214659F79DFCAC7828
:1013C0001221002C22D03C2C20D82A88FF21C904CD
:1013D00055180190471D0094002C14D002AE042231
:1013E0002846314601F078FFF81E02990170B81EB8
:1013F00071780170781EB1780170F0783870641ED1
:101400002D1D3F1DE8E700210198009C44700170EC
:101410004CF7F4FC0020FEBD04FE0000BCB51C46E9
:101420000D466348184A0723214659F765FC0446D0
:1014300000200190009028782070032807D002280F
:101440001AD1611C1248062201F046FF14E06879A7
:10145000A97909020818019028790006E978090499
:101460000818A978090240186978401800900748C0
:101470006946022201F040FF20464CF7BFFC0020E5
:10148000BCBDC0460108000003FE0000D42F0000D0
:10149000D42FF807F0B585B01C460E4644481B4AC9
:1014A0000223214659F728FC0446002103910291AA
:1014B000B7781220002F1AD03C2F1DD8F51C0196AA
:1014C0003688002F15D0E8780006A9780904081896
:1014D00069780902401829784018029002A901226F
:1014E000304601F009FF7F1E2D1D361DE9E70F462E
:1014F00002E00198877800206770207020464CF742
:101500007DFC002005B0F0BD0108000005FE0000D4
:1015100010B5194626480A4A0124234659F7ECFB20
:10152000002101704CF76AFC06480821018006483A
:1015300044800521018001880906FCD1002010BDEE
:101540001DFE0000023300500031005010B5194656
:101550001748044A0024234659F7CEFB4CF74EFCAB
:10156000204610BD0AFE0000B0B51D460C46FD48E1
:10157000104A0823294659F7BFFB00214170227801
:101580000270032A10D861687A4412795200974495
:1015900001030609096803E0A2680A6004E00988FB
:1015A000416001E0A2680A804CF728FC0020B0BD31
:1015B0000108000006FE0000F0B589B01C460D468B
:1015C000FB48E94A0223214659F796FB044628784E
:1015D000F94EB77C012800D100E1002800D0B6E127
:1015E000E8785EF703FA002800D1AEE168795EF78B
:1015F000FDF9002800D1A8E1E8795EF7F7F90028A5
:1016000000D1A2E1687A5EF7F1F9002800D19CE1EF
:10161000687B002805D0E87B5EF7E8F9002800D158
:1016200093E1E878D54EB0476879B047E879B0479C
:10163000687AB047687B002802D0E87B00F006FF9C
:10164000A8780028DC4E02D1E87800281AD0287942
:10165000002802D16879002814D0A879002802D186
:10166000E87900280ED0287A002802D1687A00286C
:1016700008D0687B002809D0A87B002806D1E87B29
:10168000002803D10120B07401F0E8FFE8780023BE
:10169000B64A0B28194601D84000815A68790B28B0
:1016A000049302D84000805A04900391E8790B28F3
:1016B000194601D84000815A0291697A0B291846CF
:1016C00001D84800805A0190E87B0B2801D84000DF
:1016D000835A0593A6488171297A417101780122C4
:1016E00006921140027992080E2313405918317363
:1016F0005EF74CFEE8780321090208911C220023C2
:1017000007939F4EB04768791A2207990B469C4E63
:10171000B047E8791B220899079B994EB047687A31
:101720001D220899069B964EB047687B002806D07C
:10173000E87B06994902002213465EF72DF9687886
:1017400001280CD1E87A0890AE7A02F081F930468F
:101750005EF75EFE08985EF75BFE5EF74BFE02F0FA
:101760009DF9AE7A02F074F9802030435EF750FEA6
:1017700000205EF74DFE06465EF73CFEF0B220808C
:10178000687B002807D04B2080005DF7EFFFE87BE7
:101790005EF720F92080E8780B28874E734902D83D
:1017A0004000039A425268790B28059A02D84000FB
:1017B000049B4352E8790B2802D84000029B435215
:1017C000687A0B2802D84000019B4352A87B0B2863
:1017D00001D8400042525EF7A7FDB8E068795EF795
:1017E00005F9002800D1B0E0E8785EF7FFF800289E
:1017F00000D1AAE0687B002805D0E87B5EF7F6F808
:10180000002800D1A1E0687900F020FEE87800F01F
:101810001DFE687B002802D0E87B00F017FE2879C7
:10182000002802D1687900280ED0A878002802D1BB
:10183000E878002808D0687B002809D0A87B002819
:1018400006D1E87B002803D10120B07401F006FF27
:10185000E878002245490B28134601D84000435A36
:1018600068790B28164601D84000465A0696079319
:10187000A87B0B2801D84000425A0892297B3C489B
:10188000818208305EF7CEFFE878002609223146D3
:101890005EF760F868790A2231465EF75BF801204E
:1018A0004602687B002805D0E87B002231461346BB
:1018B0005EF772F8334668782F4E01280ED1E87A29
:1018C000A97A32885207FCD52A4A11801843108021
:1018D00030884007FCD530888006FCD402F0DEF862
:1018E000A87A31884907FCD5224A10803088400701
:1018F000FCD50320000210801C4930898006FCD0F2
:101900001088C0B22080687B002808D04B2080005F
:101910005DF72CFFE87B5EF75DF814492080E878DE
:101920000B28AE4E02D84000079A425268790B2825
:1019300002D84000069A4252A87B0B2802D84000E9
:10194000089A42525EF7D4FF01E0FF202080B7746E
:1019500001F084FE01F0AEFE20464CF74FFA002065
:1019600009B0F0BD0108000011FE00000630005073
:101970002044FC0710130050701300504D24FC0746
:1019800099F9F107B0B51D460C46E448094A012310
:10199000294659F7B1F905462078E649887401F0DF
:1019A0005DFE00242C7028464CF728FA2046B0BD76
:1019B000010800001EFE000000CFFC07B0B51D4668
:1019C0000C46E748074A0123294659F795F90025AF
:1019D00005704CF713FA20780349087040F730FE81
:1019E0002846B0BD1BFE000050CCFC0710B51946C0
:1019F000DB48054A012359F77FF9002404704CF7AE
:101A0000FDF9204610BDC04618FE0000F8B50E4690
:101A10005148524D012419462A46234659F76CF97C
:101A2000002707704CF7EAF94AF799FE3078022848
:101A300016D0012807D0002800D08BE05148C7708D
:101A40005348077086E002F06FF846480770B07898
:101A500071780A46024357D14A48022101715EE07B
:101A600002F062F83E490820009008803D490F705E
:101A700072B63D4EB28904210A43B281B2888023F6
:101A80009A43B280B38840221343B380374B198006
:101A90003388374818403080F843364B1860308A16
:101AA000C006FCD47E35F0892840F081E543324BF6
:101AB000988828409880314807680F430760B08AAB
:101AC00020430227B843B082B08A0843009FB8433E
:101AD000B082B0892043B0811888284018800F2038
:101AE00080029D8A05439D82A0039D8A05439D82B5
:101AF000F08CC005224D17D4A8882043A8802888E0
:101B000060229043288017E01E4A14711E4A4A43FF
:101B100019218901414388181C49096848621948FC
:101B2000C4701B48047015E02888202404439443A3
:101B30002C80988A10439882988A032202439A82C2
:101B4000988A38439882988A8843988200BF00BF59
:101B500000BF30BF0020F8BD0208000001FE0000F9
:101B60000033005052CCFC0704000050000200502B
:101B7000FFF7000080E200E00C03005010ED00E0F1
:101B80005200005018FAFC070077010058F9FC07D2
:101B900078FAFC07BCB51C460D46B3480E4A002334
:101BA000214659F7A9F804462878B54D2871A87937
:101BB00000280BD15F48483012215BF712FC2979CD
:101BC00001A8017048F727FA0220A87120464CF7B7
:101BD00015F90020BCBDC0460CFE000000CFFC077C
:101BE000B0B51946A0480A4A0024234659F784F89C
:101BF0000546A3488079052808D101F037FF01F098
:101C000009FF9D48046028464CF7F8F80020B0BD55
:101C100010FE00007CB51C460D4693481D4A00236B
:101C2000214659F769F804462878954E307168784E
:101C3000F070B079002828D101AD25206870307986
:101C40002870F078A870FFF7D3F8284648F769F9AC
:101C50000120C20388490B6813430B6082030B68A1
:101C600093430B6002030B6893430B600A680A4BB3
:101C700013400B600521B17101027D4A1160BFF371
:101C80004F8FBFF36F8F7D49087020464CF7B6F831
:101C900000207CBD0FFE000000FEFFFF80B508782D
:101CA000774A1071487850718878D07008790002AE
:101CB000C9784018108201F08FFE002080BDC04618
:101CC000B0B50C461548164A012519462B4659F75A
:101CD00013F82178052900D8002505704CF78EF8F7
:101CE0004AF73DFD7D205DF741FD2078052804D8A9
:101CF0000CA1095C0DA2105C01E00B2108200D4A2B
:101D00001175D074032240F7D1FC0024204640F71F
:101D100029FD40F7EFFC2046B0BDC0460108000099
:101D200015FE00000301060B0001000068341108D5
:101D3000011A000000CFFC0770B50C46FC48094AA8
:101D4000642519462B4658F7D7FF064621462A46F2
:101D50005BF72EFB30464CF751F8002070BDC046B3
:101D60000108000014FE0000FEB50E46F0483F4A90
:101D7000002519462B4658F7BFFF044630785428F3
:101D80002ED0522812D04F286CD101F06FFE3C4E5D
:101D9000B079062858D007285AD101F03BFE01201F
:101DA000C00735490A6882430A6051E001252802CC
:101DB0002F490860BFF34F8FBFF36F8F7678FFF71F
:101DC00017F802A8067048F726F92A48401C2A4945
:101DD0000A6802430A60294805702948072131E052
:101DE0000127380222490860BFF34F8FBFF36F8F7E
:101DF00070780190FEF7FCFF224D2846FEF77CFF2D
:101E00000C20061D342E05D02818FEF775FF00287B
:101E10003046F6D13820061D582E05D02818FEF77A
:101E20006BFF00283046F6D1174803210170174890
:101E3000019A1018164A1060164801600F48077082
:101E40000F48062181710AE0124805605FF7D8FB50
:101E5000012000021049086010490860B571204651
:101E60004BF7CCFF0020FEBD010800000EFE000075
:101E700080E100E0FFFFFF7FE000004051CCFC0765
:101E80004844FC0770E0FC070510004000016209AF
:101E900004300040AC10004000E100E080E200E0CF
:101EA000F0B58DB01A460D46A148A24E0223114648
:101EB0003246059358F720FF0446297807291BD896
:101EC0006878AA78120212187944097949008F4477
:101ED00015181B2E394403039749FE2809905DD13C
:101EE00000200E460C2853D00A880F231340012BE4
:101EF00052D0891C401CF5E70026D1E18F480088AC
:101F000030E08E4802802CE08C48018A01221202C7
:101F100080320A40802A06D1418AC906FCD47D3627
:101F2000018A3140018203200002401D17E026464D
:101F300090B2FF210C1A81490B8800209C420ADBD9
:101F40009A1807E026467D490B8894B20020A342E8
:101F500001D39A1A0A80344604E0012040027649EF
:101F60004881002020800026FD49C87B0A7C8B7BAD
:101F7000934205D1497C884202D100200990BAE100
:101F8000032109020222002309935DF705FDB2E156
:101F90000C200990FF2000E009903146C7B20026CE
:101FA0000C2F01D3304601E0780040180B2F04902D
:101FB0002ED8029506880998C5B2284600F046FA40
:101FC000284600F061FA002D0DD1F148817B0029EF
:101FD00009D1C07B002806D1012041020020024621
:101FE00003465DF7D9FC0394012000900002049998
:101FF00008800299897800220C920B9201920A9231
:10200000002907D001293FD1AF229300D64A03E02F
:10201000042043E1D34AFA23D44D0A24EC622B6313
:10202000AA63EC6314222A646E226A64EA6AEA6490
:102030002A6B2A656970696C69630B2F24D8B90013
:1020400001A251588F46C0467920FC079120FC0719
:10205000A120FC07B120FC07C120FC07D120FC0710
:10206000E120FC07F120FC070121FC071121FC07FE
:102070002121FC074121FC0703210902B74B1A88E3
:102080008A4302431A8062E0029D039C019805E1A5
:1020900003210902B14B5A888A4302435A8056E011
:1020A00003210902AD4B9A888A4302439A804EE08D
:1020B00003210902A94BDA888A430243DA8046E009
:1020C00003210902A54B1A898A4302431A813EE083
:1020D00003210902A14B5A898A4302435A8136E0FF
:1020E000032109029D4B9A898A4302439A812EE07B
:1020F00003210902994BDA898A430243DA8126E0F7
:1021000003210902954B1A8A8A4302431A821EE070
:1021100003210902914B5A8A8A4302435A8216E0EC
:10212000032109028D4B9A8A8A4302439A820EE068
:102130000108000002FE00000630005002000050BE
:1021400003210902854BDA8A8A430243DA82039C1F
:10215000686BFEF737FD3846FEF7EEFB0A900A98EB
:10216000A96B884205D30A98A96B401AE96B88428B
:1021700019D90A98A96B884205D2A86B0A99401A06
:10218000E96B88420FD90A98A96B884213D9286D48
:102190000790286DFEF716FD3846FEF7CDFB0C9034
:1021A0000020089012E034352868411C74D0801C4F
:1021B000029D5FD06AE7E86C0890E86CFEF702FDCC
:1021C0003846FEF7B9FB0B900020079000240696D6
:1021D0000A9AAB6B686B0A999A4202D90B910890E4
:1021E00001E00C9107903D466048806B0B9B0BA96A
:1021F0000CAA0C9EB3420B4600D313461B680B9EE1
:102200000C9FBE4200D811460A68D11A121A089EC5
:102210000798801B50435BF767F88019534E706333
:10222000706BFEF7CFFC2F4635463846FEF784FB31
:102230000A900A98B16B8842069E05D30A98A96B4A
:10224000401AE96B88420DD9601C0A99AA6B914229
:1022500005D2A96B0A9A891AEA6B914202D9092C14
:102260000446B5D3A878002806D00020FEF7AAFCC3
:10227000029D039C059811E00A98A96BEA6B891AE4
:102280008842039C05D30A98A96BEA6B51188842CF
:1022900053D90020FEF796FC029D009820802978F3
:1022A000FE200840062822D1022030431F21014091
:1022B00003291CD1069603942E462E4C25460998D8
:1022C000C7B238465DF786FB002804D06D1CF6D3F4
:1022D00001E0641C04D238465DF77CFB0028F8D08E
:1022E0007D2000015DF742FA3546039C069E099861
:1022F000000600D138E620464BF780FD2878FE2105
:102300000140062916D1022030431F210140032934
:1023100010D1194D0998C4B220465DF75BFB002827
:1023200003D1681E29040546F6D10498002801D07F
:102330000498068000200DB0F0BD0D480088A86408
:10234000A86CE96A884202D8A86C0028A4D1A86CBD
:10235000296B8842A0D2483526E7C0460630005097
:1023600000CFFC0700127A00007C92004844FC0772
:1023700002000050E708C9FFB68C000080B559F78D
:102380001BFA49F78EFEE2480121417380BDC04629
:1023900000CFFC0700BE704780B50E48006868217A
:1023A000415A52224A430C4909688918AF22520007
:1023B000895A090A6830C07D081AC0B201F0CCFB06
:1023C000002047F73DF8D248042141735FF718F920
:1023D00080BDC04648FBFC074CF9FC0780B50120D6
:1023E00047F72EF880BD80B549F75BFEFEF7C4FCC9
:1023F00080BD000080B504480068B021405C01F059
:10240000ABFB47F769F880BD58F9FC0780B50D486C
:1024100001880122914301800B480078C00702D156
:1024200040F750F904E0002040F79CF940F762F9CA
:1024300059F7A6F940F704F9FEF79EFCB4480021CD
:10244000417380BD08330050C5F9FC070C490A8868
:1024500002280DD0D205920F052801D1012A07D0FC
:10246000012801D1022A03D00A2808D1032A06D163
:102470004888C006FCD40888024A02400A80704797
:10248000120000507FFE000080B5002814D1A04843
:10249000817C022910D0C17B827B13460B4301D182
:1024A00002238374037C934204D1427C8A4201D18B
:1024B0000121817401F0D2F880BDC046FEB51446FA
:1024C000002918D005460127002B17D0CA182388E9
:1024D000002D18D0087828706E1C0220002B0FD019
:1024E00002938B1C93420AD84B783370029B012BCA
:1024F0000ED8AE1C04E00021084602E02E46384605
:10250000711B2180FEBD881C012690423046F7D801
:102510008E1C48788006000E029031463018AE1CA2
:102520009042ECD8002D0CD0E81801903046029F64
:102530003A465AF73DFFF0190199884203D8002026
:1025400002E0002001E00120400002997618D7E760
:1025500070B51346024600200E4C102808D0255AAC
:102560009D4201D00830F8E720184468002C0DD1B6
:102570000020094C0546F02D0AD0665B9E4201D032
:102580000835F8E764196468002C01D01846A047A4
:1025900070BDC046E043FC07883EFC07FEB514460C
:1025A000002905D005460120022B04D22E463FE02B
:1025B000002088213DE02288AF18002D09D0029725
:1025C0000E784F786F702E70012A06D8AE1C02204C
:1025D0002EE0032B05D202262AE0032B03D2AE1CE9
:1025E00026E08A7805E08A78AA70EE1C029FBE4237
:1025F000EDD80297CB180193C91C9206120E8B18C6
:102600000093EE1C019B009F9F4211D8002D09D022
:10261000304617465AF7CCFEF019029A904204D879
:10262000002003E00020174601E001204000F619D9
:10263000711B2180FEBD000080B535480930094975
:102640005EF720FB80BDC04680B502205EF736FAFB
:1026500080BD000080B52E48093002495EF766FA59
:1026600080BDC046AC44FC0770B5174EB06800F0A2
:102670002DF82749CA6A0023CB621518084C284652
:1026800021465AF71BFE706106494143481901D0A3
:10269000201A80B23061306808210143316070BD7A
:1026A000710200008FFDFFFF80B506480021016028
:1026B00001F05CF90120C00703490A6882430A60FF
:1026C00080BDC0469CF9FC073000004080B5024642
:1026D000C00B09D00E48C06B00210B465AF718FEFC
:1026E0008905800A401880BD0948C06B4243900AA2
:1026F00080BDC04680B5FFF7E9FF80BD80B50449C5
:10270000896B41430348081803495AF7D7FD80BD38
:1027100000CFFC0720A1070040420F0000B5A1B088
:10272000FA4808210F460180F94E308817AC208006
:102730002088C046C04620880422D1430842149213
:1027400002D00020308003E0B08901218843B081AD
:102750003446F04D28883E4638432880012108023F
:102760000F46169111902C305DF700F86888802193
:102770000A91084368800F208102A28B0A43A2833A
:10278000E98D06239943E985B903A28B0A43A28305
:102790002988E14A0A402A806988079319430B96E1
:1027A000B1436980052109910E07728DDB4BFF3320
:1027B000E98D19407D23DB000703D00508931397AB
:1027C0001AD5184618300143E985E88DD4490140EF
:1027D000169BD8030818E885A08B0B9A1043A0839A
:1027E000A08B14998843A083E88D9843E885A08B3B
:1027F00040210143A1831FE0032042021143E985E8
:10280000E98D3943E985A18B0B9B9943A183A18B6A
:1028100004229143A1836988C24A0A406A80698878
:10282000C14A0A40C00210186880E88D1699084312
:10283000E885708D4007FCD5A08B032110910843DB
:10284000A083B44A108820210E9108434021884378
:102850001080308F0221159108433087B348149FB0
:102860000780B088B2490140B180B24D169CAC706F
:102870002004B1490860FFF7EDFEFFF7E5FEAF4821
:102880000068C1B20C20AA29014600D0394632881E
:10289000824388183080C046C046A9480088A88670
:1028A000A848006828632046C046C0468827A64836
:1028B0000025C55318ACA5A1242220465AF778FD5F
:1028C000AB49A1482A4623465CF7D0FD9E4BD85D14
:1028D000C10701D000BED85D4008D8558920195CD9
:1028E000CA07089A01D000BE195C4908195484200F
:1028F000195A002900D11A528621585A002816D197
:10290000FF2002028D4800681040352212029042DA
:1029100009D00D229202904203D03322120290423B
:1029200004D1942000E09020585200E00020814F14
:1029300078835CF785FC7F207870804880698D49BA
:102940008861FFF779FE8C49888850220D921043E8
:10295000AF220C929043888088480068884988425A
:10296000099B00D0C7E0874887495AF73AFD0720FE
:102970000590010285485AF734FDFDF78DFC844827
:1029800084490160844885492A225AF711FD844808
:102990000027C771877147710771C77087704770CB
:1029A0003F21069101707F487FA140220F925AF784
:1029B000FFFC8D48C771877110994171FF2101712A
:1029C000C1708170417001700920420187488849B7
:1029D0005AF7EEFC1720C0431297139D1699002852
:1029E0000DD082490A182723DB00D21881A10B18C9
:1029F000183392CB92C2129F16990C30EFE7119BBD
:102A00003833824A1E2000280FD014907748194688
:102A1000C3181446A1CCA1C314980B46139D129F52
:102A20001699401E0C330C32EDE739200A465A49FC
:102A300048856E48C86276480270764876490160DB
:102A400076487749016077497748086077480A21D6
:102A500001707748077077480999016076480260ED
:102A6000764801607648079901607648059C0460C5
:102A700075480B9901607549424808601198801D9E
:102A8000734908607349086000F09AFC5CF706FB24
:102A90005CF74AFBFF35F08C284061020143F1846A
:102AA0005CF75EFB354800686B4A354988426748E9
:102AB0003C46304F00D1E8E000689060B869B874D7
:102AC000010E7975010C3975000AF8741198C0303F
:102AD00062490A46002800D1C4E0401E435C1578D4
:102AE0002F46109C2740234CE719BF7C5F406F4066
:102AF0001770521CEEE75A4858495A02954200D9BD
:102B000031E72A586A502D1DF7E7C04600330050C0
:102B10000403005052000050FFBF000000F0FFFF10
:102B2000FF0F0000FFF90000FFC700000002005087
:102B3000FFF7000000CFFC0780E200E0D02FF8078D
:102B4000D82FF807D42FF807C4CBFC07A933FC070C
:102B50007D33FC072933FC07000000005533FC07D8
:102B6000A132FC0700000000D02EF807C02FF807A4
:102B7000A000FC074844FC07001500509CF8FC0727
:102B80006587341200E0FC07AC14000000F9FC0774
:102B900024FAFC07E040FC07C8F9FC075CDEF107FB
:102BA000A4F9FC073CFCFC072000800000C00000EA
:102BB00000000400000028220000000000000400C3
:102BC00000F7FFFF7F00000030F007080000000062
:102BD00000040000000000000000000000000000F1
:102BE0000000000000000000ACF9FC0754CCFC071A
:102BF00024DDF10700FD0700B543FC07B143FC07E6
:102C000001FD0700B543FC079C43FC07783FFC0728
:102C1000C5F9FC0750F9FC07E036F20754F9FC0748
:102C20000042FC0758F9FC07F840FC07A1F9FC0733
:102C3000A2F9FC075CF9FC0760F9FC0764F9FC07E2
:102C400068F9FC076CF9FC0770F9FC074CF9FC0704
:102C500048F9FC0744F9FC07000200405CCFFC0780
:102C600000F0FC07EA4F3D465435EA491C2228464D
:102C70005DF71AF9002800D000BE28465CF754FB27
:102C8000E548E6490160129CE54800683FF7E2FA32
:102C9000E4480471C470169DA9070868119A10438E
:102CA00014910860FEF768F8284600F0EBFBBC7151
:102CB0001598F8703C712520787132203882D948F7
:102CC000C470D9480470FC81D848483012215AF7A2
:102CD00088FBD748401CD74A116801431160F08A2D
:102CE0000A9908430F998843F082FFF7DDFC0F2013
:102CF000FDF708FB68020290069880020190E80345
:102D00001390CD48CD490818CD4940188008401E81
:102D10000990119C3089000600D4D9E01498006B0A
:102D20001399084200D0D3E0BE480088C00700D005
:102D3000CEE058F7BEFC0025284600F0A3FBBB48B8
:102D4000407B042800D093E0169800F09BFB179579
:102D500017A8042149F7FCFA002800D188E016984A
:102D6000B849086008680028FCD11498C069AF49C8
:102D7000096A884202D2AD490D622946411AC90941
:102D8000192975D3A94F3862AF4908880790488838
:102D9000069088880590C88804901995AB481890CB
:102DA00018A8FDF791FF08981730A74A118901402C
:102DB000F9825189014039831089019F3840029975
:102DC0000843108150893840084350815EF750F91C
:102DD00003908F494989F84AD28AF94803893B40D0
:102DE00013430381F44A128B43893B4013434381CD
:102DF000089F0398401A39464143002804DCF84AEA
:102E00008918C017084001E078189630F5495AF73C
:102E10006BFA82091932E84F78787F281DD0101A92
:102E200041B2C9114840401A40B2082816DBE24FAF
:102E3000786A401C786203925EF7CCFB00F00EFAD1
:102E400000F088FC5EF704FC5EF78AFBDD4870301A
:102E50005EF730FC5EF7D4FB039A7A70D848069987
:102E60004180059981800499C18007990180D34FE1
:102E7000DD48806DB979012904D1002802D1BD71E6
:102E800000F0AAFDF889398A88420DD3B879012863
:102E90000AD1FD81D5482946D54A2B4657F72CFF44
:102EA0004AF7ACFF00F0B6FD58F703FC1598C04395
:102EB000C8490978C91E814203D86420CD490860F9
:102EC00028E7CC4A1068411E1160002800DD21E788
:102ED000FDF762FF002800D11CE772B617A9129A0D
:102EE0000A70BB4800790228104602D0B648006834
:102EF000406A18903D461C352846BF4A5EF750F997
:102F0000002831D1BD48806A002803D0AE4800684F
:102F1000406A189000F02AFD18A928465EF776F955
:102F2000002821D14BF798F900281AD049F714FE50
:102F3000002816D018A85EF78BF9002814D10120BC
:102F40005CF73AFC189A002A00D1D2E01498006A83
:102F5000AB494018DA28C04D00D9CCE0521E189277
:102F6000C9E017A8002101709A4800780128159837
:102F700000D0109817A90978042900D00846811EAE
:102F800002292CD2318A042529433182022830D0EB
:102F9000032872D191490868284308608449088948
:102FA000169CA0430881708A102738437082708A6B
:102FB00028437082FFF74EFB708A3843708209986D
:102FC00093490860EFF3108084F3108831880A9ADF
:102FD0009143318000283BD084F310883BE00128E6
:102FE00000D084E0FDF7D8FE002800D17FE030BF9C
:102FF0007DE07A490868284308606D490889169A77
:1030000090430881708A10218843708233E0C04663
:103010004844FC075CCFFC079CF8FC07658734122A
:103020004CF9FC0718FAFC0778FAFC0700CFFC07FC
:10303000FFFF1F0000020040304300001001FC07AA
:10304000030004F8FC0000400015005001040000DB
:10305000002080F31088708D119C2042574F0AD0B9
:1030600000207D4948720B205CF7D8FB5149C88D80
:10307000169A1043C88500203083708D204208D1F5
:103080004C4A9088169908439080108860218843A4
:103090001080B08C169CA043B0840D205CF766FBBA
:1030A00070892043022188437081B08AC00602D50E
:1030B0003E480B99018030BFB08A3E4908880E9A7D
:1030C00010430F9A9043088000F07AF9E04988880D
:1030D0000D9A10430C9A9043888000203C49C87098
:1030E0003C4908703D490868A8430860119C62B6D5
:1030F00010E60022EE4DA88B396A0818786238482D
:103100007E30149DEB6B03400B43EB63E86B3D4952
:103110000840B96A89020143E96317A804210170D4
:10312000E86B2D490840796A49050818E863364874
:10313000824200D300BEDE4D286C696C00235AF732
:10314000E7F80903000D4118B86A821C8A4200D0D2
:10315000481E1F4909794A1E914146F72DFB2B480D
:10316000C06A80471499139A086B1042FCD0174A22
:1031700010682042FCD010680A99884310600B4800
:103180004089452804D84621084A5181081AE86236
:103190003FF79BF80D498868A86208680006FCD5CF
:1031A00030890A9988433081DEE6C04600330050FA
:1031B000040300505200005000CFFC074844FC07B5
:1031C0000015005000E0FC0758F9FC070002004021
:1031D00018FAFC0778FAFC07FFFF1F0010ED00E06B
:1031E00082FBFFFFFC08000074FBFC0701080000E5
:1031F0000BFE00003844FC07DD0DFC0700FEFC0759
:10320000C8FEFFFFFF03E0FF40420F00E4FEFC07A3
:103210002000F40780B549F73CFD00F069FC80BD53
:1032200080B54AF744FF00F063FC80BD70B51446DA
:103230000D4606469E480179012906D1007A0321F0
:103240000902022200235CF7A7FB304629462246EA
:1032500049F79CFA70BDC04600CFFC0710B5C54CBD
:103260002078401C20700D490968C3B253480022E1
:103270005CF74EFA2078401E207010BD10B5E94C66
:103280002078401C2070C3B24C48044900225CF7EF
:103290000BFA2078401E207010BDC046B044FC07D9
:1032A00070B51E2816D13F4810184908434A0B062E
:1032B00010D0046843680830002635460835382D9C
:1032C00006D09619366BA6422E46F7D15419E36202
:1032D000491EECE770BDC04670B514460D46064663
:1032E000FFF7B8F9FFF7B0F92846314622465AF7FA
:1032F0005FF8FFF7A1F970BDF8B514460D46064614
:10330000002C0FD0FFF7A6F9B108012228465DF77F
:1033100089FC0746FFF790F9002F03D0641E2D1D8E
:10332000361DEDE7F8BD000070B50C461D481118BC
:103330008925224E705DC00030183030A2005AF747
:1033400037F8705D00197055C0B20D2800D300BE6B
:1033500070BDC0461348115809234B431058000C48
:103360001A1A1204D214154B60331A8489B2401A07
:103370000104890C0818401CD883704770B50C46AE
:103380000848111888250D4E705DC0003018A20045
:103390005AF70EF8705D00197055C0B20D2800D3B1
:1033A00000BE70BDD42EF80788001018024940589E
:1033B0007C21024A50527047D02EF807C4CBFC073C
:1033C000F8B5E34E01200090B07400F047F9727A2E
:1033D0001B201E495CF77AFA1D480188802421438E
:1033E00001801C48002707605CF7DBF91A480822B7
:1033F0000280052000078188214381800324E101A8
:1034000003885B010B40418A144D0D40E91841824D
:10341000134807210180134DAF802F80832028811E
:10342000F07C002801D0317D03E00B213175F2746E
:10343000104622463FF73AF92C8100F03BF90A4842
:103440000188009A11430180F8BDC046AC44FC07D6
:103450000015005000000840003300507FFE0000BF
:1034600088100050041000500C03005003480188DD
:10347000034A11408918091D01807047120000504D
:10348000FC7F000080B50146B1480278012A0ED1C8
:10349000084A002903D011884907FCD402E01188AA
:1034A000490704D40021017038305BF773FE80BDFA
:1034B00000CFFC070016005070470000F0B58BB03D
:1034C0003022002181541F221204204B1C68944397
:1034D0000122550464191C601E4C1F4D45611F4D8F
:1034E0001F4E204F204BC36106624462184B83621B
:1034F000C5621E4B07604360D004564A136883437D
:103500001360282903D001A84154491CF9E7184841
:103510000068403001A9282259F74AFF4148082194
:1035200001705EF757F8FFF7A9FEFFF797FE00F06E
:1035300011F95EF78DF85EF79FF85EF711F82548F0
:103540005EF7D8F85EF75CF80BB0F0BD7400004091
:103550007D35FC077935FC070136FC073516F20787
:10356000C10BFC07D935FC07DB35FC07B934FC0778
:103570004CF9FC0750CCFC07002070477047000056
:1035800080B51F20000401218A07536F834348043C
:103590001818506710680721884310600C4801888C
:1035A00008220A4302805EF715F8FFF767FEFFF76F
:1035B00055FE00F0CFF85EF74BF85EF75DF8054872
:1035C0005EF788F85EF71CF80F20FCF79BFE80BDC5
:1035D0000800005070E0FC07704780B5E62800D373
:1035E000E620282800D82820FF22EC3242437D2004
:1035F000C100104659F762FE7E38C0B280BD00009F
:10360000022902D0012900D000BE002802D0FF28E4
:1036100004D000BE022901D10C207047C6480078B2
:103620007047C04650CCFC0780B50A480168C907FE
:1036300003D0016802220A4302600168490204D5EE
:103640000121890502680A43026003485DF790FD85
:1036500080BDC04600020040303EFC0710B5D9488E
:10366000807C012815D000281BD15CF7C5FA002406
:1036700020465CF777F9002815D101204102204649
:1036800022465CF767F914205CF770F8084804805C
:1036900010BD074801210180002006225CF79AFA3C
:1036A00010BD5CF7A9FA02480121018010BDC04697
:1036B0000003005010B5184C2078002828D1174876
:1036C0000078062822D8C046784400794000874414
:1036D000031D070B0E12170000200123014612E004
:1036E0000221002003230EE00020032105E0042135
:1036F0000020052307E00020052102460B4603E0D9
:10370000062100200723024600F07EFA01202070E7
:1037100000F006F810BDC04652CCFC074044FC0740
:1037200010B5FB4C607C012200210B465CF734F99C
:10373000E07B217CA27B8A4203D1617C884200D15C
:1037400010BD03210902022200235CF725F910BDF8
:1037500000CFFC07FCB57F200102644842698A4320
:103760000B21090251184161016889B2604A891828
:10377000016081695F4A0A40826103210191090267
:10378000026B0A430263818F10220A438287818879
:1037900001220092114381805748584901605849DD
:1037A000088810430880574D28461038564EB18B74
:1037B00001401520440108195030B0837069534905
:1037C0000140534808187061B0695249014009200E
:1037D00040020818B06130684F4901404F4808184E
:1037E000306070684E4901404E4808187060B068FB
:1037F0004D4901404D480818B060F0684C490140FF
:103800004C480818F060C12040014B49097809066E
:1038100008184A4908600520820249490A80571D54
:103820008F800F8B34203843CB27B8430883088C14
:1038300055270743AA2087430F84FF276C37384654
:10384000C93008853F4B18460E3088853E480886AB
:103850008B860A3008870A323285B06B3B490140BB
:103860003B480818B0633B480780028F2A40214636
:10387000203152180287384E32882A40D219D53268
:103880003280B2882A401219B28032892A405118F7
:103890003181394621318180304801882940091918
:1038A00060310180018A17220A4308218A4302827B
:1038B000818A19220A4306218A43828207841F4A89
:1038C000908F2749014000984003081890870C4AC0
:1038D000106C01990843042188431064506A2149FF
:1038E0000140214808185062FCBDC046203000400D
:1038F00000006666FF00FEFF8000004059055C077F
:10390000401000401FFCFFFF042000400000E0FFCB
:1039100009581A00FEE1FFFFE0E00000080929490C
:1039200000000303696A686C031FFFFF70600000FA
:10393000E0E0E0E00B0A0A0850CCFC070010004071
:1039400028130040260A00004E0800002304E0FE71
:10395000181A06010012004044120040881200406C
:10396000FF9F000000FE00FE50015001F8B58420CA
:1039700013490E5AC14FBC6B304660431249401880
:10398000124959F79BFC0546B8833C3666430E48FE
:1039900030180E4959F792FC001D2B49086228186F
:1039A000C01D88620A4A1278022A01D11130886249
:1039B000FEF78CFE0749401880B257F70BFFF8BDA1
:1039C000C4CBFC0700CFFC0720A1070040420F003A
:1039D00078FAFC07E2040000BCB51B4CA079002873
:1039E00000D0BCBD0020E081217901A8017061797F
:1039F0004170E178817046F794FA144DA86D002863
:103A000005D101A846F78DFA0028F7D0FEE701207E
:103A1000A071BCBD10B50C4CA079012808D0A079CC
:103A2000022805D0A079052802D0A079072807D15F
:103A30000648806D3EF79FFE0020014657F78DFB3C
:103A40000020A07110BDC0464844FC0774FBFC0771
:103A5000054801882022914301808849097B090794
:103A6000490F81847047C046001200500120C103F5
:103A7000074A1160BFF34F8FBFF36F8F05490A8864
:103A800082430A80044801880822914301807047DC
:103A900080E100E0003400500400005010B51248EE
:103AA000026801218A430260FF2212064368134024
:103AB0000E4C1B1943608368134083600368022423
:103AC000A343036003680424A343036003680B4318
:103AD00003600368DB03FCD58368134083600268DE
:103AE0008A43026010BDC04610E000E02F75000060
:103AF00010B5624C2079012808D106485CF7F9FD21
:103B0000207A012200210B465BF746FF10BDC0461C
:103B100000CFFC07001000500248018801229143A9
:103B2000018070470411005010B5544C607C002196
:103B30000A460B465BF730FFE07B217CA27B8A4282
:103B400003D1617C884200D110BD00210A460B469A
:103B50005BF722FF10BDC046F0B587B00446902049
:103B600028490858069094200F5C444DA86CEE6CD0
:103B7000296D0591696D0491294648310191098AA1
:103B8000039122063CD02946FAB20A235343069AEF
:103B9000D3185A88D50611D07F231A40761C0D46BB
:103BA000CE64D30703D00499491C049169651207B8
:103BB00021D50599491C059129651CE0DA88002862
:103BC00012D0451C02960E468D6403994143D0B233
:103BD0000818294659F772FB0199088280B20390B0
:103BE00028463546029E06E001200D468864D2B282
:103BF000019903920A82641E7A1C07271740C0E7C6
:103C000007B0F0BDA4FAFC07F8B51D4616460C46F1
:103C100007460846FEF71AFC2846FEF717FC174B26
:103C20005D741E74DC739F73987C022811D0284643
:103C3000604031467940014348424841214639437A
:103C400001D0002805D0002801D1022000E000208A
:103C50009874FFF703FDB7420BD1AC4209D1074876
:103C6000047201220271002120460B465BF794FE8C
:103C7000F8BD002001490871F8BDC04600CFFC071F
:103C800010B51946FD2002020E48022357F734F8FA
:103C900090214170002404704AF7B0F8204610BD0E
:103CA00010B519460748084A032357F725F8FF219E
:103CB000817091214170002404704AF79FF82046DA
:103CC00010BDC0460108000001FD000002E008C868
:103CD000121F08C1002AFAD170477047002001E086
:103CE00001C1121F002AFBD170470000034880F376
:103CF000098800F025F8FCF70BFAC046B44BFC0726
:103D000004207146084203D0EFF309800A490847AE
:103D1000EFF30880084908477047042071460842BD
:103D200003D0EFF3098005490847EFF30880034902
:103D300008477047FEE70000010BFC07E109FC079C
:103D400080B502485AF7C8FE80BDC046A000FC07F7
:103D500000000000283EFC074444FC07010001006D
:103D600001FC0000C703FC0702FC0000E103FC07A4
:103D700003FC0000FD03FC0705FC00001904FC0720
:103D800006FC00003304FC0707FC00004D04FC07A0
:103D900008FC00006704FC0709FC00008104FC0724
:103DA0000AFC00009F04FC0710FC0000B904FC079B
:103DB00039FC00004D05FC073AFC00008F05FC07AC
:103DC00011FC0000D105FC0730FC00000B06FC07CD
:103DD00031FC00003B06FC0732FC00006B06FC07D0
:103DE00035FC00008F06FC0736FC0000EB06FC07E4
:103DF00037FC00001D07FC0738FC00009507FC0796
:103E00003BFC0000E707FC0712FC0000FB04FC077A
:103E100041FC00009303FC0743FC00007103FC0716
:103E2000050800003108FC07203EFC0701000000E7
:103E300080000000E723FC0702000000F523FC07D8
:103E4000080000009923FC0700010000DD23FC07A7
:103E50000002000075C1F007400000003794F00731
:103E600010000000C97BF007040000000D24FC07CF
:103E7000010000007D23FC07200000009523FC07C3
:103E8000000000000000000000FE0000810FFC07A1
:103E900001FE00000D1AFC0702FE0000A11EFC0737
:103EA00003FE00001D14FC0704FE0000AD13FC0718
:103EB00005FE00009514FC0706FE00006915FC07CE
:103EC00007FE0000C50EFC0708FE0000BD10FC0741
:103ED00009FE0000E10EFC070AFE00004D15FC077C
:103EE0000BFE00009D1CFC070CFE0000951BFC0750
:103EF0000DFE0000C50FFC070EFE0000691DFC074B
:103F00000FFE0000151CFC0710FE0000E11BFC0763
:103F100011FE0000B915FC0712FE00003D11FC0760
:103F200013FE0000FD10FC0714FE0000391DFC0705
:103F300015FE0000C11CFC0716FE00000D10FC075A
:103F400017FE0000CD12FC0718FE0000ED19FC075B
:103F50001AFE0000490EFC071BFE0000BD19FC07FD
:103F60001CFE0000610FFC071EFE00008519FC0707
:103F70001DFE00001115FC0700FE0700B543FC07FD
:103F8000C743FC0701FE0700B043FC070000000028
:103F900002FE07009C43FC07BD43FC0703FE07002D
:103FA000A643FC07A643FC0704FE0701B443FC0735
:103FB000BD24FC0705FE07029D25FC07B143FC0755
:103FC00006FE0700C343FC07BF43FC0707FE0700CC
:103FD000000000000000000008FE070000000000D4
:103FE000A243FC0709FE07009F43FC07BD43FC07F3
:103FF0000AFE0700B743FC07000000000BFE0700A5
:10400000AE43FC07000000000CFE0700B543FC07B0
:10401000000000000DFE070000000000BA43FC078E
:104020000EFE0700B143FC07000000000FFE070072
:10403000B143FC070000000010FE07000000000074
:104040000000000011FE0700AA43FC07BD43FC0767
:1040500012FE0700A743FC07B543FC0713FE070049
:10406000B543FC07B543FC0714FE07009443FC0767
:104070009443FC0715FE0700B543FC07B543FC0756
:1040800016FE070000000000B543FC0717FE0700FE
:104090009943FC07B543FC0718FE0700B543FC072E
:1040A000B543FC071AFE0700B543FC07BD43FC07F8
:1040B0001BFE0700B543FC07B543FC071CFE0700C9
:1040C000B543FC07B543FC071EFE0700B543FC07DC
:1040D000B543FC071DFE0700CB43FC07B543FC07B7
:1040E0000000000000000000F4011600F435234831
:1040F000F40108C4140A000005000000B44BFC07DA
:104100000004000068D3FC07B00200005CCFFC078D
:104110000004000024D6FC07700500002003000006
:1041200000A60E0005000000D200000032000000D2
:104130003C0000000100000001000000020000003F
:104140000200000004000000030000000600000060
:10415000000000000200000002000000000000005B
:104160000000000003000000030000000500000044
:1041700005000000060000000A0000000A00000020
:10418000C8000000B80B000002000000B80B0000DF
:10419000B80B000010000000D4010000CC010000AA
:1041A000700200006A00000004000000010000002E
:1041B000200000000C00000001000000E2040000EC
:1041C0008A020000DC050000AF0000008043FC070D
:1041D000F041FC07000000008843FC0700000000DD
:1041E0000000000000000000000000005E01000070
:1041F000A8F8FC07A0F8FC07B8F8FC07F8F8FC07DB
:10420000BD34FC078135FC07C10AFC0703C7F00772
:10421000710AFC075FC7F00777C7F0072D32FC076C
:10422000AFC7F00731CBF007D5CDF00715CCF007BD
:1042300035CCF00755CCF0071532FC07A3CCF007BE
:104240000DE2F007C9DFF007E7DFF00703E0F00752
:104250001DE0F00731E0F0072132FC07C7E0F0076E
:10426000E3B0F1076BB3F10707A9F007B5EFF1076A
:1042700099F0F10795F0F10791F0F1078D21F00722
:104280006D34FC076926FC07A926FC07FD26FC0700
:10429000F526FC07057DF007D37BF007737CF0075C
:1042A000AD82F1074134F1075D19F207DD19F2071C
:1042B000811AF207BD1AF2074D1BF207851BF207A0
:1042C00000000000B102FC07C502FC077DB3F00747
:1042D000D976F107617DF107B181F1079780F10788
:1042E000C549F1079759F107F10AF107A1ECF00769
:1042F000250EFC076901FC07DDBAF00725AAF007C7
:1043000099AAF00749ABF007E72DF007A32EF007B5
:10431000657FF0072F7EF0070136F00700000000F0
:10432000270EFC072F0EFC071F0DFC0701A7F10746
:1043300083A7F10707A8F107390DFC07B5B7F00708
:10434000000000000000000000000000000000006D
:10435000000000000000000000000000000000005D
:10436000000000000000000000000000000000004D
:10437000000000000000000000000000000000003D
:10438000E840FC0730CFFC07000000000000000000
:10439000000000003130304200324200334200342D
:1043A0004200363642004236420031374200424235
:1043B00042424200484200424800484848480042C1
:1043C000424C00424C4C004C4C4C004E554C4C0066
:1043D000765F362E302E32342E31343634000000E3
:1043E00000FD0000813CFC0701FD0000A13CFC0732
:1043F0004044FC074444FC0770000000DC3CFC0720
:104400004044FC07B444FC0700070000DC3CFC0708
:10441000C0CBFC07C0CBFC079C030000DC3CFC07C6
:104420000000D0070800010048004F0008001700F6
:10443000010001000000010164000000E001000033
:0400000507FC0111E2
:00000001FF
